:020000040800F2
:10000000980F0020A101000889230008D1020008F0
:1000100085230008E3020008A12E0008000000006C
:1000200000000000000000000000000001260008A1
:10003000D1030008000000008B230008D12600082F
:10004000BB010008BB010008BB010008BB010008A0
:10005000BB010008BB010008BB010008BB01000890
:10006000BB010008BB010008BB010008BB01000880
:10007000BB010008BB010008BB010008BB01000870
:10008000BB010008BB010008BB0100080D0300080C
:10009000E9020008BB010008BB010008BB01000821
:1000A000BB010008BB010008BB010008BB01000840
:1000B000D5270008BB010008BB010008BB010008F0
:1000C000BB010008BB010008BB010008BB01000820
:1000D000BB010008C92C0008BB010008BB010008D7
:1000E000BB010008BB010008BB010008BB01000800
:1000F000BB010008BB010008BB010008BB010008F0
:10010000BB010008BB010008BB010008BB010008DF
:10011000BB010008BB010008BB010008BB010008CF
:10012000BB010008BB010008BB010008BB010008BF
:10013000BB010008BB010008BB010008590300080F
:100140001D030008BB010008BB010008BB0100083B
:10015000BB010008BB010008BB010008BB0100088F
:10016000BB010008BB010008BB010008BB0100087F
:10017000BB010008BB010008BB0100080000000033
:10018000BB010008BB010008DFF810D000F08EF8BA
:10019000004800478F400008AFF30080980F002010
:1001A0000648804706480047FEE7FEE7FEE7FEE711
:1001B000FEE7FEE7FEE7FEE7FEE7FEE77127000841
:1001C000890100082DE9F05F0546002092469B4614
:1001D00088460646814640241BE02846414647465D
:1001E000224600F053F853465A46C01A914110D3A4
:1001F00011461846224600F03AF82D1A67EB01081E
:100200004F4622460120002100F031F817EB00098B
:100210004E41201EA4F10104DFDC484631462A4647
:100220004346BDE8F09F40EA01039B0703D009E085
:1002300008C9121F08C0042AFAD203E011F8013BD2
:1002400000F8013B521EF9D27047D2B201E000F82B
:10025000012B491EFBD270470022F6E710B513466A
:100260000A4604461946FFF7F0FF204610BD202A33
:1002700004DB203A00FA02F1002070479140C2F1FD
:10028000200320FA03F3194390407047202A04DB2F
:10029000203A21FA02F00021704721FA02F3D040FF
:1002A000C2F120029140084319467047064C074DA1
:1002B00006E0E06840F0010394E807009847103436
:1002C000AC42F6D3FFF764FFD0410008F0410008CC
:1002D0001EF0040F0CBFEFF30880EFF3098001F06C
:1002E000D3BE00BFFEE7000010B5034800F0C9FB15
:1002F00002A002F0D7FD10BD6C09002043414E3131
:1003000020525830204952510D0A000010B50248C1
:1003100000F0B7FB10BD00006C0900201CB50020E8
:1003200000900190064800F0ACFB6B46054A0021A6
:10033000034800F0E8FA04A002F0B4FD1CBD000080
:1003400094090020BC09002043414E32205258300D
:10035000204952510A00000010B5024800F091FBFC
:1003600010BD00009409002010B504460CB90E48D9
:1003700010BD012C01D10020FAE7022C01D1002090
:10038000F6E7032C01D10020F2E7042C01D1002074
:10039000EEE7052C01D10020EAE7E72103A000F0F9
:1003A000B5F80020E4E70000400100202E2E5C2E6E
:1003B0002E5C557365725C6273705C7372635C6211
:1003C00073705F756172745F6669666F2E6300009B
:1003D000704700001CB50027B846002603F02BFE2E
:1003E0004FF4FA71002003F077FD68E0002002F07E
:1003F000C7FF10B1012003F0DDFC684603F086F86A
:1004000000285CD0BDF80000032857D12C480478A0
:100410002C480069010C22462BA002F043FD242C3D
:1004200013D1274840782E4908602E4970182C496E
:100430000A682349891C03F09DFD29480068064489
:10044000314629A002F02EFD00BF232C01D101F07E
:100450004DFF2A2C31D11A4840781949897800EB90
:1004600001201749C97800EB01401549097900EBD3
:10047000016020490860084600681F4908601D485F
:100480000068470C1B480068C0F310081948016851
:100490001AA002F007FD002505E0124A02EB4540D4
:1004A00003F010F86D1CBD42F7D3B8F1000F04D073
:1004B0000C4A02EB454003F005F800BF00BF95E78A
:1004C0001E000020D809002073697A65203D202590
:1004D000642C20636D64203D2025630D0A0000001C
:1004E0003C00002000F000083D3D3D3D3D25640DF1
:1004F0000A000000440000203000002066696C659E
:1005000073697A65203D2025640D0A0001B97047A2
:1005100000BFFEE710B5002201B909E0012901D1B1
:100520000A0205E0022901D10A0201E04FF44072FB
:100530000E4B1B6823F440730C4C236023461B684E
:100540001343236023461B6823F0F80323602346EC
:100550001B68022444EAC0042343044C236023465E
:100560001B6843F48033236010BD0000103C024040
:100570001C48006800F40070B0B11A48006820F40C
:1005800000701849086000BF0846006840F4006029
:1005900008600846006820F40060086000BF084654
:1005A000006840F4007008600E48006800F4806045
:1005B000B0B10C48006820F480600A49086000BFB0
:1005C0000846006840F4805008600846006820F43F
:1005D0008050086000BF0846006840F480600860F2
:1005E00070470000003C02400A4A126822F4407240
:1005F000084B1A601A46126842F004021A601A4642
:1006000012684FF4803343EA00231A43014B1A6007
:1006100070470000103C0240074A126822F4407202
:10062000054B1A601A4612681A601A46126842F0A0
:1006300001021A6001707047103C024010B5094970
:10064000096821F44071074C21602146096841F492
:10065000407121602146096841F00101216002607A
:10066000436010BD103C0240084A126822F44072F8
:10067000064B1A601A46126842F480721A601A46D3
:10068000126842F001021A6001807047103C02407B
:10069000084A126822F44072064B1A601A46126821
:1006A00042F400721A601A46126842F001021A609F
:1006B00001607047103C02402348006800F01000C1
:1006C00040B12248C06940F010002049C8611020A4
:1006D0001D4908601C48006800F0200040B11B481C
:1006E000C06940F008001949C86120201649086017
:1006F0001548006800F0400040B11448C06940F05F
:1007000004001249C86140200F4908600E48006883
:1007100000F0800040B10D48C06940F002000B4974
:10072000C8618020084908600748006800F002009E
:1007300040B10648C06940F020000449C861022069
:1007400001490860704700000C3C0240380B002053
:1007500070B50446002500201449C86100F0F2FF7E
:10076000054609E0601C38B124B100F0EBFF401BE6
:10077000A04201D9032070BD0D48006800F480300C
:100780000028EFD10A48006800F0010010B10120F4
:10079000074908600648006800F0F20018B1FFF74A
:1007A0008BFF0120E7E70020E5E70000380B002081
:1007B0000C3C024010B5024692F82030012B01D0CB
:1007C000022B06D11068406908431468606100205C
:1007D00010BD506A40F4802050620120F8E700000C
:1007E000F0B504460A46216894F82050012D01D046
:1007F000022D7ED1424901F50071086840F00100E8
:100800000860086820F47C5008600868566A40EA6E
:1008100006200860107D00F01F06012000FA06F394
:10082000C8699843C861A1F50071D069C8B9D1F809
:100830000C029843C1F80C02908880B2968940EA75
:10084000064601F51070576940F83760108880B28D
:10085000168940EA064601F51070576900EBC7009B
:100860004660D069012819D1D1F80C021843C1F8AB
:100870000C02908880B2168840EA064601F5107096
:10088000576940F83760908980B2168940EA064679
:1008900001F51070576900EBC7004660906928B9F0
:1008A000D1F804029843C1F8040204E0D1F804022C
:1008B0001843C1F80402106928B9D1F8140298430A
:1008C000C1F8140204E0D1F814021843C1F814026C
:1008D000106A012804D1D1F81C021843C1F81C0287
:1008E000D1F8000220F00100C1F800020020F0BDA4
:1008F000FFE7606A40F4802060620120F7E70000B3
:1009000000640040704770B5044694F82050012DF3
:1009100001D0022D7CD151B92068C06800F00300DD
:1009200080B9606A40F400106062012070BD2068E8
:10093000006900F0030028B9606A40F400106062AA
:100940000120F3E7206800F5D87000EB0110006883
:1009500000F004009060906840B9206800F5D870FD
:1009600000EB01100068400D106007E0206800F502
:10097000D87000EB01100068C0085060206800F5D6
:10098000D87000EB0110006800F002004008D06051
:10099000206800F5D87000EB0110406800F00F00EF
:1009A0001061206800F5D87000EB0110406800F479
:1009B0007F40000A9061206800F5D87000EB0110BC
:1009C0004068000C5061206800F5D87000EB011001
:1009D00080681870206800F5D87000EB01108068FE
:1009E00000F47F40000A5870206800F5D87000EBD2
:1009F0000110806800F47F00000C9870206800F5FA
:100A0000D87000EB01108068000ED870206800E0FC
:100A100031E000F5D87000EB0110C0681871206853
:100A200000F5D87000EB0110C06800F47F40000AA8
:100A30005871206800F5D87000EB0110C06800F410
:100A40007F00000C9871206800F5D87000EB011051
:100A5000C068000ED87131B92068C06840F020002D
:100A60002668F06005E02068006940F020002668F4
:100A7000306100205AE7606A40F480206062012003
:100A800054E72DE9F05F0446002520684669206898
:100A9000D0F80490206887682068D0F80CA02068FF
:100AA000D0F810B02068D0F8188006F001000028B7
:100AB00055D007F00100C0B101202168886007F01F
:100AC000020018B1204600F0ABFB0EE007F0040076
:100AD00010B145F4006508E007F0080010B145F4D6
:100AE000805502E0204600F099FB07F48070C8B101
:100AF0004FF480702168886007F4007018B12046B8
:100B000000F0D0FB0EE007F4806010B145F4005512
:100B100008E007F4006010B145F4804502E020468B
:100B200000F0BEFB07F48030C8B14FF4803021687C
:100B3000886007F4003018B1204600F0F5FB0EE0A5
:100B400007F4802010B145F4004508E007F40020C8
:100B500010B145F4803502E0204600F0E3FB06F0DA
:100B6000080038B10AF0100020B145F400751020DB
:100B70002168C86006F0040040B10AF0080028B1FE
:100B800008202168C860204600F064FA06F00200E0
:100B900038B12068C06800F0030010B1204600F0B2
:100BA0008DFA06F0400038B10BF0100020B145F48A
:100BB000806510202168086106F0200040B10BF02C
:100BC000080028B1082021680861204600F0C0FA1A
:100BD00006F0100038B12068006900F0030010B181
:100BE000204600F0B7FA06F4003040B109F01000DA
:100BF00028B1102021684860204600F0DFFA06F492
:100C0000803040B109F0080028B108202168486010
:100C1000204600F0C9FB06F4004088B309F0040048
:100C200078B306F4807020B108F0010008B145F0F7
:100C3000010506F4007020B108F0020008B145F08B
:100C4000020506F4806020B108F0040008B145F008
:100C5000040506F40060A0B108F0700088B108F047
:100C60007000402817D006DC10280BD020280CD0AC
:100C7000302819D10CE0502810D0602814D110E091
:100C80001DE019E045F008050FE045F010050CE007
:100C900045F0200509E045F0400506E045F08005F7
:100CA00003E045F4807500E000BF00BF2068806964
:100CB00020F07000216888610420216848602DB10F
:100CC000606A284360622046FFF71CFEBDE8F09F83
:100CD00070B504460CB9012070BD94F8200010B91D
:100CE000204600F0AFF82068006820F0020021687C
:100CF000086000F027FD05460DE000F023FD401BD5
:100D00000A2808D9606A40F400306062052084F83F
:100D100020000120E0E72068406800F00200002881
:100D2000EBD12068006840F001002168086000F005
:100D300009FD05460DE000F005FD401B0A2808D915
:100D4000606A40F400306062052084F820000120D1
:100D5000C2E72068406800F001000028EBD0207E48
:100D6000012806D12068006840F0800021680860F2
:100D700005E02068006820F0800021680860607E3F
:100D8000012806D12068006840F040002168086012
:100D900005E02068006820F0400021680860A07E1F
:100DA000012806D12068006840F020002168086012
:100DB00005E02068006820F0200021680860E07EDF
:100DC000012806D12068006820F010002168086022
:100DD00005E02068006840F0100021680860207F6E
:100DE000012806D12068006840F0080021680860EA
:100DF00005E02068006820F0080021680860607F36
:100E0000012806D12068006840F0040021680860CD
:100E100005E02068006820F0040021680860D4E93B
:100E20000201084321690843616908436168491E5A
:100E300008432168C86100206062012084F8200016
:100E4000002049E710B586B004467C4920688842F6
:100E500077D100BF002000907948006840F0007012
:100E6000774908600846006800F00070009000BFF5
:100E700000BF00BF002000900846006840F080607E
:100E800008600846006800F08060009000BF00BF66
:100E900000BF002000906A481038006840F0010050
:100EA0006749103908600846006800F001000090AA
:100EB00000BF00BF00BF002000900846006840F05F
:100EC000020008600846006800F00200009000BFC1
:100ED00000BF881401900220029003900920059021
:100EE00001A9584800F028FB4FF40060019002204F
:100EF000029004900920059001A9524800F01CFBC3
:100F00004FF40060019001200290002004900390B3
:100F100001A94D4800F010FB00204C490860002258
:100F20001146142000F075FC142000F062FC002231
:100F30001146132000F06DFC132000F05AFC7BE0FA
:100F4000FFE743492068884276D100BF0020009027
:100F50003B48006840F080603949086008460068F6
:100F600000F08060009000BF00BF00BF0020009034
:100F70000846006840F0806008600846006800F09D
:100F80008060009000BF00BF00BF002000902C4890
:100F90001038006840F002002949103908600846FE
:100FA000006800F00200009000BF00BF00BF0020FA
:100FB00000900846006840F002000860084600689B
:100FC00000F00200009000BF00BF4FF400500190FD
:100FD0000220029003900920059001A91A4800F010
:100FE000ABFA4FF480500190022002900490092047
:100FF000059001A9144800F09FFA4FF40060019099
:101000000120029000200490039001A90E4800F0F6
:1010100093FA00200D49086000221146402000F09C
:10102000F8FB402000F0E5FB002211463F2000F0D5
:10103000F0FB3F2000F0DDFB06B010BD0064004077
:10104000403802400000024000040240AC824042AE
:101050000068004010B504460648844202D106A04C
:1010600001F020FF0C48844202D10CA001F01AFFCD
:1010700010BD00006C09002043414E3120666966B6
:101080006F30E695B0E68DAEE68EA5E694B6E6BB8B
:10109000A15C720A000000009409002043414E3216
:1010A000206669666F30E695B0E68DAEE68EA5E601
:1010B00094B6E6BBA15C720A0000000010B50446BD
:1010C0000F48844215D10FA001F0ECFE154B164AD3
:1010D00000210B48FFF717FC1348006840F211117C
:1010E000884206D11048806818B90021032002F018
:1010F00085FE0E48844202D10DA001F0D3FE10BD42
:101100006C09002043414E3120E68C81E7BBADE6FF
:101110008EA5E694B6E695B0E68DAE6669666F304C
:101120000D0A00001E000020D809002094090020AC
:1011300043414E3220E68C81E7BBADE68EA5E694B6
:10114000B6E695B0E68DAE6669666F300D0A0000B2
:101150007047000010B504460648844202D106A03C
:1011600001F0A0FE0C48844202D10CA001F09AFECE
:1011700010BD00006C09002043414E3120E68C81F7
:10118000E7BBADE68EA5E694B6E695B0E68DAE6615
:1011900069666F310D0A00009409002043414E3208
:1011A00020E68C81E7BBADE68EA5E694B6E695B069
:1011B000E68DAE6669666F310D0A0000704770B546
:1011C000044694F82000012822D1022084F820004F
:1011D0002068006820F001002168086000F0B2FA81
:1011E00005460DE000F0AEFA401B0A2808D9606AF7
:1011F00040F400306062052084F82000012070BDBA
:101200002068406800F001000028EBD16062F6E73A
:10121000606A40F4002060620120F0E7704700003F
:1012200010B504460648844202D106A001F03AFEF9
:101230000F48844202D10FA001F034FE10BD00001F
:101240006C09002043414E312048414C5F43414EE0
:101250005F54784D61696C626F7830436F6D706C6C
:1012600065746543616C6C6261636B0D0A0000001C
:101270009409002043414E322048414C5F43414E87
:101280005F54784D61696C626F7830436F6D706C3C
:1012900065746543616C6C6261636B0D0A000000EC
:1012A0007047000010B504460648844202D106A0EB
:1012B00001F0F8FD0F48844202D10FA001F0F2FDC9
:1012C00010BD00006C09002043414E312048414CC4
:1012D0005F43414E5F54784D61696C626F78314372
:1012E0006F6D706C65746543616C6C6261636B0DEE
:1012F0000A0000009409002043414E322048414C2E
:101300005F43414E5F54784D61696C626F78314341
:101310006F6D706C65746543616C6C6261636B0DBD
:101320000A0000007047000010B5044606488442D9
:1013300002D106A001F0B6FD0F48844202D10FA0F1
:1013400001F0B0FD10BD00006C09002043414E319A
:101350002048414C5F43414E5F54784D61696C6257
:101360006F7832436F6D706C65746543616C6C624D
:1013700061636B0D0A0000009409002043414E3266
:101380002048414C5F43414E5F54784D61696C6227
:101390006F7832436F6D706C65746543616C6C621D
:1013A00061636B0D0A000000704700002DE9F041F9
:1013B00004460E460127002500BF2548007E01286F
:1013C00002D10220BDE8F08101202149087600BF4A
:1013D0004CF25030FFF7BCF90746002F31D1401EC8
:1013E0003060206801280FD1207C6168FFF7FCF88D
:1013F0004CF25030FFF7ACF907461648006820F071
:101400000400144908601AE0A56812E0217C28460F
:10141000FFF780F84CF25030FFF79AF907460D4875
:10142000006820F0FA000B4908600FB1356005E054
:101430006D1CD4E902100844A842E7D800BFFFF7AA
:1014400097F800BF00200249087600BF3846B9E788
:10145000380B0020103C02400348006840F0004078
:101460000149086000207047103C02402DE9F0411E
:1014700006460F4614461D464FF0010800BF1F48A0
:10148000007E012802D10220BDE8F08101201B4925
:10149000087600BF4CF25030FFF75AF98046B8F199
:1014A000000F23D126B9E1B23846FFF7B5F812E0B4
:1014B000012E04D1A1B23846FFF7D6F80BE0022E78
:1014C00004D121463846FFF7E3F804E022462B46D4
:1014D0003846FFF7B3F84CF25030FFF739F9804641
:1014E0000748006820F001000549086000BF00209F
:1014F0000249087600BF4046C6E70000380B0020CE
:10150000103C024000200949096801F0004159B12E
:101510000749064A0C3A11600649116003490968F7
:1015200001F0004101B1012070470000103C024071
:1015300023016745AB89EFCDF8B502460B46002580
:10154000002400200021DCE0012606FA01F51E68D7
:1015500006EA0504AC4273D15E68022E02D05E68D2
:10156000122E13D1CF0802F1200656F827004E079D
:10157000F70E0F26BE40B0434F07FF0E1E69BE4058
:101580003043CF0802F1200646F8270010684F00CC
:101590000326BE40B0431E7906F003064F00BE404E
:1015A000304310605E68012E08D05E68022E05D0C0
:1015B0005E68112E02D05E68122E13D190684F0023
:1015C0000326BE40B0434F00DE68BE40304390600B
:1015D000506801268E40B0431E79C6F300168E4037
:1015E00030435060D0684F000326BE40B0434F00E8
:1015F0009E68BE403043D0605E6806F08056B6F10B
:10160000805F7DD100BF00260096404E366846F4CC
:1016100080463E4F3E603E46366806F48046009661
:1016200000BF00BF3A4E8F0856F827008E07370FCD
:101630000F26BE40B043374EB24202D1002624E00E
:101640005EE0354EB24201D101261EE0334EB24279
:1016500001D1022619E0324EB24201D1032614E034
:10166000304EB24201D104260FE02F4EB24201D1DA
:1016700005260AE02D4EB24201D1062605E02C4E89
:10168000B24201D1072600E008268F073F0FBE4077
:1016900030431F4E8F0846F82700264E3068A0437F
:1016A0005E6806F48036B6F5803F00D12043214EB7
:1016B0003060361D3068A0435E6806F40036B6F52B
:1016C000003F00D120431B4E361D3060361D306870
:1016D000A0435E6806F48016B6F5801F00D1204353
:1016E000144E08363060361D3068A0435E6806F43C
:1016F0000016B6F5001F00D120430E4E0C363060A8
:10170000491C1029FFF420AFF8BD00004438024006
:101710000838014000000240000402400008024076
:10172000000C024000100240001402400018024069
:10173000001C0240003C014001480068000C70475A
:10174000002004E0014800687047000048000020C5
:101750000348006803490978084401490860704754
:10176000480000205000002010B50D48006840F4EB
:1017700000700B4908600846006840F4806008600B
:101780000846006840F480700860032000F080F88C
:101790000F2000F007F800F02BF8002010BD00002B
:1017A000003C024070B504460E4800784FF47A7150
:1017B000B1FBF0F00C490968B1FBF0F5284600F0E8
:1017C000DFFB08B1012070BD102C07D2002221469A
:1017D000501E00F01EF80548046001E00120F2E709
:1017E0000020F0E750000020540000204C000020B2
:1017F000704701460846002809DB00F01F0301225C
:101800009A4043099B0003F1E023C3F8002100BF85
:1018100070472DE9F05F80460D461646002701F01F
:1018200051FB074639462A46334601F00700C0F10E
:10183000070ABAF1040F02D94FF0040A01E0C0F11F
:10184000070AD14600F1040ABAF1070F02D24FF09D
:10185000000A01E0A0F1030AD4464FF0010A0AFA97
:1018600009FAAAF1010A0AEA020A0AFA0CFA4FF086
:10187000010B0BFA0CFBABF1010B0BEA030B4AEA71
:101880000B042146404601F025FBBDE8F09F000017
:1018900000BF00F00702064B19684FF6FF0319401E
:1018A000044B0B4343EA0221014B196000BF704710
:1018B0000CED00E00000FA0570B504460D460CB9C9
:1018C000012070BD5848006800F00F00A84209D2FE
:1018D00055490D700846006800F00F00A84201D07D
:1018E0000120EEE7207800F0020002281DD12078C8
:1018F00000F00400042805D14C48006840F4E05092
:101900004A490860207800F00800082805D14748B7
:10191000006840F46040454908604448006820F091
:10192000F000A168084341490860207800F00100F8
:10193000A8B36068012807D13C4808380068C0F3A4
:101940004040B8B90120BCE76068022802D0606856
:10195000032807D1354808380068C0F3406048B90B
:101960000120AEE7314808380068C0F3400008B9EC
:101970000120A6E72D48006820F0030061680843B5
:101980002A490860FFF7DEFE064609E0FFF7DAFEA7
:10199000801B41F28831884202D9032091E707E099
:1019A0002248006800F00C006168B0EB810FEDD1B7
:1019B0001D48006800F00F00A84209D91A490D70AF
:1019C0000846006800F00F00A84201D0012078E727
:1019D000207800F00400042807D11448006820F49F
:1019E000E050E168084311490860207800F00800E1
:1019F000082808D10D48006820F46040216940EAB9
:101A0000C1000A49086000F03FF808490968C1F3BD
:101A10000311074A515CC840064908600F20FFF7D0
:101A2000C1FE00204DE70000003C024008380240A3
:101A3000144100085400002000207047014800684D
:101A4000704700005400002000B5FFF7F7FF04497D
:101A50000968C1F38221034A515CC84000BD0000FF
:101A6000083802402441000800B5FFF7E7FF0449A9
:101A70000968C1F34231034A515CC84000BD00000F
:101A800008380240244100082DE9F04700240025D1
:101A90000026A1462548006800F00C0020B104286B
:101AA00005D008283AD105E0DFF8849039E0DFF866
:101AB000849036E01D48001F006800F03F041B487A
:101AC000001F006800F4800078B11A481749091F08
:101AD0000968C1F38811A0FB01700146224600236A
:101AE0003846FEF76FFB05460EE011480F49091F07
:101AF0000968C1F38811A0FB01700146224600234A
:101B00003846FEF75FFB05460848001F0068C0F333
:101B10000140401C4600B5FBF6F902E0DFF81090EA
:101B200000BF00BF4846BDE8F0870000083802400B
:101B30000024F40000127A00F8B504460CB9012024
:101B4000F8BD207800F00100002874D0F948006842
:101B500000F00C0004280DD0F648006800F00C00DE
:101B6000082813D1F348001F006800F48000B0F586
:101B7000800F0BD1EF4808380068C0F340400028C0
:101B800059D06068002856D10120D9E700BF6068AD
:101B9000B0F5803F08D1E7480838006840F480304D
:101BA000E449083908601EE06068B0F5A02F0DD147
:101BB000E0480838006840F48020DE4908390860B1
:101BC0000846006840F4803008600CE0D9480838C6
:101BD000006820F48030D74908390860084600685A
:101BE00020F48020086000BF606890B1FFF7AAFD74
:101BF000054606E0FFF7A6FD401B642801D9032037
:101C00009EE7CC4808380068C0F340400028F1D077
:101C100011E0FFF797FD054606E0FFF793FD401B37
:101C2000642801D903208BE7C24808380068C0F354
:101C300040400028F1D1207800F0020002285FD156
:101C4000BC48006800F00C0058B1BA48006800F0C9
:101C50000C0008281CD1B748001F006800F4800061
:101C6000B0B9B44808380068C0F3400020B1E0685B
:101C7000012801D0012063E7AE480838006820F051
:101C8000F800216940EAC100AA490839086037E034
:101C9000E06800B30120A8490860FFF753FD05463E
:101CA00006E0FFF74FFD401B022801D9032047E75C
:101CB000A04808380068C0F340000028F1D09D48D3
:101CC0000838006820F0F800216940EAC10099490D
:101CD0000839086014E0002097490860FFF732FDDA
:101CE000054606E0FFF72EFD401B022801D9032020
:101CF00026E7904808380068C0F340000028F1D17A
:101D0000207800F0080008282CD16069A8B10120D3
:101D10008A490860FFF716FD054606E0FFF712FD49
:101D2000401B022801D903200AE782486C30006872
:101D3000C0F340000028F1D014E000207F49086083
:101D4000FFF700FD054606E0FFF7FCFC401B0228FC
:101D500001D90320F4E677486C300068C0F34000F6
:101D60000028F1D1207800F00400042870D100266A
:101D700070483830006800F0805090B900BF0020F3
:101D800000906C483830006840F080506949383124
:101D900008600846006800F08050009000BF00BF57
:101DA00001266748006800F48070B0B96448006894
:101DB00040F4807062490860FFF7C4FC054606E005
:101DC000FFF7C0FC401B022801D90320B8E65C489D
:101DD000006800F480700028F2D000BFA0680128DD
:101DE00008D154486830006840F00100514968311A
:101DF00008601DE0A06805280DD14E4868300068D5
:101E000040F004004B49683108600846006840F023
:101E1000010008600CE047486830006820F00100CD
:101E20004449683108600846006820F004000860F2
:101E300000BFA068A8B1FFF785FC054609E0FFF7E1
:101E400081FC401B41F28831884202D9032077E6A9
:101E500026E0384868300068C0F340000028EED023
:101E600013E0FFF76FFC054608E0FFF76BFC401B33
:101E700041F28831884201D9032061E62D4868305B
:101E80000068C0F340000028EFD1012E07D1294897
:101E90003830006820F0805026493831086000BF93
:101EA000A069B8B32348006800F00C0008285ED091
:101EB000A069022846D100201F490866FFF742FCAE
:101EC000054606E0FFF73EFC401B022801D903202F
:101ED00036E6184808380068C0F340600028F1D1A1
:101EE000D4E907010843616A40EA81110122A06A2E
:101EF000C2EB500041EA00412C20005D41EA006045
:101F00000C49091F086001200B490866FFF71AFCFD
:101F1000054607E02DE0FFF715FC401B022801D91C
:101F200003200DE6034808380068C0F3406000282D
:101F3000F1D01EE00838024000004742800E4742C0
:101F40000070004000200C490866FFF7FBFB0546C7
:101F500006E0FFF7F7FB401B022801D90320EFE55D
:101F600006480068C0F340600028F2D101E001207B
:101F7000E6E50020E4E500000000474200380240AA
:101F800070B504462546681EB0F1807F01D301205C
:101F90000FE0681E4FF0E02148610F214FF0FF3045
:101FA00000F098FF00204FF0E021886107200861D1
:101FB000002070BD10B504460CB9012010BD94F886
:101FC0003D0028B9002084F83C00204600F00CF8C1
:101FD000022084F83D00211D206800F055FC0120FE
:101FE00084F83D000020E9E770470146022081F8AF
:101FF0003D000868806800F00702062A05D00868DE
:10200000006840F001000B681860012081F83D0075
:102010000020704710B504460CB9012010BDA0691E
:1020200000B100E000BF94F8390028B9002084F81E
:102030003800204600F027F8242084F83900206872
:10204000C06820F400502168C860204600F088FC79
:102050002068006920F49040216808612068406988
:1020600020F02A00216848612068C06840F40050D0
:102070002168C8600020E063202084F8390084F8DB
:102080003A000020CAE7704710B53249096801F0EC
:10209000004149B12F49096841F000412D4A1160C2
:1020A0008169891C816110BD2A49083909682A4A59
:1020B00011622849091F097882F824102549C91E90
:1020C0000978916223490C310968D1622149891E3E
:1020D000098811861F49096851631E49091D09684D
:1020E00091631C4910310968D1631CA200210BE0E7
:1020F000535C254C636000BF234B1B6803F0400317
:10210000002BF9D04B1CD9B22929F1D300211F4A49
:10211000116000BF1D4909680029FBD00E4A016803
:1021200011604168516081689160C168D160016946
:1021300011614169516181699161C169D161002178
:10214000124A116000BF114909680029FBD000BF85
:10215000A9E700002CED00E0580B00200D0A456EA9
:1021600074657220486172644661756C745F486181
:102170006E646C65722C2053797374656D204861B0
:102180006C742E0D0A000000001001405800002061
:1021900000B587B000BF002001903348006840F0D0
:1021A0000100314908600846006800F00100019014
:1021B00000BF00BF00BF002001900846006840F04B
:1021C000010008600846006800F00100019000BFAF
:1021D00000BF00BF0020019023481430006840F089
:1021E00010002149143108600846006800F0100012
:1021F000019000BF00BF481502900220039001200B
:102200000490032005900720069002A91748FFF7C5
:1022100093F94FF4806002900720069002A91348BA
:10222000FFF78AF9012200212520FFF7F2FA252085
:10223000FFF7DFFA0C2300224FF4E1310C4801F0E4
:1022400011FE0B48006820F040000949086008466C
:10225000006820F0200008600846C06840F02000B8
:10226000C86007B000BD00003038024000000240E6
:10227000001001402DE9F0410446082C17DA002631
:10228000FF27002508E0284600F062F810B1701C16
:10229000C6B22F46681CC5B2082DF4DB012E04D14E
:1022A000A74202D10120BDE8F0810020FBE7082C05
:1022B0000BD1002000F04CF828B1012000F048F8C4
:1022C00008B10120EFE70020EDE7092C0BD1012038
:1022D00000F03EF828B1022000F03AF808B10120E1
:1022E000E1E70020DFE70020DDE700000024012017
:1022F00080F3108800BFFFF79FFB00204FF0E02124
:1023000008614861886100BF08E04FF0FF310D4867
:1023100040F824100C4840F82410641C082CF4D316
:10232000002080F3108800BF08484568014608680F
:1023300080F3088800BF002080F3148800BFA847FE
:1023400000BFFEE780E100E080E200E000F000086E
:1023500001460B4850F831000069094B03EBC103FB
:102360009B88184008B9002200E00122044800EBD5
:10237000C1008079904201D1012070470020FCE724
:10238000A440000800BFFEE77047704710B505A0E5
:1023900000F088FD074800F085FD074800F082FD49
:1023A00010BD0000E6938DE4BD9CE68F90E7A4BAD3
:1023B0003A0D0A002C4100087C4100082DE9F0414B
:1023C0001EA000F06FFD2D480468001D0568001D6B
:1023D00006682B4800682B49B0FBF1F739462AA064
:1023E00000F060FD23462A46314633A000F05AFD36
:1023F00036A000F057FD11A000F054FD34A137A025
:1024000000F050FD3BA13CA000F04CFD40A143A0DA
:1024100000F048FD47A000F045FD48A000F042FD57
:102420004CA000F03FFD51A000F03CFD56A000F094
:1024300039FD02A000F036FDBDE8F0812A2A2A2AE3
:102440002A2A2A2A2A2A2A2A2A2A2A2A2A2A2A2AEC
:102450002A2A2A2A2A2A2A2A2A2A2A2A2A2A2A2ADC
:102460002A2A2A2A2A2A2A2A2A2A2A2A2A2A2A2ACC
:102470002A2A2A2A2A2A2A2A2A0A0D00107AFF1F23
:102480005400002040420F000D0A435055203A20CE
:1024900053544D333246343037494754362C204C50
:1024A0005146503137362C20E4B8BBE9A2913A208E
:1024B00025644D487A0D0A00554944203D202530B9
:1024C0003858202530385820253038580A0D00005B
:1024D00056352D52756E5F4C656400002A20E4BEAF
:1024E0008BE7A88BE5908DE7A7B02020203A202528
:1024F000730D0A00312E30002A20E4BE8BE7A88B32
:10250000E78988E69CAC2020203A2025730D0A003C
:10251000323031392D30342D323300002A20E58F0E
:1025200091E5B883E697A5E69C9F2020203A2025D8
:10253000730D0A002A200D0A000000002A205151C4
:10254000202020203A2031323935373434363330A8
:10255000200D0A002A20E697BAE697BA20203A20F2
:1025600061726D666C790D0A000000002A20456DCD
:1025700061696C203A2061726D666C794071712ED0
:10258000636F6D200D0A00002A20436F7079726915
:10259000676874207777772E61726D666C792E6329
:1025A0006F6D20E5AE89E5AF8CE88EB1E794B5E5B7
:1025B000AD905C720A00000000B587B000BF00203B
:1025C00001900D48006840F002000B490860084681
:1025D000006800F00200019000BF00BF01200390DE
:1025E00000200490032005900420029002A90348D3
:1025F000FEF7A2FF07B000BD3038024000040240E1
:10260000704700002DE9F04192B004468846154617
:102610001E46002700BF002000902A48006840F0B6
:102620008050284908600846006800F080500090FB
:1026300000BF00BF00BF002000902348006840F4A6
:102640008040214908600846006800F480400090FE
:1026500000BF00BF012006900004079002200C90EC
:1026600041050D91CDF838800F941095119606A86C
:10267000FFF762FA07460FB100BFFEE70F20019097
:1026800002200290002003904FF4A05004904FF4D9
:1026900080500590052101A8FFF70EF907460FB1FC
:1026A00000BFFEE7FFF748F841F20101884205D17B
:1026B0000648006840F480700449086012B0BDE824
:1026C000F08100004038024000700040003C0240B1
:1026D00010B5FFF73DF80448007800B910BD00F0D0
:1026E00005F800BFFAE700001C00002010B51B48E9
:1026F000006840B119480068401E1849086010B9C8
:10270000012017490870002408E004EB4401154A31
:1027100002EB810001F0D2FB601CC4B2042CF4DB9C
:1027200011480068401C10490860084600686FF0B6
:102730000041884202D100200B49086001F07EFB75
:102740000A480078401CC0B2084908700A2803DB18
:102750000020087001F06EFB10BD0000100000208A
:102760001400002010010020180000201D0000208F
:102770001448006840F4700012490860124800686C
:1027800040F001001049086000200F49083108603E
:102790000D4800680D4908400B4908600C48091DA8
:1027A0000860081F006820F48020091F08600020CE
:1027B00005490C3108604FF000600249803908601B
:1027C0007047000088ED00E000380240FFFFF6FE91
:1027D0001030002470B5002500264FF08044206999
:1027E00000F00205E06800F002065DB156B14FF658
:1027F000FD702061E0684FF6FD710840E0601E4802
:1028000000688047206900F00405E06800F00406D5
:102810005DB156B14FF6FB702061E0684FF6FB7179
:102820000840E060154800688047206900F008050E
:10283000E06800F008065DB156B14FF6F770206110
:10284000E0684FF6F7710840E0600D480068804787
:10285000206900F01005E06800F010065DB156B187
:102860004FF6EF702061E0684FF6EF710840E060CE
:1028700004480068804770BD00000020040000206C
:10288000080000200C00002010B50268294B984277
:102890000ED0B0F1804F0BD0274B984208D0274B79
:1028A000984205D0264B984202D0264B984203D13D
:1028B00022F070024B681A431E4B984220D0B0F1B0
:1028C000804F1DD01C4B98421AD01C4B984217D0F9
:1028D0001B4B984214D01B4B984211D01A4B984274
:1028E0000ED01A4B98420BD0194B984208D0194B76
:1028F000984205D0184B984202D0184B984203D109
:1029000022F44072CB681A4322F080034C6943EAF8
:10291000040202608B68C3620B688362054B9842B5
:1029200002D0084B984201D10B6903630123436134
:1029300010BD0000000001400004004000080040FD
:10294000000C0040000401400040014000440140F0
:102950000048014000180040001C004000200040DA
:102960002DE9F04104462068006920F44050E168F8
:102970000843216808612169A06808436169084328
:10298000E16940EA01052068C06849F20C618843AA
:1029900028432168C8602068406920F44070A1691C
:1029A000084321684861E069B0F5004F7ED1C44911
:1029B0002068884203D0C349206888425DD1FFF770
:1029C00053F800EBC00101EB001061684900B0FB57
:1029D000F1F06421B0FBF1F00601FFF745F800EBE0
:1029E000C00101EB001061684900B0FBF1F7FFF78F
:1029F0003BF800EBC00101EB001061684900B0FB3F
:102A0000F1F06421B0FBF1F000EBC00101EB00102C
:102A1000A7EB8000322101EBC0006421B0FBF1F094
:102A200000F0F80006EB4006FFF71EF800EBC001CF
:102A300001EB001061684900B0FBF1F7FFF714F8F3
:102A400000EBC00101EB001061684900B0FBF1F040
:102A50006421B0FBF1F000EBC00101EB0010A7EB2B
:102A60008000322101EBC0006421B0FBF1F000F0E6
:102A7000070030442168886020E1FEF7E5FF00EBA5
:102A8000C00101EB001061684900B0FBF1F0642166
:102A9000B0FBF1F00601FEF7D7FF00EBC00101EB40
:102AA000001061684900B0FBF1F700E045E0FEF777
:102AB000CBFF00EBC00101EB001061684900B0FBE7
:102AC000F1F06421B0FBF1F000EBC00101EB00106C
:102AD000A7EB8000322101EBC0006421B0FBF1F0D4
:102AE00000F0F80006EB4006FEF7AEFF00EBC00179
:102AF00001EB001061684900B0FBF1F7FEF7A4FF9D
:102B000000EBC00101EB001061684900B0FBF1F07F
:102B10006421B0FBF1F000EBC00101EB0010A7EB6A
:102B20008000322101EBC0006421B0FBF1F000F025
:102B30000700304421688860C0E06149206888420D
:102B400003D06049206888425CD1FEF78DFF00EB1E
:102B5000C00101EB001061688900B0FBF1F6FEF7DF
:102B600083FF00EBC00101EB001061688900B0FB3E
:102B7000F1F06421B0FBF1F000EBC00101EB0010BB
:102B8000A6EB8000322101EB00106421B0FBF1F0D4
:102B900000F0F006FEF768FF00EBC00101EB00104B
:102BA00061688900B0FBF1F06421B0FBF1F006EB45
:102BB0000016FEF759FF00EBC00101EB0010616841
:102BC0008900B0FBF1F7FEF74FFF00EBC00101EB0E
:102BD000001061688900B0FBF1F06421B0FBF1F0F6
:102BE00000EBC00101EB0010A7EB8000322101EBEC
:102BF00000106421B0FBF1F000F00F0030442168B8
:102C000088605BE0FEF720FF00EBC00101EB0010E5
:102C100061688900B0FBF1F6FEF716FF00EBC0011A
:102C200001EB001061688900B0FBF1F06421B0FB9A
:102C3000F1F000EBC00101EB0010A6EB80003221A7
:102C400001EB00106421B0FBF1F000F0F006FEF79C
:102C5000FBFE00EBC00101EB001061688900B0FBD6
:102C6000F1F06421B0FBF1F006EB0016FEF7ECFE8C
:102C700000EBC00101EB001061688900B0FBF1F7C7
:102C8000FEF7E2FE00EBC00101EB00106168890075
:102C9000B0FBF1F06421B0FBF1F000EBC00101EBFF
:102CA0000010A7EB8000322101EB00106421B0FB83
:102CB000F1F000F00F00304421688860BDE8F08139
:102CC000001001400014014010B5024800F004F863
:102CD00010BD0000400100202DE9F04104462068AD
:102CE00005682068C6682068D0F8148005F02000C8
:102CF000D8B120684068C7B2E18AA0684754E08A2A
:102D0000401C80B2E082E189884201DB0020E08241
:102D1000608BE189884202DA608B401C6083606AC4
:102D200010B13846616A884700BF05F0800028B3BB
:102D300006F0800010B3A08A60B92068C06820F057
:102D400080002168C8602068C06840F040002168A9
:102D5000C86013E0012084F82800618A6068405C44
:102D600021684860608A401C80B26082A1898842E4
:102D700001DB00206082A08A401EA08205F0400096
:102D800018B306F0400000B3A08A68B92068C06894
:102D900020F040002168C860206A08B1206A80479E
:102DA000002084F8280010E0618A6068405C216897
:102DB0004860608A401C80B26082A189884201DB41
:102DC00000206082A08A401EA082BDE8F081F8B594
:102DD00004460F461646002539E01EE0012000F0AB
:102DE0009FF8A08A0090002000F09AF8A089BDF812
:102DF0000010884200DD11E0A089BDF80010884273
:102E00000AD12068C06800F0800028B92068C06836
:102E100040F080002168C86000BFDFE700BF785D38
:102E2000228A61688854012000F07AF8208A401CC8
:102E300080B22082A189884201DB00202082A08A02
:102E4000401CA082002000F06BF8681C85B2B542DF
:102E5000C3DB2068C06840F080002168C860F8BD0E
:102E60000B480C4908600C4848600C4888604FF4D7
:102E700080608881C881002008824882C8820883D7
:102E800048838882C8610862486281F828007047D8
:102E900000100140400100206C0100206C05002062
:102EA00000BFFEE70FB4054B10B503A9044A029812
:102EB00000F03AF810BC5DF814FB00007D400008FB
:102EC0005C00002002480068C0F302207047000048
:102ED0000CED00E010B5002804DB0A07130E054ACC
:102EE000135406E00A07140E034A00F00F031B1FD9
:102EF000D45410BD00E400E018ED00E002E008C882
:102F0000121F08C1002AFAD170477047002001E063
:102F100001C1121F002AFBD1704780F3108870474F
:102F200080F31088704700002DE9FF4F8DB00F46E9
:102F30000546002606E025280BD0DDE90F12904754
:102F40006D1C761C28780028F5D111B03046BDE8FC
:102F5000F08F0024A246A1460122E94900E0044383
:102F600015F8013F203B02FA03F00842F7D1287818
:102F70002A2810D06FF02F022878A0F130010929FB
:102F800014D80AEB8A0102EB410144F0020400EB81
:102F9000010A6D1CF0E701CF5FEA000A03D544F493
:102FA0000054CAF1000A44F002046D1C28782E284F
:102FB00017D115F8010F44F004042A280ED06FF041
:102FC0002F022878A0F1300109290AD809EB8901DC
:102FD00002EB410100EB01096D1CF2E757F8049B7D
:102FE0006D1C28786C280FD006DC4C2817D0682878
:102FF0000DD06A2814D104E0742810D07A280FD19B
:103000000DE044F400140AE044F4801401E044F4B8
:1030100040146978814202D104F580146D1C6D1C46
:1030200028786E281ED00CDC632830D004DC002801
:103030008BD0582811D19FE0642867D069280CD123
:1030400064E073282DD004DC6F2872D0702804D17E
:1030500094E075286ED078286DD0DDE90F12904786
:10306000761C4BE1C4F30250022806D0032809D095
:10307000042801CF09D0066040E101CFF117C0E973
:1030800000613BE101CF068038E1067036E117F8B8
:10309000040B8DF8000000208DF80100EB460120A4
:1030A00003E057F804BB4FF0FF3061074FF0000119
:1030B00002D40DE008F10101884649450FDA804548
:1030C000F8DB1BF808100029F4D108E008F1010131
:1030D00088468142FADB1BF808100029F6D1DDE9A9
:1030E0000F23AAEB08008146214600F031F9304455
:1030F00000EB080604E0DDE90F121BF8010B904716
:10310000B8F10108F7D221464846F2E00A21C4F39B
:1031100002524FF0000B0891022A04D001CFC117D0
:10312000032A09D00AE0FF1D27F00707F7E802018C
:1031300008E02CE01EE01FE000B2C117042A01D114
:1031400040B2C117021E71F1000206DA0023D0EB73
:10315000030063EB01012D2202E0220504D52B229E
:103160008DF82420012203E0E20701D02022F7E7B6
:10317000904653E00A210BE0102109E010214FF0A6
:10318000000B44F004044FF00809089103E0082103
:103190004FF0000B0891C4F30252022A04D001CF71
:1031A0000021032A06D006E0FF1D27F00707F7E8F5
:1031B000020103E080B2042A00D1C0B24FF000083F
:1031C00022072BD52A78702A07D0DDF820C08CF092
:1031D000100C5CEA0B0C05D00EE040228DF8242088
:1031E000012208E050EA010306D030238DF8243094
:1031F0008DF8252002229046089B83F0080353EAAD
:103200000B030BD150EA010201D1620706D530222F
:103210008DF824204FF00108A9F101092A78582AD5
:1032200004D038A20B9208AA0A920BE03AA2F9E75E
:103230005B46089AFCF7C6FF0B9B9B5C0A9A521EE2
:103240000A92137050EA0102F2D10A98ADEB000025
:1032500000F1200B600702D524F4803401E04FF028
:103260000109D94502DDA9EB0B0000E0002000EBCD
:103270000B0141440890AAEB010AE00306D4DDE902
:103280000F232146504600F063F806444FF0000932
:1032900008E009A911F80900DDE90F12904709F1CA
:1032A0000109761CC145F4DBE0030CD5DDE90F23F1
:1032B0002146504600F04CF8064404E0DDE90F12C8
:1032C00030209047761C0899481E08900029F5DCAC
:1032D00008E00A980A990078491C0A91DDE90F1262
:1032E0009047761CBBF10001ABF1010BF1DC2146EC
:1032F0005046DDE90F2300F019F806446D1C21E665
:1033000009280100303132333435363738396162BB
:10331000636465660000000030313233343536377F
:103320003839414243444546000000002DE9F04150
:10333000044600251E461746880404D405E0394695
:103340002020B0476D1C641EF9D52846BDE8F081E9
:103350002DE9F041044600251E469046C80301D5DC
:10336000302700E02027880404D505E04146384690
:10337000B0476D1C641EF9D52846BDE8F0810000F9
:103380000146042901DB0020704701EB4100084A97
:1033900002EB80004078012808D1002001EB4102B7
:1033A000034B03EB820250700120EDE70020EBE7B6
:1033B0001001002070B503469818B0F1026F01D9D2
:1033C000032070BD0AB90020FBE7012600240BE0B2
:1033D0001D780878A84204D0FF2D01D00220F0E724
:1033E00000265B1C491C641C9442F1D3012E01D1C0
:1033F0000020E6E70120E4E770B50546304800EB21
:1034000005142846FEF736FF00283ED0207905280F
:1034100002DA0520207152E020790A2803DA2079A7
:10342000401C20714BE0A07A38B90120A07205EB56
:103430004501491CC8B200F0D1FC208900283EDDBE
:10344000E088218988420DDAE088401C80B2E08063
:103450002189884233D105EB4501C91CC8B200F06F
:10346000BDFC2CE0E07A002829DD207B401CC0B2A6
:103470002073E17A884222DB0020207305EB4501AE
:10348000491CC8B200F0AAFC19E02079052802DD29
:103490000520207110E0207918B12079401E20719C
:1034A0000AE0A07A012807D10020A07205EB4501AF
:1034B000891CC8B200F092FC0020E080207370BD2F
:1034C00060000020F0B587B00446002500260020EB
:1034D0000190FEF717F8204600F03EF80546012659
:1034E0000020029002200690B4F1016F01D2012069
:1034F00003900495059601A902A8FDF757FF07461A
:10350000FDF7AAFF384607B0F0BD0000014611489C
:1035100090F840010F4B93F84131984201D10020BF
:1035200070470C4890F840010A4B03EBC002184664
:1035300090F84001401CC0B283F84001282802DB0B
:10354000002083F8400110880880506848600120FE
:10355000E6E70000F409002001460020384A9142C5
:1035600002D2B1F1006F05D2364A914204D2B1F1D4
:10357000016F01D3002062E0334A914202D2304A07
:10358000914205D2314A914204D22E4A914201D34E
:10359000012054E02E4A914202D22B4A914205D298
:1035A0002C4A914204D2294A914201D3022046E09A
:1035B000294A914202D2264A914205D2274A914293
:1035C00004D2244A914201D3032038E0244A914294
:1035D00002D2214A914205D2224A914204D21F4A84
:1035E000914201D304202AE01F4A914202D21C4A90
:1035F000914205D21D4A914204D21A4A914201D306
:1036000005201CE01A4A914202D2174A914205D283
:10361000184A914204D2154A914201D306200EE085
:10362000B1F1016F02D2124A914205D2124A91427F
:1036300004D2104A914201D3072000E007207047CE
:10364000000002080000120800000408000014082E
:10365000000006080000160800000808000018080E
:1036600000000A0800001A0800000C0800001C08EE
:1036700000000E0800001E08FFFF1F0810B5FEF72F
:1036800073F80723022208214FF4A870FEF7BAFF4F
:1036900000F01AFA00F006FB00F058FB00F0D0FA38
:1036A00010BD000010B594B0564857490860062078
:1036B0004860002154488160C1604FF4A02101613D
:1036C0004FF4C001416100210176417681760121EC
:1036D000C176002101774177FDF7FAFA04461CB163
:1036E00021464AA0FFF7DEFB002010900120119038
:1036F00000200A9049F6A4000B904FF6FF700C9042
:103700000D9000200E90012012900E200F900AA91B
:103710003D48FDF765F804461CB1214644A0FFF77B
:10372000C1FB00200690012007900020009049F680
:10373000AC0001904FF6FF700290039001200490BE
:1037400008900A20059069462F48FDF749F804467D
:103750001CB1214641A0FFF7A5FB002006900120E7
:1037600007900020009001900290039004900120A7
:1037700008900020059069462348FDF731F804467B
:103780001CB1214640A0FFF78DFB1F48FDF717FD38
:1037900002211D48FDF70EF810B146A0FFF782FB8D
:1037A00004211948FDF706F810B14FA0FFF77AFB86
:1037B00008211548FCF7FEFF10B156A0FFF772FB79
:1037C00010211148FCF7F6FF10B15EA0FFF76AFB6D
:1037D00020210D48FCF7EEFF10B167A0FFF762FB58
:1037E00040210948FCF7E6FF10B16EA0FFF75AFB35
:1037F00001210548FCF7DEFF10B176A0FFF752FB70
:1038000014B010BD006400406C09002048414C5FBA
:1038100043414E5F496E69742043414E31207265C9
:1038200074206E6F74206F6B20256420210A0000C5
:1038300048414C5F43414E5F436F6E66696746691E
:103840006C746572302043414E3120726574206E75
:103850006F74206F6B20256420210A0048414C5F63
:1038600043414E5F436F6E66696746696C7465726B
:10387000312043414E3120726574206E6F74206F89
:103880006B20256420210A0048414C5F43414E5F74
:10389000436F6E66696746696C7465723220434196
:1038A0004E3120726574206E6F74206F6B2025641A
:1038B00020210A0043414E312043414E5F49545F6D
:1038C00052585F4649464F305F4D53475F50454E13
:1038D00044494E4720636F6E666967206572726F58
:1038E00072210D0A0000000043414E312043414E39
:1038F0005F49545F52585F4649464F305F46554CCA
:103900004C20636F6E666967206572726F72210D5D
:103910000A00000043414E312043414E5F49545F4D
:1039200052585F4649464F305F4F56455252554EAA
:1039300020636F6E666967206572726F72210D0A6F
:103940000000000043414E312043414E5F49545F27
:1039500052585F4649464F315F4D53475F50454E81
:1039600044494E4720636F6E666967206572726FC7
:1039700072210D0A0000000043414E312043414EA8
:103980005F49545F52585F4649464F315F46554C38
:103990004C20636F6E666967206572726F72210DCD
:1039A0000A00000043414E312043414E5F49545FBD
:1039B00052585F4649464F315F4F56455252554E19
:1039C00020636F6E666967206572726F72210D0ADF
:1039D0000000000043414E312043414E5F49545F97
:1039E00054585F4D41494C424F585F454D505459D2
:1039F00020636F6E666967206572726F72210D0AAF
:103A000000000000F0B591B0402101A8FCF724FCB3
:103A10004FF0804500BF002000901F48006840F034
:103A200001001D4908600846006800F00100009090
:103A300000BF00BF1948006847081948B7FBF0F0FD
:103A4000401E86B2B5F1804F02D01648854202D1A1
:103A50004FF0FF3401E04FF6FF7401950296049495
:103A600000210591039106918021079101A8FEF79D
:103A7000A1FA20B140F21F210BA0FCF747FD022262
:103A800000211C20FDF7C5FE1C20FDF7B2FE01A899
:103A9000FEF7ABFA11B0F0BD4038024054000020F0
:103AA00040420F00000C00402E2E5C2E2E5C557301
:103AB00065725C6273705C7372635C6273705F7476
:103AC000696D65722E63000010B500F07DF800F09E
:103AD00001F810BD10B586B000BF00200090384836
:103AE000006840F00400364908600846006800F0AD
:103AF0000400009000BF00BF00BF002000900846F7
:103B0000006840F0200008600846006800F02000CF
:103B1000009000BF00BF00BF002000900846006872
:103B200040F0800008600846006800F080000090C7
:103B300000BF00BF00BF002000900846006840F0B2
:103B4000400008600846006800F04000009000BF98
:103B500000BF00BF002000900846006840F08000D1
:103B600008600846006800F08000009000BF00BFB9
:103B700000BF002000900846006840F48070086094
:103B80000846006800F48070009000BF00BF00206D
:103B9000029003900320049000240CE0094800EBFD
:103BA000C40080880190074951F8340001A9FDF74D
:103BB000C3FC601CC4B2082CF0DB06B010BD0000D2
:103BC00030380240A440000810B500201A4988721D
:103BD000C8720873002418E06420184901EB04112E
:103BE00008810220154901EB0411087100201349D6
:103BF00001EB04118872114901EB0411C8720F49DD
:103C000001EB04110873601CC4B20A2CE4DB062229
:103C10006421032000F014F906226421042000F03E
:103C20000FF906226421052000F00AF9062264211A
:103C3000104600F005F910BD0001002060000020D2
:103C400000B587B000BF002001901448006840F024
:103C50002000124908600846006800F0200001902A
:103C600000BF00BF012000F085F8022000F092F8AC
:103C70000120039000200490022005900002029091
:103C800002A90748FDF758FC4FF48060029002A992
:103C90000348FDF751FC07B000BD0000303802407A
:103CA0000014024070B5002416E0002004EB44012B
:103CB000214A02EB8101486004EB440102EB8101DF
:103CC000886004EB440102EB8101487004EB44017D
:103CD00002F82100601CC4B2042CE6DB174800681F
:103CE0004FF47A72B0FBF2F1481EB0F1807F00D33E
:103CF0001BE0481E4FF0E022506150170F220028B1
:103D000004DB13071D0E0E4B1D5406E013071E0E99
:103D10000C4B00F00F052D1F5E5500BF00204FF02B
:103D2000E02290610720106100BF01200649087061
:103D3000FFF768FE70BD0000100100205400002055
:103D400000E400E018ED00E01C00002010B5FFF7D3
:103D500087F8FEF71DFAFEF72FFC10BD10B5002402
:103D600004E02046FFF748FB601CC4B20A2CF8DBD5
:103D700010BD0000411EC8B220B94FF40071044AC2
:103D8000116004E0012802D18102014A11607047EC
:103D900018140240411EC8B220B94FF00071044A05
:103DA000116004E0012802D18106014A11607047C8
:103DB00018140240012806D10749096881F40071EE
:103DC000054A116007E0022805D10349096881F41A
:103DD0008061014A11607047141402400649C97A93
:103DE000054A50541146C97A491CC9B2D1720A29F0
:103DF00001DB0021D1727047000100200C4A92F8CB
:103E000041210B4B23F832001A4692F8412103EB73
:103E1000C20251601A4692F84121521CD2B283F874
:103E20004121282A02DB002283F84121704700004B
:103E3000F409002010B5FFF791FF10BD7047000096
:103E400010B5074B03EB00131981054B03EB00136F
:103E5000DA720023024C04EB0014237310BD00003F
:103E600060000020F0B591B004460D4617461E468E
:103E700001940295002103910491059707910696FC
:103E8000089101A8FEF7C6F820B140F2BA2102A0BD
:103E9000FCF73CFB11B0F0BD2E2E5C2E2E5C557352
:103EA00065725C6273705C7372635C6273705F7581
:103EB0006172745F6669666F2E630000416851B17C
:103EC0004168491E416031B90121417001780129E1
:103ED00001D181684160704770B504460D46042CDD
:103EE00006DB124A12A11AA0FEF7DCFF00BFFEE7B4
:103EF0000120FFF712F804EB44001D4901EB80009C
:103F0000456004EB440001EB80008560002004EB79
:103F10004401174A02EB81014870012004EB44017F
:103F200002F821000020FEF7F8FF70BDF340000802
:103F30002E2E5C2E2E5C557365725C6273705C7302
:103F400072635C6273705F74696D65722E630000EA
:103F50004572726F723A2066696C652025732C2059
:103F600066756E6374696F6E20257328290D0A00CB
:103F7000100100202DE9F04188B00546884614461E
:103F80002819B0F1026F03D9012008B0BDE8F08113
:103F90000CB90020F9E7224641462846FFF70AFA05
:103FA00007460FB90020F0E7012080F3108800BF1A
:103FB000FDF7A8FA002611E0202241466846FCF7EA
:103FC00032F908F120086A46002329460120FDF74E
:103FD0004DFA08B9203500E025E0761CB6EB541FF9
:103FE000EAD304F01F00B8B10021009101910291C1
:103FF0000391049105910691079104F01F02414637
:104000006846FCF710F96A46002329460120FDF7AF
:104010002DFA00B107E000BFFDF71EFA002080F383
:10402000108800BFB1E7FDF717FA002080F3108871
:1040300000BF0120A9E710B5FFF734FB10BD2DE943
:10404000F04105460E4617462846FCF78DF9044612
:104050000CB9BDE8F081E06908B1E06980473A46F3
:1040600031462046FEF7B3FE00BFF2E713B5044623
:10407000012201A92046FFF7E2FF1CBD70B50446EE
:104080000D46E1B20020FFF7F1FF204670BD10B5EC
:10409000FFF7F4FAFEF792F9FEF778F9FCF79AF9D0
:1040A000002010BD00200240000100000008024076
:1040B000002000000020024000080000001C024018
:1040C00004000000001C0240080000000014024030
:1040D000000800000018024080000000001C0240A0
:1040E000008000006273705F537461727454696D74
:1040F0006572006273705F53746172744175746F9E
:1041000054696D6572006273705F53746F705469A7
:104110006D65720000000000000000000102030451
:10412000060708090000000001020304312E20E503
:1041300090AFE58AA8E4B880E4B8AAE887AAE58A3F
:10414000A8E9878DE8A385E8BDAFE4BBB6E5AE9AE4
:10415000E697B6E599A8EFBC8CE6AF8F3130306DAD
:1041600073E7BFBBE8BDACE4B880E6ACA14C454406
:1041700031E5928C4C4544320D0A0000322E20E588
:10418000868DE590AFE58AA8E4B880E4B8AAE88710
:10419000AAE58AA8E9878DE8A385E8BDAFE4BBB6A8
:1041A000E5AE9AE697B6E599A8EFBC8CE6AF8F35F9
:1041B00030306D73E7BFBBE8BDACE4B880E6ACA1BE
:1041C0004C454433E5928C4C4544340D0A000000C4
:1041D000F04100080000002060000000FC2E0008F4
:1041E0005042000860000020380F00000C2F00082B
:1041F00000000000000000000000000000000000BF
:1042000000000000000000000000000000000000AE
:10421000000000000000000000000000000000009E
:10422000000000000000000000000000000000008E
:10423000000000000000000000000000100000006E
:10424000010000000024F400000000000000000055
:040000050800018965
:00000001FF
