:020000040800F2
:1000000010120020294300089B110008E542000857
:100010009D1100089F110008A111000800000000B8
:10002000000000000000000000000000A311000814
:10003000A511000800000000A7110008CF2F00083C
:100040005D430008614300086543000869430008F8
:100050006D430008714300087543000879430008A8
:100060007D43000881430008854300088943000858
:100070008D43000891430008954300089943000808
:100080009D430008A1430008A5430008A9430008B8
:10009000AD430008B1430008B5430008B943000868
:1000A000BD430008C1430008C5430008C943000818
:1000B00075300008CD430008D1430008D54300083F
:1000C000D9430008DD430008E1430008E543000888
:1000D000E9430008EB210008ED430008F143000864
:1000E000F5430008F9430008FD43000801440008F7
:1000F00005440008094400080D44000811440008A4
:1001000015440008194400081D4400082144000853
:1001100025440008294400082D4400083144000803
:1001200035440008394400083D44000841440008B3
:1001300045440008494400084D4400085144000863
:1001400055440008594400085D4400086144000813
:1001500065440008694400086D44000871440008C3
:1001600075440008794400087D4400088144000873
:1001700085440008894400088D4400080000000000
:1001800091440008954400082DE9F14FB0B0924623
:1001900004910DF142013A9A2B9199464A70002040
:1001A0000AE01AF8011B0498309A9047002804903E
:1001B00000F0B4860D98401C0D909AF8000050B1E4
:1001C0002528EED1002100220791089209910A9278
:1001D0000B910C9204E00D9800F0A2BE41F00101D9
:1001E0001AF8010F2028F9D023280CD02B2804D08E
:1001F0002D2805D0302809D00BE041F00201EFE7AF
:1002000041F00401ECE741F00801E9E741F0100199
:10021000E6E72A280FD1D9F8002052F8040BC9F8D4
:10022000002000280F9003D540420F9041F00401B8
:100230000AF1010A14E00F92DFF824380AE00F985F
:10024000984205DA00EB800402EB4402303A0F9248
:100250000AF1010A9AF80020A2F130000A28EED330
:100260009AF800002E2803D04FF0FF320E9229E0BA
:100270001AF8010F2A2809D1D9F8000050F8042BE8
:10028000C9F800000E920AF1010A1BE02D280CBFEC
:100290000AF1010A002000220E92DFF8C4470BE0A9
:1002A00040B90E9AA24205DA02EB820503EB450340
:1002B000303B0E930AF1010A9AF80030A3F13002A4
:1002C0000A2AEDD3ADF84010DFF89807784400F221
:1002D00094709AF8001000F055FF08B11AF8010B5D
:1002E0008DF842009DF84200682805D19AF8000078
:1002F00068280CD1622106E06C2804BF9AF800003F
:100300006C2804D171218DF842100AF1010A12A85B
:1003100006901AF801BBBBF125012CD01C3900F066
:10032000D081091F022940F2CC81133900F02185C8
:10033000093900F0C681891E00F0B685491E00F01B
:100340006385491E022940F2BC81091F00F05C85CB
:10035000491F00F02881491E00F00B85491E00F05E
:10036000D080C91E0DD0891E00F00385C91E00F083
:10037000008500F0A4BD25238DF84830012100F050
:10038000A9BDD9F8000050F8044BC9F80000002CB2
:10039000059440F0A3802B994878002800F09980BC
:1003A0004FF0FF340FF6803000F0FEFE201A40F0D0
:1003B000B58500F090BD6D1E40F0A7853096079D75
:1003C00012AF75B1309E17F8012B02A9304600F02C
:1003D00071FE002801D46D1EF5D10028309640F042
:1003E0009D850A9D3020002D8DF804000CDD309E87
:1003F000012301AA02A9304600F06CFE002840F05B
:100400008D856D1EF4D13096059F089D75B1309E87
:1004100017F8012B02A9304600F04CFE002801D449
:100420006D1EF5D10028309640F078850B9D302068
:10043000002D8DF804000CDD309E012301AA02A9D5
:10044000304600F047FE002840F068856D1EF4D16C
:10045000309605980899099D471875B1309E17F890
:10046000012B02A9304600F025FE002801D46D1EA4
:10047000F5D10028309640F051850C9D3020002D9C
:100480008DF804000CDD309E012301AA02A930463C
:1004900000F020FE002840F041856D1EF4D130961A
:1004A0009DF8400041077FF588AE2020002C8DF894
:1004B00004007FF782AE309D012301AA02A92846DD
:1004C00000F008FE002840F02985641EF4D1309524
:1004D00073E60FF66040059000F0FDBC0E9D002D08
:1004E00004D5204600F080FE044607E02A46204658
:1004F00000F096FE002814BF041B2C46089400F060
:10050000EABCD9F8001051F8040BC9F8001020F02B
:100510000004002121F0FF3512ABCDE9024505931F
:10052000DDE9022306993C2413B90AB90E9898B163
:1005300002F00F053035641EEEB23A2EA8BF273503
:10054000120942EA03721B090D5508BF002A03D0A5
:1005500005980D19A842EBD308190590C4F13C0287
:100560000E98089282420ADABDF84010821A4FF6BD
:10057000EF7001400A92ADF8401000F0ACBC0028CA
:1005800040F1A9849DF8400000F01400102840F0CC
:10059000A2840F9B07990A985B1A1B1A9A1A002AC1
:1005A00040F39984E3E32B99487820B14FF0FF346E
:1005B0000FF65030F8E69DF84200622861D06828B6
:1005C00017D06A283FD06C2806D0712847D07428ED
:1005D0002CD07A281DD064E0D9F8001051F8040B13
:1005E000C9F80010002868D14FF0FF340FF62C3006
:1005F000DAE6D9F8001051F8040BC9F8001020B958
:100600004FF0FF340FF61430CEE60D99018000F064
:1006100062BCD9F8001051F8040BC9F8001000288A
:100620004BD14FF0FF340FF6F420BDE6D9F800109F
:1006300051F8040BC9F8001000283ED14FF0FF34E8
:100640000FF6D820B0E6D9F8001051F8040BC9F81D
:10065000001080B94FF0FF340FF6C020A4E6D9F89F
:10066000001051F8040BC9F8001020B94FF0FF3406
:100670000FF6A82098E60D9AD317C0E9002300F0E2
:100680002ABCD9F8001051F8040BC9F8001020B9A1
:100690004FF0FF340FF6842086E60D99017000F0CC
:1006A0001ABCD9F8001051F8040BC9F8001020B991
:1006B0004FF0FF340FF6642076E60D99016000F0EC
:1006C0000ABCD9F80020D21D22F00702C9F8002088
:1006D000D2E900010832C9F80020CDE90201C80FB3
:1006E00002D007982D210AE0BDF84000810702D50D
:1006F00007982B2103E0C00705D50798202112AAEF
:100700001154401C079012A807994BF0200243187F
:10071000DDE90201CDE92C01612A059321AC0BD062
:100720000E98002802D506200E9005E001BF4BF080
:100730002000672801210E91DDE9020148004015E3
:10074000401C0A460DD109030BD0ABF16105032013
:100750001A2D089002D20FF6E0110DE00FF6DC1111
:100760000AE070B912030CD1ABF1610503201A2D18
:1007700008901AD30FF6CC110322184600F07CFD26
:10078000A9E3DDE90201CDE92E01DDE92E2323F005
:100790000047B7F5801F22F000060DD20022002F7F
:1007A00008BF002E009203D116E00FF69411E3E784
:1007B0006A4600F0B5FD0FE0DFF8D808DFF8D8187A
:1007C00000EB17500090DDE92E234FF0FF30194069
:1007D000DFF8C87810403943CDE902014BF0200022
:1007E00061280DD1059830210170821CBBF1610F89
:1007F00005920CBF7821582141700798801C079002
:10080000DDE9020120F0000231F0004308BF002AB8
:1008100002D10026002567E14BF02008B8F1610FF6
:1008200040F0B4800E98002847BF21210191401C60
:100830000190019FDDE92C017F1C00220023DDE9EE
:10084000024500F0A5FD00998DF8842038BF85F0A1
:100850000045091F002F00910DF1850653DD20464C
:1008600029460022002300F0ABFD4CD24800400D89
:1008700000F11C0312D0002B10DD40F2FF70834208
:1008800006DBDFF81C1805F000421143002011E0E0
:100890006FF31E5141EA035120460BE024F00000A3
:1008A00035F0004108BF00280FBF29461C22294609
:1008B00000F09EFD04460D4600F038FEFF1F002F9D
:1008C000804609DD00F050FE02460B4620462946D0
:1008D00000F05CFE04460D46F01D0721B8F1000F44
:1008E0000CDD491E5EBF08F00F0200F8012D4FEA33
:1008F0002818F3D502E0002200F8012D491EFAD590
:10090000C61D002FABDC0DF18500361A019886421A
:10091000D8BF304600280DF1850430D4B04206DA45
:100920000DF185010A5C082AA8BF0F2100DA002119
:10093000024621AB134400E0401E13F80159521E39
:100940008D42F9D00F2904D10DF185018B5C5B1C20
:100950008B54002A04D50099091D21AC401C00913C
:10096000411E0CD46218ABF13A0613783033DDB275
:100970003A2DA8BFF318491E02F80139F5D50E9992
:10098000002940F1AF80421E0E92ABE00099DFF8E3
:10099000142747F29750414391FBF2F2DDE92C45D1
:1009A000009225F00045D2F1070204DD20462946D9
:1009B00000F04DFB0BE052420020DFF8EC1600F097
:1009C00046FB02460B462046294600F051FE0446EF
:1009D000B8F1660F0E9806BF009F0A3706273F182A
:1009E000142FC8BF142730200D468DF884000DF158
:1009F0008506002F38DD2046294600F05DFF0146C0
:100A00000A4606F1080304200A26B2FBF6F606EBB6
:100A1000860EA2EB4E02303203F8012C0A22B6FBFE
:100A2000F2F202EB820EA6EB4E063036401E03F8C1
:100A3000026DE9D1083F002F03F10806D9DD084611
:100A400000F04EFF02460B462046294600F09EFD70
:100A50000022DFF8583600F051FF04460D46CAE781
:100A6000CBCCCC0CF03800000DF18500361A0DF11E
:100A7000850404E00098401E761E0090641C2078D7
:100A80003028F7D0B8F1660F02D10099491C04E074
:100A9000B8F1650F0CBF012100210E98081886429D
:100AA000B8BF701E00281DD4B04204DA215C34297E
:100AB000C8BF392100DC30210246631E9D1800E0CA
:100AC000401E15F80169521E8E42F9D0392902D113
:100AD000A15C491CA154002A04D50099491C1C465C
:100AE000401C00910646009D00F0DAFF406A07783E
:100AF000DDF8388030B2002802DC01260FF24864AD
:100B00004BF02000662808BF6D1C16D0672846D120
:100B100028B210F1040F48DB404546DA9DF840004A
:100B20006D1C010703D430B24045B8BF804628B2DF
:100B3000B8EB000848BF4FF000080FFA85FBBBF187
:100B4000000F00F3B5800898411C089130220599E8
:100B50000A54B8F1000F03DC9DF84000010704D5EA
:100B60000898411C089105990F5418EB0B0FB8BF5A
:100B7000C8F100052DB268420B90A84432B29045EE
:100B8000B8BF4646059B089836B2099632462146BC
:100B9000184400F071FBA8EB06000C90D2E0BBF10A
:100BA000610F17D14FF0700B19E030B2404504DAF5
:100BB0009DF840100A0758BF8046B8F1010848BFA9
:100BC0004FF00008BBF1670F14BF4FF0450B4FF01B
:100BD000650B04E0BBF1410F08BF4FF0500B0898C4
:100BE000411C0891B8F1000F059914F8012B0A5423
:100BF00003DC9DF8400001071AD50898411C0891B4
:100C0000B8F1000F05990F5412DD761E30B2804501
:100C10000598089BB8BF464632B22146184400F0FA
:100C20002BFB089936B271180891A8EB06000B90BF
:100C300005980899084429B2002980F800B003D427
:100C40002B224270821C04E02D2242700D46821C31
:100C50006D4200212CAB28460AE004460A2094FB92
:100C6000F0F000EB8005A4EB450403F8014B491CB0
:100C700000B20028F1DC012906DC4BF020006528D9
:100C800004BF302002F8010B00292CAB08D1302022
:100C900002F8010B06E0491E585C303002F8010BE7
:100CA0000029F8DC059908980844121A099249E0CD
:100CB00030B229B288421CDA0598089B32B221462C
:100CC000184400F0D9FA089936B27118ABEB060651
:100CD000B8F1000F08910B9603DC9DF84000020765
:100CE00004D5059847540999491C0991CDF83080DD
:100CF00028E00598089B2AB22146184400F0BCFA67
:100D00000898761B5844B8F1000F089003DC9DF852
:100D100040100A0703D5411C089105990F5430B2C1
:100D200080450598089BB8BF464632B204EB0B01DC
:100D3000184400F0A1FA089836B230180890A8EBD1
:100D400006000B909DF8400000F01400102840F0C1
:100D5000C280079A08990B988A18099982180C98EA
:100D60008A1882180F98824280F2B580821A0A92FD
:100D7000B1E09DF84200622808D068280ED06A28A9
:100D800014D06C281FD0712810D01CE0D9F80010A6
:100D900051F8040BC9F80010C0B21AE0D9F80010DD
:100DA00051F8040BC9F8001080B212E0D9F8002005
:100DB000D21D22F00702C9F80020D2E90001083252
:100DC000C9F8002006E0D9F8001051F8040BC9F862
:100DD00000100021CDE902019DF8400001075AD51D
:100DE000DDE90223002B08BF002A54D04BF020007D
:100DF000782850D1079812A930220A54401C431C6D
:100E0000079301F800B046E09DF84200622808D040
:100E100068280ED06A2814D06C281FD0712810D0F2
:100E20001CE0D9F8001051F8040BC9F8001040B2CA
:100E30001AE0D9F8001051F8040BC9F8001000B2FC
:100E400012E0D9F80020D21D22F00702C9F80020D4
:100E5000D2E900010832C9F8002006E0D9F80010F4
:100E600051F8040BC9F80010C117CDE9020100299F
:100E700002D507982D210AE0BDF84000810702D570
:100E800007982B2103E0C00705D50798202112AA57
:100E90001154401C079012A807990144059102A81B
:100EA000594600F04FF816E001200790D9F80000ED
:100EB00050F8041BC9F800008DF848100BE02521FC
:100EC0000122BBF1000F8DF84810079203D08DF876
:100ED00049B0022107910F9A07980A990C9C121A9F
:100EE0000898521A0B99121A0998521A121A9DF858
:100EF0004000141B41073FF562AA2020002C8DF80A
:100F000004007FF75CAA309E2546012301AA02A9AE
:100F1000304600F0DFF800283FF44DAA4FF0FF30D4
:100F200031B0BDE8F08F00007072696E74665F7357
:100F30003A2062616420257320617267756D656E69
:100F4000740000002DE9FC4307466F293E6908BF85
:100F5000082405D041F02000782814BF0A2410246A
:100F60003C25D7E90023642918BF69299046994692
:100F700005D1002B03D5D8F1000869EB4909B9F177
:100F8000000F08BFB8F1000F0CD1386B50B9082C16
:100F900039D197F83800010735D530203B2586F840
:100FA0003B0030E08DF80010404649462246E317EA
:100FB00000F07AFD3032D0B26D1E3A28019504DB84
:100FC0009DF80000A0F151018A187255404649462B
:100FD0002246E31700F068FD80465FEA010908BF7A
:100FE000B8F1000F03D0F86871198842DCD3082CDF
:100FF00009D197F83800010705D5705D302802D077
:101000006D1E30207055C5F13C02BA617119F9604E
:10101000386B824208DA821A3A624FF6EF70398FE3
:1010200001403987BDE8F38300280ED597F83800D2
:1010300000F01400102808D17B6B7969386A5B1ABC
:101040001B1A9A1A002AC8BF3A62BDE8F3832DE939
:10105000D04306460F4614464FF00008DFF8509084
:1010600012E0E00707D542464B463046394600F0CD
:1010700045FC06460F464046494642464B4600F070
:101080003DFC641080468946002CEAD13046394642
:10109000BDE8D08302FCFFFFFFFF0F800000E03FB0
:1010A0000000F07FA08601000000F03F84D7974148
:1010B0000000244010B503460C461146A06898472E
:1010C000A06020B1E06A401CE062002010BD4FF03B
:1010D000FF3010BDF8B505460E4617461C460020E9
:1010E0005CB117F8011BB068A847B06030B1F06A76
:1010F000401CF0620020641EF3D1F2BD4FF0FF30BF
:10110000F2BD00007072696E74665F733A20256EDE
:1011100020646973616C6C6F776564007072696ECE
:1011200074663A2062616420256E20617267756D75
:10113000656E7400000000006E616E004E414E004E
:10114000696E6600494E4600300030B4002513E059
:1011500050F8042BD30744BFA9F101039A18091FC3
:10116000042942F8045BFAD213468C0744BF158069
:101170009B1CC90748BF1D7050F8041B0029E7D10C
:1011800030BC7047C9B202788A421AB11CBF10F84D
:10119000012FF9E718BF002070477047FEE7FEE710
:1011A000FEE770477047704780B500B906A0054953
:1011B0000B681BB122220021984701E000F08CFD52
:1011C000222002BD040A0020636F6E73747261698D
:1011D0006E742068616E646C65723A20626164208E
:1011E0006D6573736167650000F10103810704D0C9
:1011F00010F8011B820781B1FAD10268A2F1013116
:10120000914311F0803104BF50F8042FF6E709BA7A
:10121000B1FA81F100EBD100401CC01A70472E00DA
:10122000C9B2830706D0521E22D310F8013B99425F
:10123000F7D11FE0083A13D302F1040241EA012179
:1012400041EA014150F8043B121F21BF4B40A3F17A
:10125000013C2CEA030C1CF0803FF3D0C9B2001F04
:10126000083210F8013B521E28BF91EA030FF8D84C
:1012700018BF0120401E704762B38B0708D0521E72
:1012800011F8013B00F8013B00F024808B07F6D1F8
:10129000830740F0208000BF103A07D330B4B1E894
:1012A0003810103AA0E83810F9D230BC530724BFE8
:1012B000B1E80810A0E8081044BF51F8043B40F81A
:1012C000043BD20724BF31F8022B20F8022B44BF85
:1012D0000B7803707047121F17D35B0009D151F8C8
:1012E000043B20F8023B1B0C121F20F8023BF6D2F5
:1012F0000BE051F8043B00F8013B1B0A20F8023BCD
:101300001B0C121F00F8013BF3D238BF121D521EF6
:1013100024BF11F8013B00F8013BF8D870470000EA
:1013200010B5144600F002F8226010BDC1F30A5354
:1013300043B14A0012F5001F28D2A3F2FE32A1EBFE
:101340000251704750EA410C20D001F0004C31EAC4
:101350000C01B1FA81F204BFB0FA80F3D2180B3A53
:10136000B2F120032CBF00FA03F1914041EA0C01D5
:101370003EBFC2F1200C20FA0CF3194390405242B8
:1013800040F2FD33D21A01EB03517047002270473F
:101390004FF4001C1CEB410F94BF1CEB430F09E002
:1013A00041EA030C50EA4C0C52EA0C0C03D299426D
:1013B00008BF9042704714BF8B42824270470000C2
:1013C0004FF4001C1CEB410F94BF1CEB430F09E0D2
:1013D00041EA030C50EA4C0C52EA0C0C03D28B424B
:1013E00008BF8242704714BF994290427047000084
:1013F000124254D440F2FF7C1CEA11530FD06345D3
:1014000031D09B1863453CBF01EB0251704701F09E
:10141000004141EA0C510020AFF30080704750EAD0
:10142000410320D001F0004C91EA0C011CD0B1FA2C
:1014300081F30B3B9A420DD9D21A994051EA0C0123
:10144000C3F1200C20FA0CFC61449840531C40F27C
:10145000FF7CD7E7914041EA0C01C2F1200C20FA51
:101460000CF3194390407047B0FA80F31533202BEA
:10147000E0D3202AEED3203A203B9A4209D9D21A4F
:1014800000FA03F141EA0C010020531C40F2FF7CFA
:10149000B8E700FA02F141EA0C010020704752421D
:1014A00040F2FF7C1CEA11530DD06345DBD0B2EB58
:1014B000030C3CBFA1EB025170470CF1010221EA81
:1014C000035141F4801150EA410CCCD001F0004CA2
:1014D000352A27DC30B481EA0C01B2F1200309DAA5
:1014E000C2F12003044601FA03F5D0402843D1405D
:1014F0009C400CE0C3F12002450020FA03F418BF21
:1015000044F0010421FA03F091400C43002174F1EE
:10151000004550F1000051EB0C01244230BC7FF437
:101520007BAF70476146002076E70000C1F30A53A5
:1015300040F2FE329B1A14DDD3F120034FEAE17230
:1015400008DDC90241EA505141F00040D8408018FE
:101550005040704703F2E13010B1D24382F00040B6
:101560007047002070470000C11768B14840401A1A
:10157000B0FA80F29040D21CC907C2F5846241EAF9
:10158000025202EBD02140057047000070B44FF0CA
:10159000004591EA030F40F1A3836B40841A71EB7D
:1015A000030603D2001BB141121973414FF4001C12
:1015B0001CEB410F34BF7CEB430442E00C0DA4EB69
:1015C0001356352E4FDC45EAC323DB0A45EAC12119
:1015D000C912B6F120050DDD63FA05F6EB4086EA87
:1015E0000305124218BF45F00105C01851F1000172
:1015F0000CD213E062FA06F5F2405540F3415A402E
:10160000B340F3405A408018594107D349085FEA74
:1016100030005FEA350528BF45F0010501F580116E
:10162000420875F1004250F1000041EB04514E00B8
:1016300016F5001F70BC38BF70470020090D090562
:1016400070471CEB410F10D252EA43060BD0BCEBA3
:10165000410F05D80C0DAB43661E342EB6DD02E0FB
:10166000AB438018594170BC704770BC7047000094
:10167000F0B540F2FF7581EA030C0CF0004C15EA5E
:1016800011541DBF15EA1357AC42AF42E5E0BC410F
:10169000C1F31301C3F31303801A994143F4801378
:1016A00004D2641E4000494180185941C90241EAF0
:1016B0005051B1FBF3F603FB1611A2FB0675D7EBF5
:1016C000C020A94102D2761E80185941C90241EAC0
:1016D0005051B1FBF3FE03FB1E11A2FB0E75D7EBBD
:1016E000C020A94103D2AEF1010E801859418902F0
:1016F00041EA9051760546EA8E2EB1FBF3F603FBE4
:101700001611A2FB0675D7EB8020A94102D2761EE6
:1017100080185941C90241EA50514EEA060EB1FB08
:10172000F3F603FB1611A2FB0675D7EBC020A94107
:1017300002D2761E80185941C90241EA5051B1FBCC
:10174000F3F703FB1711A2FB0735D3EBC020A94128
:1017500067F100070CBF004247F0010766F3D52789
:101760004FEA1E31B80814F5806412DDBD0775F12B
:10177000004250EB0E5051EB045111F5801F5CBF3D
:1017800041EA0C01F0BD4CF07F6141F0E0410020E6
:10179000F0BDBD076D0840EA0E5041F48011D4F150
:1017A0000104B4F120060ADAC4F120060200E04088
:1017B00001FA06F3E1401843B24015430EE0342C21
:1017C00013DCC6F1200445EA40056D0820FA06F254
:1017D000154321FA06F0A1400D43002175F10042A6
:1017E00050F1000051EB0C01F0BD00205FEA0C014C
:1017F000F0BDCFB992185B41B3FA83F704BFB2FAD8
:1018000082F6BF190B3FB7F120062FBF02FA06F38D
:10181000BB40C7F1200622FA06F638BF3343BA4070
:101820001CB1E419641E33E77F4231F00041B1FA84
:1018300081F404BFB0FA80F6A4190B3CB4F1200681
:101840002FBF00FA06F1A140C4F1200620FA06F6E7
:1018500038BF3143A0403C1B1AE7AC421ABF05EA2F
:101860001357AF4212E050EA41061CBF52EA43064A
:10187000BFE750EA4107304661461CBF41EA0551C7
:10188000F0BD52EA430C08BFC143F0BD00204FF445
:10189000001616EB410F98BF16EB430F08BF16EB6F
:1018A000410F24BFC14305E016EB430F0CBF614657
:1018B0004CEA0551F0BD0000400D491840EA812076
:1018C0000CD2490DA1F58061491C40F0004005DBB8
:1018D000D1F11F0154BFC840C017704700207047A6
:1018E000014648B1B0FA80F18840C91CC1F5846155
:1018F000090501EBD021400570470000B0B581EA31
:10190000030C0CF0004C40F2FF7515EA11541DBF9A
:1019100015EA1357AC42AF4239E0E41923EA4553C4
:1019200043F48013C90241F0004141EA505EC7020E
:101930001100A7FB020200284FF00000EEFB01207F
:101940004FF00001E3FB072118BF42F001024018ED
:1019500000214941E3FB0E01A4F580640F0302D28C
:1019600052004041494154F101046CDD470872F1D5
:10197000004250F1000051EB0451A1F580115CBF11
:1019800041EA0C01B0BD4CEA05510020B0BD05EAAA
:101990001357AC4214BFAF4241E050EA410E1CBFA6
:1019A00052EA430E02E061460020B0BD24423C44AE
:1019B0001BD15FEA070EF6D0090302BF01460020E3
:1019C000AEF1140EB1FA81F7AEEB070401FA07FE8F
:1019D0000C37C7F1200100FA07F7C8404EEA000EA5
:1019E00023EA455343F48013A2E733F00043B3FAEC
:1019F00083F704BFB2FA82FE77440B3FE41BB7F1D2
:101A0000200E2FBF02FA0EF3BB40C7F1200E22FAC0
:101A10000EFE38BF43EA0E03BA40641C82E750EA68
:101A2000410E14BF52EA430E6FF000014FF400174D
:101A300017EB430F8ABF194617EB410FB5E74CEA86
:101A400005510020B0BDD4F10104B4F120070FDA34
:101A5000C4F12007520828BF42F0010210FA07F52E
:101A600001FA07F7E1BF2A43E0403843E1400FE0C5
:101A7000352C98DCC7F1200452EA400220FA07F224
:101A800018BF42F0010231FA07F0A1400A430021D9
:101A900072F1004250F1000051EB0C01B0BD0000AA
:101AA0000048704708000020BBBBE1B1B2F5803FA1
:101AB00080F07E80022A1ED98C46B1FBF2F102FB37
:101AC00011C31B0443EA1043B3FBF2FC02FB1C33BB
:101AD00080B240EA0343B3FBF2F002FB103240EA6B
:101AE0000C4000237047022A05D98446B0FBF2F06F
:101AF00002FB10C270474AB105D100F0010249084B
:101B00005FEA3000704700220023704700F09EB962
:101B10000B000200002100207047904271EB030C83
:101B2000F6D3B3F5803F2FD2F0B5B3FA83F7B1FA0D
:101B300081F4A7F10F0E3D1B5340CEF1200602FAAF
:101B40000EF2F3415340B5F10F0746D80F3C2C4439
:101B50004140C4F12006A040F1414140B1FBF3F601
:101B600003FB1611A2FB0645001BA94102D2761EFB
:101B70008018594180EA010221FA0EF362FA0EF24E
:101B800000215A403046F0BD30B4B1FBF3FC03FBFA
:101B90001C11A2FB0C45001BA94103D2ACF1010CA6
:101BA0008018594130BC02460B4660460021704700
:101BB000B2F1807F65D3F0B5B2FA82F7B1FA81F461
:101BC000C7F10F063D1B22FA06F307F1110EF24191
:101BD00020355A40B5F10F07B8D94140C4F120066D
:101BE000A040F1414140B1FBF3FC03FB1C11A2FBFF
:101BF0000C45001BA94103D2BCF1010C80185941CE
:101C00000F2F12D30F3FC90341EA5041B1FBF3F646
:101C100003FB1611A2FB0645D4EBC030A94102D24A
:101C2000761E8018594146EACC3C07B34140C7F1C3
:101C30002006B840F1414140B1FBF3F603FB161119
:101C4000A2FB0645001BA94102D2761E801859410D
:101C500080EA010221FA0EF3C7F1200462FA0EF2C3
:101C60000CFA07F05A402CFA04F13043F0BD80EA38
:101C7000010221FA0EF3002162FA0EF260465A4088
:101C8000F0BD8C46B1FBF2F102FB11C31B0243EA2B
:101C90001063B3FBF2FC02FB1C331B024CEA002076
:101CA00043EA1063B3FBF2FC02FB1C331B024CEA59
:101CB000002043EA1063B3FBF2FC02FB1C331B025F
:101CC0004CEA002043EA1063B3FBF2FC02FB1C3237
:101CD0004CEA002000237047012000F0B9B8000052
:101CE000841A71EB030604D26E40001BB141121935
:101CF00073414FF4001C1CEB410F34BF7CEB4306D7
:101D000083E00C0DA4EB1356362E00F37C80012EDD
:101D100045EAC32341DC43EA525312BFD202920286
:101D20005B08240545EAC12141EA5051D2EBC020AD
:101D3000994125D407D1B0FA80F610FA06F162D0A5
:101D40000020203608E0B1FA81F6B140C6F1200249
:101D500020FA02F21143B0404FEAF474B4EB465457
:101D600034F001064FEA74040AD8D6F50016760D51
:101D700004F00044F04061FA06F25040F14048405F
:101D8000C00A40EA415021F0004128BF5FEA5005F7
:101D900050F1000044EBD12135E0DB0A45EAC121D6
:101DA000C90AB6F120050EDD42EA0242120CC5F165
:101DB000200603FA06F6EB4042EA06056D4298411A
:101DC00061F100010DE062FA06F5F240554063FA58
:101DD00006FC82EA0C02F3405A406D42904161EBEE
:101DE000030111F4801F05D1641E620502D06D004D
:101DF0004041494121F48011430875F1004350F1FD
:101E0000000041EB045170BC70471CEB410F15D230
:101E100023F0004352EA43060BD04FEA4C0CBCEBD4
:101E2000410F04D80C0D661E342EB7DDEBE7801A87
:101E3000994150EA410608BF0021E4E708BF1CEBC6
:101E4000430F28BF6FF00001DDE70000704700007E
:101E500080B5AFF30080024A11001820ABBEFBE74B
:101E60002600020080B500F06BF800F0A4F800F046
:101E700049F801BD80B50100C9B2002902D1DFF8DF
:101E8000780322E00100C9B2012901D100201CE041
:101E90000100C9B2022901D1002016E00100C9B237
:101EA000032901D1002010E00100C9B2042901D1A9
:101EB00000200AE0C0B2052801D1002005E0E7219A
:101EC000DFF8380300F028FA002002BD70B50D00DD
:101ED0001600C0B2FFF7CEFF0400002C0AD0E06964
:101EE000002801D0E0698047320092B2290020002A
:101EF00000F0BEF870BD02B501226946C0B2FFF71E
:101F0000E5FF01BD80B586B000200090DFF8F40247
:101F1000016851F002010160006810F002000090B9
:101F200000980120029000200390032004900420D8
:101F3000019001A9DFF8D00200F0F8F907B000BD68
:101F4000AD48AF490160B1494160B14981604FF48A
:101F500080618181C18100210182002141820021B3
:101F6000C18200210183002141830021818200215F
:101F7000C1610021016200214162002180F8281026
:101F8000704780B590B00090019100200290002031
:101F90000390049200200690059300200790684665
:101FA00000F0DCFA002804D040F2BA21934800F097
:101FB000B3F911B000BD10B586B000200090914873
:101FC000016851F001010160016811F00101009107
:101FD000009900210091016851F001010160006841
:101FE00010F00100009000980020009089480168DE
:101FF00051F010010160006810F01000009000988E
:102000004FF4007001900220029001200390032001
:10201000049007200590804C01A9200000F086F96B
:102020004FF4806001900720059001A9200000F086
:102030007DF901220021252000F0BFFC252000F0C1
:10204000CDFC6F4C0C2300225FF4E1312000FFF740
:1020500098FF206830F040002060206830F02000B9
:1020600020606E48016851F02001016006B010BD8B
:10207000F8B4002335E0BDF800408589AC4209D1B1
:102080000468E468240605D40468E46854F0800415
:102090000568EC60012585F31088848AADF800405E
:1020A000002484F31088BDF800608789BE42E2D224
:1020B0001E00B6B28E5D4768B0F810C007F80C601D
:1020C00085F31088058A6D1C05828689ADB2B542FC
:1020D00001D300250582858A6D1C858284F31088D2
:1020E0005B1C1C001500A4B2ADB2AC42D2D3016897
:1020F000C96851F080010068C160F1BC704770B5DB
:102100000400206805682068C66820684069A80641
:102110001BD520684168A068E28A8154E08A401C8F
:10212000E082E28980B2904201D30020E082608B9D
:10213000E289904202D2608B401C6083606A002872
:1021400003D00800C0B2616A8847280625D530064A
:1021500023D5A08A00280CD12068C06830F0800008
:102160002168C8602068C06850F040002168C860DD
:1021700013E0012084F828006068618A405C2168CF
:102180004860608A401C6082A18980B2884201D385
:1021900000206082A08A401EA082680624D57006B6
:1021A00022D5A08A00280ED12068C06830F04000F7
:1021B0002168C860206A002801D0206A804700207A
:1021C00084F8280010E06068618A405C21684860FB
:1021D000608A401C6082A18980B2884201D30020BD
:1021E0006082A08A401EA08270BD80B50248FFF7C1
:1021F00086FF01BD00000000AC090020303C000853
:102200000010014030380240000402408C000020E1
:102210008C04002044380240000002400C100140B1
:1022200010B5040020000100C9B20020FFF763FED2
:10223000200010BD80B500F0EBFB00F009F800F0C5
:102240006CFC00F0EDFDFFF70DFE00F099FF01BD05
:1022500080B592B0002000902B48016851F0805169
:102260000160006810F080500090009800200090FD
:102270002648016851F440410160006810F4404074
:1022800000900098012006905FF4803007900220B3
:102290000C905FF480000D9019200E904FF4A87000
:1022A0000F90022010900420119006A801F03CF835
:1022B000002803D06F21164800F02EF80F2001905F
:1022C00002200290002003904FF4A05004904FF49D
:1022D00080500590052101A801F0DCF9002803D009
:1022E00082210B4800F018F800200090094801688E
:1022F00051F480410160006810F480400090009823
:1023000000F09EFB13B000BD40380240007000405A
:10231000B43D000844380240002900D17047FEE770
:1023200080B500F041FD01BD70477047F8B4002250
:1023300000220022002337E00A2704E0DFF8DC2136
:102340009042F9D10927FFB213F00302D2B29200F2
:1023500097403E431A00920845F82260DFF8C051CA
:102360002A68A2434E68F60300D522432A60DFF8AC
:10237000B4512A68A2434E68B60300D522432A60AE
:10238000DFF8A4512A68A2434E68F60200D5224322
:102390002A60DFF898512A68A2434E68B60201D538
:1023A000144322002A605B1C102B80F0B5800125AD
:1023B00015FA03F20C6814409442F4D14A68022AD8
:1023C00002D04A68122A17D11A00D20800EB820202
:1023D000166A0F2713F00702D2B292009740BE434D
:1023E0000F6913F00702D2B2920097403E431A00E1
:1023F000D20800EB82021662076803261A00D2B2E6
:10240000520016FA02F2974391F804C01CF0030C34
:102410001A00D2B252001CFA02FC5CEA07070760FD
:102420004A68012A08D04A68022A05D04A68112A57
:1024300002D04A68122A19D187681A00D2B2520013
:1024400016FA02F29743D1F80CC01A00D2B2520029
:102450001CFA02FC5CEA0707876042689D40AA43B9
:102460004D68C5F300159D402A434260C5681A00B7
:10247000D2B252009640B5438E681A00D2B25200D2
:1024800096403543C5604A68D2008CD50022009240
:10249000274A156855F480451560126812F4804289
:1024A0000092009A234D1A00920855F822600F27D7
:1024B00013F00302D2B292009740BE431E4A9042EC
:1024C00001D100273FE71D4A904201D101273AE799
:1024D0001B4A904201D1022735E71A4A904201D1A6
:1024E000032730E7184A904201D104272BE7174A07
:1024F000904201D1052726E7154A904201D10627CF
:1025000021E7144A904201D107271CE7124A904262
:102510007FF414AF082716E7F1BC7047002402408F
:10252000003C0140043C0140083C01400C3C01409F
:1025300044380240083801400000024000040240D4
:1025400000080240000C024000100240001402404B
:1025500000180240001C02400020024010B5040098
:10256000002C01D1012033E0A0690028FFD194F8AC
:102570003900002805D1002084F83800200000F040
:10258000AFF9242084F839002068C06830F4005086
:102590002168C860200000F01CF82068006930F451
:1025A0009040216808612068406930F02A00216865
:1025B00048612068C06850F400502168C86000205D
:1025C000E063202084F83900202084F83A000020BD
:1025D00010BD2DE9F04104002068016931F440513B
:1025E000E068014320680161A168206901436069D6
:1025F0000143E06901432068C268B64802401143C4
:102600002068C1602068416931F44071A0690143CC
:1026100020684161E069B0F5004F40F0AE8020686D
:10262000AD49884203D02068AC49884252D101F0BC
:10263000DBF8804601F0D8F8050001F0D5F8060077
:1026400001F0D2F8070001F0CFF86421192202FB53
:1026500008F863685B00B8FBF3F35FF0640CB3FB4E
:10266000FCF35543D4F804C05FEA4C0CB5FBFCF511
:102670005643D4F804C05FEA4C0CB6FBFCF65FF09E
:10268000640CB6FBFCF601FB1655ED0032356426F2
:10269000B5FBF6F56D0015F4F87515EB031557430A
:1026A00063685B00B7FBF3F302FB00F26068400075
:1026B000B2FBF0F06422B0FBF2F001FB1031C80075
:1026C00032306421B0FBF1F010F0070045192068AA
:1026D0008560FDE001F07DF8804601F07AF80500A4
:1026E00001F077F8060001F074F8070001F071F8C6
:1026F0006421192202FB08F863685B00B8FBF3F35E
:102700005FF0640CB3FBFCF35543D4F804C05FEAFC
:102710004C0CB5FBFCF55643D4F804C05FEA4C0CF6
:10272000B6FBFCF65FF0640CB6FBFCF601FB16553D
:10273000ED0032356426B5FBF6F56D0015F4F8753D
:1027400015EB0315574363685B00B7FBF3F302FB1C
:1027500000F260684000B2FBF0F06422B0FBF2F0DF
:1027600001FB1031C80032306421B0FBF1F010F0F1
:102770000700451920688560AAE02068564988420C
:1027800003D020685549884251D101F02DF8804688
:1027900001F02AF8050001F027F8060001F024F8FE
:1027A000070001F021F86421192202FB08F8636890
:1027B0009B00B8FBF3F35FF0640CB3FBFCF35543F1
:1027C000D4F804C05FEA8C0CB5FBFCF55643D4F892
:1027D00004C05FEA8C0CB6FBFCF65FF0640CB6FB41
:1027E000FCF601FB16552D0132356426B5FBF6F5D6
:1027F00015F0F00515EB0315574363689B00B7FB15
:10280000F3F302FB00F260688000B2FBF0F0642298
:10281000B0FBF2F001FB1031080132306421B0FB53
:10282000F1F010F00F0045192068856050E000F0CD
:10283000D0FF804600F0CDFF050000F0CAFF060083
:1028400000F0C7FF070000F0C4FF6421192202FB5B
:1028500008F863689B00B8FBF3F35FF0640CB3FB0C
:10286000FCF35543D4F804C05FEA8C0CB5FBFCF5CF
:102870005643D4F804C05FEA8C0CB6FBFCF65FF05C
:10288000640CB6FBFCF601FB16552D0132356426AF
:10289000B5FBF6F515F0F00515EB03155743636826
:1028A0009B00B7FBF3F302FB00F260688000B2FB11
:1028B000F0F06422B0FBF2F001FB1031080132307D
:1028C0006421B0FBF1F010F00F004519206885601D
:1028D000BDE8F081F369FFFF0010014000140140E2
:1028E0007047000010F00700414B1A684FF6FF01D7
:1028F0000A40404951EA00210A431A6070473C48A7
:102900000068C0F302207047010049B2002908D4D2
:10291000012210F01F018A40374940B2400941F8B6
:1029200020207047020052B2002A04D40901334A21
:1029300040B2115407E00901314A40B210F00F00D3
:10294000104400F8041C704710B410F00700D0F1D8
:102950000703052B01D3042301E0D0F10703041D75
:10296000072C01D2002000E0C01E012414FA03F35A
:102970005B1E1940814014FA00F0401E10400843CD
:1029800010BC704780B5411EB1F1807F01D301209A
:102990000EE0401E1B4908600F215FF0FF30FFF77B
:1029A000C1FF00201849086007201849086000206E
:1029B00002BD80B5FFF796FF01BD70B504000D00A4
:1029C00016000020FFF79BFF32002900FFF7BCFF35
:1029D0000100200040B2FFF7A5FF70BD80B540B2F6
:1029E000FFF792FF01BD80B5FFF7CCFF02BD0000ED
:1029F0000CED00E00000FA0500E100E000E400E07A
:102A000018ED00E014E000E018E000E010E000E065
:102A100080B50D48016851F400710160016851F4FE
:102A200080610160016851F4807101600320FFF74B
:102A3000C0FF0F2000F030FF00F00AF8002002BDB8
:102A40000120024908607047003C02400004274210
:102A500070470000DFF840230100C9B252F831107E
:102A600009690300DBB202EBC3039B88194201D161
:102A7000002100E00121C0B202EBC0008079C9B2A0
:102A8000814201D1012000E000207047F8B5040028
:102A90002000C0B208281BDA0026FF27002508E026
:102AA0002800C0B2FFF7D6FF002801D0761C2F0007
:102AB0006D1C2800C0B20828F2DBF6B2012E05D149
:102AC000FFB2E4B2A74201D1012025E0002023E0BB
:102AD0002000C0B208280DD10020FFF7BBFF00285E
:102AE00006D00120FFF7B6FF002801D0012013E037
:102AF000002011E0E4B2092C0DD10120FFF7AAFF5C
:102B0000002806D00220FFF7A5FF002801D00120F1
:102B100002E0002000E00020F2BD80B500F066F881
:102B200000F001F801BD10B586B000200090DFF87C
:102B30006C02016851F004010160016811F00401A8
:102B40000091009900210091016851F0200101607D
:102B5000016811F0200100910099002100910168A5
:102B600051F080010160016811F08001009100992D
:102B700000210091016851F040010160016811F0ED
:102B800040010091009900210091016851F08001FD
:102B90000160016811F0800100910099002100910D
:102BA000016851F480710160006810F48070009039
:102BB000009800200290002003900320049000243D
:102BC0000EE075482100C9B200EBC101898801916E
:102BD00001A92200D2B250F83200FFF7A7FB641C13
:102BE0002000C0B20828ECDB06B010BD80B56C48F0
:102BF000002181720021C1720021017300201FE0B9
:102C0000684964220300DBB21B010B441A810222D3
:102C10000300DBB21B010B441A7100220300DBB27C
:102C20001B010B449A7200220300DBB21B010B4410
:102C3000DA7200220300DBB21B0119440A73401C44
:102C40000100C9B20A29DBDB06226421032000F05F
:102C50001CF806226421042000F017F806226421E3
:102C6000052000F012F806226421062000F00DF87D
:102C700001BD4B49CA7A8854C87A401CC872C87AC8
:102C80000A2801DB0020C872704710B4454B0400CD
:102C9000E4B224011C4421810100C9B20901194494
:102CA000CA720021C0B200011844017310BC704701
:102CB00038B504003B482100C9B2090100EB010509
:102CC0002000C0B2FFF7E2FE002846D02879052890
:102CD00002DA052028715EE028790A2803DA2879CB
:102CE000401C287157E0A87A00280AD10120A87258
:102CF0002100C9B203204143491C0800C0B2FFF7BC
:102D0000B8FF2889002846D0E888298988420FD250
:102D1000E888401CE880E888298988423BD1E4B2F1
:102D200003204443E41C2000C0B2FFF7A2FF32E0BE
:102D3000E87A00282FD0287B401C2873287BE97A6A
:102D4000884228D300202873E4B203204443641C43
:102D50002000C0B2FFF78DFF1DE02879062802DBB6
:102D60000520287113E02879002803D02879401E17
:102D700028710CE0A87A012809D10020A872E4B2D9
:102D800003204443A41C2000C0B2FFF772FF0020C0
:102D9000E8800020287331BD703F000830380240C1
:102DA000D80900208C08002010B5002404E0200081
:102DB000C0B2FFF77DFF641C2000C0B20A28F6DB1A
:102DC00010BD0000020052B2002A05D40901DFF84C
:102DD000582340B2115408E00901DFF8502340B2F3
:102DE00010F00F00104400F8041C704780B5411E1D
:102DF000B1F1807F01D3012011E0401EDFF83013D4
:102E000008600F215FF0FF30FFF7DCFF0020DFF8E4
:102E1000241308600720DFF820130860002002BD9B
:102E200010B500201BE00C21DFF810230300DBB2FB
:102E30004B43134400245C600300DBB24B43134458
:102E400000249C600300DBB24B43134400245C70FD
:102E500000230400E4B201FB04F15354401C0100C0
:102E6000C9B20429DFDBDFF8D80200684FF47A71B9
:102E7000B0FBF1F0FFF7BAFF0120DFF8C8120870CD
:102E800000F0AFF810BD10B5DFF8BC1208680028DC
:102E900008D00868401E0860002803D10120DFF830
:102EA000AC12087000240AE0DFF890122200D2B2BF
:102EB0000C20424301EB020000F020F8641C2000CB
:102EC000C0B20428F0DBDFF888020168491C016009
:102ED00001687FF00042914201D100210160FFF7BB
:102EE00023FADFF870020178491C017001780A2981
:102EF00003DB00210170FFF713FA10BD41680029C0
:102F00000BD04168491E4160002906D10121417062
:102F10000178012901D181684160704710B500280E
:102F200014D0012800D10220012181F31088DFF89C
:102F300018120860DFF8144200202070002080F38F
:102F40001088FFF7F2F920780128FAD110BD10B5EA
:102F50000200D2B2042A05DB824A8049804800F090
:102F6000C1FCFEE7012282F310880C22734B04009F
:102F7000E4B254431C4461600400E4B254431C4472
:102F8000A1600100C9B25143194400244C700121D1
:102F9000C0B250431954002080F3108810BD0100C6
:102FA000C9B2042901DB002010E00C21634A0300B0
:102FB000DBB24B4313445B78012B06D1C0B24843CC
:102FC000104400214170012000E00020704780B5CE
:102FD00000F09CFC5B480078002801D0FFF753FF0D
:102FE00001BD00B591B001A8402100F09BFC5FF04D
:102FF0008040002100915C490A6852F001020A6099
:10300000096811F00101009100994D490A685208C0
:103010004FF6FF71504BB2FBF3F28A18B0F1804FBC
:1030200002D0524B984202D15FF0FF31FFE701908E
:1030300092B202920491002005900020039000209B
:1030400006908020079001A800F070FC002804D0B2
:1030500040F21F214148FFF75FF9022200211C20A6
:10306000FFF7ABFC1C20FFF7B9FC01A800F07AFCCD
:1030700011B000BD10B5002000205FF08044216930
:1030800011F00201E06810F0020089B200290BD0B3
:1030900080B2002808D04FF6FD702061E16808403A
:1030A000E060334800688047216911F00401E0685E
:1030B00010F0040089B200290BD080B2002808D09B
:1030C0004FF6FB702061E1680840E0602948006825
:1030D0008047216911F00801E06810F0080089B20A
:1030E00000290BD080B2002808D04FF6F77020617D
:1030F000E1680840E060204800688047216911F0DD
:103100001001E06810F0100089B200290BD080B2E5
:10311000002808D04FF6EF702061E1680840E060B9
:1031200016480068804710BD00E400E018ED00E09C
:1031300014E000E018E000E010E000E07C0900206E
:1031400004000020090A0020F8090020080A0020D5
:10315000FC0900200A0A002040420F00F43C00084D
:1031600070410008D042000840380240000C004086
:10317000E8090020EC090020F0090020F4090020F3
:1031800010B586B0002000905D48016851F0040140
:103190000160016811F00401009100990021009183
:1031A000016851F020010160016811F020010091D7
:1031B000009900210091016851F48071016000685C
:1031C00010F4807000900098012000F04EF802206A
:1031D00000F04BF8032000F048F8042000F045F818
:1031E0000120029000200390022004904FF48060A0
:1031F000019001A94348FFF799F880200190424CC3
:1032000001A92000FFF792F84FF48070019001A906
:103210002000FFF78BF80420019001A93B48FFF73D
:1032200085F806B010BD401E0100C9B2002904D1C6
:103230004FF480603649086016E00100C9B20129E8
:1032400003D18020334908600EE00100C9B2022991
:1032500004D14FF480702F49086005E0C0B2032804
:1032600002D104202C4908607047401E0100C9B2F9
:10327000002904D15FF080602549086018E0010052
:10328000C9B2012904D15FF40000224908600FE0AF
:103290000100C9B2022904D15FF080701D490860A5
:1032A00006E0C0B2032803D15FF48020194908600A
:1032B00070470100C9B2012905D11848016891F48D
:1032C000806101601BE00100C9B2022905D11448E8
:1032D000016891F08001016011E00100C9B2032989
:1032E00005D10F48016891F48071016007E0C0B218
:1032F000042804D10B48016891F004010160704773
:103300003038024000200240001402400008024011
:1033100018200240181402401808024014200240ED
:1033200014140240140802402DE9FC410400002C52
:1033300001D1012098E12078C0075CD5DFF82C038B
:10334000016811F00C01042909D0006810F00C008C
:1033500008280ED1DFF818030068400209D5DFF80D
:1033600014030068800346D56068002843D101201B
:103370007AE16068B0F5803F06D1DFF8F8020168B5
:1033800051F48031016017E06068B0F5A02F0AD1D8
:10339000DFF8E002016851F480210160016851F416
:1033A0008031016008E0B348016831F48031016088
:1033B000016831F480210160606800280DD000F0C0
:1033C0005BFB0500AB480068800314D400F054FB9D
:1033D000401B6528F6D3032046E100F04DFB0500B5
:1033E000A4480068800306D500F046FB401B652812
:1033F000F6D3032038E1207880071DD59B4801686B
:1034000011F00C0F08D0006810F00C0008282AD129
:1034100097480068400226D496480168890704D579
:10342000E168012901D001201EE1016831F0F801B5
:10343000226951EAC20101602078000751D5606914
:1034400000283DD001208C49086000F015FB0500E4
:103450008A480068800744D400F00EFB401B032814
:10346000F6D3032000E1E068002818D00120844949
:10347000086000F001FB05007E480168890706D45A
:1034800000F0FAFA401B0328F6D30320ECE00168B1
:1034900031F0F801226951EAC2010160CCE7002055
:1034A0007749086000F0E8FA050072480068800774
:1034B000C2D500F0E1FA401B0328F6D30320D3E085
:1034C00000206D49086000F0D7FA05006B480068DD
:1034D000800706D500F0D0FA401B0328F6D303205E
:1034E000C2E0207840076FD50026664D2868C000EE
:1034F0000BD400200090286850F080502860286885
:1035000010F080500090009801265F4F3868C00589
:1035100011D4386850F48070386000F0ADFA8046FD
:103520003868C00507D400F0A7FAB0EB08000328FC
:10353000F6D3032098E0A068012805D1534801681C
:1035400051F00101016015E0A068052809D14F483C
:10355000016851F004010160016851F0010101604E
:1035600008E04A480168490849000160016831F0F3
:1035700004010160A06800280FD000F07DFA070068
:1035800042480068800718D400F076FAC01B41F268
:1035900089318842F4D3032066E000F06DFA070019
:1035A0003A480068800708D500F066FAC01B41F26F
:1035B00089318842F4D3032056E0F6B2012E03D1BC
:1035C000286830F080502860A06900284BD0274838
:1035D000006810F00C00082843D0A06902282FD101
:1035E0002B4E0020306000F047FA0700214D28687C
:1035F000800106D500F040FAC01B0328F6D3032053
:1036000032E0E169206A0143606A51EA8011A06AF0
:103610004008401E51EA0041E06A51EA0061144846
:1036200001600120306000F027FA04002868800162
:1036300019D400F021FA001B0328F7D3032013E06C
:1036400000201349086000F017FA040009480068D8
:10365000800108D500F010FA001B0328F6D30320E0
:1036600002E0012000E00020BDE8F68108380240B9
:103670000438024000380240800E4742743802404D
:10368000000047424038024000700040703802405D
:10369000600047422DE9F04104000E00002C01D1EA
:1036A000012091E0564D286810F00F00B04207D27B
:1036B0002E70286810F00F00B04201D0012083E086
:1036C0002078800716D52078400704D54D4801683A
:1036D00051F4E05101602078000704D549480168A1
:1036E00051F46041016047490A6832F0F002A06875
:1036F00002430A602078C00735D56068012805D1EB
:1037000041480068800313D401205DE0606802280E
:1037100002D06068032805D13B480068800107D4C7
:10372000012051E038480068800701D401204BE0B7
:10373000344F39688908890060680143396000F0B6
:103740009BF98046386810F00C006168B0EB810F7F
:1037500009D000F091F9B0EB080041F289318842BC
:10376000F0D3032030E0286810F00F00864207D223
:103770002E70286810F00F00B04201D0012023E025
:103780002078400706D51F490A6832F4E052E06805
:1037900002430A602078000707D51A48016831F40F
:1037A0006041226951EAC201016000F035F8174911
:1037B000144A1268C2F30312895CC84014490860B5
:1037C0000F2000F069F80020BDE8F0811048006883
:1037D000704780B5FFF7FAFF0E490A4A1268C2F334
:1037E0008222895CC84002BD80B5FFF7EFFF09491E
:1037F000044A1268C2F34232895CC84002BD00002C
:10380000003C0240083802400038024018430008DB
:10381000040000204C43000810B5002000200020C8
:1038200000201948006810F00C00002804D004287B
:1038300004D0082804D025E0144824E0144822E0ED
:10384000144C226812F03F022068400209D520681B
:10385000C0F388100E49A1FB00010023FEF724F9F4
:1038600008E02068C0F388100849A1FB000100238C
:10387000FEF71AF92168C1F30141491C4900B0FB68
:10388000F1F000E0014810BD083802400024F400C7
:1038900040787D010438024010B504004FF47A707E
:1038A0000D490978B0FBF1F00C490968B1FBF0F063
:1038B000FFF799F8002801D001200CE0102C09D264
:1038C000002221005FF0FF30FFF777F80448046022
:1038D000002000E0012010BD88000020040000202E
:1038E000000000200EB4C0B5024603A800210190DC
:1038F000009101AB0121044878440C30FCF744FCF2
:1039000006BC5DF810FB00BFA50900000348016874
:10391000034A127889180160704700BF000A00202E
:1039200088000020002200F0ADB8000010B50400AF
:10393000002C01D1012014E094F83D00002805D1AD
:10394000002084F83C00200000F094F8022084F865
:103950003D00211D206800F019F8012084F83D0089
:10396000002010BD022180F83D100168896811F027
:103970000701062905D00168096851F001010268B4
:103980001160012180F83D100020704710B40468D8
:10399000DFF8B430984212D0B0F1804F0FD0DFF88A
:1039A000AC2090420BD0DFF8A820904207D0DFF87F
:1039B000A420904203D0DFF8A020904203D134F03D
:1039C00070044A681443984225D0B0F1804F22D049
:1039D000DFF8782090421ED0DFF8742090421AD091
:1039E000DFF87020904216D0DFF86C20904212D0A1
:1039F000DFF8682090420ED0194A90420BD0194A45
:103A0000904208D0184A904205D0184A904202D0FD
:103A1000174A904203D134F44074CA68144334F016
:103A200080044A69144304608A68C2620A68826238
:103A3000984202D0084A904201D1096901630121EC
:103A4000416110BC704700000000014000040040CC
:103A500000080040000C004000040140004001400C
:103A6000004401400048014000180040001C004094
:103A7000002000407047000001480068704700BF08
:103A8000000A002000B500BF130096469446103986
:103A900028BFA0E80C50FAD85FEA417C28BF0CC0D0
:103AA00048BF40F8042BC90728BF20F8022B48BFA5
:103AB00000F8012B00BD000080B5FEF7BBFB00F055
:103AC0003BF800F02EF80120FFF7ADFB6420FFF774
:103AD00025FA0120FFF7C9FB6420FFF71FFA6421D4
:103AE0000020FFF734FA4FF4FA710120FFF72FFAA4
:103AF000FEF71BFC0020FFF752FA002802D001203D
:103B0000FFF7D7FB0120FFF74AFA0028F0D0022088
:103B1000FFF7CFFB0320FFF7CCFB0420FFF7C9FB27
:103B2000E6E780B52A48FFF7DDFE2A48FFF7DAFE10
:103B30002948FFF7D7FE01BDF8B5284C2000FFF754
:103B4000D1FE2748056827480668274807682748A0
:103B500000682749B0FBF1F12648FFF7C3FE2B00B0
:103B6000320039002448FFF7BDFE17A0FFF7BAFE68
:103B70002000FFF7B7FE21492148FFF7B3FE13A14C
:103B80002048FFF7AFFE20492048FFF7ABFE204852
:103B9000FFF7A8FE1F48FFF7A5FE1F48FFF7A2FE8C
:103BA0001E48FFF79FFE1E48FFF79CFE1D48FFF7CB
:103BB00099FE1D48FFF796FE1C48FFF793FE200074
:103BC000FFF790FEF1BD00000A0D0000312E30001D
:103BD000F8420008203F0008CC3E0008B03F000833
:103BE000107AFF1F147AFF1F187AFF1F04000020AD
:103BF00040420F005C4000081C42000808430008D7
:103C0000344200084C42000838430008644200086F
:103C100028400008444300087C4200089442000801
:103C2000E4410008E4400008084100088C40000816
:103C30004B3A5C42616964754E65746469736B44A8
:103C40006F776E6C6F61645CE38090E5AE89E5AF81
:103C50008CE88EB1E794B5E5AD90E3809153544D77
:103C600033322D5635E5BC80E58F91E69DBF484146
:103C70004CE5BA93E78988E69599E7A88B5C5635B9
:103C8000E5BC80E58F91E69DBF48414CE5BA93E7DE
:103C90008988E69599E7A88B5C31E38081E794A851
:103CA000E688B7E6898BE5868CEFBC8CE590AB4265
:103CB0005350E9A9B1E58AA8E58C85E8AEBEE8AE27
:103CC000A15C56352D3030305FE7A88BE5BA8FE622
:103CD000A8A1E69DBF5C557365725C6273705C73EE
:103CE00072635C6273705F756172745F6669666F40
:103CF0002E6300004B3A5C42616964754E657464E2
:103D000069736B446F776E6C6F61645CE38090E500
:103D1000AE89E5AF8CE88EB1E794B5E5AD90E38070
:103D20009153544D33322D5635E5BC80E58F91E6E5
:103D30009DBF48414CE5BA93E78988E69599E7A885
:103D40008B5C5635E5BC80E58F91E69DBF48414CC4
:103D5000E5BA93E78988E69599E7A88B5C31E3801B
:103D600081E794A8E688B7E6898BE5868CEFBC8C62
:103D7000E590AB425350E9A9B1E58AA8E58C85E806
:103D8000AEBEE8AEA15C56352D3030305FE7A88B73
:103D9000E5BA8FE6A8A1E69DBF5C557365725C62CB
:103DA00073705C7372635C6273705F74696D65726B
:103DB0002E6300004B3A5C42616964754E65746421
:103DC00069736B446F776E6C6F61645CE38090E540
:103DD000AE89E5AF8CE88EB1E794B5E5AD90E380B0
:103DE0009153544D33322D5635E5BC80E58F91E625
:103DF0009DBF48414CE5BA93E78988E69599E7A8C5
:103E00008B5C5635E5BC80E58F91E69DBF48414C03
:103E1000E5BA93E78988E69599E7A88B5C31E3805A
:103E200081E794A8E688B7E6898BE5868CEFBC8CA1
:103E3000E590AB425350E9A9B1E58AA8E58C85E845
:103E4000AEBEE8AEA15C56352D3030305FE7A88BB2
:103E5000E5BA8FE6A8A1E69DBF5C557365725C620A
:103E600073705C6273702E63000000000F4801687D
:103E700051F4700101600E49086850F001000860BB
:103E800000200C4A10600A680B4802400A600B4888
:103E90000B4A1060086830F480200860002009494F
:103EA00008605FF0006008490860704788ED00E036
:103EB0000038024008380240FFFFF6FE10300024B0
:103EC000043802400C38024008ED00E0322E20E5B4
:103ED000868DE590AFE58AA8E4B880E4B8AAE887C3
:103EE000AAE58AA8E9878DE8A385E8BDAFE4BBB65B
:103EF000E5AE9AE697B6E599A8EFBC8CE6AF8F35AC
:103F000030306D73E7BFBBE8BDACE4B880E6ACA170
:103F10004C454433E5928C4C4544340D0A00000076
:103F2000312E20E590AFE58AA8E4B880E4B8AAE88D
:103F300087AAE58AA8E9878DE8A385E8BDAFE4BB39
:103F4000B6E5AE9AE697B6E599A8EFBC8CE6AF8FDA
:103F50003130306D73E7BFBBE8BDACE4B880E6AC90
:103F6000A14C454431E5928C4C4544320D0A000089
:103F70000020024000010000000802400020000074
:103F80000020024000080000001C02400400000065
:103F9000001C02400800000000140240000800005D
:103FA0000018024080000000001C02400080000059
:103FB0002A2A2A2A2A2A2A2A2A2A2A2A2A2A2A2A61
:103FC0002A2A2A2A2A2A2A2A2A2A2A2A2A2A2A2A51
:103FD0002A2A2A2A2A2A2A2A2A2A2A2A2A2A2A2A41
:103FE0002A2A2A2A2A2A2A2A2A2A2A2A2A0A0D0098
:103FF00030B5016884684218416802EB5103C90773
:1040000003D54C4401E0491C05D19A420AD012F96B
:10401000011B12F8015B002904F8015BF3D4491E6F
:10402000F7D5F2E70C3030BD2A2048414CE5BA9371
:10403000E78988E69CAC20203A2056322E342E3078
:10404000202853544D3332463430372048414C20D9
:10405000447269766572290D0A0000000D0A43500A
:1040600055203A2053544D33324634303749475463
:10407000362C204C5146503137362C20E4B8BBE961
:10408000A2913A2025644D487A0D0A002A20436FF8
:1040900070797269676874207777772E61726D66C0
:1040A0006C792E636F6D20E5AE89E5AF8CE88EB13B
:1040B000E794B5E5AD900D0A0000000010B5074982
:1040C00079441831064C7C44163404E00A68081D13
:1040D000114488470146A142F8D110BD7400000088
:1040E000900000002A20E5BEAEE4BFA1E585ACE467
:1040F000BC97E58FB73A2061726D666C795F636F2C
:104100006D200D0A000000002A20E6B798E5AE9D5C
:10411000E5BA973A2061726D666C792E74616F62B0
:10412000616F2E636F6D0D0A000000004EF688511E
:10413000CEF20001086840F470000860BFF34F8FB2
:10414000BFF36F8F4FF00070E1EE100A7047000070
:10415000FBCFFFFF800900008C0000200000000062
:1041600091FEFFFF34030000C400000000000020A7
:104170004572726F723A2066696C652025732C2037
:1041800066756E6374696F6E20257328290D0A00A9
:1041900006490A68002A07D50A6852F000420A60F8
:1041A0008169891C81617047FEE700BF2CED00E04A
:1041B00000F00DF8002801D0FFF780FFAFF300807A
:1041C0000020AFF30080FFF777FC00F002F8012039
:1041D000704700F001B8000007463846FDF738FE8A
:1041E000FBE700002A20456D61696C203A2061726E
:1041F0006D666C794071712E636F6D200D0A000041
:104200000548014603B4684680F30988AFF300808F
:10421000FFF78CFFFFF7CCFFA5EDF5FE55494420D5
:104220003D20253038582025303858202530385842
:104230000A0D00002A20E4BE8BE7A88BE5908DE7ED
:10424000A7B02020203A2025730D0A002A20E4BEC2
:104250008BE7A88BE78988E69CAC2020203A2025B4
:10426000730D0A002A20E58F91E5B883E697A5E64D
:104270009C9F2020203A2025730D0A002A205151AE
:10428000202020203A20313239353734343633304B
:10429000200D0A002A20E697BAE697BA20203A2095
:1042A00061726D666C790D0A0000000038B5044635
:1042B0000D46284600F006F8A84218BF0024204604
:1042C00032BD00000149FDF7ABBF00BF4000002038
:1042D0006273705F53746172744175746F54696D69
:1042E000657200001EF0040F0CBFEFF30880EFF3BF
:1042F0000980FFF74DBF0000E6938DE4BD9CE68F7B
:1043000090E7A4BA3A0D0A0056352DE8B791E9A90D
:10431000ACE781AF000000000000000000000000DA
:1043200001020304060708090148804701480047C5
:104330006D3E000801420008323031392D30342DF5
:10434000323300002A200D0A0000000000000000A7
:1043500001020304686A6C747A4C0000FFF7FEBF28
:10436000FFF7FEBFFFF7FEBFFFF7FEBFFFF7FEBF81
:10437000FFF7FEBFFFF7FEBFFFF7FEBFFFF7FEBF71
:10438000FFF7FEBFFFF7FEBFFFF7FEBFFFF7FEBF61
:10439000FFF7FEBFFFF7FEBFFFF7FEBFFFF7FEBF51
:1043A000FFF7FEBFFFF7FEBFFFF7FEBFFFF7FEBF41
:1043B000FFF7FEBFFFF7FEBFFFF7FEBFFFF7FEBF31
:1043C000FFF7FEBFFFF7FEBFFFF7FEBFFFF7FEBF21
:1043D000FFF7FEBFFFF7FEBFFFF7FEBFFFF7FEBF11
:1043E000FFF7FEBFFFF7FEBFFFF7FEBFFFF7FEBF01
:1043F000FFF7FEBFFFF7FEBFFFF7FEBFFFF7FEBFF1
:10440000FFF7FEBFFFF7FEBFFFF7FEBFFFF7FEBFE0
:10441000FFF7FEBFFFF7FEBFFFF7FEBFFFF7FEBFD0
:10442000FFF7FEBFFFF7FEBFFFF7FEBFFFF7FEBFC0
:10443000FFF7FEBFFFF7FEBFFFF7FEBFFFF7FEBFB0
:10444000FFF7FEBFFFF7FEBFFFF7FEBFFFF7FEBFA0
:10445000FFF7FEBFFFF7FEBFFFF7FEBFFFF7FEBF90
:10446000FFF7FEBFFFF7FEBFFFF7FEBFFFF7FEBF80
:10447000FFF7FEBFFFF7FEBFFFF7FEBFFFF7FEBF70
:10448000FFF7FEBFFFF7FEBFFFF7FEBFFFF7FEBF60
:10449000FFF7FEBFFFF7FEBF0010FC001E24F40074
:1044A0001E1300081E1300081E1300081E13000828
:1044B0001E1300081E1300081E130008F8FF0B1E31
:1044C0001200081E1300081E130008FAFF15000052
:1044D000020401012C0900207C0900202C09002085
:1044E0002C090020FC00032C090020FC000784009C
:0A44F000002070000020E000000131
:0400000508004201AC
:00000001FF
