:020000040800F2
:10000000B87A0020D9B70708FDB80708D5B50708A2
:10001000FFB8070801B9070803B907080000000086
:1000200000000000000000000000000005B9070803
:1000300007B907080000000085890708AB97070883
:100040000DBB070811BB070815BB070819BB07083C
:100050001DBB070821BB070825BB070829BB0708EC
:100060002DBB070831BB070835BB070839BB07089C
:100070003DBB070841BB070845BB070893FF0608BF
:1000800049BB07084DBB070851BB070855BB07080C
:10009000E541070859BB07085DBB070861BB0708B6
:1000A00065BB070869BB07086DBB070871BB07087C
:1000B000ABF906089FFF060875BB070879BB070860
:1000C0007DBB070881BB070885BB070889BB0708FC
:1000D0008DBB070847CE050891BB070895BB0708ED
:1000E00099BB07089DBB0708A1BB0708A5BB07086C
:1000F000A9BB0708ADBB0708B1BB0708B5BB07081C
:10010000B9BB07088FB90608BDBB0708C1BB070804
:10011000C5BB0708C9BB0708CDBB0708D1BB07088B
:10012000D5BB0708D9BB0708DDBB0708A5B906087A
:10013000E1BB0708E5BB0708E9BB0708EDBB0708FB
:10014000F1BB0708F5BB0708F9BB0708FDBB0708AB
:1001500001BC070899B9060805BC070809BC0708CF
:100160000DBC070811BC070815BC070819BC070817
:100170001DBC070821BC070825BC070800000000BB
:1001800029BC07082DBC0708A400E8A1A700ECA122
:10019000A800A7A1B000E3A1B100C0A1B700A4A12D
:1001A000D700C1A1E000A4A8E100A2A8E800A8A887
:1001B000E900A6A8EA00BAA8EC00ACA8ED00AAA83D
:1001C000F200B0A8F300AEA8F700C2A1F900B4A8ED
:1001D000FA00B2A8FC00B9A80101A1A81301A5A8C2
:1001E0001B01A7A82B01A9A84401BDA84801BEA8CE
:1001F0004D01ADA86B01B1A8CE01A3A8D001ABA859
:10020000D201AFA8D401B3A8D601B5A8D801B6A829
:10021000DA01B7A8DC01B8A85102BBA86102C0A8E6
:10022000C702A6A1C902A5A1CA0240A8CB0241A843
:10023000D90242A89103A1A69203A2A69303A3A662
:100240009403A4A69503A5A69603A6A69703A7A61E
:100250009803A8A69903A9A69A03AAA69B03ABA6EE
:100260009C03ACA69D03ADA69E03AEA69F03AFA6BE
:10027000A003B0A6A103B1A6A303B2A6A403B3A68C
:10028000A503B4A6A603B5A6A703B6A6A803B7A65A
:10029000A903B8A6B103C1A6B203C2A6B303C3A6FD
:1002A000B403C4A6B503C5A6B603C6A6B703C7A6BE
:1002B000B803C8A6B903C9A6BA03CAA6BB03CBA68E
:1002C000BC03CCA6BD03CDA6BE03CEA6BF03CFA65E
:1002D000C003D0A6C103D1A6C303D2A6C403D3A62C
:1002E000C503D4A6C603D5A6C703D6A6C803D7A6FA
:1002F000C903D8A60104A7A71004A1A71104A2A7A7
:100300001204A3A71304A4A71404A5A71504A6A761
:100310001604A8A71704A9A71804AAA71904ABA72D
:100320001A04ACA71B04ADA71C04AEA71D04AFA7FD
:100330001E04B0A71F04B1A72004B2A72104B3A7CD
:100340002204B4A72304B5A72404B6A72504B7A79D
:100350002604B8A72704B9A72804BAA72904BBA76D
:100360002A04BCA72B04BDA72C04BEA72D04BFA73D
:100370002E04C0A72F04C1A73004D1A73104D2A7EF
:100380003204D3A73304D4A73404D5A73504D6A7A1
:100390003604D8A73704D9A73804DAA73904DBA76D
:1003A0003A04DCA73B04DDA73C04DEA73D04DFA73D
:1003B0003E04E0A73F04E1A74004E2A74104E3A70D
:1003C0004204E4A74304E5A74404E6A74504E7A7DD
:1003D0004604E8A74704E9A74804EAA74904EBA7AD
:1003E0004A04ECA74B04EDA74C04EEA74D04EFA77D
:1003F0004E04F0A74F04F1A75104D7A710205CA921
:10040000132043A81420AAA1152044A81620ACA1AB
:100410001820AEA11920AFA11C20B0A11D20B1A1B0
:10042000252045A82620ADA13020EBA13220E4A153
:100430003320E5A1352046A83B20F9A1AC2080005F
:100440000321E6A1052147A8092148A81621EDA10D
:10045000212159A96021F1A26121F2A26221F3A216
:100460006321F4A26421F5A26521F6A26621F7A218
:100470006721F8A26821F9A26921FAA26A21FBA2E8
:100480006B21FCA27021A1A27121A2A27221A3A2C0
:100490007321A4A27421A5A27521A6A27621A7A2E8
:1004A0007721A8A27821A9A27921AAA29021FBA153
:1004B0009121FCA19221FAA19321FDA1962149A8A5
:1004C00097214AA898214BA899214CA80822CAA193
:1004D0000F22C7A11122C6A115224DA81A22CCA114
:1004E0001D22D8A11E22DEA11F224EA82022CFA1AC
:1004F00023224FA82522CEA12722C4A12822C5A1AC
:100500002922C9A12A22C8A12B22D2A12E22D3A1FD
:100510003422E0A13522DFA13622C3A13722CBA1AC
:100520003D22D7A14822D6A14C22D5A1522250A8C3
:100530006022D9A16122D4A16422DCA16522DDA1BF
:10054000662251A8672252A86E22DAA16F22DBA18F
:10055000952292A89922D1A1A522CDA1BF2253A86C
:100560001223D0A16024D9A26124DAA26224DBA2E2
:100570006324DCA26424DDA26524DEA26624DFA25B
:100580006724E0A26824E1A26924E2A27424C5A23F
:100590007524C6A27624C7A27724C8A27824C9A24B
:1005A0007924CAA27A24CBA27B24CCA27C24CDA21B
:1005B0007D24CEA27E24CFA27F24D0A28024D1A2EB
:1005C0008124D2A28224D3A28324D4A28424D5A2BB
:1005D0008524D6A28624D7A28724D8A28824B1A2B3
:1005E0008924B2A28A24B3A28B24B4A28C24B5A2FB
:1005F0008D24B6A28E24B7A28F24B8A29024B9A2CB
:100600009124BAA29224BBA29324BCA29424BDA29A
:100610009524BEA29624BFA29724C0A29824C1A26A
:100620009924C2A29A24C3A29B24C4A20025A4A9EF
:100630000125A5A90225A6A90325A7A90425A8A9DE
:100640000525A9A90625AAA90725ABA90825ACA9AE
:100650000925ADA90A25AEA90B25AFA90C25B0A97E
:100660000D25B1A90E25B2A90F25B3A91025B4A94E
:100670001125B5A91225B6A91325B7A91425B8A91E
:100680001525B9A91625BAA91725BBA91825BCA9EE
:100690001925BDA91A25BEA91B25BFA91C25C0A9BE
:1006A0001D25C1A91E25C2A91F25C3A92025C4A98E
:1006B0002125C5A92225C6A92325C7A92425C8A95E
:1006C0002525C9A92625CAA92725CBA92825CCA92E
:1006D0002925CDA92A25CEA92B25CFA92C25D0A9FE
:1006E0002D25D1A92E25D2A92F25D3A93025D4A9CE
:1006F0003125D5A93225D6A93325D7A93425D8A99E
:100700003525D9A93625DAA93725DBA93825DCA96D
:100710003925DDA93A25DEA93B25DFA93C25E0A93D
:100720003D25E1A93E25E2A93F25E3A94025E4A90D
:100730004125E5A94225E6A94325E7A94425E8A9DD
:100740004525E9A94625EAA94725EBA94825ECA9AD
:100750004925EDA94A25EEA94B25EFA9502554A816
:10076000512555A8522556A8532557A8542558A8B1
:10077000552559A856255AA857255BA858255CA881
:1007800059255DA85A255EA85B255FA85C2560A851
:100790005D2561A85E2562A85F2563A8602564A821
:1007A000612565A8622566A8632567A8642568A8F1
:1007B000652569A866256AA867256BA868256CA8C1
:1007C00069256DA86A256EA86B256FA86C2570A891
:1007D0006D2571A86E2572A86F2573A8702574A861
:1007E000712575A8722576A8732577A8812578A824
:1007F000822579A883257AA884257BA885257CA8CD
:1008000086257DA887257EA8882580A8892581A89A
:100810008A2582A88B2583A88C2584A88D2585A868
:100820008E2586A88F2587A8932588A8942589A832
:1008300095258AA8A025F6A1A125F5A1B225F8A1A4
:10084000B325F7A1BC258BA8BD258CA8C625F4A18E
:10085000C725F3A1CB25F0A1CE25F2A1CF25F1A18B
:10086000E2258DA8E3258EA8E4258FA8E52590A88C
:100870000526EFA10626EEA1092691A84026E2A1B1
:100880004226E1A10030A1A10130A2A10230A3A122
:100890000330A8A10530A9A1063065A9073096A9A3
:1008A0000830B4A10930B5A10A30B6A10B30B7A108
:1008B0000C30B8A10D30B9A10E30BAA10F30BBA1D8
:1008C0001030BEA11130BFA1123093A81330FEA189
:1008D0001430B2A11530B3A11630BCA11730BDA1A0
:1008E0001D3094A81E3095A8213040A9223041A97E
:1008F000233042A9243043A9253044A9263045A9F4
:10090000273046A9283047A9293048A94130A1A459
:100910004230A2A44330A3A44430A4A44530A5A4EB
:100920004630A6A44730A7A44830A8A44930A9A4BB
:100930004A30AAA44B30ABA44C30ACA44D30ADA48B
:100940004E30AEA44F30AFA45030B0A45130B1A45B
:100950005230B2A45330B3A45430B4A45530B5A42B
:100960005630B6A45730B7A45830B8A45930B9A4FB
:100970005A30BAA45B30BBA45C30BCA45D30BDA4CB
:100980005E30BEA45F30BFA46030C0A46130C1A49B
:100990006230C2A46330C3A46430C4A46530C5A46B
:1009A0006630C6A46730C7A46830C8A46930C9A43B
:1009B0006A30CAA46B30CBA46C30CCA46D30CDA40B
:1009C0006E30CEA46F30CFA47030D0A47130D1A4DB
:1009D0007230D2A47330D3A47430D4A47530D5A4AB
:1009E0007630D6A47730D7A47830D8A47930D9A47B
:1009F0007A30DAA47B30DBA47C30DCA47D30DDA44B
:100A00007E30DEA47F30DFA48030E0A48130E1A41A
:100A10008230E2A48330E3A48430E4A48530E5A4EA
:100A20008630E6A48730E7A48830E8A48930E9A4BA
:100A30008A30EAA48B30EBA48C30ECA48D30EDA48A
:100A40008E30EEA48F30EFA49030F0A49130F1A45A
:100A50009230F2A49330F3A49B3061A99C3062A938
:100A60009D3066A99E3067A9A130A1A5A230A2A59C
:100A7000A330A3A5A430A4A5A530A5A5A630A6A5FE
:100A8000A730A7A5A830A8A5A930A9A5AA30AAA5CE
:100A9000AB30ABA5AC30ACA5AD30ADA5AE30AEA59E
:100AA000AF30AFA5B030B0A5B130B1A5B230B2A56E
:100AB000B330B3A5B430B4A5B530B5A5B630B6A53E
:100AC000B730B7A5B830B8A5B930B9A5BA30BAA50E
:100AD000BB30BBA5BC30BCA5BD30BDA5BE30BEA5DE
:100AE000BF30BFA5C030C0A5C130C1A5C230C2A5AE
:100AF000C330C3A5C430C4A5C530C5A5C630C6A57E
:100B0000C730C7A5C830C8A5C930C9A5CA30CAA54D
:100B1000CB30CBA5CC30CCA5CD30CDA5CE30CEA51D
:100B2000CF30CFA5D030D0A5D130D1A5D230D2A5ED
:100B3000D330D3A5D430D4A5D530D5A5D630D6A5BD
:100B4000D730D7A5D830D8A5D930D9A5DA30DAA58D
:100B5000DB30DBA5DC30DCA5DD30DDA5DE30DEA55D
:100B6000DF30DFA5E030E0A5E130E1A5E230E2A52D
:100B7000E330E3A5E430E4A5E530E5A5E630E6A5FD
:100B8000E730E7A5E830E8A5E930E9A5EA30EAA5CD
:100B9000EB30EBA5EC30ECA5ED30EDA5EE30EEA59D
:100BA000EF30EFA5F030F0A5F130F1A5F230F2A56D
:100BB000F330F3A5F430F4A5F530F5A5F630F6A53D
:100BC000FC3060A9FD3063A9FE3064A90531C5A8D9
:100BD0000631C6A80731C7A80831C8A80931C9A875
:100BE0000A31CAA80B31CBA80C31CCA80D31CDA845
:100BF0000E31CEA80F31CFA81031D0A81131D1A815
:100C00001231D2A81331D3A81431D4A81531D5A8E4
:100C10001631D6A81731D7A81831D8A81931D9A8B4
:100C20001A31DAA81B31DBA81C31DCA81D31DDA884
:100C30001E31DEA81F31DFA82031E0A82131E1A854
:100C40002231E2A82331E3A82431E4A82531E5A824
:100C50002631E6A82731E7A82831E8A82931E9A8F4
:100C60002032E5A22132E6A22232E7A22332E8A214
:100C70002432E9A22532EAA22632EBA22732ECA2E4
:100C80002832EDA22932EEA231325AA9A33249A963
:100C90008E334AA98F334BA99C334CA99D334DA960
:100CA0009E334EA9A1334FA9C43350A9CE3351A9C5
:100CB000D13352A9D23353A9D53354A9004EBBD254
:100CC000014EA1B6024E4081034EDFC6044E418163
:100CD000054E4281064E4381074EF2CD084EC9D5DE
:100CE000094EFDC80A4ECFC90B4EC2CF0C4EA2D83A
:100CF0000D4EBBB20E4EEBD30F4E4481104EA4D816
:100D0000114EF3B3124E4581134EA8D7144ED2C7DD
:100D1000154EA7D8164EC0CA174E4681184EF0C7BA
:100D2000194EFBB11A4EB5D21B4ED4B41C4EABB605
:100D30001D4EBFCB1E4EA9D81F4E4781204E488165
:100D4000214E4981224EAAB6234E4A81244EBDC16E
:100D5000254ECFD1264E4B81274EA5C9284EADD862
:100D6000294E4C812A4EF6B82B4EBED12C4EDCE3D8
:100D70002D4ED0D62E4E4D812F4E4E81304EE1B7A6
:100D8000314E4F81324EAEB4334E5081344ED9C1C4
:100D9000354E5181364EBCD8374E5281384EE8CD53
:100DA000394EA4B53A4EAACE3B4EF7D63C4E5381AF
:100DB0003D4EF6C03E4ED9BE3F4EAFD8404E548158
:100DC000414E5581424E5681434ECBC4444E5781CD
:100DD000454EC3BE464E5881474EB1D8484EB4C367
:100DE000494EE5D24A4E59814B4EAED64C4EDACEE4
:100DF0004D4EA7D54E4EF5BA4F4EA6B7504ED6C063
:100E0000514E5A81524EB9C6534ED2C5544EC7C7E1
:100E1000554E5B81564ED4B9574E5C81584ECBB37C
:100E2000594ED2D25A4E5D815B4E5E815C4EBFD828
:100E30005D4EC5BE5E4EF2C65F4EB2D2604EB0CFC2
:100E4000614EE7CF624E5F81634E6081644E618187
:100E5000654E6281664EE9CA674E6381684E648161
:100E6000694EC0D86A4E65816B4E66816C4E678153
:100E70006D4E68816E4E69816F4E6A81704EF2C20E
:100E8000714ED2C2724E6B81734EE9C8744E6C8142
:100E9000754E6D81764E6E81774E6F81784E708182
:100EA000794E71817A4E72817B4E73817C4E748152
:100EB0007D4E75817E4EACC77F4E7681804E7781A8
:100EC000814E7881824E7981834E7A81844E7B81F6
:100ED000854E7C81864ECBC1874E7D81884EE8D37E
:100EE000894EF9D58A4E7E818B4EC2CA8C4EFEB693
:100EF0008D4EA1D88E4EDAD38F4EF7BF904E8081A3
:100F0000914EC6D4924EA5BB934EC1D8944EE5CE19
:100F1000954EAEBE964E8181974E8281984EA8D84E
:100F2000994E83819A4EC7D19B4EA9D09C4E848105
:100F30009D4E85819E4E86819F4EBDD8A04EEFD995
:100F4000A14EF6CDA24EBABFA34E8781A44EBBBD23
:100F5000A54EA5BAA64EE0D2A74EFAB2A84EE0BA68
:100F6000A94EB6C4AA4E8881AB4EEDCFAC4EA9BEF9
:100F7000AD4EA4CDAE4EC1C1AF4E8981B04E8A8177
:100F8000B14E8B81B24ED7C7B34EF1D9B44E8C81DE
:100F9000B54EF4D9B64E8D81B74E8E81B84E8F8145
:100FA000B94E9081BA4ECBC8BB4EE9D8BC4E9181A8
:100FB000BD4E9281BE4E9381BF4EDAD2C04EB2CAB0
:100FC000C14ECAC8C24EECD8C34EEAD8C44EC6D829
:100FD000C54EF6BDC64ECDC6C74EF0B3C84E9481C1
:100FE000C94EEBD8CA4EF1BDCB4EE9BDCC4E958172
:100FF000CD4ED4C8CE4ED3B4CF4E9681D04E97812D
:10100000D14ED8C2D24E9881D34ED6B2D44ED0D77C
:10101000D54ECBCAD64EFBCBD74ECCD5D84EB6B8D4
:10102000D94EC9CFDA4E9981DB4E9A81DC4E9B8135
:10103000DD4EDAD9DE4EF0D8DF4EAAC7E04E9C81F5
:10104000E14EEED8E24E9D81E34EFAB4E44EEEC19D
:10105000E54ED4D2E64E9E81E74E9F81E84EEDD814
:10106000E94EA081EA4EC7D2EB4EEFD8EC4EC7C393
:10107000ED4EA181EE4EA281EF4EA381F04EF6D14E
:10108000F14EA481F24ED9D6F34EF2D8F44EA5819A
:10109000F54EF5D8F64EFEBCF74EDBBCF84EA681F9
:1010A000F94EA781FA4EA881FB4ECEC8FC4EA9810D
:1010B000FD4EDDB7FE4EAA81FF4EC2B7004FAB8199
:1010C000014FF3C6024FAC81034FAD81044FAE8197
:1010D000054FAF81064FB081074FB181084FB281F4
:1010E000094FF8D80A4FC1D20B4FB3810C4FB481CE
:1010F0000D4FE9CE0E4FBFBC0F4FFCB7104FA5B739
:10110000114FDDD0124FB581134FB681144FB78107
:10111000154FB881164FB981174FDAD6184FC5D37E
:10112000194FEFBB1A4FE1BB1B4FF1D81C4FBA81CF
:101130001D4FBB811E4FA1C91F4FB0CE204FABB476
:10114000214FBC81224FF3D8234FBD81244FCBC9FF
:10115000254FF6D8264FD7C2274FF7D8284FBE8144
:10116000294FBF812A4FB1CE2B4FF9D82C4FC081C8
:101170002D4FC1812E4FC2812F4FAEB2304FC0B91B
:10118000314FC381324FA3D9334FC481344FE9B0BB
:10119000354FC581364FE6C1374FC681384FECC950
:1011A000394FC7813A4FC5CB3B4FC8813C4FC6CB67
:1011B0003D4FA4D93E4FC9813F4FCA81404FCB819B
:1011C000414FCC81424FCD81434FE8B5444FCE8152
:1011D000454FCF81464FABB5474FD081484FD18166
:1011E000494FD2814A4FD3814B4FD4814C4FD58147
:1011F0004D4FBBCE4E4FCDB54F4FA1D7504FF4D72B
:10120000514FD3D3524FD681534FE5CC544FD78152
:10121000554FCEBA564FD881574FA2D9584FDCD927
:10122000594FE0D35A4FFDD85B4FF0B75C4FF7D71B
:101230005D4FFED85E4FFAD85F4FA1D9604FE3C42F
:10124000614FD981624FDA81634FB6D3644FF4D8CE
:10125000654FDDD9664FDB81674FFBD8684FDC8176
:10126000694FE5C56A4FDD816B4FDE816C4FD0C0A1
:101270006D4FDF816E4FE0816F4FF0D1704FDBB06B
:10128000714FE181724FE281734FD1BC744FA6D987
:10129000754FE381764FA5D9774FE481784FE5818B
:1012A000794FE6817A4FE7817B4FACD97C4FAED93D
:1012B0007D4FE8817E4FABD97F4FB9CA804FE9811E
:1012C000814FEA81824FEB81834FA9D9844FB6D6F3
:1012D000854FEC81864FED81874FEE81884FDEB3DD
:1012E000894FA8D98A4FEF818B4FFDC08C4FF08179
:1012F0008D4FCCCA8E4FF1818F4FAAD9904FF2817A
:10130000914FA7D9924FF381934FF481944FB0D965
:10131000954FF581964FF681974FB1B6984FF7816B
:10132000994FF8819A4FF9819B4FA9B99C4FFA8147
:101330009D4FC0D29E4FFB819F4FFC81A04FC0CFDD
:10134000A14FFD81A24FFE81A34FC2C2A44F408294
:10135000A54FC4BDA64FECD5A74FE0B2A84FC8C754
:10136000A94FEBBFAA4FADD9AB4F4182AC4FAFD91C
:10137000AD4F4282AE4FEACEAF4FEEBAB04F43828E
:10138000B14F4482B24F4582B34F4682B44F478239
:10139000B54FD6C7B64F4882B74F4982B84F4A8239
:1013A000B94F4B82BA4F4C82BB4F4D82BC4F4E82DD
:1013B000BD4F4F82BE4F5082BF4FE3B1C04F5182ED
:1013C000C14F5282C24F5382C34FD9B4C44FEDB6FE
:1013D000C54FB4D9C64F5482C74F5582C84F5682A5
:1013E000C94F5782CA4FA1BFCB4F5882CC4F5982A9
:1013F000CD4F5A82CE4FDED9CF4FCEC7D04FFEC091
:10140000D14FB8D9D24F5B82D34F5C82D44F5D822B
:10141000D54F5E82D64F5F82D74FD7CBD84FFDB71F
:10142000D94F6082DA4FB5D9DB4F6182DC4FB7D933
:10143000DD4FA3B1DE4FE1D3DF4FB9D9E04F628278
:10144000E14FC5D0E24F6382E34FB6D9E44F6482E7
:10145000E54F6582E64FB1D9E74F6682E84FB2D9D2
:10146000E94FA9C1EA4FB3D9EB4F6782EC4F6882CD
:10147000ED4FF3BCEE4FDED0EF4FA9B8F04F6982CD
:10148000F14FE3BEF24F6A82F34FBDD9F44F6B8246
:10149000F54F6C82F64F6D82F74F6E82F84FBAD9D6
:1014A000F94F6F82FA4FB3B0FB4F7082FC4F7182DD
:1014B000FD4F7282FE4FC2D9FF4F7382005074827B
:1014C00001507582025076820350778204507882F0
:1014D0000550798206507A8207507B8208507C82C0
:1014E00009507D820A507E820B5080820C50C4D9F4
:1014F0000D50B6B10E5081820F50BFD9105082826C
:10150000115083821250B9B5135084821450F3BE27
:101510001550858216508682175087821850C8CC85
:101520001950F2BA1A50D0D21B5088821C50C3D91D
:101530001D5089821E508A821F50E8BD20508B8228
:101540002150ABB322508C8223508D8224508E8246
:101550002550C5D92650EBBE27508F822850C6D9BA
:101560002950BBD92A50DFC42B5090822C50BED9B1
:101570002D50C1D92E50C0D92F5091823050928217
:1015800031509382325094823350958234509682F7
:1015900035509782365098823750998238509A82C7
:1015A00039509B823A50AED53B509C823C50B5D6C8
:1015B0003D509D823E50E3C73F509E8240509F82E7
:1015C0004150A0824250A1824350C8D94450A282C7
:1015D0004550A3824650A4824750D9BC4850CAD92E
:1015E0004950A5824A50A6824B50A7824C50BCD984
:1015F0004D50A8824E50CBD94F50ABC65050A98207
:101600005150AA825250AB825350AC825450AD829A
:101610005550C9D95650AE825750AF825850B082FB
:101620005950B1825A50F6D75B50B2825C50A3CD6C
:101630005D50B3825E50B4825F50B5826050B68216
:101640006150B7826250B8826350B9826450BA82E6
:101650006550A1BD6650BB826750BC826850BD8298
:101660006950BE826A50BF826B50C0826C50CCD928
:101670006D50C1826E50C2826F50C3827050C4825E
:101680007150C5827250C6827350C7827450C8822E
:101690007550C9827650BCC57750B5CD7850CA8296
:1016A0007950CB827A50CC827B50CDD97C50CD8280
:1016B0007D50CE827E50C7D97F50A5B38050FEBFEB
:1016C0008150CF828250D0828350D1828450D28286
:1016D0008550B5B88650D3828750D4828850FCC0DC
:1016E0008950D5828A50D6828B50D7828C50D8822E
:1016F0008D50F8B08E50D9828F50DA829050DB82B4
:101700009150DC829250DD829350DE829450DF82D1
:101710009550E0829650E1829750E2829850E382A1
:101720009950E4829A50E5829B50E6829C50E78271
:101730009D50E8829E50E9829F50EA82A050EB8241
:10174000A150EC82A250ED82A350F6B4A450EE82D8
:10175000A550CED9A650EF82A750CFD9A850A2B499
:10176000A950D0D9AA50F082AB50F182AC50DFB46E
:10177000AD50F282AE50F382AF50F482B050F58299
:10178000B150F682B250C1B0B350F782B450F88273
:10179000B550F982B650FA82B750FB82B850FC823D
:1017A000B950FD82BA50D1D9BB50B5C9BC50FE82E8
:1017B000BD504083BE504183BF504283C0504383DD
:1017C000C1504483C2504583C3504683C4504783AD
:1017D000C5504883C6504983C7504A83C8504B837D
:1017E000C9504C83CA504D83CB504E83CC504F834D
:1017F000CD505083CE505183CF50F1CFD050528333
:10180000D1505383D2505483D3505583D4505683F0
:10181000D5505783D650D2D9D7505883D8505983F2
:10182000D9505A83DA50C5C1DB505B83DC505C83EE
:10183000DD505D83DE505E83DF505F83E050608368
:10184000E1506183E2506283E3506383E450648338
:10185000E5506583E650D6D9E750AEC9E8506683B7
:10186000E9506783EA506883EB506983EC50D5D91F
:10187000ED50D4D9EE50D7D9EF506A83F0506B8336
:10188000F1506C83F2506D83F350DBCBF4506E83D8
:10189000F550A9BDF6506F83F7507083F8507183EF
:1018A000F9507283FA507383FB50A7C6FC507483BF
:1018B000FD507583FE507683FF5077830051788307
:1018C0000151798302517A8303517B8304517C83D4
:1018D00005517D830651D3D90751D8D908517E834C
:1018E000095180830A5181830B51D9D90C518283CC
:1018F0000D5183830E5184830F518583105186834C
:10190000115187831251E5C813518883145189837B
:1019100015518A8316518B8317518C8318518D83EF
:1019200019518E831A518F831B5190831C519183BF
:101930001D5192831E5193831F519483205195838F
:101940002151DCC0225196832351978324519883DF
:101950002551998326519A8327519B8328519C8333
:1019600029519D832A519E832B519F832C51A08303
:101970002D51A1832E51A2832F51A3833051A483D3
:101980003151A5833251A6833351A7833451A883A3
:101990003551A9833651AA833751AB833851AC8373
:1019A0003951AD833A51AE833B51AF833C51B08343
:1019B0003D51B1833E51B2833F51F9B64051A3D856
:1019C0004151CAD44251B3834351AAD44451D6D0D1
:1019D0004551E4B34651D7D54751B4834851C8CF98
:1019E0004951E2B94A51B5834B51CBBF4C51B683F3
:1019F0004D51E2C34E51B7834F51B8835051B98313
:101A00005151D2B65251BA835351BB835451C3CDB5
:101A10005551EED95651F0D95751BC835851BD8319
:101A20005951BE835A51B3B55B51BF835C51B5B6B2
:101A30005D51C0835E51C1835F51C2836051C383D6
:101A40006151C4836251A4BE6351C5836451C6838E
:101A50006551EBC86651C7836751C8836851ABC8ED
:101A60006951C9836A51CA836B51CBB06C51ABB910
:101A70006D51F9C16E51E2D96F51CB837051BCC029
:101A80007151B2B97251CC837351D8B97451CBD062
:101A90007551F8B17651E4C67751DFBE7851E4B59F
:101AA0007951C8D77A51CD837B51F8D17C51E6BCAE
:101AB0007D51DECA7E51CE837F51CF838051BDBC24
:101AC0008151E6D98251E7D88351D0838451D183A3
:101AD0008551DAC48651D2838751D3838851D4B8D3
:101AE0008951BDC88A51D4838B51D5838C51E1B2C1
:101AF0008D51D9D48E51D6838F51D7839051D883AD
:101B00009151D9839251B0C39351DA839451DB83BD
:101B10009551E1C39651A2DA9751DFC89851DC8301
:101B20009951B4D09A51DD839B51FCBE9C51A9C5FB
:101B30009D51DE839E51DF839F51E083A051DAB92E
:101B4000A151E183A251A3DAA351E283A451A9D404
:101B5000A551A4DAA651E383A751E483A851E583F4
:101B6000A951E683AA51E783AB51FBD9AC51ACB67E
:101B7000AD51E883AE51E983AF51EBB7B051F9B144
:101B8000B151FCD9B251E5B3B351F6BEB451EA83B9
:101B9000B551F6BFB651B1D2B751E4C0B851EB83DD
:101BA000B951EC83BA51ED83BB51B3B6BC51FED9E8
:101BB000BD51FDD9BE51EE83BF51EF83C051BBBEB5
:101BC000C151F083C251F183C351F283C451E0C6C5
:101BD000C551F383C651BCD7C751A1DAC851F483AC
:101BE000C951B9C1CA51F583CB51F2B5CC51E8C145
:101BF000CD51F683CE51F783CF51F5BCD051F88348
:101C0000D151D5B4D251F983D351FA83D451FB8346
:101C1000D551FC83D651FD83D751FE83D8514084E2
:101C2000D9514184DA514284DB51DDC1DC51438416
:101C3000DD51FDC4DE514484DF514584E051B8BC20
:101C4000E151B2B7E2514684E3514784E451EFB722
:101C5000E5514884E6514984E7514A84E8514B8470
:101C6000E9514C84EA514D84EB51ECD9EC514E844E
:101C7000ED51BEC6EE514F84EF51ADBFF051CBBB1D
:101C8000F1515084F2515184F351CAB5F451528448
:101C9000F551C9DBF651D7D0F7515384F851B9CD7E
:101CA000F951BCB0FA51F6B3FB51F7BBFC51CADB9A
:101CB000FD51AFBAFE515484FF51E4D40052B6B581
:101CC0000152F3B50252D6D80352D0C804525584FB
:101CD000055256840652D6B70752D0C70852D7D8F5
:101CE000095257840A52AFBF0B5258840C52598480
:101CF0000D52BBDB0E52D8D80F525A8410525B845F
:101D00001152CCD01252AEBB13525C8414525D847B
:101D100015525E841652BEEB1752D0C11852F5C14F
:101D20001952F2D41A52D5B81B52B4B41C525F8463
:101D30001D52F5B31E5260841F5261842052BEC9E9
:101D40002152628422526384235264842452D0C577
:101D50002552658426526684275267842852D9C545
:101D60002952FBC02A5268842B52F0B12C5269844C
:101D70002D52D9D82E52CEB92F526A843052BDB5C9
:101D800031526B8432526C843352DAD834526D84BF
:101D900035526E843652C6D63752A2CB3852AFC8AF
:101DA0003952B2C93A52CCB43B52CCBF3C526F8488
:101DB0003D52F4B93E5270843F52DBD84052DCD8D9
:101DC0004152E7B64252C1BC4352EACC44527184FC
:101DD00045527284465273844752748448527584C3
:101DE000495276844A52F7CF4B5277844C52DDD811
:101DF0004D52B0C74E5278844F5279845052D0B968
:101E00005152A3BD52527A8453527B845452DECC39
:101E100055527C845652CAC657527D8458527E848D
:101E2000595280845A5281845B5282845C52E0D839
:101E30005D5283845E52DED85F5284846052858412
:101E40006152DFD8625286846352878464528884E8
:101E50006552FEB0665289846752E7BE68528A8432
:101E60006952A3CA6A52F4BC6B528B846C528C8444
:101E70006D528D846E528E846F52B1B870528F84C1
:101E8000715290847252EEB873529184745292845B
:101E900075529384765294847752958478529684BE
:101EA000795297847A5298847B5299847C529A848E
:101EB0007D52E2D87E529B847F52CBBD80529C845F
:101EC0008152E4D88252E3D883529D8484529E8406
:101ED00085529F848652A0848752A1848852FCC573
:101EE0008952A2848A52A3848B52A4848C52A584E2
:101EF0008D52A6848E52A7848F52A8849052E5D822
:101F00009152A9849252AA849352E6D89452AB84F7
:101F10009552AC849652AD849752AE849852AF8459
:101F20009952B0849A52B1849B52A6C19C52B284F9
:101F30009D52B0C89E52ECB09F52A6B9A052D3BCDD
:101F4000A152F1CEA252BDDBA352D3C1A452B3849D
:101F5000A552B484A652B584A752B684A852AFB68F
:101F6000A952FAD6AA52ACC5AB52D9BDAC52BEDB0F
:101F7000AD52BFDBAE52B784AF52B884B052B98411
:101F8000B152F8C0B252A2BEB352CDC0B452BA845C
:101F9000B552BB84B652BC84B752BD84B852BE841D
:101FA000B952BF84BA52C084BB52C184BC52C284ED
:101FB000BD52C384BE52C0DBBF52C6CAC052C48425
:101FC000C152C584C252C684C352AAB2C452C78485
:101FD000C552C884C652C984C752C2D3C852CA8423
:101FE000C952E3C3CA52CB84CB52ABD1CC52CC84BE
:101FF000CD52CD84CE52CE84CF52CF84D052C2DBCC
:10200000D152D084D252D5C0D352D184D452D284AA
:10201000D552D384D652C3DBD752D484D852B1BF61
:10202000D952D584DA52D684DB52D784DC52D88494
:10203000DD52D984DE52DA84DF52BCC4E052DB8444
:10204000E152DC84E252DD84E352DE84E452DAC7FA
:10205000E552DF84E652E084E752E184E852E2840C
:10206000E952E384EA52E484EB52E584EC52E684DC
:10207000ED52E784EE52E884EF52E984F052C4DB7B
:10208000F152EA84F252EB84F352EC84F452ED8480
:10209000F552EE84F652EF84F752F084F852F18450
:1020A000F952E8D9FA52D7C9FB52F284FC52F384B0
:1020B000FD52F484FE52B4B9FF52F0CE0053C8D49E
:1020C0000153F5840253F6840353F7840453F884D0
:1020D0000553FCB00653D2B40753F9840853D9D042
:1020E0000953FA840A53FB840B53FC840C53FD847C
:1020F0000D53E9D90E53FE840F53CBDE1053EBD9A9
:10210000115340851253418513534285145343851F
:102110001553B0D81653AFBB1753B1B118534485FC
:102120001953D7B31A53CED81B5345851C53468534
:102130001D53D1D41E5347851F5348852053B3BD2B
:102140002153EFBF225349852353BBCF24534A85E4
:1021500025534B852653D0D827534C8528534D857E
:1021600029534E852A53CBB72B534F852C5350857B
:102170002D5351852E53D1D82F535285305353852B
:1021800031535485325355853353568534535785CF
:10219000355358853653598537535A8538535B859F
:1021A0003953A5C63A53F8C73B53BDD23C535C855F
:1021B0003D535D853E53D2D83F53E4C440535E85C2
:1021C0004153AECA42535F854353A7C7445360850A
:1021D0004553A6D8465361854753FDC94853E7CEBA
:1021E0004953DCBB4A53EBB04B5362854C53638578
:1021F0004D5364854E53AABB4F53ADD050536585A4
:102200005153B0B15253E4D75353BFD7545366859B
:102210005553A5B55653F4C25753CFC45853678589
:10222000595368855A53A9B25B5369855C53B7B259
:102230005D536A855E53E5B15F53B2DF6053BCD531
:102240006153A8BF6253ACC26353D5D86453B1C2C3
:1022500065536B856653D4D86753D4CE68536C8569
:102260006953E0DA6A536D856B53C0CE6C536E854B
:102270006D536F856E53B4D86F53AEC37053A1D3F3
:102280007153A3CE725370857353B4BC7453B4C8E6
:102290007553D1C2765371857753EDBE7853B6D05E
:1022A000795372857A53E1DA7B5373857C53748555
:1022B0007D5375857E5376857F53E4C7805377853C
:1022C000815378858253A7B3835379858453F2B6BB
:1022D0008553FCCC8653FAC087537A8588537B8517
:1022E0008953F7C08A537C858B53B9D18C53E1D184
:1022F0008D53C7D88E537D858F537E8590538085AF
:102300009153818592538285935383859453848519
:102310009553DEB296538585975386859853E5C0CD
:10232000995387859A53F1BA9B5388859C53898525
:102330009D53C8D89E538A859F53ADD4A0538B8597
:10234000A1538C85A253E1CFA353C9D8A4538D8543
:10235000A553CAD8A653C3CFA7538E85A853F8B3A5
:10236000A953C7BEAA538F85AB539085AC539185B3
:10237000AD539285AE53CBD8AF539385B05394856C
:10238000B1539585B2539685B3539785B4539885C9
:10239000B5539985B653CCDBB7539A85B8539B8513
:1023A000B9539C85BA539D85BB53A5C8BC539E8524
:1023B000BD539F85BE53A085BF53D8CFC053A185C1
:1023C000C153FEC8C253CEB2C353A285C453A38522
:1023D000C553A485C653A585C753A685C853D6D370
:1023E000C953E6B2CA53B0BCCB53D1D3CC53ABCB59
:1023F000CD53B4B7CE53A785CF53A885D053A98565
:10240000D153A2B7D253AA85D353AB85D453E5CACF
:10241000D553AC85D653A1C8D753DCCAD853E4B141
:10242000D953F0D0DA53AD85DB53D1C5DC53AE853B
:10243000DD53AF85DE53B085DF53C5DBE053FEB51A
:10244000E153B185E253B285E353DABFE453C5B932
:10245000E553E4BEE653EDC1E753B385E853B6DF79
:10246000E953B5DFEA53BBD6EB53D0BDEC53D9D516
:10247000ED53C8B0EE53A3B6EF53C9BFF053A8CC89
:10248000F153B3DFF253B7CAF353D2D3F453B48545
:10249000F553CFD8F653B6D2F753C5BAF853BECBDF
:1024A000F953BECCFA53B585FB53B7DFFC53F0B5F7
:1024B000FD53B4DFFE53B685FF53B7850054B8858E
:1024C0000154F5D30254B9850354D4B30454F7B876
:1024D0000554BA850654BADF0754BB850854CFBAF1
:1024E0000954AABC0A54F5B50B54BC850C54ACCDA8
:1024F0000D54FBC30E54F3BA0F54F4C01054C2CDA4
:102500001154F2CF1254B8DF1354C5CF1454BD8503
:102510001554C0C21654B9DF1754F0C21854BE8502
:102520001954BF851A54C0851B54FDBE1C54C18567
:102530001D54DFC11E54CCCD1F54F7D22054CDB74B
:102540002154C1DF2254C2852354C4DF2454C385DF
:102550002554C4852654F1B72754C9B02854D6B69B
:102560002954D4B72A54C5852B54ACBA2C54FDCC6D
:102570002D54D4BF2E54B1CB2F54F4C63054C6853D
:102580003154A8D63254C5DF3354C7853454E2CE13
:102590003554B3B33654C8853754C9853854FCCE46
:1025A0003954B5B43A54CA853B54C7CE3C54F0BAFA
:1025B0003D54CB853E54E1CE3F54CC854054BDD1F3
:1025C0004154CD854254CE854354C0DF4454CF8519
:1025D0004554D0854654F4B44754D1854854CAB3C1
:1025E0004954D2854A54E6B84B54BBDF4C54D3858A
:1025F0004D54D4854E54D5854F54D6855054C5C4BA
:102600005154D7855254BCDF5354BDDF5454BEDF00
:102610005554BBC55654BFDF5754C2DF5854B1D4CC
:102620005954C3DF5A54D8855B54BAC75C54D8CECA
:102630005D54D9855E54DA855F54DB856054DC8552
:102640006154DD856254D8C46354DE856454CADFA6
:102650006554DF856654CFDF6754E0856854DCD667
:102660006954E1856A54E2856B54E3856C54E485D2
:102670006D54E5856E54E6856F54E7857054E885A2
:102680007154C9DF7254DADF7354B6CE7454E985DD
:102690007554C7BA7654CEDF7754C8DF7854DEC598
:1026A0007954EA857A54EB857B54EBC97C54F4BAAF
:1026B0007D54FCC37E54EC857F54ED858054D7BE99
:1026C0008154EE858254C6DF8354EF858454CDDF78
:1026D0008554F0858654D8C58754F1858854F28591
:1026E0008954F3858A54F4858B54A6D58C54CDBA7D
:1026F0008D54F5858E54CCBE8F54BDD39054C0B844
:102700009154F6859254E4D69354F7859454C7DFD8
:102710009554BEB99654A7BF9754F8859854F98537
:102720009954FCC19A54CBDF9B54CCDF9C54FA855E
:102730009D54D0DF9E54FB859F54FC85A054FD859D
:10274000A154FE85A2544086A354DBDFA454E5DFE8
:10275000A5544186A654D7DFA754D6DFA854C9D7BD
:10276000A954E3DFAA54E4DFAB54EBE5AC54A7D2A1
:10277000AD54D2DFAE544286AF54A9BFB0544386A5
:10278000B154DBD4B2544486B354C8BFB454D4DF7C
:10279000B5544586B6544686B7544786B854CCCF10
:1027A000B9544886BA544986BB54DDDFBC544A86C6
:1027B000BD54CAD1BE544B86BF54DEDFC054A7B04F
:1027C000C154B7C6C254D3DFC3544C86C454E5BA0F
:1027D000C5544D86C654DFB6C754DBCDC854FEB9C8
:1027E000C954D5D4CA544E86CB544F86CC54DFDF5F
:1027F000CD54ECCFCE54A5B0CF54E7DFD054D1DFC9
:10280000D154C6D1D254D5DFD354D8DFD454D9DF74
:10281000D554DCDFD6545086D754A9BBD854518642
:10282000D954E0DFDA54E1DFDB545286DC54E2DFD6
:10283000DD54E6DFDE54E8DFDF54B4D3E0545386E2
:10284000E1545486E2545586E3545686E454578640
:10285000E554E7B8E654B6C5E754EADFE854DAC908
:10286000E954A8C1EA54C4C4EB545886EC545986C0
:10287000ED54DEBFEE54F8CFEF545A86F0545B8629
:10288000F1545C86F254DCD5F354EEDFF4545D86EB
:10289000F5545E86F6545F86F7546086F854618678
:1028A000F9546286FA54B8B2FB546386FC54DFBA1A
:1028B000FD54ECDFFE546486FF54C1DB0055658691
:1028C0000155E4D10255668603556786045568862E
:1028D000055569860655F4CB0755BDB408556A867B
:1028E0000955A6B00A556B860B556C860C556D863E
:1028F0000D556E860E556F860F55F1DF1055C6CCFF
:102900001155F2DF12557086135571861455EDDF9F
:102910001555728616557386175574861855758623
:10292000195576861A5577861B55E9DF1C5578862A
:102930001D5579861E557A861F557B862055EBDFFF
:1029400021557C862255EFDF2355F0DF2455BDBB92
:1029500025557D8626557E862755F3DF28558086AA
:10296000295581862A55F4DF2B5582862C55A3BB29
:102970002D5583862E55DBCA2F55A8CE3055A7E09E
:102980003155AAB3325584863355A6E03455858631
:1029900035558686365587863755A1E03855888661
:1029A000395589863A558A863B558B863C55FEDFDC
:1029B0003D558C863E55D9CD3F55FCDF40558D8623
:1029C0004155FADF42558E864355D0BF4455C4D792
:1029D00045558F864655CCC94755908648559186B2
:1029E0004955F8DF4A55A1B04B5592864C55938610
:1029F0004D5594864E5595864F5596865055FDDF1C
:102A000051559786525598865355998654559A86AE
:102A10005555FBDF5655A2E057559B8658559C8669
:102A200059559D865A559E865B559F865C55A8E0F4
:102A30005D55A0865E55A1865F55A2866055A3862A
:102A40006155C8B76255A4866355A5866455A1C66D
:102A50006555B6C96655B2C06755F5DF6855A68697
:102A60006955A7866A55BEC56B55A8866C55C4D8EE
:102A70006D55F9DF6E55F6C46F55A9867055AA8657
:102A80007155AB867255AC867355AD867455AE865E
:102A90007555A3E07655A4E07755A5E07855A5D007
:102AA0007955AF867A55B0867B55B4E07C55E4CC39
:102AB0007D55B1867E55B1E07F55B2868055A6BF63
:102AC0008155AFE08255B9CE8355ABE08455C6C978
:102AD0008555B3868655B4868755AEC08855AEE019
:102AE0008955EDBA8A55B0BA8B55A9E08C55B58693
:102AF0008D55B6868E55B7868F55F6DF9055B886BC
:102B00009155B3E09255B9869355BA869455B8E07D
:102B10009555BB869655BC869755BD869855ADB4E0
:102B20009955B9E09A55BE869B55BF869C55B2CF44
:102B30009D55C8BA9E55C0869F55B0E0A055C18628
:102B4000A155C286A255C386A355C486A455C58681
:102B5000A555C686A655C786A755FAD0A855C886D6
:102B6000A955C986AA55CA86AB55CB86AC55CC8625
:102B7000AD55CD86AE55CE86AF55CF86B055D086F5
:102B8000B155ACE0B255D186B355FBD4B455D2861D
:102B9000B555F7DFB655D386B755E7C5B855D486D2
:102BA000B955ADE0BA55D586BB55F7D3BC55D686D9
:102BB000BD55B6E0BE55B7E0BF55D786C055D886DF
:102BC000C155D986C255DA86C355DB86C455C4E0E3
:102BD000C555E1D0C655DC86C755DD86C855DE86AD
:102BE000C955BCE0CA55DF86CB55E086CC55C9E057
:102BF000CD55CAE0CE55E186CF55E286D055E38665
:102C0000D155BEE0D255AAE0D355A4C9D455C1E0F0
:102C1000D555E486D655B2E0D755E586D855E68633
:102C2000D955E786DA55E886DB55E986DC55C8CA0A
:102C3000DD55C3E0DE55EA86DF55B5E0E055EB86AD
:102C4000E155CBCEE255EC86E355C3CBE455CDE060
:102C5000E555C6E0E655C2E0E755ED86E855CBE020
:102C6000E955EE86EA55BAE0EB55BFE0EC55C0E019
:102C7000ED55EF86EE55F086EF55C5E0F055F1863F
:102C8000F155F286F255C7E0F355C8E0F455F386E6
:102C9000F555CCE0F655F486F755BBE0F855F586CA
:102CA000F955F686FA55F786FB55F886FC55F986F0
:102CB000FD55D4CBFE55D5E0FF55FA860056D6E03B
:102CC0000156D2E00256FB860356FC860456FD866A
:102CD0000556FE8606564087075641870856D0E0BF
:102CE0000956CEBC0A5642870B5643870C56D1E094
:102CF0000D5644870E56C2B80F56C5D81056458794
:102D000011564687125647871356488714564987E7
:102D100015564A8716564B8717564C871856EAD0D1
:102D200019564D871A564E871B56EFC21C564F87B1
:102D30001D5650871E56CFE01F56BDE020565187C6
:102D400021565287225653872356D4E02456D3E087
:102D500025565487265655872756D7E02856568736
:102D6000295657872A5658872B5659872C56DCE008
:102D70002D56D8E02E565A872F565B8730565C87E3
:102D80003156F6D63256B0B333565D873456ECD74B
:102D900035565E873656BBCB37565F8738566087C9
:102DA0003956DAE03A5661873B56FBCE3C5662878D
:102DB0003D5663873E5664873F56D9BA405665876D
:102DC00041566687425667874356688744566987E7
:102DD00045566A8746566B8747566C8748566D87B7
:102DE00049566E874A566F874B5670874C56E1E0BE
:102DF0004D56DDE04E56ADD24F5671875056728714
:102E00005156738752567487535675875456E2E06D
:102E100055567687565677875756DBE05856D9E091
:102E20005956DFE05A5678875B5679875C56E0E062
:102E30005D567A875E567B875F567C8760567D87B6
:102E400061567E876256DEE0635680876456E4E012
:102E50006556818766568287675683876856F7C6A8
:102E60006956ACD86A56EBD46B56E6E06C56C9CAC4
:102E70006D5684876E5685876F568687705687870E
:102E80007156E5E0725688877356898774568A872B
:102E900075568B877656C1B877568C8778568D874E
:102EA00079568E877A568F877B56E7E07C56E8E026
:102EB0007D5690877E5691877F569287805693875E
:102EC000815694878256958783569687845697872E
:102ED0008556E9E08656E3E08756988788569987B5
:102EE00089569A878A569B878B569C878C569D87D6
:102EF0008D569E878E56BFBA8F56E7CC90569F87C9
:102F00009156A0879256A1879356EAE09456A287DD
:102F10009556A3879656A4879756A5879856A68751
:102F20009956A7879A56A8879B56A9879C56AA8721
:102F30009D56AB879E56AC879F56AD87A056AE87F1
:102F4000A156AF87A256B087A356F9CFA456B18732
:102F5000A556B287A656B387A756B487A856B58795
:102F6000A956B687AA56B787AB56B887AC56B98765
:102F7000AD56BA87AE56BB87AF56EBE0B056BC87AE
:102F8000B156BD87B256BE87B356BF87B456C08709
:102F9000B556C187B656C287B756C2C8B856C3879A
:102FA000B956C487BA56C587BB56C687BC56C0BD7E
:102FB000BD56C787BE56C887BF56C987C056CA8781
:102FC000C156CB87C256CC87C356CD87C456CE8751
:102FD000C556CF87C656D087C756D187C856D28721
:102FE000C956D387CA56D2C4CB56D487CC56D587B8
:102FF000CD56D687CE56D787CF56D887D056D987C5
:10300000D156DA87D256DB87D356DC87D456ECE02C
:10301000D556DD87D656DE87D756EDE0D856DF8702
:10302000D956E087DA56F4C7DB56C4CBDC56E187C5
:10303000DD56EEE0DE56D8BBDF56B6D8E056F2D20B
:10304000E156EFE0E256C5CDE356E287E456DAB644
:10305000E556E387E656E487E756E587E856E687D0
:10306000E956E787EA56E887EB56F1E0EC56E98740
:10307000ED56B0D4EE56EA87EF56EB87F056A7C070
:10308000F156D1B4F256EC87F356ED87F456A7CE3D
:10309000F556F0E0F656EE87F756EF87F856F087CC
:1030A000F956F2E0FA56CCB9FB56F187FC56F28796
:1030B000FD56FAB9FE56BCCDFF56F3E00057F38734
:1030C0000157F4870257F5870357D4C60457F4E035
:1030D0000557F6870657B2D40757F7870857A6C88B
:1030E0000957F6E00A57F5E00B57F8870C57F987B0
:1030F0000D57FA870E57FB870F57FC871057FD8730
:103100001157FE8712574088135741881457428839
:1031100015574388165744881757458818574688C7
:10312000195747881A5748881B5749881C57F7E092
:103130001D574A881E574B881F57C1CD20574C88B2
:1031400021574D8822574E882357A5CA24574F88A8
:103150002557508826575188275752882857DAD440
:103160002957D7DB2A57D9DB2B5753882C57D8DB65
:103170002D57E7B92E57DCDB2F57DDDB3057D8B59D
:1031800031575488325755883357DADB34575688CD
:1031900035575788365758883757598838575A8877
:1031A0003957DBDB3A57A1B33B57DFDB3C575B8832
:1031B0003D575C883E57F8BB3F575D884057B7D6B0
:1031C00041575E884257E0DB43575F884457608829
:1031D00045576188465762884757F9BE4857638804
:1031E000495764884A57BBB74B5765884C57D0DB63
:1031F0004D57AECC4E57B2BF4F57B5BB5057F8D70F
:103200005157D3BF525766885357678854576888B9
:103210005557698856576A885757E9BF58576B887A
:1032200059576C885A57E1BC5B57B3CC5C57DEDB0F
:103230005D57D3B05E57EBCE5F57D8B76057B9D75D
:103240006157C2C662576D8863576E886457A4C0C1
:1032500065576F886657B9CC675770886857E7DB42
:103260006957E1DB6A57BAC66B57E3DB6C57718865
:103270006D57E8DB6E5772886F57F7C570577388C4
:1032800071577488725775887357EADB745776885C
:10329000755777887657E9DB7757C0BF78577888B6
:1032A000795779887A577A887B57E6DB7C57E5DB54
:1032B0007D577B887E577C887F577D8880577E88A6
:1032C000815780888257B9B48357ACC08457A2C253
:1032D0008557E2DB8657E4DB8757818888578288E9
:1032E000895783888A5784888B57CDD08C57EDDBDC
:1032F0008D5785888E5786888F57878890578888FE
:10330000915789889257DDC09357F2DB94578A888A
:1033100095578B8896578C8897578D8898578E88A5
:1033200099578F889A5790889B57E2B69C579188F7
:103330009D5792889E5793889F579488A057F3DB98
:10334000A157D2DBA257B8B9A357ABD4A457ECDB33
:10335000A5579588A657D1BFA757F0DBA8579688E1
:10336000A957D1DBAA579788AB57E6B5AC579888D1
:10337000AD57EBDBAE57E5BFAF579988B0579A888A
:10338000B1579B88B257EEDBB3579C88B457F1DB3B
:10339000B5579D88B6579E88B7579F88B857F9DBB1
:1033A000B957A088BA57A188BB57A288BC57A38831
:1033B000BD57A488BE57A588BF57A688C057A78801
:1033C000C157A888C257A1B9C357A3B0C457A98889
:1033D000C557AA88C657AB88C757AC88C857AD88A9
:1033E000C957AE88CA57AF88CB57F1C2CC57B088FF
:1033F000CD57B188CE57C7B3CF57EFDBD057B28880
:10340000D157B388D257F8DBD357B488D457D2C634
:10341000D557F4DBD657B588D757B688D857F5DBDC
:10342000D957F7DBDA57F6DBDB57B788DC57B888B4
:10343000DD57FEDBDE57B988DF57F2D3E057BAB26B
:10344000E157BA88E257BB88E357BC88E457FDDBF5
:10345000E557BD88E657BE88E757BF88E857C0885C
:10346000E957C188EA57C288EB57C388EC57C4882C
:10347000ED57A4DCEE57C588EF57FBDBF057C68845
:10348000F157C788F257C888F357C988F457FADB51
:10349000F557CA88F657CB88F757CC88F857FCDB26
:1034A000F957E0C5FA57F9BBFB57CD88FC57CE88D2
:1034B000FD57A3DCFE57CF88FF57D0880058A5DC06
:1034C0000158D1880258C3CC0358D2880458D388F5
:1034D0000558D4880658D1B60758C0DD0858D58895
:1034E0000958D6880A58D7880B58A1DC0C58D888B8
:1034F0000D58A2DC0E58D9880F58DA881058DB888E
:103500001158B5C71258DC881358DD881458DE8866
:103510001558E9B61658DF881758E0881858E1881A
:103520001958A7DC1A58E2881B58E3881C58E4880D
:103530001D58E5881E58A6DC1F58E6882058A9DCCF
:103540002158A4B12258E7882358E8882458CCB5DC
:103550002558E9882658EA882758EB882858EC88A7
:103560002958ED882A58B0BF2B58EE882C58EF8880
:103570002D58F0882E58F1882F58F2883058DFD116
:103580003158F3883258F4883358F5883458F6881F
:103590003558C2B63658F7883758F8883858F988F9
:1035A0003958FA883A58FB883B58FC883C58FD88C3
:1035B0003D58FE883E5840893F58418940584289CD
:1035C0004158438942584489435845894458A8DCA6
:1035D000455846894658478947584889485849892F
:1035E00049584A894A584B894B584C894C58FACB10
:1035F0004D58F3EB4E584D894F584E8950584F89CE
:103600005158DCCB52585089535851895458FECBED
:103610005558528956585389575854895858C1CCCF
:10362000595855895A5856895B5857895C58588952
:103630005D5859895E58FBC85F585A8960585B8944
:1036400061585C8962585D8963585E8964585F89F6
:103650006558AADC6658608967586189685862892C
:10366000695863896A5864896B58EECC6C58ABDC36
:103670006D5865896E5866896F5867897058688972
:103680007158698972586A8973586B8974586C8942
:1036900075586D8976586E8977586F897858708912
:1036A000795871897A5872897B5873897C587489E2
:1036B0007D5875897E58D3DB7F5876898058AFDC7A
:1036C0008158ACDC825877898358B3BE8458788996
:1036D0008558FBCA8658798987587A8988587B89A2
:1036E0008958ADDC8A587C898B587D898C587E89B5
:1036F0008D5880898E5881898F5882899058838906
:10370000915884899258CAC99358B9C494588589E4
:1037100095588689965887899758888998588989AD
:103720009958BDC79A58AEDC9B588A899C588B899A
:103730009D588C899E58F6D49F58E6D0A0588D8904
:10374000A1588E89A2588F89A3589089A45891892D
:10375000A5589289A6589389A7589489A858ABC4AC
:10376000A958D5B6AA589589AB589689AC58978967
:10377000AD589889AE589989AF589A89B0589B89A5
:10378000B1589C89B2589D89B3589E89B4589F8975
:10379000B558A089B658A189B758A289B858A38945
:1037A000B958A489BA58A589BB58A689BC58D4DB96
:1037B000BD58A789BE58A889BF58A989C058AA89E9
:1037C000C158DAB1C258AB89C358AC89C458AD8965
:1037D000C558D5DBC658AE89C758AF89C858B08917
:1037E000C958B189CA58B289CB58B389CC58B48961
:1037F000CD58B589CE58B689CF58B789D058B88931
:10380000D158D6DBD258B989D358BA89D458BB8994
:10381000D558BEBAD658BC89D758BD89D858BE89A4
:10382000D958BF89DA58C089DB58C189DC58C289A8
:10383000DD58C389DE58C489DF58C589E058C68978
:10384000E158C789E258C889E358C989E458C0C813
:10385000E558CA89E658CB89E758CC89E858CD891C
:10386000E958CE89EA58CF89EB58BFCAEC58C9C885
:10387000ED58D089EE58B3D7EF58D189F058F9C92F
:10388000F158D289F258D389F358C7BFF458D48974
:10389000F558D589F658F8BAF758D689F858D7891F
:1038A000F958BCD2FA58D889FB58D989FC58DA891A
:1038B000FD58DB89FE58DC89FF58DD890059DE8917
:1038C0000159DF890259BAE20359E0890459A6B4C3
:1038D0000559E1890659E2890759B8B10859E389C0
:1038E0000959E4890A59E5890B59E6890C59E78990
:1038F0000D59B4B80E59E8890F59C4CF1059E98948
:103900001159EA891259EB891359EC891459E7D9ED
:103910001559A6CF1659E2CD1759ED891859EE89D8
:103920001959EDD91A59E0B61B59EF891C59B9D26A
:103930001D59F0891E59F1891F59BBB92059F289C7
:103940002159F3892259F4892359F5892459B9E277
:103950002559B7E22659F6892759F3B42859F7892A
:103960002959ECCC2A59ABCC2B59F2B72C59F889F0
:103970002D59B2D82E59EBD12F59BBBA3059F989EC
:103980003159A7CA3259FA893359FB893459B7CD0D
:103990003559FC893659FD893759C4D23859E4BFA5
:1039A0003959D0BC3A59E1B63B59FE893C59C5DE7C
:1039B0003D59408A3E59418A3F59428A4059438A7B
:1039C0004159C6DE4259BCDB4359448A4459D9D1D6
:1039D0004559458A4659468A4759E6C64859CEC48C
:1039E0004959EEB74A59478A4B59DCB74C59488A6E
:1039F0004D59498A4E59FCBF4F59E0D750594A8A10
:103A00005159F5C652594B8A53594C8A5459BCB135
:103A10005559C8DE5659B1BD5759D7CC5859CADE89
:103A200059594D8A5A59C9DE5B594E8A5C594F8A99
:103A30005D59508A5E59518A5F59528A6059ECB576
:103A40006159538A6259DDC96359548A6459558A48
:103A50006559C2B06659568A6759578A6859588A53
:103A60006959598A6A595A8A6B595B8A6C595C8AB6
:103A70006D595D8A6E595E8A6F595F8A7059608A86
:103A80007159618A7259628A7359AEC57459ABC54E
:103A90007559638A7659CCC47759648A7859E9BCD8
:103AA0007959FDCB7A59658A7B59668A7C59678A30
:103AB0007D59C3BA7E59688A7F59698A80596A8A52
:103AC0008159F9E58259E7C88359FAE58459FDCD52
:103AD00085596B8A8659B1D78759BEB88859E8C2CB
:103AE00089596C8A8A59D1C88B596D8A8C596E8ACA
:103AF0008D59FBE58E596F8A8F59708A9059718A5A
:103B00009159728A9259CAB69359CBBC9459738A07
:103B10009559748A9659FDD19759A1E69859758A95
:103B20009959EEC39A59768A9B59778A9C59788A13
:103B30009D59798A9E59A4E69F597A8AA0597B8A11
:103B4000A1597C8AA2597D8AA359FEE5A459A5E60C
:103B5000A559D7CDA6597E8AA759808AA859C1B739
:103B6000A959FCE5AA59FDE5AB59A3E6AC59818AF0
:103B7000AD59828AAE59DDC4AF59A8E6B059838ADF
:103B8000B159848AB259A7E6B359858AB459868A4D
:103B9000B559878AB659888AB759898AB8598A8A9D
:103BA000B959C3C3BA598B8ABB59DEC6BC598C8A72
:103BB000BD598D8ABE59AAE6BF598E8AC0598F8ACF
:103BC000C159908AC259918AC359928AC459938A19
:103BD000C559948AC659B7C4C759958AC859968A8F
:103BE000C959978ACA59A2E6CB59BCCACC59988AF6
:103BF000CD59998ACE599A8ACF599B8AD059E3BD1B
:103C0000D159C3B9D259A6E6D359D5D0D459AFCEDC
:103C1000D5599C8AD6599D8AD759A9E6D859B0E674
:103C2000D9599E8ADA59A6D2DB599F8ADC59AABD96
:103C3000DD59ADE6DE59A08ADF59A18AE059A28A92
:103C4000E159A38AE259A48AE359AFE6E459A58A67
:103C5000E559D1C0E659A68AE759A78AE859CCD2D6
:103C6000E959A88AEA59A98AEB59AA8AEC59A7BC4A
:103C7000ED59AB8AEE59AC8AEF59AD8AF059AE8A4C
:103C8000F159AF8AF259B08AF359B18AF459B28A1C
:103C9000F559B38AF659B48AF759B58AF859B68AEC
:103CA000F959B1E6FA59B78AFB59F6D2FC59B88AE4
:103CB000FD59B98AFE59BA8AFF59CBD7005ABB8A37
:103CC000015AFECD025ABC8A035ADECD045AA6C25E
:103CD000055AABE6065AACE6075ABFBD085AAEE62F
:103CE000095AB3E60A5ABD8A0B5ABE8A0C5AB2E682
:103CF0000D5ABF8A0E5AC08A0F5AC18A105AC28AF8
:103D0000115AB6E6125AC38A135AB8E6145AC48A2C
:103D1000155AC58A165AC68A175AC78A185AEFC43E
:103D2000195AC88A1A5AC98A1B5ACA8A1C5AC8C43C
:103D30001D5ACB8A1E5ACC8A1F5AEABE205AEFC996
:103D4000215ACD8A225ACE8A235AB7E6245ACF8ADC
:103D5000255AF0B6265AD08A275AD18A285AD28AAA
:103D6000295AE4C32A5AD38A2B5AD48A2C5AD58A80
:103D70002D5AD68A2E5AD78A2F5AD88A305AD98A9B
:103D8000315AE9D3325AB4E6335ADA8A345AB5E6AC
:103D9000355ADB8A365AA2C8375ADC8A385ADD8A45
:103DA000395ADE8A3A5ADF8A3B5AE08A3C5ABDE6E3
:103DB0003D5AE18A3E5AE28A3F5AE38A405AB9E6BE
:103DC000415AE48A425AE58A435AE68A445AE78AC3
:103DD000455AE88A465AC5C6475AE98A485AEA8A7D
:103DE000495AF1CD4A5ABBE64B5AEB8A4C5AEC8AF7
:103DF0004D5AED8A4E5AEE8A4F5AEF8A505AF08A3F
:103E0000515AF18A525AF28A535AF38A545AF48A0E
:103E1000555ABCE6565AF58A575AF68A585AF78ABE
:103E2000595AF88A5A5AE9BB5B5AF98A5C5AFA8A93
:103E30005D5AFB8A5E5AFC8A5F5AFD8A605AFE8A86
:103E4000615A408B625ABEE6635A418B645A428B78
:103E5000655A438B665A448B675ABAE6685A458B53
:103E6000695A468B6A5AB7C06B5A478B6C5A488B53
:103E70006D5A498B6E5A4A8B6F5A4B8B705A4C8BCA
:103E8000715A4D8B725A4E8B735A4F8B745AA4D3FE
:103E9000755ABFE6765AF4C9775AC3E6785A508BFA
:103EA000795A518B7A5AC4E67B5A528B7C5A538B7F
:103EB0007D5A548B7E5A558B7F5AF6D0805A568B3A
:103EC000815A578B825A588B835A598B845A5A8BF2
:103ED000855A5B8B865A5C8B875A5D8B885A5E8BC2
:103EE000895A5F8B8A5A608B8B5A618B8C5A628B92
:103EF0008D5A638B8E5A648B8F5A658B905A668B62
:103F0000915A678B925ABDC3935A688B945A698BA6
:103F1000955A6A8B965A6B8B975A6C8B985A6D8B05
:103F2000995A6E8B9A5AC4C39B5AC2E69C5A6F8B9D
:103F30009D5A708B9E5A718B9F5A728BA05A738BAD
:103F4000A15A748BA25A758BA35A768BA45A778B7D
:103F5000A55A788BA65A798BA75A7A8BA85A7B8B4D
:103F6000A95A7C8BAA5AC1E6AB5A7D8BAC5A7E8B80
:103F7000AD5A808BAE5A818BAF5A828BB05A838BED
:103F8000B15A848BB25AC7E6B35AB1CFB45A858BB3
:103F9000B55AF4EBB65A868BB75A878BB85ACAE62D
:103FA000B95A888BBA5A898BBB5A8A8BBC5A8B8B6D
:103FB000BD5A8C8BBE5AC5E6BF5A8D8BC05A8E8BAC
:103FC000C15ADEBCC25AA9C9C35A8F8BC45A908B3E
:103FD000C55A918BC65A928BC75A938BC85A948BE9
:103FE000C95AB5BCCA5A958BCB5A968BCC5AD3CFEB
:103FF000CD5A978BCE5A988BCF5A998BD05A9A8B91
:10400000D15A9B8BD25AC8E6D35A9C8BD45AC9E654
:10401000D55A9D8BD65ACEE6D75A9E8BD85AD0E623
:10402000D95A9F8BDA5AA08BDB5AA18BDC5AD1E686
:10403000DD5AA28BDE5AA38BDF5AA48BE05ACBE663
:10404000E15AD5B5E25AA58BE35ACCE6E45AA68BE1
:10405000E55AA78BE65ACFE6E75AA88BE85AA98B10
:10406000E95ADBC4EA5AAA8BEB5AC6E6EC5AAB8B88
:10407000ED5AAC8BEE5AAD8BEF5AAE8BF05AAF8B3C
:10408000F15ACDE6F25AB08BF35AB18BF45AB28B97
:10409000F55AB38BF65AB48BF75AB58BF85AB68BE0
:1040A000F95AB78BFA5AB88BFB5AB98BFC5ABA8BB0
:1040B000FD5ABB8BFE5ABC8BFF5ABD8B005BBE8B7F
:1040C000015BBF8B025BC08B035BC18B045BC28B4C
:1040D000055BC38B065BC48B075BC58B085BC68B1C
:1040E000095BD2E60A5BC78B0B5BC88B0C5BC98B89
:1040F0000D5BCA8B0E5BCB8B0F5BCC8B105BCD8BC0
:10410000115BCE8B125BCF8B135BD08B145BD18B8F
:10411000155BD28B165BD4E6175BD3E6185BD38BAB
:10412000195BD48B1A5BD58B1B5BD68B1C5BD78B37
:104130001D5BD88B1E5BD98B1F5BDA8B205BDB8B07
:10414000215BDC8B225BDD8B235BDE8B245BDF8BD7
:10415000255BE08B265BE18B275BE28B285BE38BA7
:10416000295BE48B2A5BE58B2B5BE68B2C5BE78B77
:104170002D5BE88B2E5BE98B2F5BEA8B305BEB8B47
:10418000315BEC8B325BD5E6335BED8B345BF8D97E
:10419000355BEE8B365BEF8B375BD6E6385BF08BAF
:1041A000395BF18B3A5BF28B3B5BF38B3C5BF48BC3
:1041B0003D5BF58B3E5BF68B3F5BF78B405BD7E659
:1041C000415BF88B425BF98B435BFA8B445BFB8B67
:1041D000455BFC8B465BFD8B475BFE8B485B408CF5
:1041E000495B418C4A5B428C4B5B438C4C5B448CFF
:1041F0004D5B458C4E5B468C4F5B478C505BD3D7F9
:10420000515BDDE6525B488C535BDEE6545BD7BF07
:10421000555BD0D4565B498C575BD6D7585BE6B418
:10422000595BEFCB5A5BDAE65B5BC3D85C5BCED7FE
:104230005D5BA2D05E5B4A8C5F5BCFC3605B4B8CE7
:10424000615B4C8C625BDFE6635BBEBC645BC2B9E6
:10425000655BDBE6665BA7D1675B4D8C685B4E8C6C
:10426000695BA2BA6A5BCFC26B5B4F8C6C5BABD8ED
:104270006D5B508C6E5B518C6F5B528C705BEBCACC
:10428000715BEEE5725B538C735BDCE6745B548CA4
:10429000755BF5B7765B558C775B568C785B578C86
:1042A000795B588C7A5BE6C87B5B598C7C5B5A8C5B
:1042B0007D5BF5C47E5B5B8C7F5B5C8C805BB2E579
:1042C000815BFEC4825B5D8C835BFCCB845BB3E56E
:1042D000855BACD5865B5E8C875BEED3885BD8CA8A
:1042E000895BB2B08A5B5F8C8B5BCECB8C5BEACD9B
:1042F0008D5B608C8E5B618C8F5BEABA905B628CAD
:10430000915B638C925B648C935BB5E5945B658C8D
:10431000955BB4E5965B668C975BDAD7985BD9B909
:10432000995BE6D69A5BA8B69B5BF0CD9C5BCBD243
:104330009D5BA6B19E5BB5CA9F5B678CA05BE8B333
:10434000A15BF3C9A25BCDBFA35BFBD0A45BD2CAC8
:10435000A55BB6E5A65BC2BBA75B688CA85B698C56
:10436000A95B6A8CAA5BDCCFAB5BACB9AC5B6B8C3A
:10437000AD5B6C8CAE5B6D8CAF5B6E8CB05BD7D481
:10438000B15B6F8CB25B708CB35BA6BAB45BE7D1E8
:10439000B55BFCCFB65BD2BCB75B718CB85BB7E5E5
:1043A000B95BDDC8BA5B728CBB5B738CBC5B748C15
:1043B000BD5BEDBFBE5BF6B1BF5BDECBC05B758C9A
:1043C000C15B768CC25BC5BCC35B778CC45BC4BC71
:1043D000C55BFAD2C65BDCC3C75BDCBFC85B788C4D
:1043E000C95B798CCA5B7A8CCB5B7B8CCC5BBBB8B2
:1043F000CD5B7C8CCE5B7D8CCF5B7E8CD05BC2C377
:10440000D15B808CD25BAEBAD35BA2D4D45B818CFF
:10441000D55B828CD65B838CD75B848CD85B858C98
:10442000D95B868CDA5B878CDB5B888CDC5B898C68
:10443000DD5BDEC7DE5BAFC4DF5BECB2E05B8A8CCA
:10444000E15BD1B9E25B8B8CE35B8C8CE45BBBE51D
:10445000E55BC8C1E65B8D8CE75B8E8CE85BAFD516
:10446000E95B8F8CEA5B908CEB5B918CEC5B928CC4
:10447000ED5B938CEE5BBCE5EF5B948CF05BBEE593
:10448000F15B958CF25B968CF35B978CF45B988C6C
:10449000F55B998CF65B9A8CF75B9B8CF85BE7B4C9
:1044A000F95BD4B6FA5BC2CBFB5BB0D1FC5BBCB5AD
:1044B000FD5B9C8CFE5B9D8CFF5BD9CA005C9E8C77
:1044C000015CE2B7025C9F8C035CA08C045CE4C9D5
:1044D000055CA18C065CABBD075CA28C085CA38C60
:1044E000095CBECE0A5CF0D70B5CA48C0C5CA58C7E
:1044F0000D5CA68C0E5CA78C0F5CA1D0105CA88C08
:10450000115CD9C9125CA98C135CAA8C145CFBB633
:10451000155CD8E6165CE2BC175CAB8C185CBEB3CD
:10452000195CAC8C1A5CD0C91B5CAD8C1C5CD9E6E8
:104530001D5CA2B31E5CAE8C1F5CAF8C205CB08C8B
:10454000215CB18C225CCCDE235CB28C245CC8D3B1
:10455000255CCDDE265CB38C275CA2D2285CB48CB3
:10456000295CB58C2A5CB68C2B5CB78C2C5CCEDEBF
:104570002D5CB88C2E5CB98C2F5CBA8C305CBB8CFB
:10458000315CCDBE325CBC8C335CBD8C345CCFDE28
:10459000355CBE8C365CBF8C375CC08C385CACCA7A
:1045A000395CFCD23A5CDFB33B5CEAE53C5CE1C4DD
:1045B0003D5CA1BE3E5CB2CE3F5CF2C4405CD6BE68
:1045C000415CA8C6425CE3B2435CC18C445CC28CD3
:1045D000455CD3BE465CC38C475CC48C485CFCC75E
:1045E000495CEBCC4A5CECBD4B5CDDCE4C5CC58CD5
:1045F0004D5CC68C4E5CBACA4F5CC1C6505CECE5E3
:10460000515CBCD0525CC78C535CC88C545CC98C68
:10461000555CB9D5565CCA8C575CCB8C585CCC8C3D
:10462000595CEDE55A5CCD8C5B5CCE8C5C5CCF8CD0
:104630005D5CD08C5E5CF4CA5F5CD18C605CC0CD8C
:10464000615CC5C2625CD28C635CEFE5645CD38C58
:10465000655CC4C2665CF0E5675CD48C685CD58C34
:10466000695CD68C6A5CD78C6B5CD88C6C5CD98CA2
:104670006D5CDA8C6E5CF8E56F5CCDCD705CDB8CCC
:10468000715CBDC9725CDC8C735CDD8C745CDE8C2F
:10469000755CDF8C765CE08C775CE18C785CE28C1E
:1046A000795CD9D27A5CA8E17B5CE38C7C5CE48C9D
:1046B0007D5CE58C7E5CE68C7F5CECD3805CE78C7B
:1046C000815CEACB825CF1C6835CE88C845CE98C1B
:1046D000855CEA8C865CEB8C875CEC8C885CACE15E
:1046E000895CED8C8A5CEE8C8B5CEF8C8C5CA7E13A
:1046F0008D5CA9E18E5CF08C8F5CF18C905CAAE102
:10470000915CAFE1925CF28C935CF38C945CEDB2C3
:10471000955CF48C965CABE1975CDAB8985CADE1A3
:10472000995CAEE19A5CB0E19B5CBAB59C5CB1E18E
:104730009D5CF58C9E5CF68C9F5CF78CA05CF88C85
:10474000A15CF98CA25CB3E1A35CB8E1A45CFA8C37
:10475000A55CFB8CA65CFC8CA75CFD8CA85CFE8C2D
:10476000A95CD2D1AA5C408DAB5CB6E1AC5CB5E192
:10477000AD5CEBC1AE5C418DAF5C428DB05C438DF6
:10478000B15CB7E1B25C448DB35CC0D4B45C458D20
:10479000B55CB2E1B65C468DB75CBAE1B85CB6B068
:1047A000B95C478DBA5C488DBB5C498DBC5C4A8D59
:1047B000BD5CB4E1BE5C4B8DBF5CF9BFC05C4C8D91
:1047C000C15CB9E1C25C4D8DC35C4E8DC45CBBE184
:1047D000C55C4F8DC65C508DC75C518DC85C528DD9
:1047E000C95C538DCA5C548DCB5CBEE1CC5C558DED
:1047F000CD5C568DCE5C578DCF5C588DD05C598D7D
:10480000D15C5A8DD25CBCE1D35C5B8DD45C5C8D99
:10481000D55C5D8DD65C5E8DD75C5F8DD85C608D20
:10482000D95CC5D6DA5C618DDB5C628DDC5C638D46
:10483000DD5C648DDE5C658DDF5C668DE05C678DC4
:10484000E15CBFCFE25C688DE35C698DE45CBDE157
:10485000E55CBFE1E65CCDC2E75C6A8DE85CEBB687
:10486000E95C6B8DEA5CF8D3EB5C6C8DEC5C6D8D78
:10487000ED5CCDC7EE5C6E8DEF5C6F8DF05CE5B7E7
:10488000F15C708DF25C718DF35C728DF45C738DF4
:10489000F55C748DF65C758DF75C768DF85C778DC4
:1048A000F95C788DFA5C798DFB5CFEBEFC5C7A8DE0
:1048B000FD5C7B8DFE5C7C8DFF5C7D8D005D7E8D67
:1048C000015D808D025DC0E1035DC1E1045D818D0C
:1048D000055D828D065DC7E1075DE7B3085D838DE9
:1048E000095D848D0A5D858D0B5D868D0C5D878DE0
:1048F0000D5D888D0E5DE9C60F5D898D105D8A8D19
:10490000115D8B8D125D8C8D135D8D8D145DDEB40C
:10491000155D8E8D165DC2D1175D8F8D185D908DE2
:10492000195D918D1A5D928D1B5DC8E11C5D938DA3
:104930001D5D948D1E5DC6E11F5D958D205D968D7C
:10494000215D978D225D988D235D998D245DC5E154
:10495000255D9A8D265DC3E1275DC2E1285D9B8DB3
:10496000295DC0B12A5D9C8D2B5D9D8D2C5D9E8D3A
:104970002D5DB8D52E5DC4E12F5D9F8D305DA08D7E
:10498000315DA18D325DA28D335DA38D345DCBE1B0
:10499000355DA48D365DA58D375DA68D385DA78DFF
:1049A000395DA88D3A5DA98D3B5DAA8D3C5DAB8DCF
:1049B0003D5DCCE13E5DCAE13F5DAC8D405DAD8DBE
:1049C000415DAE8D425DAF8D435DB08D445DB18D77
:1049D000455DB28D465DB38D475DFAEF485DB48DA0
:1049E000495DB58D4A5DD3E14B5DD2E14C5DB6C703
:1049F0004D5DB68D4E5DB78D4F5DB88D505DB98DF7
:104A0000515DBA8D525DBB8D535DBC8D545DBD8DC6
:104A1000555DBE8D565DBF8D575DC08D585DC9E13A
:104A2000595DC18D5A5DC28D5B5DCEE15C5DC38D0C
:104A30005D5DD0E15E5DC48D5F5DC58D605DC68DE1
:104A4000615DC78D625DC88D635DC98D645DCA8D12
:104A5000655DCB8D665DCC8D675DCD8D685DCE8DE2
:104A6000695DD4E16A5DCF8D6B5DD1E16C5DCDE1B7
:104A70006D5DD08D6E5DD18D6F5DCFE1705DD28D3E
:104A8000715DD38D725DD48D735DD58D745DD5E10F
:104A9000755DD68D765DD78D775DD88D785DD98D36
:104AA000795DDA8D7A5DDB8D7B5DDC8D7C5DDD8D06
:104AB0007D5DDE8D7E5DDF8D7F5DE08D805DE18DD6
:104AC000815DE28D825DD6E1835DE38D845DE48D61
:104AD000855DE58D865DE68D875DE78D885DE88D7A
:104AE000895DE98D8A5DEA8D8B5DEB8D8C5DEC8D4A
:104AF0008D5DED8D8E5DEE8D8F5DEF8D905DF08D1A
:104B0000915DF18D925DF28D935DF38D945DF48DE9
:104B1000955DF58D965DF68D975DF78D985DF88DB9
:104B2000995DD7E19A5DF98D9B5DFA8D9C5DFB8D5A
:104B30009D5DD8E19E5DFC8D9F5DFD8DA05DFE8D30
:104B4000A15D408EA25D418EA35D428EA45D438E29
:104B5000A55D448EA65D458EA75D468EA85D478EF9
:104B6000A95D488EAA5D498EAB5D4A8EAC5D4B8EC9
:104B7000AD5D4C8EAE5D4D8EAF5D4E8EB05D4F8E99
:104B8000B15D508EB25D518EB35D528EB45D538E69
:104B9000B55D548EB65D558EB75DDAE1B85D568E63
:104BA000B95D578EBA5D588EBB5D598EBC5D5A8E0D
:104BB000BD5D5B8EBE5D5C8EBF5D5D8EC05D5E8EDD
:104BC000C15D5F8EC25D608EC35D618EC45D628EAD
:104BD000C55DDBE1C65D638EC75D648EC85D658EB5
:104BE000C95D668ECA5D678ECB5D688ECC5D698E51
:104BF000CD5DA1CECE5D6A8ECF5D6B8ED05D6C8EAD
:104C0000D15D6D8ED25D6E8ED35D6F8ED45D708EF4
:104C1000D55D718ED65D728ED75D738ED85D748EC4
:104C2000D95D758EDA5D768EDB5DDDE7DC5D778ED6
:104C3000DD5DA8B4DE5DDDD6DF5D788EE05D798E6A
:104C4000E15DB2D1E25DB2B3E35D7A8EE45D7B8E6D
:104C5000E55DA4B9E65DF3D7E75DC9C7E85DDEBEF3
:104C6000E95DAEB9EA5D7C8EEB5DD7CEEC5D7D8E05
:104C7000ED5D7E8EEE5DEEB2EF5DCFDBF05D808EA2
:104C8000F15DBABCF25DD1D2F35DC8CBF45DCDB0BD
:104C9000F55D818EF65D828EF75DEFCFF85D838ED8
:104CA000F95D848EFA5D858EFB5D868EFC5D878E58
:104CB000FD5DE3D9FE5DEDBDFF5D888E005E898EF2
:104CC000015ED2B1025ED0CA035EBCB2045E8A8EBF
:104CD000055EA7CB065EABB7075E8B8E085EA6CAE5
:104CE000095E8C8E0A5E8D8E0B5E8E8E0C5EA3CF5F
:104CF0000D5E8F8E0E5E908E0F5EF8E0105ECAD550
:104D0000115EFBE0125E918E135E928E145EFAE0ED
:104D1000155EC1C5165EFBCC175E938E185EB1C1E1
:104D2000195EF9E01A5EE3D61B5EAFB21C5EC4D614
:104D30001D5EDBB51E5E948E1F5E958E205E968E88
:104D4000215E978E225E988E235E998E245E9A8EC7
:104D5000255E9B8E265EF8B4275EA1D6285E9C8ECB
:104D6000295E9D8E2A5E9E8E2B5E9F8E2C5EA08E6F
:104D70002D5EAFCF2E5EEFB02F5EA18E305EA28E85
:104D8000315EFCE0325EA38E335EA48E345EA58E6F
:104D9000355EA68E365EA78E375EA1E1385EA3B380
:104DA000395EA88E3A5EA98E3B5EFDE03C5EFEE079
:104DB0003D5EB1C33E5EAA8E3F5EAB8E405EAC8E62
:104DC000415EAD8E425EDDC3435EAE8E445EA2E1C7
:104DD000455EF9B7465EAF8E475EB08E485EB18ED7
:104DE000495EB28E4A5EB38E4B5EB48E4C5ECFBBD4
:104DF0004D5EB58E4E5EB68E4F5EB78E505EB88EEF
:104E0000515EB98E525EBA8E535EBB8E545EA3E184
:104E1000555EBBC4565EBC8E575EBD8E585EBE8E60
:104E2000595EBF8E5A5EC08E5B5EA4E15C5EC18E31
:104E30005D5EC28E5E5EA5E15F5EC38E605EC48E07
:104E4000615EA6E1625EB1B4635EC58E645EC68ECD
:104E5000655EC78E665EC88E675EC98E685ECA8EE6
:104E6000695ECB8E6A5ECC8E6B5ECD8E6C5ECE8EB6
:104E70006D5ECF8E6E5ED08E6F5ED18E705ED28E86
:104E8000715ED38E725EC9B8735EBDC6745EEAC4CD
:104E9000755ED48E765EA2B2775ED58E785ED2D005
:104EA000795ED68E7A5EDBE77B5EC3BB7C5ED7D352
:104EB0007D5EC4D37E5ED78E7F5EE3B9805ECFE237
:104EC000815ED88E825ED98E835EDA8E845EAFD7A5
:104ED000855EDB8E865EECC7875ED3B1885EDC8E36
:104EE000895EDD8E8A5EB2B48B5ED1E28C5EDE8E30
:104EF0008D5EDF8E8E5EE08E8F5EF2D0905EAEC2F3
:104F0000915ED0E2925EE18E935EE2BF945EA6D3A4
:104F1000955ED7B5965ED2E2975EEAB5985EE28E70
:104F2000995EEDC39A5EFDB89B5EE38E9C5EAEB863
:104F30009D5EE48E9E5ED3C59F5ECFB7A05ED4E239
:104F4000A15EE58EA25EE68EA35EE78EA45EE88E8D
:104F5000A55ED3E2A65EC8B6A75EF9D7A85EE98EC5
:104F6000A95EEA8EAA5EEB8EAB5EEC8EAC5EED8E39
:104F7000AD5EA5CDAE5EEE8EAF5EEF8EB05EF08E16
:104F8000B15EF18EB25EF28EB35ED8E2B45EF38EA5
:104F9000B55ED6E2B65EFCCAB75EB5BFB85EB9D341
:104FA000B95ED5E2BA5EF48EBB5EF58EBC5EF68E5F
:104FB000BD5EF78EBE5ED7E2BF5EF88EC05EF98E34
:104FC000C15EFA8EC25EFB8EC35EFC8EC45EFD8E39
:104FD000C55EFE8EC65E408FC75E418FC85E428F43
:104FE000C95EAEC1CA5EC8C0CB5E438FCC5E448F83
:104FF000CD5E458FCE5E468FCF5E478FD05E488FA9
:10500000D15EDBE2D25EDAE2D35EAAC0D45E498F23
:10501000D55E4A8FD65ECEC1D75E4B8FD85E4C8FA1
:10502000D95E4D8FDA5E4E8FDB5EDCE2DC5E4F8F49
:10503000DD5E508FDE5E518FDF5E528FE05E538FFC
:10504000E15E548FE25E558FE35E568FE45E578FCC
:10505000E55E588FE65E598FE75E5A8FE85EDDE2C7
:10506000E95E5B8FEA5EDEE2EB5E5C8FEC5E5D8F9D
:10507000ED5E5E8FEE5E5F8FEF5E608FF05E618F44
:10508000F15E628FF25E638FF35E648FF45EC8DB65
:10509000F55E658FF65ED3D1F75EA2CDF85E668FC2
:1050A000F95E678FFA5EA8BDFB5E688FFC5E698F54
:1050B000FD5E6A8FFE5EC3DEFF5EA5D8005FAABFFD
:1050C000015FCDDB025FECD2035FFAC6045FAAC5C5
:1050D000055F6B8F065F6C8F075F6D8F085FC4DEA7
:1050E000095F6E8F0A5FD7B10B5FAEDF0C5F6F8F0A
:1050F0000D5F708F0E5F718F0F5FBDCA105F728F73
:10510000115FB1DF125F738F135FADB9145F748FDE
:10511000155FFDD2165F758F175FA5B8185FEBBAE4
:10512000195F768F1A5F778F1B5FDAB31C5F788FFA
:105130001D5F798F1E5F7A8F1F5FDCB5205FC5D53D
:10514000215F7B8F225F7C8F235F7D8F245F7E8F2B
:10515000255FD6C3265FD2CF275FA1BB285F808F94
:10516000295FF3E52A5FF2E52B5F818F2C5F828F49
:105170002D5FF4E52E5F838F2F5FE4CD305F848F4A
:10518000315FF5C8325F858F335F868F345F878FDD
:10519000355F888F365F898F375F8A8F385F8B8F57
:1051A000395FAFB53A5FBFC73B5F8C8F3C5FF6E5B9
:1051B0003D5F8D8F3E5F8E8F3F5F8F8F405FB0EC86
:1051C000415F908F425F918F435F928F445F938FD7
:1051D000455F948F465F958F475F968F485F978FA7
:1051E000495F988F4A5F998F4B5F9A8F4C5F9B8F77
:1051F0004D5F9C8F4E5F9D8F4F5F9E8F505FE6E5AA
:10520000515F9F8F525FE9B9535FB1B5545FA08F73
:10521000555FBCC2565FE8E5575FE7E5585FE9E5D3
:10522000595FA18F5A5FA28F5B5FA38F5C5FA48FD2
:105230005D5FCDD25E5FA58F5F5FA68F605FA78F3A
:10524000615FEAE1625FCED0635FA88F645FAECD3D
:10525000655FA98F665FE5D1675FAA8F685FAB8FD7
:10526000695FCAB26A5FEBB16B5FAC8F6C5FF2B122
:105270006D5FEDC56E5FAD8F6F5FAE8F705FC3D535
:10528000715FB0D3725FAF8F735FDCE1745FB08F1B
:10529000755FB18F765FB28F775FDDE1785FB38F37
:1052A000795FDBD27A5FB48F7B5FB9B37C5FCBB1C0
:1052B0007D5FB58F7E5FB68F7F5FB78F805FF9CDE3
:1052C000815FF7D5825FDEE1835FB88F845FB6BE12
:1052D000855FFDB4865FB98F875FDFE1885FDCBAE9
:1052E000895FE0E18A5FB2BB8B5FC9C28C5FE1E19D
:1052F0008D5FBA8F8E5FBB8F8F5FBC8F905FECD05E
:10530000915FBD8F925FBDCD935FBE8F945FBF8F66
:10531000955FE2E1965FC08F975FC3B5985FC7C5A1
:10532000995FE3E19A5FC18F9B5FC28F9C5FE4E16D
:105330009D5FC38F9E5FC48F9F5FC58FA05FC68F29
:10534000A15FF9D3A25FC78FA35FC88FA45FC98F86
:10535000A55FCA8FA65FCB8FA75FCC8FA85FE5E163
:10536000A95FCD8FAA5FADD1AB5FCE8FAC5FCF8F82
:10537000AD5FE6E1AE5FA2CEAF5FD08FB05FD18F01
:10538000B15FD28FB25FD38FB35FD48FB45FD58F4D
:10539000B55FE7E1B65FD68FB75FC2B5B85FD78FAD
:1053A000B95FD88FBA5FD98FBB5FDA8FBC5FE8E196
:1053B000BD5FD5BBBE5FDB8FBF5FDC8FC05FDD8FA6
:1053C000C15FDE8FC25FDF8FC35FC4D0C45FE0E226
:1053D000C55FD8B1C65FE4D2C75FE08FC85FE18F19
:1053E000C95FE1E2CA5FE28FCB5FE38FCC5FC9BCEC
:1053F000CD5FCCC8CE5FE48FCF5FE3E2D05FFEEC41
:10540000D15FFDECD25FAFDFD35FE58FD45FE68F76
:10541000D55FE78FD65FE2E2D75FBED6D85FFCCD1F
:10542000D95FA6C3DA5FE88FDB5FE98FDC5FEA8FC5
:10543000DD5FC3E3DE5FEB8FDF5FEC8FE05FD2D633
:10544000E15FE7E2E25FED8FE35FEE8FE45FE8E2CA
:10545000E55FEF8FE65FF08FE75FC7D3E85FF18F1F
:10546000E95FF28FEA5FECE2EB5FECBFEC5FF38F9A
:10547000ED5FEDE2EE5FE5E2EF5FF48FF05FF58F59
:10548000F15FC0B3F25FF68FF35FF78FF45FF88FD1
:10549000F55FEEC4F65FF98FF75FFA8FF85FEEE223
:1054A000F95FFB8FFA5FFC8FFB5FC3D0FC5FFD8F62
:1054B000FD5FF6BAFE5FE9E2FF5FDEB70060B3BBF7
:1054C0000160ACCC0260CBCB0360E4E20460E6E2B6
:1054D0000560EAE20660EBE20760FE8F086040903C
:1054E000096041900A60F7E20B6042900C604390C3
:1054F0000D60F4E20E60F5D40F60F3E210604490AA
:10550000116045901260ADC5136046901460FAD5E5
:105510001560C2C51660C0B2176047901860489009
:105520001960EFE21A6049901B60F2E21C60AFC1A3
:105530001D60BCCB1E604A901F604B902060A1B5DF
:105540002160F9E222604C9023604D9024604E90DF
:105550002560B1BC2660F1E22760D4D02860B9D4C0
:105560002960F5E22A60D6B92B60F6E22C604F90F4
:105570002D6050902E6051902F60D3C730605290B4
:10558000316053903260549033605590346056903F
:105590003560F0E236605790376058903860599027
:1055A00039605A903A605B903B60DCD73C60A1ED7B
:1055B0003D605C903E605D903F60F8E240605E90D0
:1055C0004160A5ED4260FEE24360D1CA44605F9055
:1055D000456060904660619047606290486063906B
:1055E000496064904A6065904B60B5C14C606690BC
:1055F0004D60D0BB4E6067904F6068905060D6BFE2
:10560000516069905260E3BA53606A9054606B9045
:105610005560A1CB56606C9057606D9058606E904D
:105620005960A6ED5A60A3ED5B606F905C6070906E
:105630005D60A2ED5E6071905F60729060607390DB
:10564000616074906260D6BB6360A7ED6460F4D063
:1056500065607590666076906760A4ED6860DEBAFC
:105660006960F7B66A60A1E36B60B2B66C60F1CCBA
:105670006D60A7B96E6077906F60A2CF7060A1C7B0
:1056800071607890726079907360D2BF74607A9024
:1056900075607B907660F1B677607C907860FAE216
:1056A0007960FBE27A60FDE27B60FCE27C60D5C45D
:1056B0007D60A2E37E607D907F60C1D380607E903C
:1056C00081608090826081908360A7E38460C4C71A
:1056D00085608290866083908760849088608590E2
:1056E0008960A4CF8A6086908B6087908C60A9E3E4
:1056F0008D60B7BA8E6088908F60899090608A9034
:1057000091608B909260A8E393608C909460DABB78
:1057100095608D909660A3E397608E9098608F90CF
:10572000996090909A60A4E39B60AAE39C6091903A
:105730009D60A6E39E6092909F60F2CEA060C6D36B
:10574000A1609390A2609490A360BCBBA46095906C
:10575000A5609690A660C3D4A7609790A860FAC48D
:10576000A9609890AA609990AB60A8EDAC60FCD05D
:10577000AD60A5E3AE609A90AF60F5C3B0609B905A
:10578000B160ADE3B260AFB1B3609C90B460B2E31E
:10579000B5609D90B6609E90B7609F90B860C2BCA7
:1057A000B960A090BA60A190BB60ACE3BC60BFB52B
:1057B000BD60A290BE60A390BF60A490C060A590A1
:1057C000C160A690C260A790C360A890C460A99071
:1057D000C560E9C7C660B0E3C760AA90C860AB9077
:1057E000C960AC90CA60AABECB60EFCDCC60AD9072
:1057F000CD60AE90CE60AF90CF60B090D060B190F1
:10580000D160F3BBD260B290D360B390D460B49057
:10581000D560E8CCD660B590D760B690D860AFE3DD
:10582000D960B790DA60B1E3DB60B890DC60A7CFF5
:10583000DD60AEE3DE60B990DF60A9CEE060DDBB85
:10584000E160BA90E260BB90E360BC90E460BD9020
:10585000E560BE90E660EBB5E760E5BEE860D2B219
:10586000E960CDB3EA60BF90EB60B9B1EC60ABE347
:10587000ED60D1B2EE60ACB5EF60DFB9F060E8B6D4
:10588000F160C090F260C190F360EBCFF460B7E3D9
:10589000F560C290F660CCBBF760C390F860C4902E
:1058A000F960C7C8FA60CAD0FB60C590FC60C690BA
:1058B000FD60C790FE60C890FF60C9900061B8E3CA
:1058C0000161EEB30261CA900361CB900461CC9098
:1058D0000561CD900661A9ED0761CE900861FAD30C
:1058E0000961E4D30A61CF900B61D0900C61D19033
:1058F0000D61AAED0E61B9E30F61E2D21061D290A1
:105900001161D3901261D4901361D5901461D69037
:105910001561B5E31661D7901761D8901861D990D9
:105920001961DA901A61DED31B61DB901C61DC9097
:105930001D61DD901E61DE901F61D0B82061B3E370
:105940002161DF902261E0902361B6E32461DFB73B
:105950002561E1902661B4E32761A2C02861E2904D
:105960002961E3902A61E4902B61BAE32C61E59010
:105970002D61E6902E61E7902F61E8903061E9900B
:105980003161EA903261EB903361EC903461ED90DB
:105990003561EE903661EF903761F0903861F190AB
:1059A0003961F2903A61F3903B61F4903C61F5907B
:1059B0003D61F6903E61F7903F61B8D44061F89048
:1059C0004161F9904261FA904361FB904461FC901F
:1059D0004561FD904661FE90476140914861C8B4C1
:1059E000496141914A61BBE34B6142914C61C5BB46
:1059F0004D6143914E61F7C94F61449150614591AA
:105A00005161E5C952614691536147915461489192
:105A10005561BDC45661499157614A9158614B9196
:105A200059614C915A614D915B614E915C614F910E
:105A30005D61ABED5E6150915F615191606152912A
:105A4000616153916261FDC26361549164615591DA
:105A500065615691666157916761DBBB6861AEBF56
:105A6000696158916A6159916B615A916C615B915E
:105A70006D615C916E615D916F615E917061BFCE91
:105A800071615F9172616091736161917461629102
:105A90007561BCE3766163917761B6BF78616491AB
:105AA000796165917A6166917B6167917C616891AA
:105AB0007D6169917E616A917F616B9180616C917A
:105AC00081616D9182616E9183616F91846170914A
:105AD000856171918661729187617391886174911A
