:020000040800F2
:10000000505B0020B1BD000845BE00088DBC000853
:1000100047BE000849BE00084BBE000800000000B3
:100020000000000000000000000000004DBE0008BD
:100030004FBE000800000000D1A900085BAF000817
:10004000D1BE0008D5BE0008D9BE0008DDBE00083C
:10005000E1BE0008E5BE0008E9BE0008EDBE0008EC
:10006000F1BE0008F5BE0008F9BE0008FDBE00089C
:1000700001BF000805BF000809BF0008DB34000805
:100080000DBF000811BF000815BF000819BF000808
:10009000795300081DBF000821BF000825BF0008D4
:1000A00029BF00082DBF000831BF000835BF000878
:1000B000EF290008E734000839BF00083DBF0008F9
:1000C00041BF000845BF000849BF00084DBF0008F8
:1000D00051BF0008B348000855BF000859BF0008C9
:1000E0005DBF000861BF000865BF000869BF000868
:1000F0006DBF000871BF000875BF000879BF000818
:100100007DBF00080D8D000881BF000885BF000875
:1001100089BF00088DBF000891BF000895BF000887
:1001200099BF00089DBF0008A1BF0008238D0008EB
:10013000A5BF0008A9BF0008ADBF0008B1BF0008F7
:10014000AD550008B5BF0008B9BF0008BDBF000825
:10015000C1BF0008178D0008C5BF0008C9BF00084F
:10016000CDBF0008D1BF0008D5BF0008D9BF000827
:10017000DDBF0008E1BF0008E5BF00080000000087
:10018000E9BF0008EDBF00082DE9F14FB0B092467D
:1001900004910DF142013A9A2B9199464A70002040
:1001A0000AE01AF8011B0498309A9047002804903E
:1001B00000F0B4860D98401C0D909AF8000050B1E4
:1001C0002528EED1002100220791089209910A9278
:1001D0000B910C9204E00D9800F0A2BE41F00101D9
:1001E0001AF8010F2028F9D023280CD02B2804D08E
:1001F0002D2805D0302809D00BE041F00201EFE7AF
:1002000041F00401ECE741F00801E9E741F0100199
:10021000E6E72A280FD1D9F8002052F8040BC9F8D4
:10022000002000280F9003D540420F9041F00401B8
:100230000AF1010A14E00F92DFF824380AE00F985F
:10024000984205DA00EB800402EB4402303A0F9248
:100250000AF1010A9AF80020A2F130000A28EED330
:100260009AF800002E2803D04FF0FF320E9229E0BA
:100270001AF8010F2A2809D1D9F8000050F8042BE8
:10028000C9F800000E920AF1010A1BE02D280CBFEC
:100290000AF1010A002000220E92DFF8C4470BE0A9
:1002A00040B90E9AA24205DA02EB820503EB450340
:1002B000303B0E930AF1010A9AF80030A3F13002A4
:1002C0000A2AEDD3ADF84010DFF89807784400F221
:1002D00094709AF8001000F055FF08B11AF8010B5D
:1002E0008DF842009DF84200682805D19AF8000078
:1002F00068280CD1622106E06C2804BF9AF800003F
:100300006C2804D171218DF842100AF1010A12A85B
:1003100006901AF801BBBBF125012CD01C3900F066
:10032000D081091F022940F2CC81133900F02185C8
:10033000093900F0C681891E00F0B685491E00F01B
:100340006385491E022940F2BC81091F00F05C85CB
:10035000491F00F02881491E00F00B85491E00F05E
:10036000D080C91E0DD0891E00F00385C91E00F083
:10037000008500F0A4BD25238DF84830012100F050
:10038000A9BDD9F8000050F8044BC9F80000002CB2
:10039000059440F0A3802B994878002800F09980BC
:1003A0004FF0FF340FF6803000F004FF201A40F0C9
:1003B000B58500F090BD6D1E40F0A7853096079D75
:1003C00012AF75B1309E17F8012B02A9304600F02C
:1003D00071FE002801D46D1EF5D10028309640F042
:1003E0009D850A9D3020002D8DF804000CDD309E87
:1003F000012301AA02A9304600F06CFE002840F05B
:100400008D856D1EF4D13096059F089D75B1309E87
:1004100017F8012B02A9304600F04CFE002801D449
:100420006D1EF5D10028309640F078850B9D302068
:10043000002D8DF804000CDD309E012301AA02A9D5
:10044000304600F047FE002840F068856D1EF4D16C
:10045000309605980899099D471875B1309E17F890
:10046000012B02A9304600F025FE002801D46D1EA4
:10047000F5D10028309640F051850C9D3020002D9C
:100480008DF804000CDD309E012301AA02A930463C
:1004900000F020FE002840F041856D1EF4D130961A
:1004A0009DF8400041077FF588AE2020002C8DF894
:1004B00004007FF782AE309D012301AA02A92846DD
:1004C00000F008FE002840F02985641EF4D1309524
:1004D00073E60FF66040059000F0FDBC0E9D002D08
:1004E00004D5204600F086FE044607E02A46204652
:1004F00000F09CFE002814BF041B2C46089400F05A
:10050000EABCD9F8001051F8040BC9F8001020F02B
:100510000004002121F0FF3512ABCDE9024505931F
:10052000DDE9022306993C2413B90AB90E9898B163
:1005300002F00F053035641EEEB23A2EA8BF273503
:10054000120942EA03721B090D5508BF002A03D0A5
:1005500005980D19A842EBD308190590C4F13C0287
:100560000E98089282420ADABDF84010821A4FF6BD
:10057000EF7001400A92ADF8401000F0ACBC0028CA
:1005800040F1A9849DF8400000F01400102840F0CC
:10059000A2840F9B07990A985B1A1B1A9A1A002AC1
:1005A00040F39984E3E32B99487820B14FF0FF346E
:1005B0000FF65030F8E69DF84200622861D06828B6
:1005C00017D06A283FD06C2806D0712847D07428ED
:1005D0002CD07A281DD064E0D9F8001051F8040B13
:1005E000C9F80010002868D14FF0FF340FF62C3006
:1005F000DAE6D9F8001051F8040BC9F8001020B958
:100600004FF0FF340FF61430CEE60D99018000F064
:1006100062BCD9F8001051F8040BC9F8001000288A
:100620004BD14FF0FF340FF6F420BDE6D9F800109F
:1006300051F8040BC9F8001000283ED14FF0FF34E8
:100640000FF6D820B0E6D9F8001051F8040BC9F81D
:10065000001080B94FF0FF340FF6C020A4E6D9F89F
:10066000001051F8040BC9F8001020B94FF0FF3406
:100670000FF6A82098E60D9AD317C0E9002300F0E2
:100680002ABCD9F8001051F8040BC9F8001020B9A1
:100690004FF0FF340FF6842086E60D99017000F0CC
:1006A0001ABCD9F8001051F8040BC9F8001020B991
:1006B0004FF0FF340FF6642076E60D99016000F0EC
:1006C0000ABCD9F80020D21D22F00702C9F8002088
:1006D000D2E900010832C9F80020CDE90201C80FB3
:1006E00002D007982D210AE0BDF84000810702D50D
:1006F00007982B2103E0C00705D50798202112AAEF
:100700001154401C079012A807994BF0200243187F
:10071000DDE90201CDE92C01612A059321AC0BD062
:100720000E98002802D506200E9005E001BF4BF080
:100730002000672801210E91DDE9020148004015E3
:10074000401C0A460DD109030BD0ABF16105032013
:100750001A2D089002D20FF6E0110DE00FF6DC1111
:100760000AE070B912030CD1ABF1610503201A2D18
:1007700008901AD30FF6CC110322184600F082FD20
:10078000A9E3DDE90201CDE92E01DDE92E2323F005
:100790000047B7F5801F22F000060DD20022002F7F
:1007A00008BF002E009203D116E00FF69411E3E784
:1007B0006A4600F0BBFD0FE0DFF8D808DFF8D81874
:1007C00000EB17500090DDE92E234FF0FF30194069
:1007D000DFF8C87810403943CDE902014BF0200022
:1007E00061280DD1059830210170821CBBF1610F89
:1007F00005920CBF7821582141700798801C079002
:10080000DDE9020120F0000231F0004308BF002AB8
:1008100002D10026002567E14BF02008B8F1610FF6
:1008200040F0B4800E98002847BF21210191401C60
:100830000190019FDDE92C017F1C00220023DDE9EE
:10084000024500F0ABFD00998DF8842038BF85F09B
:100850000045091F002F00910DF1850653DD20464C
:1008600029460022002300F0B1FD4CD24800400D83
:1008700000F11C0312D0002B10DD40F2FF70834208
:1008800006DBDFF81C1805F000421143002011E0E0
:100890006FF31E5141EA035120460BE024F00000A3
:1008A00035F0004108BF00280FBF29461C22294609
:1008B00000F0A4FD04460D4600F03EFEFF1F002F91
:1008C000804609DD00F056FE02460B4620462946CA
:1008D00000F062FE04460D46F01D0721B8F1000F3E
:1008E0000CDD491E5EBF08F00F0200F8012D4FEA33
:1008F0002818F3D502E0002200F8012D491EFAD590
:10090000C61D002FABDC0DF18500361A019886421A
:10091000D8BF304600280DF1850430D4B04206DA45
:100920000DF185010A5C082AA8BF0F2100DA002119
:10093000024621AB134400E0401E13F80159521E39
:100940008D42F9D00F2904D10DF185018B5C5B1C20
:100950008B54002A04D50099091D21AC401C00913C
:10096000411E0CD46218ABF13A0613783033DDB275
:100970003A2DA8BFF318491E02F80139F5D50E9992
:10098000002940F1AF80421E0E92ABE00099DFF8E3
:10099000142747F29750414391FBF2F2DDE92C45D1
:1009A000009225F00045D2F1070204DD20462946D9
:1009B00000F04DFB0BE052420020DFF8EC1600F097
:1009C00046FB02460B462046294600F057FE0446E9
:1009D000B8F1660F0E9806BF009F0A3706273F182A
:1009E000142FC8BF142730200D468DF884000DF158
:1009F0008506002F38DD2046294600F063FF0146BA
:100A00000A4606F1080304200A26B2FBF6F606EBB6
:100A1000860EA2EB4E02303203F8012C0A22B6FBFE
:100A2000F2F202EB820EA6EB4E063036401E03F8C1
:100A3000026DE9D1083F002F03F10806D9DD084611
:100A400000F054FF02460B462046294600F0A4FD64
:100A50000022DFF8583600F057FF04460D46CAE77B
:100A6000CBCCCC0C64B400000DF18500361A0DF12E
:100A7000850404E00098401E761E0090641C2078D7
:100A80003028F7D0B8F1660F02D10099491C04E074
:100A9000B8F1650F0CBF012100210E98081886429D
:100AA000B8BF701E00281DD4B04204DA215C34297E
:100AB000C8BF392100DC30210246631E9D1800E0CA
:100AC000401E15F80169521E8E42F9D0392902D113
:100AD000A15C491CA154002A04D50099491C1C465C
:100AE000401C00910646009D00F0F0FF406A077828
:100AF000DDF8388030B2002802DC01260FF24864AD
:100B00004BF02000662808BF6D1C16D0672846D120
:100B100028B210F1040F48DB404546DA9DF840004A
:100B20006D1C010703D430B24045B8BF804628B2DF
:100B3000B8EB000848BF4FF000080FFA85FBBBF187
:100B4000000F00F3B5800898411C089130220599E8
:100B50000A54B8F1000F03DC9DF84000010704D5EA
:100B60000898411C089105990F5418EB0B0FB8BF5A
:100B7000C8F100052DB268420B90A84432B29045EE
:100B8000B8BF4646059B089836B2099632462146BC
:100B9000184400F077FBA8EB06000C90D2E0BBF104
:100BA000610F17D14FF0700B19E030B2404504DAF5
:100BB0009DF840100A0758BF8046B8F1010848BFA9
:100BC0004FF00008BBF1670F14BF4FF0450B4FF01B
:100BD000650B04E0BBF1410F08BF4FF0500B0898C4
:100BE000411C0891B8F1000F059914F8012B0A5423
:100BF00003DC9DF8400001071AD50898411C0891B4
:100C0000B8F1000F05990F5412DD761E30B2804501
:100C10000598089BB8BF464632B22146184400F0FA
:100C200031FB089936B271180891A8EB06000B90B9
:100C300005980899084429B2002980F800B003D427
:100C40002B224270821C04E02D2242700D46821C31
:100C50006D4200212CAB28460AE004460A2094FB92
:100C6000F0F000EB8005A4EB450403F8014B491CB0
:100C700000B20028F1DC012906DC4BF020006528D9
:100C800004BF302002F8010B00292CAB08D1302022
:100C900002F8010B06E0491E585C303002F8010BE7
:100CA0000029F8DC059908980844121A099249E0CD
:100CB00030B229B288421CDA0598089B32B221462C
:100CC000184400F0DFFA089936B27118ABEB06064B
:100CD000B8F1000F08910B9603DC9DF84000020765
:100CE00004D5059847540999491C0991CDF83080DD
:100CF00028E00598089B2AB22146184400F0C2FA61
:100D00000898761B5844B8F1000F089003DC9DF852
:100D100040100A0703D5411C089105990F5430B2C1
:100D200080450598089BB8BF464632B204EB0B01DC
:100D3000184400F0A7FA089836B230180890A8EBCB
:100D400006000B909DF8400000F01400102840F0C1
:100D5000C280079A08990B988A18099982180C98EA
:100D60008A1882180F98824280F2B580821A0A92FD
:100D7000B1E09DF84200622808D068280ED06A28A9
:100D800014D06C281FD0712810D01CE0D9F80010A6
:100D900051F8040BC9F80010C0B21AE0D9F80010DD
:100DA00051F8040BC9F8001080B212E0D9F8002005
:100DB000D21D22F00702C9F80020D2E90001083252
:100DC000C9F8002006E0D9F8001051F8040BC9F862
:100DD00000100021CDE902019DF8400001075AD51D
:100DE000DDE90223002B08BF002A54D04BF020007D
:100DF000782850D1079812A930220A54401C431C6D
:100E0000079301F800B046E09DF84200622808D040
:100E100068280ED06A2814D06C281FD0712810D0F2
:100E20001CE0D9F8001051F8040BC9F8001040B2CA
:100E30001AE0D9F8001051F8040BC9F8001000B2FC
:100E400012E0D9F80020D21D22F00702C9F80020D4
:100E5000D2E900010832C9F8002006E0D9F80010F4
:100E600051F8040BC9F80010C117CDE9020100299F
:100E700002D507982D210AE0BDF84000810702D570
:100E800007982B2103E0C00705D50798202112AA57
:100E90001154401C079012A807990144059102A81B
:100EA000594600F04FF816E001200790D9F80000ED
:100EB00050F8041BC9F800008DF848100BE02521FC
:100EC0000122BBF1000F8DF84810079203D08DF876
:100ED00049B0022107910F9A07980A990C9C121A9F
:100EE0000898521A0B99121A0998521A121A9DF858
:100EF0004000141B41073FF562AA2020002C8DF80A
:100F000004007FF75CAA309E2546012301AA02A9AE
:100F1000304600F0DFF800283FF44DAA4FF0FF30D4
:100F200031B0BDE8F08F00007072696E74665F7357
:100F30003A2062616420257320617267756D656E69
:100F4000740000002DE9FC4307466F293E6908BF85
:100F5000082405D041F02000782814BF0A2410246A
:100F60003C25D7E90023642918BF69299046994692
:100F700005D1002B03D5D8F1000869EB4909B9F177
:100F8000000F08BFB8F1000F0CD1386B50B9082C16
:100F900039D197F83800010735D530203B2586F840
:100FA0003B0030E08DF80010404649462246E317EA
:100FB00000F092FD3032D0B26D1E3A28019504DB6C
:100FC0009DF80000A0F151018A187255404649462B
:100FD0002246E31700F080FD80465FEA010908BF62
:100FE000B8F1000F03D0F86871198842DCD3082CDF
:100FF00009D197F83800010705D5705D302802D077
:101000006D1E30207055C5F13C02BA617119F9604E
:10101000386B824208DA821A3A624FF6EF70398FE3
:1010200001403987BDE8F38300280ED597F83800D2
:1010300000F01400102808D17B6B7969386A5B1ABC
:101040001B1A9A1A002AC8BF3A62BDE8F3832DE939
:10105000D04306460F4614464FF00008DFF8509084
:1010600012E0E00707D542464B463046394600F0CD
:101070004BFC06460F464046494642464B4600F06A
:1010800043FC641080468946002CEAD1304639463C
:10109000BDE8D08302FCFFFFFFFF0F800000E03FB0
:1010A0000000F07FA08601000000F03F84D7974148
:1010B0000000244010B503460C461146A06898472E
:1010C000A06020B1E06A401CE062002010BD4FF03B
:1010D000FF3010BDF8B505460E4617461C460020E9
:1010E0005CB117F8011BB068A847B06030B1F06A76
:1010F000401CF0620020641EF3D1F2BD4FF0FF30BF
:10110000F2BD00007072696E74665F733A20256EDE
:1011100020646973616C6C6F776564007072696ECE
:1011200074663A2062616420256E20617267756D75
:10113000656E7400000000006E616E004E414E004E
:10114000696E6600494E4600300030B4002513E059
:1011500050F8042BD30744BFA9F101039A18091FC3
:10116000042942F8045BFAD213468C0744BF158069
:101170009B1CC90748BF1D7050F8041B0029E7D10C
:1011800030BC7047C9B202788A421AB11CBF10F84D
:10119000012FF9E718BF002070478268521C826057
:1011A000426832B10268531C036011704168491EE5
:1011B0004160704780B500B906A005490B681BB1B6
:1011C00022220021984701E000F09EFD222002BD6E
:1011D00040570020636F6E73747261696E7420688B
:1011E000616E646C65723A20626164206D65737330
:1011F0006167650000F10103810704D010F8011B4D
:10120000820781B1FAD10268A2F10131914311F054
:10121000803104BF50F8042FF6E709BAB1FA81F122
:1012200000EBD100401CC01A70472E00C9B28307E2
:1012300006D0521E22D310F8013B9942F7D11FE08D
:10124000083A13D302F1040241EA012141EA0141C3
:1012500050F8043B121F21BF4B40A3F1013C2CEA84
:10126000030C1CF0803FF3D0C9B2001F083210F805
:10127000013B521E28BF91EA030FF8D818BF012086
:10128000401E704762B38B0708D0521E11F8013B15
:1012900000F8013B00F024808B07F6D1830740F073
:1012A000208000BF103A07D330B4B1E83810103AAC
:1012B000A0E83810F9D230BC530724BFB1E80810B9
:1012C000A0E8081044BF51F8043B40F8043BD207A3
:1012D00024BF31F8022B20F8022B44BF0B78037097
:1012E0007047121F17D35B0009D151F8043B20F857
:1012F000023B1B0C121F20F8023BF6D20BE051F808
:10130000043B00F8013B1B0A20F8023B1B0C121F98
:1013100000F8013BF3D238BF121D521E24BF11F852
:10132000013B00F8013BF8D87047430010B5144664
:1013300000F002F8226010BDC1F30A5343B14A0025
:1013400012F5001F28D2A3F2FE32A1EB0251704722
:1013500050EA410C20D001F0004C31EA0C01B1FA06
:1013600081F204BFB0FA80F3D2180B3AB2F1200335
:101370002CBF00FA03F1914041EA0C013EBFC2F1DB
:10138000200C20FA0CF319439040524240F2FD33F6
:10139000D21A01EB03517047002270474FF4001C32
:1013A0001CEB410F94BF1CEB430F09E041EA030C17
:1013B00050EA4C0C52EA0C0C03D2994208BF9042FE
:1013C000704714BF8B428242704700004FF4001CEC
:1013D0001CEB410F94BF1CEB430F09E041EA030CE7
:1013E00050EA4C0C52EA0C0C03D28B4208BF8242EA
:1013F000704714BF9942904270470000124254D483
:1014000040F2FF7C1CEA11530FD0634531D09B188A
:1014100063453CBF01EB0251704701F0004141EAD6
:101420000C510020AFF30080704750EA410320D0F8
:1014300001F0004C91EA0C011CD0B1FA81F30B3B96
:101440009A420DD9D21A994051EA0C01C3F1200CED
:1014500020FA0CFC61449840531C40F2FF7CD7E713
:10146000914041EA0C01C2F1200C20FA0CF319431F
:1014700090407047B0FA80F31533202BE0D3202A38
:10148000EED3203A203B9A4209D9D21A00FA03F14E
:1014900041EA0C010020531C40F2FF7CB8E700FA3F
:1014A00002F141EA0C0100207047524240F2FF7CF9
:1014B0001CEA11530DD06345DBD0B2EB030C3CBFEB
:1014C000A1EB025170470CF1010221EA035141F4F2
:1014D000801150EA410CCCD001F0004C352A27DCB9
:1014E00030B481EA0C01B2F1200309DAC2F1200321
:1014F000044601FA03F5D0402843D1409C400CE05B
:10150000C3F12002450020FA03F418BF44F001049F
:1015100021FA03F091400C43002174F1004550F191
:10152000000051EB0C01244230BC7FF47BAF7047CC
:101530006146002076E70000C1F30A5340F2FE3214
:101540009B1A14DDD3F120034FEAE17208DDC902D2
:1015500041EA505141F00040D84080185040704757
:1015600003F2E13010B1D24382F000407047002016
:1015700070470000C11768B14840401AB0FA80F2C5
:101580009040D21CC907C2F5846241EA025202EBC4
:10159000D02140057047000070B44FF0004591EA3B
:1015A000030F40F1B5836B40841A71EB030603D23D
:1015B000001BB141121973414FF4001C1CEB410F89
:1015C00034BF7CEB430442E00C0DA4EB1356352EE4
:1015D0004FDC45EAC323DB0A45EAC121C912B6F153
:1015E00020050DDD63FA05F6EB4086EA030512429D
:1015F00018BF45F00105C01851F100010CD213E0ED
:1016000062FA06F5F2405540F3415A40B340F340C8
:101610005A408018594107D349085FEA30005FEA11
:10162000350528BF45F0010501F58011420875F127
:10163000004250F1000041EB04514E0016F5001F2E
:1016400070BC38BF70470020090D090570471CEBBE
:10165000410F10D252EA43060BD0BCEB410F05D824
:101660000C0DAB43661E342EB6DD02E0AB43801892
:10167000594170BC704770BC70470000F0B540F233
:10168000FF7581EA030C0CF0004C15EA11541DBFE4
:1016900015EA1357AC42AF42E5E0BC41C1F3130178
:1016A000C3F31303801A994143F4801304D2641ED8
:1016B0004000494180185941C90241EA5051B1FBEB
:1016C000F3F603FB1611A2FB0675D7EBC020A94168
:1016D00002D2761E80185941C90241EA5051B1FB2D
:1016E000F3FE03FB1E11A2FB0E75D7EBC020A94130
:1016F00003D2AEF1010E80185941890241EA90519E
:10170000760546EA8E2EB1FBF3F603FB1611A2FB1B
:101710000675D7EB8020A94102D2761E8018594168
:10172000C90241EA50514EEA060EB1FBF3F603FB43
:101730001611A2FB0675D7EBC020A94102D2761E76
:1017400080185941C90241EA5051B1FBF3F703FB3C
:101750001711A2FB0735D3EBC020A94167F10007A1
:101760000CBF004247F0010766F3D5274FEA1E3150
:10177000B80814F5806412DDBD0775F1004250EB26
:101780000E5051EB045111F5801F5CBF41EA0C0172
:10179000F0BD4CF07F6141F0E0410020F0BDBD079D
:1017A0006D0840EA0E5041F48011D4F10104B4F107
:1017B00020060ADAC4F120060200E04001FA06F32E
:1017C000E1401843B24015430EE0342C13DCC6F15F
:1017D000200445EA40056D0820FA06F2154321FA77
:1017E00006F0A1400D43002175F1004250F10000C8
:1017F00051EB0C01F0BD00205FEA0C01F0BDCFB948
:1018000092185B41B3FA83F704BFB2FA82F6BF19AC
:101810000B3FB7F120062FBF02FA06F3BB40C7F11A
:10182000200622FA06F638BF3343BA401CB1E41949
:10183000641E33E77F4231F00041B1FA81F404BF06
:10184000B0FA80F6A4190B3CB4F120062FBF00FAC1
:1018500006F1A140C4F1200620FA06F638BF314354
:10186000A0403C1B1AE7AC421ABF05EA1357AF422F
:1018700012E050EA41061CBF52EA4306BFE750EAB5
:101880004107304661461CBF41EA0551F0BD52EAAE
:10189000430C08BFC143F0BD00204FF4001616EB07
:1018A000410F98BF16EB430F08BF16EB410F24BF43
:1018B000C14305E016EB430F0CBF61464CEA0551EE
:1018C000F0BD0000400D491840EA81200CD2490DBE
:1018D000A1F58061491C40F0004005DBD1F11F01FA
:1018E00054BFC840C017704700207047014648B138
:1018F000B0FA80F18840C91CC1F58461090501EB8B
:10190000D021400570470000B0B581EA030C0CF00F
:10191000004C40F2FF7515EA11541DBF15EA13572C
:10192000AC42AF4239E0E41923EA455343F4801353
:10193000C90241F0004141EA505EC7021100A7FB15
:10194000020200284FF00000EEFB01204FF00001E2
:10195000E3FB072118BF42F0010240180021494172
:10196000E3FB0E01A4F580640F0302D25200404154
:10197000494154F101046CDD470872F1004250F115
:10198000000051EB0451A1F580115CBF41EA0C014C
:10199000B0BD4CEA05510020B0BD05EA1357AC427A
:1019A00014BFAF4241E050EA410E1CBF52EA430E61
:1019B00002E061460020B0BD24423C441BD15FEAF6
:1019C000070EF6D0090302BF01460020AEF1140E47
:1019D000B1FA81F7AEEB070401FA07FE0C37C7F145
:1019E000200100FA07F7C8404EEA000E23EA4553EB
:1019F00043F48013A2E733F00043B3FA83F704BF44
:101A0000B2FA82FE77440B3FE41BB7F1200E2FBFE2
:101A100002FA0EF3BB40C7F1200E22FA0EFE38BFC9
:101A200043EA0E03BA40641C82E750EA410E14BF39
:101A300052EA430E6FF000014FF4001717EB430F0B
:101A40008ABF194617EB410FB5E74CEA0551002054
:101A5000B0BDD4F10104B4F120070FDAC4F12007BE
:101A6000520828BF42F0010210FA07F501FA07F701
:101A7000E1BF2A43E0403843E1400FE0352C98DCD9
:101A8000C7F1200452EA400220FA07F218BF42F0E0
:101A9000010231FA07F0A1400A43002172F100422D
:101AA00050F1000051EB0C01B0BD0000613807E0BF
:101AB00005E0A0F161011A2901D2012070474138E7
:101AC0001A288041C00F704701487047014870478D
:101AD000DC050020A4050020BBBBE1B1B2F5803FCE
:101AE00080F07E80022A1ED98C46B1FBF2F102FB07
:101AF00011C31B0443EA1043B3FBF2FC02FB1C338B
:101B000080B240EA0343B3FBF2F002FB103240EA3A
:101B10000C4000237047022A05D98446B0FBF2F03E
:101B200002FB10C270474AB105D100F0010249081A
:101B30005FEA3000704700220023704700F09EB932
:101B40000B000200002100207047904271EB030C53
:101B5000F6D3B3F5803F2FD2F0B5B3FA83F7B1FADD
:101B600081F4A7F10F0E3D1B5340CEF1200602FA7F
:101B70000EF2F3415340B5F10F0746D80F3C2C4409
:101B80004140C4F12006A040F1414140B1FBF3F6D1
:101B900003FB1611A2FB0645001BA94102D2761ECB
:101BA0008018594180EA010221FA0EF362FA0EF21E
:101BB00000215A403046F0BD30B4B1FBF3FC03FBCA
:101BC0001C11A2FB0C45001BA94103D2ACF1010C76
:101BD0008018594130BC02460B46604600217047D0
:101BE000B2F1807F65D3F0B5B2FA82F7B1FA81F431
:101BF000C7F10F063D1B22FA06F307F1110EF24161
:101C000020355A40B5F10F07B8D94140C4F120063C
:101C1000A040F1414140B1FBF3FC03FB1C11A2FBCE
:101C20000C45001BA94103D2BCF1010C801859419D
:101C30000F2F12D30F3FC90341EA5041B1FBF3F616
:101C400003FB1611A2FB0645D4EBC030A94102D21A
:101C5000761E8018594146EACC3C07B34140C7F193
:101C60002006B840F1414140B1FBF3F603FB1611E9
:101C7000A2FB0645001BA94102D2761E80185941DD
:101C800080EA010221FA0EF3C7F1200462FA0EF293
:101C90000CFA07F05A402CFA04F13043F0BD80EA08
:101CA000010221FA0EF3002162FA0EF260465A4058
:101CB000F0BD8C46B1FBF2F102FB11C31B0243EAFB
:101CC0001063B3FBF2FC02FB1C331B024CEA002046
:101CD00043EA1063B3FBF2FC02FB1C331B024CEA29
:101CE000002043EA1063B3FBF2FC02FB1C331B022F
:101CF0004CEA002043EA1063B3FBF2FC02FB1C3207
:101D00004CEA002000237047012000F0B9B8000021
:101D1000841A71EB030604D26E40001BB141121904
:101D200073414FF4001C1CEB410F34BF7CEB4306A6
:101D300083E00C0DA4EB1356362E00F37C80012EAD
:101D400045EAC32341DC43EA525312BFD202920256
:101D50005B08240545EAC12141EA5051D2EBC0207D
:101D6000994125D407D1B0FA80F610FA06F162D075
:101D70000020203608E0B1FA81F6B140C6F1200219
:101D800020FA02F21143B0404FEAF474B4EB465427
:101D900034F001064FEA74040AD8D6F50016760D21
:101DA00004F00044F04061FA06F25040F14048402F
:101DB000C00A40EA415021F0004128BF5FEA5005C7
:101DC00050F1000044EBD12135E0DB0A45EAC121A6
:101DD000C90AB6F120050EDD42EA0242120CC5F135
:101DE000200603FA06F6EB4042EA06056D429841EA
:101DF00061F100010DE062FA06F5F240554063FA28
:101E000006FC82EA0C02F3405A406D42904161EBBD
:101E1000030111F4801F05D1641E620502D06D001C
:101E20004041494121F48011430875F1004350F1CC
:101E3000000041EB045170BC70471CEB410F15D200
:101E400023F0004352EA43060BD04FEA4C0CBCEBA4
:101E5000410F04D80C0D661E342EB7DDEBE7801A57
:101E6000994150EA410608BF0021E4E708BF1CEB96
:101E7000430F28BF6FF00001DDE70000704700004E
:101E800080B5AFF30080024A11001820ABBEFBE71B
:101E90002600020010B50400002C01D1012014E03E
:101EA00094F83D00002805D1002084F83C00200073
:101EB00000F0B3FD022084F83D00211D206800F0F1
:101EC000B5FB012084F83D00002010BD022180F800
:101ED0003D100168896811F00701062905D00168E5
:101EE000096851F0010102681160012180F83D107C
:101EF0000020704710B50400002C01D1012014E02F
:101F000094F83D00002805D1002084F83C00200012
:101F100000F0C8FD022084F83D00211D206800F07B
:101F200085FB012084F83D00002010BD10B50400A1
:101F3000022084F83D002068006A41F21111084235
:101F40000BD12068006A40F24441084205D1206864
:101F500000684008400021680860200000F0A3FDF0
:101F6000002084F83D00002084F83C00002010BDD3
:101F700010B504000122206800F0C8FC2068DFF8DA
:101F8000A812884204D02068DFF8A012884201D14C
:101F9000012000E00020C0B2002805D02068406C7D
:101FA00050F40040216848642068806810F0070001
:101FB000062805D02068006850F0010021680860FC
:101FC000002010BD38B504000D00110094F83D004C
:101FD000022801D10220B2E094F83D0001280AD184
:101FE000002905D1180080B2002801D00120A6E008
:101FF000022084F83D002800002806D0042821D0C3
:1020000008283CD00C2857D073E0DFF82402626A1D
:10201000D063DFF82002626A10648248626AD0648A
:102020009BB2206810F13402606A00F0EEFD0028D7
:1020300001D0012083E02068C06850F4007021685E
:10204000C86056E0DFF8E801A26AD063DFF8E40177
:10205000A26A10647348A26AD0649BB2206810F12F
:102060003802A06A00F0D1FD002801D0012066E00E
:102070002068C06850F480602168C86039E0DFF8EB
:10208000B001E26AD063DFF8AC01E26A106465482F
:10209000E26AD0649BB2206810F13C02E06A00F072
:1020A000B4FD002801D0012049E02068C06850F448
:1020B00000602168C8601CE0DFF87401226BD06307
:1020C000DFF87001226B10645648226BD0649BB21B
:1020D000206810F14002206B00F097FD002801D02D
:1020E00001202CE02068C06850F480502168C8604E
:1020F000FFE701222900206800F008FC20684A4917
:10210000884203D020684949884201D1012000E07B
:102110000020C0B2002805D02068406C50F4004078
:10212000216848642068806810F00700062805D000
:102130002068006850F0010021680860002032BD6E
:1021400038B504000D002800002806D004280ED061
:10215000082816D00C281ED027E02068C06830F46C
:1021600000702168C860606A00F08FFD1DE0206883
:10217000C06830F480602168C860A06A00F085FD06
:1021800013E02068C06830F400602168C860E06A2D
:1021900000F07BFD09E02068C06830F480502168C1
:1021A000C860206B00F071FDFFE700222900206865
:1021B00000F0ACFB20681C49884203D020681B4912
:1021C000884201D1012000E00020C0B2002811D0D7
:1021D0002068006A41F2111108420BD12068006AA0
:1021E00040F24441084205D12068406C30F4004080
:1021F000216848642068006A41F2111108420BD13D
:102200002068006A40F24441084205D12068006815
:102210004008400021680860012084F83D0000204B
:1022200032BD000095250008000001400004014077
:10223000A5250008E925000810B5040020680069FC
:1022400080071AD52068C068800716D57FF0020085
:1022500021680861012020772068806910F0030F51
:1022600003D0200000F0A2FE05E0200000F09FFE59
:10227000200001F0CAF8002020772068006940079C
:102280001AD52068C068400716D57FF00400216881
:102290000861022020772068806910F4407F03D015
:1022A000200000F083FE05E0200000F080FE20000A
:1022B00001F0ABF8002020772068006900071AD5EC
:1022C0002068C068000716D57FF008002168086103
:1022D000042020772068C06910F0030F03D020008D
:1022E00000F064FE05E0200000F061FE200001F037
:1022F0008CF80020207720680069C0061AD5206875
:10230000C068C00616D57FF010002168086108205B
:1023100020772068C06910F4407F03D0200000F0CF
:1023200045FE05E0200000F042FE200001F06DF8BF
:102330000020207720680069C0070AD52068C0689F
:10234000C00706D57FF0010021680861200000F079
:102350005FFB2068006900060AD52068C068000697
:1023600006D57FF0800021680861200001F03AFA6C
:102370002068006940060AD52068C068400606D576
:102380007FF0400021680861200001F02CFA2068ED
:10239000006980060AD52068C068800606D57FF0EF
:1023A000200021680861200001F01EFA10BD38B538
:1023B00004000D0094F83C00012801D1022073E0D4
:1023C000012084F83C00022084F83D00002A06D059
:1023D000042A1BD0082A31D00C2A46D05DE02900FF
:1023E000206800F080F92068806950F008002168BA
:1023F00088612068806930F0040021688861206865
:102400008169286901432068816146E029002068CC
:1024100000F09BF92068806950F4006021688861B1
:102420002068806930F48060216888612068806954
:10243000296950EA0120216888612EE0290020687E
:1024400000F0BAF92068C06950F008002168C8613E
:102450002068C06930F004002168C8612068C16943
:10246000286901432068C16117E02900206800F055
:10247000D9F92068C06950F400602168C8612068FB
:10248000C06930F480602168C8612068C06929692A
:1024900050EA01202168C861FFE7012084F83D006F
:1024A000002084F83C00002032BD10B5040094F8F0
:1024B0003C00012801D102206AE0012084F83C00A0
:1024C000022084F83D002068806830F0770030F406
:1024D0007F4022689060086800284DD010284BD0BB
:1024E000202849D0302847D040283BD0502825D03C
:1024F00060282DD0702807D0B0F5805F03D0B0F5EC
:10250000005F0ED03DE03CE0CB684A6889682068F7
:1025100000F0F1F92068806850F077002168886049
:102520002FE0CB684A688968206800F0E4F92068E9
:10253000806850F480402168886022E0CA68496859
:10254000206800F0ABF95021206800F0CCF918E0C9
:10255000CA684968206800F0B3F96021206800F07B
:10256000C2F90EE0CA684968206800F097F9402176
:10257000206800F0B8F904E00968206800F0B3F9B9
:10258000FFE7012084F83D00002084F83C00002093
:1025900010BD000080B5806B012180F83D1001F076
:1025A00024F901BD10B5846B012184F83D10616AE6
:1025B000884202D10120207710E0A16A884202D12E
:1025C000022020770AE0E16A884202D104202077C5
:1025D00004E0216B884201D108202077200000F020
:1025E00014FF0020207710BD10B5846B012184F802
:1025F0003D10616A884202D10120207710E0A16A73
:10260000884202D1022020770AE0E16A884202D1A2
:102610000420207704E0216B884201D10820207734
:10262000200001F0E3F80020207710BD10B404680A
:10263000DFF83C32984212D0B0F1804F0FD0DFF873
:10264000342290420BD0DFF83022904207D0DFF8DE
:102650002C22904203D0DFF82822904203D134F09C
:1026600070044A681443984225D0B0F1804F22D0BC
:10267000DFF8002290421ED0DFF8FC2190421AD0F1
:10268000DFF8F821904216D0DFF8F421904212D002
:10269000DFF8F02190420ED07B4A90420BD07B4A6B
:1026A000904208D07A4A904205D07A4A904202D0AD
:1026B000794A904203D134F44074CA68144334F028
:1026C00080044A69144304608A68C2620A688262AC
:1026D000984202D06A4A904201D1096901630121FE
:1026E000416110BC704770B4026A52085200026225
:1026F000046A4568836933F070039B089B000A688D
:10270000134334F002048A681443594EB04202D095
:102710005B4A904205D134F00804CA68144334F08F
:102720000404B04202D0564A904207D135F4807575
:1027300035F400754A6915438A691543456083611C
:1027400049684163046270BC704770B4026A32F039
:1027500010020262036A4468826932F4E04232F491
:1027600040720D6852EA052233F020038D6853EA67
:1027700005133F4DA84202D0414EB04206D133F07E
:102780008003CE6853EA061333F04003A84202D018
:102790003B4DA84209D134F4806434F400644D699F
:1027A00054EA85048D6954EA85044460826149686D
:1027B0008163036270BC704770B4026A32F4807245
:1027C0000262046A4568C36933F070039B089B008A
:1027D0000A68134334F400748A6854EA0224244AD1
:1027E000904202D0264EB04206D134F40064CE6846
:1027F00054EA062434F48064904202D0204A904285
:1028000009D135F4805535F400554A6955EA021569
:102810008A6955EA02154560C3614968C16304626B
:1028200070BC704730B4026A32F480520262036AAC
:102830004468C26932F4E04232F440720D6852EAF0
:10284000052233F400538D6853EA0533084DA8423E
:1028500002D00B4DA84204D134F480444D6954EAAF
:1028600085144460C26149680164036230BC7047EA
:10287000000001400004004000080040000C00403F
:102880000004014000400140004401400048014074
:1028900000180040001C00400020004010B4046AF2
:1028A000036A5B085B000362836933F0F00353EA59
:1028B000021334F00A0421438361016210BC7047A3
:1028C00010B4036A33F0100303628369046A33F4BB
:1028D000704353EA023334F0A00454EA01148361D4
:1028E000046210BC7047826832F0700251F0070138
:1028F00011438160704710B4846834F47F441143FD
:1029000051EA03212143816010BC704710B40124B7
:1029100011F01F0314FA03F3046A34EA0303036299
:10292000036A11F01F0112FA01F11943016210BC90
:102930007047000010B586B01021002202AC2000C4
:1029400000F056FF082100226C46200000F050FFE6
:102950004D4C5FF080402060002060600020A0604F
:102960005FF0FF30E060002020610020A06120685F
:10297000C06850F001002168C8602000FFF78AFAA3
:10298000002804D024224149414801F09BF84FF42B
:102990000050029000200390002004900020059039
:1029A00002A92000FFF781FD002804D02C2237491E
:1029B000374801F087F80020009000200190694618
:1029C000200001F0F3F9002804D032222F493048CA
:1029D00001F078F8002201211C2001F05DFA1C2092
:1029E00001F06BFA2000FFF771FA06B010BD80B558
:1029F000254801680969C90709D50168C968C90777
:102A000005D57FF001010268116100F001F801BDF8
:102A100020480178491C0170704738B586B0040021
:102A20001421002201AD280000F0E2FE2068B0F180
:102A3000804F26D1002000901748016851F0010115
:102A40000160006810F001000090009800200090E4
:102A50001248016851F001010160006810F00100A6
:102A6000009000984FF40040019002200290012055
:102A70000390022004900120059001A9084801F06C
:102A80002BFA07B030BD000084530020D4B00008FA
:102A9000E4B4000844570020403802403038024077
:102AA000000002407047704738B50400002001F074
:102AB00037FB0500002C01D1012064E0606A00288A
:102AC000002084F83400022084F835002068006873
:102AD000400840002168086020680068C0070BD5E6
:102AE00001F01EFB401B0628F6D320206065032062
:102AF00084F83500032046E020680168DFF81804F8
:102B000001406268A0680243E06802432069024312
:102B100060690243A0690243E0690243206A0243FC
:102B20001143606A042803D1E26A206B0243114317
:102B30002068016020684569ED08ED00606A054382
:102B4000606A042810D1A06A0543E06A00280BD00F
:102B5000200000F0E7F9002806D040206065012041
:102B600084F8350001200EE020684561200000F067
:102B7000BBF93F22E16D8A40826000206065012040
:102B800084F83500002032BD10B50400002C01D1BE
:102B9000012039E094F83500022801D1022033E009
:102BA0002068006840084000216808600020216813
:102BB00008600020216848600020216888600020AB
:102BC0002168C860002021680861212021684861CF
:102BD000200000F089F90021E16300212164002137
:102BE00061640021A1640021E164002121653F228C
:102BF000E16D8A40826000206065002084F8350025
:102C0000002084F83400002010BD70B504000025B9
:102C1000A66D94F83400012801D1022034E001208F
:102C200084F8340094F83500012827D1022084F874
:102C3000350000206065200000F03FF93F21E06D85
:102C40008140B1602068006850F01600216808607B
:102C50002068406950F0800021684861206C00289D
:102C600005D02068006850F00800216808602068DE
:102C7000006850F001002168086003E0002084F83B
:102C8000340002252800C0B270BD90F8351002292A
:102C900003D080214165012009E0052180F835102D
:102CA0000168096849084900006801600020704710
:102CB000F8B5040000200090DFF8600200684FF4CF
:102CC0001651B0FBF1F5A66D37680821E06D11FAD9
:102CD00000F0074210D02068006840070CD520683B
:102CE000006830F0040022681060E06D8140B1603F
:102CF000606D50F001006065E06D3900C140C807AB
:102D00000BD520684069000607D50121E06D8140A0
:102D1000B160606D50F0020060650421E06D11FA51
:102D200000F007420AD020680068800706D5E06DF1
:102D30008140B160606D50F0040060651021E06D6D
:102D400011FA00F007422CD020680068000728D54F
:102D5000E06D8140B16020680068400311D52068B3
:102D60000068000306D4206C00281AD02000216CD3
:102D7000884716E0A06C002813D02000A16C88477B
:102D80000FE020680068C00505D42068006830F0B6
:102D9000080021680860206C002802D02000216C07
:102DA00088472021E06D11FA00F007425FD02068CB
:102DB0000068C0065BD5E06D8140B16094F83500D5
:102DC000052828D12068006830F0160021680860C6
:102DD0002068406930F0800021684861206C00283C
:102DE00002D1A06C002805D02068006830F00800EF
:102DF000216808603F21E06D8140B160002084F8C7
:102E00003400012084F83500206D002802D0200015
:102E1000216D884750E020680068400311D5206884
:102E20000068000306D4606C002820D02000616C8C
:102E300088471CE0E06B002819D02000E16B884730
:102E400015E020680068C0050BD42068006830F0E9
:102E5000100021680860002084F83400012084F804
:102E60003500E06B002802D02000E16B8847606DE0
:102E7000002821D0606DC00718D5052084F83500E2
:102E80002068006840084000216808600098401CE5
:102E90000090854204D320680068C007F6D4FFE79D
:102EA000002084F83400012084F83500E06C00280C
:102EB00002D02000E16C8847F1BD30B4046824687A
:102EC00034F4802405682C60046863608368402BB8
:102ED00004D103689A600068C16003E003689960E8
:102EE0000068C26030BC7047017801F0FF01103902
:102EF0001822B1FBF2F10A4A525CC265042905D3DB
:102F00000168890A8902091D816503E00168890A4F
:102F100089028165806D70473F8010F05405002064
:102F2000B0BE000802000020936A9169002914D104
:102F3000002B05D0022B03D007D3032B0BD00BE0C3
:102F4000D16AC90100D501202EE0D16AB1F1C07F5C
:102F500000D1012028E027E026E09169B1F5005F6B
:102F600015D1002B05D0022B03D004D3032B07D09F
:102F70000CE0012018E0D16AC90100D5012013E05E
:102F8000D16AB1F1C07F00D101200DE00CE0002B2F
:102F9000022B02D9DB1E02D006E0012004E0D16A38
:102FA000C90100D50120FFE7C0B2704770477047E4
:102FB00081B0DFF8AC1788420DD100200090DFF817
:102FC000AC07016851F001010160006810F00100D8
:102FD000009000988EE0DFF88C1788420DD1002019
:102FE0000090DFF88807016851F002010160006875
:102FF00010F00200009000987CE0DFF86C17884227
:103000000DD100200090DFF86407016851F0040141
:103010000160006810F00400009000986AE0DFF89A
:10302000501788420DD100200090DFF8400701685A
:1030300051F008010160006810F00800009000984D
:1030400058E0DFF8301788420DD100200090DFF8FB
:103050001C07016851F010010160006810F01000B9
:103060000090009846E0DFF8101788420DD100204C
:103070000090DFF8F806016851F020010160006857
:1030800010F020000090009834E0DFF8F01688423D
:103090000DD100200090DFF8D406016851F0400106
:1030A0000160006810F040000090009822E0DFF816
:1030B000D01688420DD100200090DFF8B0060168DC
:1030C00051F080010160006810F0800000900098CD
:1030D00010E0DFF8B01688420CD100200090DFF835
:1030E0008C06016851F480710160006810F48070F2
:1030F0000090009801B0704780B5DFF88C168842C8
:103100000DD100200090DFF88406016851F0010124
:103110000160006810F0010000900098EFE0B0F14D
:10312000804F0DD100200090DFF86406016851F057
:1031300001010160006810F0010000900098DEE0DD
:10314000DFF8501688420DD100200090DFF84006CD
:10315000016851F002010160006810F00200009067
:103160000098CCE0DFF8301688420DD100200090A6
:10317000DFF81C06016851F004010160006810F0DE
:10318000040000900098BAE0DFF8101688420DD1D4
:1031900000200090DFF8F805016851F00801016097
:1031A000006810F0080000900098A8E0DFF8F01523
:1031B00088420DD100200090DFF8D405016851F05D
:1031C00010010160006810F010000090009896E077
:1031D000DFF8D01588420DD100200090DFF8B0054F
:1031E000016851F020010160006810F0200000909B
:1031F000009884E0DFF8B01588420DD100200090DF
:10320000DFF88805016851F002010160006810F0E4
:1032100002000090009872E0DFF8901588420DD10E
:1032200000200090DFF86405016851F480310160EE
:10323000006810F480300090009860E0DFF87015AE
:1032400088420DD100200090DFF84005016851F45C
:1032500000310160006810F40030009000984EE0EA
:10326000DFF8501588420DD100200090DFF81C05D2
:10327000016851F480210160006810F48020009002
:1032800000983CE0DFF8301588420DD10020009016
:10329000DFF8FC04016851F040010160006810F0A3
:1032A0004000009000982AE0DFF8101588420DD108
:1032B00000200090DFF8D804016851F0800101601F
:1032C000006810F080000090009818E0DFF8F0141B
:1032D00088420DD100200090DFF8B404016851F459
:1032E00080710160006810F480700090009806E022
:1032F0008422DFF8D014DFF8D00400F0E3FB01BD36
:1033000010B50024DFF88014884201D1012447E081
:10331000B0F1804F01D1012442E0DFF878148842F7
:1033200001D102243CE0DFF87014884201D102246C
:1033300036E0DFF86814884201D1022430E0DFF87B
:103340006814884201D103242AE0DFF8601488421F
:1033500001D1032424E0DFF85814884201D103246A
:103360001EE0DFF85014884201D1032418E0DFF892
:103370004814884201D1092412E0DFF84014884241
:1033800001D109240CE0DFF83814884201D1092466
:1033900006E0C722DFF82C14DFF82C0400F092FBC3
:1033A0002000C0B210BD78B585B004000D00160035
:1033B0002000FFF7FDFD3000FFF79EFE0220019088
:1033C00001200290032003903000FFF799FF049042
:1033D000ADB200956946200000F07EFD06B070BDDC
:1033E00030B585B004000D002000FFF7E1FD01209D
:1033F00001900020029003200390ADB20095694631
:10340000200000F069FD05B030BD80B50021DFF877
:10341000BC03FEF795FE01BD1CB500200090DFF84F
:103420004C03016851F400110160016811F40011AE
:103430000091009900210091016851F40011016090
:10344000006810F4001000900098DFF88403DFF8A3
:10345000841301605FF020614160402181600021A0
:10346000C1604FF4806101614FF4006141614FF42C
:10347000005181614FF48071C1610021016200211E
:103480004162032181620021C16200210163DFF8F2
:103490003C4360628463FFF777FB002807D040F26B
:1034A0001D12DFF82013DFF8200300F00BFB606A29
:1034B000FFF7FAFA002807D040F22112DFF80413D0
:1034C000DFF8040300F0FEFA002200210F2000F0D4
:1034D000E3FC0F2000F0F1FC13BD80B5DFF8F00233
:1034E000FFF7E6FB01BD80B5DFF8E002FEF7A4FEC2
:1034F00001BD2DE9F0439BB00500884616001F0072
:103500000BA8402100F03AFE1C21002204AC200050
:1035100000F06EF96846DFF8C0121022FDF7C2FE17
:103520003800C0B2072807DB40F26B12DFF89412B4
:10353000DFF8940200F0C6FA239C002C0BD1414620
:1035400089B22800FFF74CFF0022414689B22800CB
:1035500000F0B0FD00E142F2107084420BD1414610
:1035600089B22800FFF73CFF0122414689B22800BA
:1035700000F0A0FDF0E03200414689B22800FFF7DC
:1035800012FFDFF81052AE4201D1FFF745FFDFF81E
:10359000F80186420FD0DFF8100286420BD0DFF828
:1035A0000C02864207D0DFF80802864203D0DFF81B
:1035B0000402864203D1DFF82402016803E0DFF849
:1035C0001C0201684908229864280AD242F20F7846
:1035D00042F21072B1FBF2F1B1FBF0F0B0F101096F
:1035E00013E040F6B832904209D25FF063086422DB
:1035F000B1FBF2F1B1FBF0F0B0F1010905E05FF0D1
:103600000008B1FBF0F0B0F10109484680B2444334
:1036100042F21070B4FBF0F4AE4204D1DFF8AC011A
:10362000FEF784FC02E00BA8FEF780FCAE4213D14B
:10363000DFF8980106601FFA88F8C0F804801FFAC6
:1036400089F9C0F80C9000210161002181600021FE
:1036500041610021816110E00B961FFA88F8CDF8D6
:1036600030801FFA89F9CDF8389000200F900020A3
:103670000D900020109000201190AE420BD15348C5
:10368000FEF738FC002811D040F2CB124D494E48CD
:1036900000F018FA0AE00BA8FEF72CFC002805D071
:1036A00040F2D3124749484800F00CFA60200490D9
:1036B00000200690002008900020079000200A902B
:1036C000002009900594AE4211D168463900C9B274
:1036D00030F8112004A93D48FEF769FE002817D0F4
:1036E0004FF4F3723749384800F0ECF910E06846BF
:1036F0003900C9B230F8112004A90BA8FEF757FE13
:10370000002805D040F2ED122E492F4800F0DAF9DA
:10371000AE4212D14FF40473314A6846FFB230F81A
:1037200017102A48FEF74EFC002815D040F2F71279
:103730002449254800F0C6F90EE06846FFB230F88B
:1037400017100BA8FEF714FC002805D04FF4FF72E9
:103750001C491D4800F0B6F91BB0BDE8F08300001D
:1037600000000240000402400008024030380240DD
:10377000000C0240001002400014024000180240F9
:10378000001C02400020024000000140443802407A
:10379000403802400004004000080040000C004097
:1037A00000100040001400400004014000400140AF
:1037B000004401400048014000180040001C004047
:1037C00000200040ECB1000844B50008C4530020BC
:1037D000D051002070600240F0BC00085405002069
:1037E0000000002070477047704770477047000026
:1037F00062F30F2262F31F42401810F0030308D057
:10380000C91A1FD3DB0748BF00F8012D28BF20F8D5
:10381000022D130030B414461546103928BF20E994
:103820003C00FAD8490728BF20E90C0048BF40F8FF
:10383000042D890028BF20F8022D48BF00F8012D73
:1038400030BC7047C91818BF00F8012DCB0728BF3E
:1038500000F8012D70470000E0B503E0FFE7C82045
:1038600000F090FC5FF0FF30009001AB01220721D7
:10387000DFF8BC0400F02CFD0028F0D101980128ED
:1038800004D0022803D00428E9D0E7E7E7E7E6E719
:1038900038B520208DF8000000200BE0DFF89404FC
:1038A00000F0E3F803E0DFF8900400F0DEF8142005
:1038B00000F068FC00F031FE04006946002001F0D1
:1038C00098F8C0B2002811D0DFF8705429009DF894
:1038D000000001F0D4F80D2808D115F10801DFF837
:1038E000600401F0DFF9280001F0BFF82000C0B249
:1038F0000028DCD0E4B2012C12D0D8D3032C1ED087
:1039000009D3052C11D015D3072C22D01CD3092C98
:10391000C4D0C8D3CBE7DFF82C0400F0A6F8C6E784
:10392000DFF8240400F0A1F8C1E7DFF8200400F07C
:103930009CF8BCE7DFF8180400F097F8B7E7DFF869
:10394000140400F092F8B2E7DFF80C0400F08DF8F0
:10395000ADE7DFF8080400F088F8A8E710B50C0020
:103960000021C0B2022848DB607804EB00014CA0C3
:1039700001F0EAFB002816D100241421DFF8C0234F
:10398000106A01FB04F31844C068002839D0106A9B
:1039900001FB04F1014443A000F094F842A000F0C0
:1039A00091F8641CE9E7607804EB00013FA001F0A6
:1039B000CBFB002804D1DFF8A80300F083F820E057
:1039C000607804EB00013AA001F0BEFB002818D19A
:1039D000DFF8900300F076F8DFF88C0300F072F85F
:1039E000DFF8880300F06EF8DFF8840300F06AF86F
:1039F000DFF8800300F066F803E0DFF87C0300F0F6
:103A000061F810BD70B504000D00DFF8700300F020
:103A100059F8002608E0A85D05EB00023100DFF848
:103A2000600300F04FF8761C2000C0B28642F2D34B
:103A300070BD1CB555206946DFF84823D2E9003433
:103A4000C1E900340822694601F037FC13BD1CB5FA
:103A500077206946DFF83023D2E90034C1E9003429
:103A60000822694601F04FFD13BD0EB410B5B3B086
:103A7000020035ABC921684601F0BAFEDFF80C43FD
:103A80005FF0FF31200001F0D1FE694605A000F093
:103A900019F8200001F008FF33B010BC5DF810FBEE
:103AA000636D6400257300000D0A00002D76000090
:103AB0002D68000080B50100C9B2002000F06EFF43
:103AC00001BD00000EB42DE9F0432DED028B002165
:103AD000002100210021002100210021082409AE3D
:103AE00005001DE01BE0AA4951F82900B8FBF0F0E1
:103AF00051F82910B8FBF1F201FB1288002800D020
:103B000001273030C0B2FFF7D5FFB9F10109B9F193
:103B1000000FE8D5002F02D13020FFF7CBFF6D1C3E
:103B20002878002800F0EB80287825280AD028780B
:103B30000A2803D10D20C0B2FFF7BCFF2878FFF799
:103B4000B9FFECE76D1C11E0287830380A280CD258
:103B500015F8010C2E2808D015F8020C2E2804D0D8
:103B60002C78303C002C00D101246D1C287863286F
:103B700014D02878642811D0287858280ED02878B6
:103B800078280BD02878702808D02878752805D098
:103B90002878732802D028786628D5D12878582824
:103BA0003AD0632857D064280AD0662859D07028A4
:103BB00032D0732844D075282ED078282CD091E7A5
:103BC0003768361D002F03D52D20FFF773FF7F4286
:103BD00000225FF0090816E06D4850F82810B7FB86
:103BE000F1F150F82800B7FBF0F300FB137752EA2D
:103BF0000100002805D030310800C0B2FFF75AFF9D
:103C00000122B8F10108B8F1000FE5D5002A02D170
:103C10003020FFF74FFF82E73768361D641E0BE048
:103C20002000C0B281003800084110F00F0059494F
:103C3000085CFFF73FFF641E002CF1D508246EE7F7
:103C40003768361D03E03878FFF734FF7F1C38787B
:103C50000028F8D163E73068361DC0B2FFF72AFFAD
:103C60005DE7F61D36F0070696ED000B083651ECC1
:103C7000100B01F03FFE08EE100ABDEEC80A10EE70
:103C8000107A002F03D57F422D20FFF713FF00226B
:103C90005FF0090816E03E4850F82810B7FBF1F134
:103CA00050F82800B7FBF0F300FB137752EA01004D
:103CB000002805D030310800C0B2FFF7FBFE01221A
:103CC000B8F10108B8F1000FE5D5002A02D1302083
:103CD000FFF7F0FE2E20FFF7EDFE9FED140A28EE11
:103CE000000ABDEEC00A10EE108A42F2107098FB76
:103CF000F0F100FB118800275FF0030907E70020BF
:103D0000BDEC028BBDE8F0035DF810FB80B52248E6
:103D1000FFF7D8FE632221492148FFF7D3FE102286
:103D200020492148FFF7CEFE01BD000000401C469F
:103D3000C455002058BA000840BA0008C84F0020F7
:103D40002004002010BB000824BB000838BB00087A
:103D50004CBB000860BB000874BB000828BA000810
:103D600088BB000870BA0008FCBD00089CBB0008B6
:103D700088BA0008B4B8000854B9000800BD0008AB
:103D800010BD000880BE000888BE0008B85400209E
:103D90008CB7000820BD0008A0BA000890BE00083B
:103DA000B8BA000898BE000870B9000810B490F8BE
:103DB0003C20012A01D102201CE0012280F83C2095
:103DC000022280F83D20026853680268946833F04C
:103DD00070030A68134334F0800449680C43016897
:103DE0004B6001688C60012180F83D10002180F853
:103DF0003C10002010BC704710F00700314B1A68CF
:103E00004FF6FF010A40304951EA00210A431A6087
:103E100070472C480068C0F302207047012210F060
:103E20001F018A40294940B2400941F820207047CB
:103E3000020052B2002A08D50901254A40B210F00A
:103E40000F00104400F8041C03E00901214A40B2AD
:103E50001154704710B410F00700D0F10703052B80
:103E600001D3042301E0D0F10703041D072C01D284
:103E7000002000E0C01E012414FA03F35B1E194069
:103E8000814014FA00F0401E1040084310BC7047F7
:103E900080B5FFF7B1FF01BD70B504000D0016003D
:103EA0000020FFF7B6FF32002900FFF7D3FF010023
:103EB000200040B2FFF7BCFF70BD80B540B2FFF7F5
:103EC000ADFF01BD0CED00E00000FA0500E100E0EF
:103ED00018ED00E000E400E0F8B400220022002227
:103EE000002337E0082704E0DFF8DC219042F9D115
:103EF0000727FFB213F00302D2B2920097403E436D
:103F00001A00920845F82260DFF8C0512A68A243DF
:103F10004E68F60300D522432A60DFF8B4512A68C0
:103F2000A2434E68B60300D522432A60DFF8A451AD
:103F30002A68A2434E68F60200D522432A60DFF8C1
:103F400098512A68A2434E68B60201D51443220054
:103F50002A605B1C102B80F0AB80012515FA03F260
:103F60000C6814409442F4D14A68022A02D04A688C
:103F7000122A17D11A00D20800EB8202166A0F2704
:103F800013F00702D2B292009740BE430F6913F0BC
:103F90000702D2B2920097403E431A00D20800EBCB
:103FA00082021662076803261A00D2B2520016FA7D
:103FB00002F2974391F804C01CF0030C1A00D2B22D
:103FC00052001CFA02FC5CEA070707604A68012AF3
:103FD00008D04A68022A05D04A68112A02D04A68E5
:103FE000122A19D187681A00D2B2520016FA02F2C8
:103FF0009743D1F80CC01A00D2B252001CFA02FC4E
:104000005CEA0707876042689D40AA434D68C5F394
:1040100000159D402A434260C5681A00D2B2520082
:104020009640B5438E681A00D2B25200964035438E
:10403000C5604A68D2008CD500220092274A1568D4
:1040400055F480451560126812F480420092009A7F
:10405000234D1A00920855F822600F2713F003022F
:10406000D2B292009740BE431E4A904201D100272F
:104070003FE71D4A904201D101273AE71B4A90428F
:1040800001D1022735E71A4A904201D1032730E7D0
:10409000184A904201D104272BE7174A904201D1D8
:1040A000052726E7154A90427FF41EAF062720E732
:1040B000F1BC7047D2B2002A02D089B2816102E01D
:1040C00089B2090481617047001C0240003C014034
:1040D000043C0140083C01400C3C01404438024093
:1040E000083801400000024000040240000802407D
:1040F000000C024000100240001402400018024070
:104100001848016851F0807101600020164908606C
:104110001648016851F001010160704700207047A6
:1041200080B514480068002802D101F017FC17E0A0
:104130000F480068800B0CE000BF00BF00BF00BF4D
:1041400000BF00BF00BF00BF00BF00BF00BF00BF77
:10415000401E0028F0D108480168491C0160006831
:1041600002BD0000FCED00E0041000E0001000E0E3
:10417000540500205805002044560020002201F07C
:1041800055BC0000F8B50500EFF3108672B6454B3C
:104190001C68002C04D186F31088132000907FE067
:1041A000414A1068EFF305810843002804D086F3E4
:1041B00010881320009073E03C48844204D186F3B9
:1041C0001088132000906BE0002D04D186F3108836
:1041D0000020009064E0364F3868002804D086F351
:1041E0001088132000905BE0DFF8C8C0DCF8000006
:1041F000002842D030490968C9053ED51168EFF35F
:10420000058211431A68002906D1D16AD36B1B04B9
:1042100053F00043194309E0B1F1F03F03D211001C
:104220005FF0FF3202E05FF0F03200210260416097
:104230007021816021490968C1600561216B41617C
:10424000694681610021C16120301D4909688842A9
:104250000ED31C480068CCF800001B490A681062A5
:104260001A4A1068002808D008681168884704E0D6
:10427000CCF800001449096808620420206301207A
:10428000A0630020C4F88400E5643868401C3860EE
:1042900086F31088200001F0F2FBD4F8840000902F
:1042A0000098F2BDB456002058050020144F00209D
:1042B000D0560020285700202C570020041000E082
:1042C000245700202057002014570020305700208A
:1042D000F8B50400069D0020002C01D106201AE04C
:1042E0002668134FBE4201D0062014E0002B01D1F6
:1042F000032010E0002D0ED00E4E3668EFF3058738
:104300003E43002E01D0042005E00B4E36680B4FD3
:10431000BE4200D10420002802D1042A00D3082084
:10432000002803D10095200001F066FDF2BD00BF1A
:104330004E44564458050020B4560020144F002027
:10434000B94A0100C9B252F831100B690100C9B273
:1043500002EBC10189880B40012B0CD00100C9B2CE
:1043600052F831100B690100C9B202EBC101898812
:104370000B40102B01D1012100E00021C0B202EB63
:10438000C0008079C9B2814201D1012000E0002043
:104390007047F8B504002000C0B202281BDA0026DE
:1043A000FF27002508E02800C0B2FFF7C9FF00285A
:1043B00001D0761C2F006D1C2800C0B20228F2DB51
:1043C000F6B2012E05D1FFB2E4B2A74201D101201D
:1043D00013E0002011E0E4B2022C0DD10020FFF721
:1043E000AFFF002806D00120FFF7AAFF002801D068
:1043F000012002E0002000E00020F2BD80B500F0C6
:1044000039F800F001F801BD10B586B00020009029
:104410008648016851F001010160016811F0010155
:104420000091009900210091016851F01001016094
:10443000006810F010000090009800200290022008
:1044400003900320049000240EE077482100C9B2B5
:1044500000EBC1018988019101A92200D2B250F874
:104460003200FFF739FD641C2000C0B20228ECDBEB
:1044700006B010BD80B56E48002181720021C17266
:104480000021017300201FE06A4964220300DBB2AF
:104490001B010B441A8102220300DBB21B010B44F7
:1044A0001A7100220300DBB21B010B449A72052231
:1044B0000300DBB21B010B44DA7200220300DBB203
:1044C0001B0119440A73401C0100C9B20329DBDB3C
:1044D00006226421012000F001F801BD10B4554B03
:1044E0000400E4B224011C4421810100C9B2090185
:1044F0001944CA720021C0B200011844017310BCF3
:1045000070474B49CA7A8854C87A401CC872C87A26
:104510000A2801DB0020C87270474549887ACA7AA8
:10452000904201D100200AE0887A085C8A7A521C05
:104530008A728A7A0A2A01DB00228A72C0B2704724
:1045400038B504003B482100C9B2090100EB010560
:104550002000C0B2FFF71DFF002846D028790528AB
:1045600002DA052028715EE028790A2803DA287922
:10457000401C287157E0A87A00280AD10120A872AF
:104580002100C9B203204143491C0800C0B2FFF713
:10459000B8FF2889002846D0E888298988420FD2A8
:1045A000E888401CE880E888298988423BD1E4B249
:1045B00003204443E41C2000C0B2FFF7A2FF32E016
:1045C000E87A00282FD0287B401C2873287BE97AC2
:1045D000884228D300202873E4B203204443641C9B
:1045E0002000C0B2FFF78DFF1DE02879062802DB0E
:1045F0000520287113E02879002803D02879401E6F
:1046000028710CE0A87A012809D10020A872E4B230
:1046100003204443A41C2000C0B2FFF772FF002017
:10462000E8800020287331BDD0BC0008303802403B
:1046300024560020EC54002010B5002404E0200093
:10464000C0B2FFF77DFF641C2000C0B20328F6DB78
:1046500010BD000080B500F003F800F022F801BDA5
:1046600096489749016097494160974981604FF4A6
:1046700080618181C181002101820021418200216C
:10468000C182002101830021418300218182002118
:10469000C1610021016200214162002180F82810DF
:1046A000704710B586B0002000908848016851F02E
:1046B00001010160016811F00101009100990021E0
:1046C0000091016851F001010160006810F00100E3
:1046D00000900098002000907D48016851F0100182
:1046E0000160006810F01000009000984FF4007016
:1046F00001900220029001200390032004900720E3
:104700000590744C01A92000FFF7E6FB4FF4806090
:1047100001900720059001A92000FFF7DDFB012291
:1047200000212520FFF7B8FB2520FFF7C6FB644CCE
:104730000C2300225FF4E131200000F029F820680A
:1047400030F040002060206830F020002060624897
:10475000016851F02001016006B010BD80B5010074
:10476000C9B2002901D1554811E00100C9B201299F
:1047700001D100200BE0C0B2022801D1002006E0E8
:1047800040F2271255495648FFF79CF9002002BD18
:1047900080B590B00090019100200290002003901D
:1047A000049200200690059300200790684601F0CF
:1047B00005FC002805D040F24F1248494848FFF751
:1047C00081F911B000BD70B504002068056820684B
:1047D000C66820684069A8061BD520684168A068A3
:1047E000E28A8154E08A401CE082E28980B29042F1
:1047F00001D30020E082608BE289904202D2608B7C
:10480000401C6083606A002803D00800C0B2616A5F
:104810008847280625D5300623D5A08A00280CD144
:104820002068C06830F080002168C8602068C068D7
:1048300050F040002168C86013E0012084F828008F
:104840006068618A405C21684860608A401C6082C0
:10485000A18980B2884201D300206082A08A401ED4
:10486000A082680624D5700622D5A08A00280ED121
:104870002068C06830F040002168C860206A0028C5
:1048800001D0206A8047002084F8280010E060688A
:10489000618A405C21684860608A401C6082A1890E
:1048A00080B2884201D300206082A08A401EA0828C
:1048B00070BD80B50148FFF786FF01BD1C55002083
:1048C0000010014024260020242A00203038024015
:1048D00044380240000002400C10014088B000083B
:1048E00074B50008F8B4002335E0BDF800408589B0
:1048F000AC4209D10468E468240605D40468E4687D
:1049000054F080040568EC60012585F31088848AE2
:10491000ADF80040002484F31088BDF8006087895A
:10492000BE42E2D21E00B6B28E5D4768B0F810C03B
:1049300007F80C6085F31088058A6D1C058286894E
:10494000ADB2B54201D300250582858A6D1C8582F2
:1049500084F310885B1C1C001500A4B2ADB2AC42FD
:10496000D2D30168C96851F080010068C160F1BC10
:10497000704770B50D001600C0B2FFF7EFFE0400DF
:10498000002C0AD0E069002801D0E069804732009D
:1049900092B229002000FFF7A5FF70BD02B50122E9
:1049A0006946C0B2FFF7E5FF01BD30B4012282F3D2
:1049B0001088448B002383F31088A4B2002C01D10B
:1049C000002014E08468058B645D0C7082F310880D
:1049D000018B491C0183C28989B2914201D3002114
:1049E0000183418B491E418383F31088012030BC31
:1049F000704710B50C00C0B2FFF7B0FE002801D11F
:104A0000002002E02100FFF7D0FF10BD10B5040028
:104A100020000100C9B20020FFF7C0FF200010BD38
:104A200010B403000020002000E0401C0A5C1C00C1
:104A3000E4B2A24202D00A5C002AF6D1095C002945
:104A400001D15FF0FF3010BC7047002141605FF082
:104A5000FF3101800021426802441172002180F878
:104A60008010002180F881107047002141605FF0C4
:104A7000FF3101800021426810440172704738B54F
:104A800004000D005FF0FF3095F88100002829D167
:104A900034492000C0B2FFF7C3FF0100002909D448
:104AA000314A52F82100002859D0280052F821102C
:104AB000884754E02000C0B21B280DD1022085F8A1
:104AC000810095F88000284480F86C4095F88000BB
:104AD000401C85F8800042E02100C9B2280001F0A6
:104AE0003DFC3CE095F88100022835D195F8800026
:104AF000284480F86C402000C0B261381A2808D3DE
:104B00002000C0B241381A2803D32000C0B27E284A
:104B100011D116492000C0B2FFF782FF0100280022
:104B2000134A52F821108847002085F880000020A1
:104B300085F8810013E095F88000132806DB00203B
:104B400085F88000002085F8810008E095F8800055
:104B5000401C85F8800002E0002085F881002000DC
:104B6000C0B232BD50BE0008A0BC0008E0B90008C9
:104B7000E8AF000830B488B00A00002103E0002349
:104B80006C466354491C2029F9DB6B461178C91027
:104B9000595C0124157815F00705AC4021431478C1
:104BA000E410195511004A1C09780029EDD100289C
:104BB00004D1DFF86005006800E0401C0178C910EE
:104BC000595C027812F00702C9B2D140C90702D578
:104BD00001780029F1D1020000E0401C0178002991
:104BE0000CD00178C910595C047814F00704C9B2DC
:104BF000E140C907F1D500210170401CDFF8141510
:104C00000860824201D1002000E0100008B030BCF2
:104C1000704710B50400DFF80005FEF753FFDFF81A
:104C2000FC04FEF74FFFDFF8F804FEF74BFFDFF858
:104C3000F404FEF747FFDFF8F004FEF743FFDFF868
:104C4000EC04FEF73FFF210055A0FEF73BFF14F1F7
:104C5000240000F0E7F8DFF8D81414F1240000F085
:104C6000EEF80120608510BDF8B504000D000026A7
:104C700000E0761C1427206A07FB06F10844C06890
:104C800000280DD0206A07FB06F10144280000F03F
:104C90005BFA0028EDD1206A7E433044C06800E012
:104CA0000020F2BD2DE9F0479CB006000D00002762
:104CB000A9460A24290016F1240000F032F9002840
:104CC00007D12878002804D0290016F1240000F02C
:104CD000B6F82800FCF78EFA652808D3DFF85404EC
:104CE000FEF7F0FE31002EA0FEF7ECFE55E00FF2CD
:104CF000B40841464846FFF73DFF82462900300090
:104D0000FFF7B2FF8146484600280AD1287801F013
:104D10009DFC002836D05146DFF81C04FEF7D2FE79
:104D200030E0EA463800C0B20AF800402900684680
:104D30002200D2B2104401F093FC2800FCF75AFA8A
:104D4000401C041925007F1C41460020FFF712FF7C
:104D5000040015E03800C0B20AF80050210068468F
:104D60002A00D2B2104401F07BFC2000FCF742FA8A
:104D7000401C45197F1C41460020FFF7FBFE040044
:104D8000002CE7D14846002803D069463800C0B25D
:104D9000C847310002A0FEF795FE1CB0BDE8F087C1
:104DA00025730000200000002DE9F84304000D00E9
:104DB00000205FF000084FF0FF09002600E0761C9D
:104DC0001427206A3100C9B27943405C002826D0FC
:104DD00000202900206A3200D2B27A43104401F048
:104DE0004BFC0028EBD0216A3200D2B27A43114446
:104DF000411A4A46D2B29142E1D2216A3200D2B27D
:104E00007A431144401A8146206A3100C9B207FB37
:104E100001F700EB07084846C0B20028CFD1404652
:104E2000BDE8F283002101800021418000218180C2
:104E3000002101810021418100218181704738B525
:104E400004000D002800FCF7D5F9010089B2FE2905
:104E500023DB65E0A28921882144897B521AFD3A2F
:104E600021898A18521EA28113E021882180A188FD
:104E7000491EA18021882144897B228989B29142DF
:104E8000E8D3A28921882144897B521A21898A1872
:104E9000A28121882144897B2181A189D1F1FD0151
:104EA000020092B2914202DBA188032907D1218836
:104EB000491C218021880429D7DB0021D6E761899C
:104EC0006288224491736188491C61806188042949
:104ED00001DB002100E061886180A188491CA1807C
:104EE000002113E062890CE00A0092B2AA5C638997
:104EF00023449A746289521C62816289FE2AF1DB22
:104F000000226281A289521CA281491C0A0003006E
:104F100092B29BB29A42E7D3608961882144887338
:104F200031BDF8B504000E0025880021A0880028B6
:104F300002D1080080B256E03000FCF75BF90200B5
:104F4000002300E05B1C1800A18880B2884249D28F
:104F5000280080B22044807B6D1C290089B204297E
:104F600001DB0025FFE7290089B22144897B0F007E
:104F70008446BFB21FFA8CFC674501D3091A02E0D0
:104F8000D0F1FE07C919170089B2BFB2B942D9D111
:104F9000591C002709E007E0401C84461FFA8CFCDE
:104FA000BCF1FE0FF7DB00207F1CBC4696461FFAC3
:104FB0008CFC1FFA8EFEF4450DD284461FFA8CFC41
:104FC000A4449CF812C0BE461FFA8EFE16F80EE0EE
:104FD000F445E1D00021080080B20028B2D00800DA
:104FE00080B200E00020F2BDF0B483880C00A4B2CF
:104FF000A34260D30388C918491E0B009BB2042B3F
:1050000001DB091FFFE70B009BB203449B7B491C9C
:105010000C00A4B2042C01DB0021FFE789B201449B
:105020008C7B1900250089B2ADB2A94218D21D00AF
:105030000AE0290089B201448E7C2F00BFB219001A
:1050400089B27F1AD6556D1C2900260089B2B6B2E6
:10505000B142EED30020ADB29BB2EB1AD0542AE09D
:105060001D000AE0290089B201448E7C2F00BFB2E6
:10507000190089B27F1AD6556D1C290089B2FE2904
:10508000F0DB00250BE02E00B6B2FE36190089B227
:10509000761A290089B20144897C91556D1C29003A
:1050A000260089B2B6B2B142EDD3ADB2FE359BB2A5
:1050B000EB1A0020D054F0BC704770B50021C0B28C
:1050C000022803DB1D48FEF7FDFC1DE0002412E072
:1050D000306A05FB04F101440CA0FEF7F3FC306AD2
:1050E00005FB04F5284401691548FEF7EBFC08A010
:1050F000FEF7E8FC641C1425124E306A05FB04F12F
:105100000844C0680028E3D170BD0000257300008A
:105110000D0A00005856002030B2000874B2000892
:10512000B8B20008FCB2000840B3000884B300081D
:10513000A0BE00088CB90008D0BA0008B0BB0008B7
:10514000A8BE00082004002010F8012B11F8013B34
:105150000AB19A42F8D0D01A7047000038B594B01E
:10516000DFF82C46DFF82C06206006206060002067
:10517000A0600020E0605FF4A02020615FF4C00028
:10518000606100202076012060760120A07600205A
:10519000E0760020207701206077200001F082FA7D
:1051A00001000800C0B2002804D0C9B2DFF8E80549
:1051B000FEF788FC002010900120119000200A903A
:1051C00049F6A4000B904FF6FF750C950D95002045
:1051D0000E90012012900E200F900AA9200001F0DD
:1051E00017FB0100C9B2002905D0C0B20100DFF8E9
:1051F000AC05FEF767FC0020069001200790002018
:10520000009049F6AC0001900295039501200490AE
:10521000012008900A2005906946200001F0F8FA64
:105220000100C9B2002905D0C0B20100DFF8700545
:10523000FEF748FC00200690012007900020009017
:105240000020019000200290002003900020049094
:1052500001200890002005906946200001F0D8FA4E
:105260000100C9B2002905D0C0B20100DFF8340541
:10527000FEF728FC200001F05DFB2068006830F498
:105280008030216808600221200001F0C8FC042160
:10529000200001F0C4FC0821200001F0C0FC102116
:1052A000200001F0BCFC2021200001F0B8FC4021CE
:1052B000200001F0B4FC15B030BD38B586B00C004C
:1052C0001500B0F5006F03D20090002002900DE0B1
:1052D000B0F1005F03D201900420029006E0862224
:1052E000DFF8C414DFF8C404FEF7ECFB2800C0B2FA
:1052F000092801DB012015E0EDB2049500200390A0
:1053000000208DF81400DFF888540121280001F0F6
:10531000C6FB002808D1012322006946280001F0BD
:1053200039FB002007B030BD0121280001F0B7FB98
:10533000002806D0022322006946280001F02AFB3B
:10534000EFE70121280001F0AAFB002806D0042382
:1053500022006946280001F01DFBE2E70120E1E799
:1053600080B5DFF84C04FEF7ADFB01BD80B5DFF87A
:105370004404FEF7A7FB01BD1CB5082100226C46C2
:105380002000FEF735FADFF80844200001F05DFC4C
:105390006B46DFF824240021200001F096FBDFF8A3
:1053A0001C04FEF78FFB13BD38B594B0DFF8104432
:1053B000DFF810042060062060600020A06000205C
:1053C000E0605FF4A02020615FF4C0006061002015
:1053D0002076012060760120A0760020E076002073
:1053E000207701206077200001F05CF901000800BF
:1053F000C0B2002804D0C9B2DFF8CC03FEF762FBCC
:10540000002010900120119000200A9049F6A4007D
:105410000B904FF6FF750C950D9500200E90012016
:1054200012900E200F900AA9200001F0F1F901005E
:10543000C9B2002905D0C0B20100DFF89003FEF721
:1054400041FB00200690012007900020009049F6C3
:10545000AC00019002950395012004900120089072
:105460000A2005906946200001F0D2F90100C9B276
:10547000002905D0C0B20100DFF85403FEF722FB7B
:10548000002006900120079000200090002001904D
:10549000002002900020039000200490012008903A
:1054A000002005906946200001F0B2F90100C9B260
:1054B000002905D0C0B20100DFF81803FEF702FB97
:1054C000200001F037FA2068006830F4803021684D
:1054D00008600221200001F0A2FB0421200001F05D
:1054E0009EFB0821200001F09AFB1021200001F012
:1054F00096FB2021200001F092FB4021200001F0CA
:105500008EFB15B030BD38B586B00C001500B0F577
:10551000006F03D20090002002900EE0B0F1005F17
:1055200003D201900420029007E04FF4B772DFF835
:105530007812DFF87802FEF7C5FA2800C0B2092811
:1055400001DB012014E0EDB204950020039000205F
:105550008DF814009A4D0121280001F0A0FA0028CE
:1055600008D1012322006946280001F013FA002027
:1055700007B030BD0121280001F091FA002806D0C3
:10558000022322006946280001F004FAEFE7012116
:10559000280001F084FA002806D00423220069467E
:1055A000280001F0F7F9E2E70120E1E71CB5082146
:1055B00000226C462000FEF71BF9814C200001F010
:1055C00044FB6B467C4A0021200001F07EFA8248B1
:1055D000FEF778FA13BD38B586B001686D4A91427E
:1055E00067D1002005907D48016851F0007101608D
:1055F000016811F00071059105990021059101687C
:1056000051F080610160006810F08060059005989D
:10561000002005907248016851F0010101600168A5
:1056200011F001010591059900210591016851F0E2
:1056300002010160006810F00200059005984FF427
:1056400080500090022001900220029009200490D6
:10565000644D69462800FEF73FFC4FF40064009457
:10566000022001900220039009200490694628003E
:10567000FEF732FC009401200190002003900020EE
:10568000029069465848FEF727FC002057490860F9
:10569000002200211420FEF7FFFB1420FEF70DFC72
:1056A000002200211320FEF7F7FB1320FEF705FC74
:1056B0006CE000684349884268D100200590474863
:1056C000016851F080610160016811F0806105910D
:1056D000059900210591016851F080610160006821
:1056E00010F0806005900598002005903C48016806
:1056F00051F002010160016811F002010591059964
:1057000000210591016851F002010160006810F06C
:105710000200059005984FF400500090022001907F
:1057200002200290092004902F4C69462000FEF7C9
:10573000D3FB4FF480500090022001900220039090
:105740000920049069462000FEF7C6FB4FF4006074
:1057500000900120019000200390002002906946F3
:105760002000FEF7B9FB002020490860002200213C
:105770004020FEF791FB4020FEF79FFB0022002116
:105780003F20FEF789FB3F20FEF797FB07B030BDB7
:10579000745500200064004004B80008D4B5000827
:1057A00000B600082CB6000864B10008B4B40008C4
:1057B000F8B9000838B90008EC550020B0BC000862
:1057C0009C5500200068004028B8000858B6000822
:1057D00084B60008B0B60008C0BC000840380240DB
:1057E000303802400000024000040240AC824042D7
:1057F00008B584B00023039300290EBF01930190E4
:10580000491E0291009301A904AB0748784418305F
:10581000FAF7BAFC019909B100220A70002858BFB2
:10582000039805B000BD00BF73B9FFFF38B5020093
:105830000020002A01D11C2016E01368164CA34258
:1058400001D01C2010E000290ED0144B1B68EFF390
:1058500005842343002B01D0042005E0104B1B6876
:10586000104CA34200D1042000280ED10B4D2B6810
:10587000EFF305842343002B07D02C68EFF3058357
:105880001C43B4F1F03F00D21320002802D11000D5
:1058900001F0F4FA32BD00BF4554554D58050020C3
:1058A000B4560020144F002010B50021002801D16B
:1058B0001C2114E002680D4B9A4201D01C210EE01D
:1058C0000B4C2268EFF305831A43002A07D02368A4
:1058D000EFF305821343B3F1F03F00D21321002907
:1058E00002D101F0AFFB0100080010BD4554554D39
:1058F0005805002001F000428B1AA3F16051B1F568
:10590000801F0ADBB1F17F6F1FD242EAC102C100E2
:1059100071F1004142EB507070470B15C3F1090360
:10592000212B10D2890241EA90518002012849417D
:1059300041F0004121FA03F0C3F12003994071F1D5
:10594000004150417047100070476FF0000013EBAA
:10595000103F5CBF000E42EAC05070477CB500208B
:105960000090EFF3108472B626480568264B18683D
:10597000002842D02549096889053ED5244909688F
:10598000EFF305821143234A1268002906D1D16A38
:10599000D66B360456F00046314309E0B1F1F03FD2
:1059A00003D211005FF0FF3202E05FF0F03200211D
:1059B000026041607821816017490968C160056112
:1059C00069464161002181610021C1612030134994
:1059D000096888420DD312480068186011490A68A6
:1059E0001062114A1068002807D0086811688847BB
:1059F00003E018600B490968086284F310882800E6
:105A000076BD00BFE0560020285700202C5700200C
:105A100058050020B4560020041000E02457002050
:105A200020570020145700203057002000B500BF39
:105A3000130096469446103928BFA0E80C50FAD8B7
:105A40005FEA417C28BF0CC048BF40F8042BC9075F
:105A500028BF20F8022B48BF00F8012B00BD000032
:105A60005FF08050DFF848130860EFF305800028EE
:105A700004D1EFF3108062B680F3108870472DE9EF
:105A8000FC4705005FF00009DFF828A3DAF8007092
:105A9000EFF3108072B6002D33D02968DFF8182399
:105AA00091422ED1A968D5F8A820914202D2A968C6
:105AB000C5F8A810E9680968B1F1EF3F0AD1296972
:105AC000D1F80110B1F1EF3F04D1D5F8A810EA6880
:105AD000914207D280F31088280001F01DFCEFF3FB
