:020000040800F2
:100000001872002011150108991501081D14010826
:100010009B1501089D1501089F15010800000000AF
:10002000000000000000000000000000A115010811
:10003000A3150108000000004D080108130D010878
:10004000D1150108D5150108D9150108DD150108DC
:10005000E1150108E5150108E9150108ED1501088C
:10006000F1150108F5150108F9150108FD1501083C
:10007000011601080516010809160108D7A3000892
:100080000D160108111601081516010819160108A8
:10009000A7C000081D16010821160108954D00088B
:1000A00025160108291601082D1601083116010828
:1000B000EB980008E3A3000835160108391601087B
:1000C0003D160108411601084516010849160108A8
:1000D0004D160108F5B20008FFB2000809B3000888
:1000E0005116010855160108591601085D16010838
:1000F0006116010865160108691601086D160108E8
:1001000071160108F1DC000875160108791601085E
:100110007D16010881160108851601088916010857
:100120008D160108911601089516010807DD0008D3
:10013000991601089D160108A1160108A5160108C7
:10014000A9160108AD160108B1160108B516010877
:10015000B9160108FBDC0008BD160108C11601082C
:10016000C5160108C9160108CD160108D1160108E7
:10017000D5160108D9160108DD1601080000000097
:10018000E1160108E516010800000000000000006B
:10019000000000000000000000000000000000005F
:1001A000000000000000000000000000000000004F
:1001B000000000000000000000000000000000003F
:1001C000000000000000000000000000000000002F
:1001D000000000000000000000000000000000001F
:1001E000000000000000000000000000000000000F
:1001F00000000000000000000000000000000000FF
:1002000000000000000000000000000000000000EE
:1002100000000000000000000000000000000000DE
:1002200007F000C007FFE1E007F001E0000000C0B8
:1002300000000000000000000000000000000000BE
:1002400000000000000000000000000000000000AE
:10025000000000000000000000000000000000009E
:10026000000000000000000000000000000000008E
:10027000000000000000000000000000000000007E
:10028000000000000000000000000000000000006E
:100290000020000001C00000078000001F000000D7
:1002A0001E0000001C20000001C0000007800000AC
:1002B0001F0000001E0000001C00000000000000E5
:1002C000000000000000000000000000000000002E
:1002D000000000000000000000000000000000001E
:1002E000000000000000000000000000000000000E
:1002F00000000000000000000000000000000000FE
:1003000000000000000000000000000000180C00C9
:1003100000180C0000180FE0001FFC0003F80C0090
:1003200000180C0000180C0000180C0000180C003D
:1003300000180FE0001FFC0003F80C0000180C0070
:1003400000180C0000000000000000000000000089
:10035000000000000000000000000000000000009D
:10036000000000000000000000000000000000008D
:10037000000000000000000000000000000000007D
:10038000000000000000000000000000000000006D
:1003900000000780007807C000FC0640010E002026
:1003A00003070020020380200FFFFFFC0201C02092
:1003B0000200E0600130704001F03F8000F01F005B
:1003C000000000000000000000000000000000002D
:1003D000000000000000000000000000000000001D
:1003E000000000000000000000000000000000000D
:1003F00000000000000000000000000000000000FD
:10040000000000000000000000FE000001FF0000EE
:100410000301800002008060030181C001FF07002A
:1004200000FE18000000E0000003BF00000CFFC049
:100430000071806001C10020030180600000FFC0E6
:1004400000003F000000000000000000000000006D
:10045000000000000000000000000000000000009C
:10046000000000000000000000000000000000008C
:10047000000000000000000000000000000000007C
:10048000000000000000000000001F0000007FC00E
:1004900000FCC0C001FF80600303E020020278205E
:1004A00002061E2003FC074001F00380000103C088
:1004B00000011C600001E02000010020000100405C
:1004C00000000180000000000000000000000000AB
:1004D000000000000000000000000000000000001C
:1004E000000000000000000000000000000000000C
:1004F00000000000000000000000000000000000FC
:1005000000000000000000000000000000200000CB
:100510001C6000001C4000001F8000000F00000055
:1005200000000000000000000000000000000000CB
:1005300000000000000000000000000000000000BB
:1005400000000000000000000000000000000000AB
:10055000000000000000000000000000000000009B
:10056000000000000000000000000000000000008B
:10057000000000000000000000000000000000007B
:10058000000000000000000000000000000000006B
:10059000000000000000000000000000000000005B
:1005A000000000000007F800003FFF00007807C0CF
:1005B00001C000E00300003004000008080000044F
:1005C0001000000200000000000000000000000019
:1005D000000000000000000000000000000000001B
:1005E000000000000000000000000000000000000B
:1005F00000000000000000000000000000000000FB
:1006000000000000000000000000000010000002D8
:1006100008000004040000080300003001C000E0EE
:10062000007807C0003FFF000007F800000000004E
:1006300000000000000000000000000000000000BA
:1006400000000000000000000000000000000000AA
:10065000000000000000000000000000000000009A
:10066000000000000000000000000000000000008A
:10067000000000000000000000000000000000007A
:10068000000000000000000000000000000000006A
:10069000000C1800000E3800000E38000006300074
:1006A000000360000061438000FFFF8000614300A1
:1006B0000003600000063000000E3800000E380015
:1006C000000C180000000000000000000000000006
:1006D000000000000000000000000000000000001A
:1006E000000000000000000000000000000000000A
:1006F00000000000000000000000000000000000FA
:1007000000000000000000000000000000000000E9
:1007100000008000000080000000800000008000D9
:100720000000800000008000007FFF0000008000CB
:1007300000008000000080000000800000008000B9
:100740000000800000000000000000000000000029
:100750000000000000000000000000000000000099
:100760000000000000000000000000000000000089
:100770000000000000000000000000000000000079
:100780000000000000000000000000000000000168
:10079000000000E3000000E2000000FC0000007820
:1007A0000000000000000000000000000000000049
:1007B0000000000000000000000000000000000039
:1007C0000000000000000000000000000000000029
:1007D0000000000000000000000000000000000019
:1007E0000000000000000000000000000000000009
:1007F00000000000000000000000000000000000F9
:100800000000000000000000000000000000800068
:1008100000008000000080000000800000008000D8
:1008200000008000000080000000800000008000C8
:1008300000008000000080000000800000008000B8
:100840000000800000000000000000000000000028
:100850000000000000000000000000000000000098
:100860000000000000000000000000000000000088
:100870000000000000000000000000000000000078
:100880000000000000000000000000000000000068
:10089000000000C0000001E0000001E0000000C016
:1008A0000000000000000000000000000000000048
:1008B0000000000000000000000000000000000038
:1008C0000000000000000000000000000000000028
:1008D0000000000000000000000000000000000018
:1008E0000000000000000000000000000000000008
:1008F00000000000000000000000000000000000F8
:100900000000000000000000000000000000000CDB
:1009100000000038000000E00000038000000E002E
:10092000000038000000E00000038000000E00001E
:100930000038000000E00000038000000E0000000E
:10094000180000000000000000000000000000008F
:100950000000000000000000000000000000000097
:100960000000000000000000000000000000000087
:100970000000000000000000000000000000000077
:100980000000000000000000000000000000000067
:10099000000FF800007FFF0000F00780018000C01A
:1009A000030000600200002002000020020000207E
:1009B00003000060018000C000E00380007FFF00B2
:1009C000000FF80000000000000000000000000020
:1009D0000000000000000000000000000000000017
:1009E0000000000000000000000000000000000007
:1009F00000000000000000000000000000000000F7
:100A000000000000000000000000000000000000E6
:100A100000000000008000200080002000800020F6
:100A20000080006001FFFFE003FFFFE000000060C6
:100A30000000002000000020000000200000000056
:100A400000000000000000000000000000000000A6
:100A50000000000000000000000000000000000096
:100A60000000000000000000000000000000000086
:100A70000000000000000000000000000000000076
:100A80000000000000000000000000000000000066
:100A9000007800E00098016001000260020004603C
:100AA0000200086002001060020020600200406046
:100AB000030080600183006001FE00E0007C07808D
:100AC0000000000000000000000000000000000026
:100AD0000000000000000000000000000000000016
:100AE0000000000000000000000000000000000006
:100AF00000000000000000000000000000000000F6
:100B000000000000000000000000000000000000E5
:100B100000F0078001F007C0010000400200002043
:100B200002010020020100200201002003038020B6
:100B30000186804001FCC0C000787F8000001E005C
:100B400000000000000000000000000000000000A5
:100B50000000000000000000000000000000000095
:100B60000000000000000000000000000000000085
:100B70000000000000000000000000000000000075
:100B8000000000000000000000000000000008005D
:100B9000000038000000480000018800000608003E
:100BA000000C0810003008100040081001FFFFF092
:100BB00003FFFFF003FFFFF0000008100000081023
:100BC000000008100000000000000000000000000D
:100BD0000000000000000000000000000000000015
:100BE0000000000000000000000000000000000005
:100BF00000000000000000000000000000000000F5
:100C000000000000000000000000000000000000E4
:100C100000000780001F864003E10020030200203F
:100C20000304002003040020030400200304002028
:100C300003060040030301C00301FF8003007E00A0
:100C400000000000000000000000000000000000A4
:100C50000000000000000000000000000000000094
:100C60000000000000000000000000000000000084
:100C70000000000000000000000000000000000074
:100C80000000000000000000000000000000000064
:100C90000007FC00003FFF000070C380008180C09F
:100CA0000101006003020020020200200202002075
:100CB000020200200203004001C180C000C0FF808A
:100CC00000007E00000000000000000000000000A6
:100CD0000000000000000000000000000000000014
:100CE0000000000000000000000000000000000004
:100CF00000000000000000000000000000000000F4
:100D000000000000000000000000000000000000E3
:100D100000F0000003C0000003800000030000009A
:100D2000030007E003003FE00301C00003060000EA
:100D300003180000036000000380000003000000AF
:100D400000000000000000000000000000000000A3
:100D50000000000000000000000000000000000093
:100D60000000000000000000000000000000000083
:100D70000000000000000000000000000000000073
:100D800000000000000000000000000000001F0044
:100D900000783F8000FC60C0018EC04003078020C7
:100DA0000203002002018020020180200201C020F5
:100DB0000301E040018670C000FC3F8000781F0006
:100DC0000000000000000000000000000000000023
:100DD0000000000000000000000000000000000013
:100DE0000000000000000000000000000000000003
:100DF00000000000000000000000000000000000F3
:100E0000000000000000000000000000003F0000A3
:100E100000FF81C001C0C1C001006020020020208D
:100E2000020020200200202002002060020040C0BA
:100E30000100C18000C18F00007FFE00001FF00094
:100E400000000000000000000000000000000000A2
:100E50000000000000000000000000000000000092
:100E60000000000000000000000000000000000082
:100E70000000000000000000000000000000000072
:100E80000000000000000000000000000000000062
:100E90000000000000000000000000000000000052
:100EA000000300C0000781E0000781E0000300C0EC
:100EB0000000000000000000000000000000000032
:100EC0000000000000000000000000000000000022
:100ED0000000000000000000000000000000000012
:100EE0000000000000000000000000000000000002
:100EF00000000000000000000000000000000000F2
:100F000000000000000000000000000000000000E1
:100F100000000000000000000000000000000000D1
:100F200000060066000600780000000000000000D7
:100F300000000000000000000000000000000000B1
:100F400000000000000000000000000000000000A1
:100F50000000000000000000000000000000000091
:100F60000000000000000000000000000000000081
:100F70000000000000000000000000000000000071
:100F80000000000000000000000000000000000061
:100F9000000080000001C000000360000006300077
:100FA000000C180000180C00003006000060030060
:100FB00000C0018001000040020000200400001079
:100FC0000000000000000000000000000000000021
:100FD0000000000000000000000000000000000011
:100FE0000000000000000000000000000000000001
:100FF00000000000000000000000000000000000F1
:1010000000000000000000000000000000041000CC
:101010000004100000041000000410000004100080
:101020000004100000041000000410000004100070
:101030000004100000041000000410000004100060
:10104000000410000000000000000000000000008C
:101050000000000000000000000000000000000090
:101060000000000000000000000000000000000080
:101070000000000000000000000000000000000070
:101080000000000000000000000000000000000060
:1010900004000010020000200100004000C0018098
:1010A000006003000030060000180C00000C18005F
:1010B00000063000000360000001C0000000800056
:1010C0000000000000000000000000000000000020
:1010D0000000000000000000000000000000000010
:1010E0000000000000000000000000000000000000
:1010F00000000000000000000000000000000000F0
:1011000000000000000000000000000000000000DF
:101110000078000001F80000023800000200000022
:10112000040000C0040079E0040081E0040100C074
:1011300004030000020200000306000001FC00009E
:1011400000F80000000000000000000000000000A7
:10115000000000000000000000000000000000008F
:10116000000000000000000000000000000000007F
:10117000000000000000000000000000000000006F
:10118000000000000000000000000000000FF80058
:10119000003FFE000070078000C000C00101F84061
:1011A0000307FC20021E0420023008200220302009
:1011B000023FFC20013F044001800CC000E0318070
:1011C000001FC2000000000000000000000000003E
:1011D000000000000000000000000000000000000F
:1011E00000000000000000000000000000000000FF
:1011F00000000000000000000000000000000000EF
:10120000000000000000000000000020000000605E
:10121000000003E000003E200003E020003E20002C
:1012200003E020000380200007FC2000003FE000D6
:101230000003FE2000003FE0000001E0000000206D
:10124000000000200000000000000000000000007E
:10125000000000000000000000000000000000008E
:10126000000000000000000000000000000000007E
:10127000000000000000000000000000000000006E
:10128000000000000000000000000000020000203C
:101290000200002003FFFFE003FFFFE00201002047
:1012A00002010020020100200201002002010020B2
:1012B000030300200186806001FCC0C000F87F802D
:1012C00000001F00000000000000000000000000FF
:1012D000000000000000000000000000000000000E
:1012E00000000000000000000000000000000000FE
:1012F00000000000000000000000000000000000EE
:101300000000000000000000000000000007F800DE
:10131000003FFF000070078000C000C001000040D7
:101320000300002002000020020000200200002034
:101330000200002001000040018000C003C00180C5
:101340000030060000000000000000000000000067
:10135000000000000000000000000000000000008D
:10136000000000000000000000000000000000007D
:10137000000000000000000000000000000000006D
:10138000000000000000000000000000020000203B
:101390000200002003FFFFE003FFFFE00200002047
:1013A0000200002002000020020000200300006074
:1013B00001000040018000C000F00780007FFE00B7
:1013C000000FF80000000000000000000000000016
:1013D000000000000000000000000000000000000D
:1013E00000000000000000000000000000000000FD
:1013F00000000000000000000000000000000000ED
:1014000000000000000000000000000002000020BA
:101410000200002003FFFFE003FFFFE002010020C5
:101420000201002002010020020100200201002030
:1014300002038020020FE0200300006003C000E0F0
:101440000060030000000000000000000000000039
:10145000000000000000000000000000000000008C
:10146000000000000000000000000000000000007C
:10147000000000000000000000000000000000006C
:10148000000000000000000000000000020000203A
:101490000200002003FFFFE003FFFFE00201002045
:1014A0000201002002010000020100000201000010
:1014B0000201000002038000030FE00003000000AF
:1014C00003C00000006000000000000000000000F9
:1014D000000000000000000000000000000000000C
:1014E00000000000000000000000000000000000FC
:1014F00000000000000000000000000000000000EC
:101500000000000000000000000000000007F800DC
:10151000003FFE000070078001C001C001000040D4
:101520000300002002000020020000200200002032
:10153000010020200100204003C03F8000303F8098
:10154000000020000000200000000000000000005B
:10155000000000000000000000000000000000008B
:10156000000000000000000000000000000000007B
:10157000000000000000000000000000000000006B
:101580000000000000000000020000200200002017
:1015900003FFFFE003FFFFE0020080200200802045
:1015A0000000800000008000000080000200802019
:1015B0000200802003FFFFE003FFFFE002000020A5
:1015C00002000020000000000000000000000000F9
:1015D000000000000000000000000000000000000B
:1015E00000000000000000000000000000000000FB
:1015F00000000000000000000000000000000000EB
:1016000000000000000000000000000000000000DA
:101610000000000002000020020000200200002064
:101620000200002003FFFFE003FFFFE002000020B4
:101630000200002002000020020000200000000044
:10164000000000000000000000000000000000009A
:10165000000000000000000000000000000000008A
:10166000000000000000000000000000000000007A
:10167000000000000000000000000000000000006A
:101680000000000000000000000000000000000E4C
:101690000000000F0000000F000000010200000128
:1016A00002000001020000030200000603FFFFFC2D
:1016B00003FFFFF80200000002000000020000002B
:1016C0000200000000000000000000000000000018
:1016D000000000000000000000000000000000000A
:1016E00000000000000000000000000000000000FA
:1016F00000000000000000000000000000000000EA
:1017000000000000000000000000000002000020B7
:101710000200002003FFFFE003FFFFE00200C02003
:101720000201002000078000000FE0000030F800F8
:1017300002603E2003800F20030003E0020000E06F
:101740000200002000000020000000000000000057
:101750000000000000000000000000000000000089
:101760000000000000000000000000000000000079
:101770000000000000000000000000000000000069
:101780000000000000000000000000000200002037
:101790000200002003FFFFE003FFFFE00200002043
:1017A00002000020000000200000002000000020B7
:1017B000000000200000002000000060000000E0A9
:1017C0000000030000000000000000000000000016
:1017D0000000000000000000000000000000000009
:1017E00000000000000000000000000000000000F9
:1017F00000000000000000000000000000000000E9
:101800000000000000000000020000200200002094
:1018100003FFFFE003E0002003FF0020001FF000B3
:101820000001FF8000000FE000001E000003E00048
:10183000003E002003E0002003FFFFE003FFFFE085
:101840000200002002000020000000000000000054
:101850000000000000000000000000000000000088
:101860000000000000000000000000000000000078
:101870000000000000000000000000000000000068
:101880000000000000000000020000200200002014
:1018900003FFFFE00380002003F0002000FC0000B5
:1018A000001F00000007C0000001F00000007C00E5
:1018B00002001F80020007E003FFFFE002000000BB
:1018C0000200000000000000000000000000000016
:1018D0000000000000000000000000000000000008
:1018E00000000000000000000000000000000000F8
:1018F00000000000000000000000000000000000E8
:10190000000000000000000000000000000FF800D0
:10191000003FFE0000F00780018000C00100004091
:10192000020000200200002002000020020000202F
:1019300001000040018000C000F00380003FFE0075
:10194000000FF80000000000000000000000000090
:101950000000000000000000000000000000000087
:101960000000000000000000000000000000000077
:101970000000000000000000000000000000000067
:101980000000000000000000000000000200002035
:101990000200002003FFFFE003FFFFE002008020C1
:1019A000020080200200800002008000020080000F
:1019B00002008000030180000183000000FE00009F
:1019C000007C00000000000000000000000000009B
:1019D0000000000000000000000000000000000007
:1019E00000000000000000000000000000000000F7
:1019F00000000000000000000000000000000000E7
:101A0000000000000000000000000000000FF800CF
:101A1000007FFF0000F00380018001C0010006404C
:101A2000020004200200042002000620020003E05D
:101A3000010000F80180005C00E0038C003FFF0C17
:101A4000000FFC1800000000000000000000000073
:101A50000000000000000000000000000000000086
:101A60000000000000000000000000000000000076
:101A70000000000000000000000000000000000066
:101A80000000000000000000000000000200002034
:101A90000200002003FFFFE003FFFFE0020100203F
:101AA00002010020020180000201E0000201FC00AE
:101AB00003033F80018607E001FC00E000F80020FE
:101AC00000000020000000000000000000000000F6
:101AD0000000000000000000000000000000000006
:101AE00000000000000000000000000000000000F6
:101AF00000000000000000000000000000000000E6
:101B000000000000000000000000000000000000D5
:101B10000078060000FE01E0018600C003030040DB
:101B20000203002002018020020180200201C02067
:101B30000200C0200100E060018070C003E03F802F
:101B400000001F0000000000000000000000000076
:101B50000000000000000000000000000000000085
:101B60000000000000000000000000000000000075
:101B70000000000000000000000000000000000065
:101B800000000000000000000000000000600000F5
:101B9000038000000300000002000000020000209B
:101BA0000200002003FFFFE003FFFFE0020000202F
:101BB000020000200200000002000000038000007C
:101BC00000E0000000000000000000000000000035
:101BD0000000000000000000000000000000000005
:101BE00000000000000000000000000000000000F5
:101BF00000000000000000000000000000000000E5
:101C000000000000000000000200000002000000D0
:101C100003FFFF0003FFFFC002000040020000605E
:101C20000000002000000020000000200000002034
:101C3000020000400200008003FFFF0002000000DD
:101C40000200000000000000000000000000000092
:101C50000000000000000000000000000000000084
:101C60000000000000000000000000000000000074
:101C70000000000000000000000000000000000064
:101C80000000000000000000000000000200000052
:101C90000200000003C0000003FC0000023FC0007F
:101CA0000003F80000007F80000007E000000780CC
:101CB000000078000203C000023C000003C00000E6
:101CC0000200000002000000000000000000000010
:101CD0000000000000000000000000000000000004
:101CE00000000000000000000000000000000000F4
:101CF00000000000000000000000000000000000E4
:101D000000000000000000000200000003C000000E
:101D100003FF8000023FFE0002007FE000000F0092
:101D20000200F00003EF000003FF8000020FFE003E
:101D300000003FE000001F000207E00003F8000081
:101D4000030000000200000000000000000000008E
:101D50000000000000000000000000000000000083
:101D60000000000000000000000000000000000073
:101D70000000000000000000000000000000000063
:101D80000000000000000000000000000200002031
:101D900002000020038000E003F0032002FC0C207E
:101DA000021F30000007C0000007F00002187C008E
:101DB00002601F20038003E0020000E00200002018
:101DC00000000020000000000000000000000000F3
:101DD0000000000000000000000000000000000003
:101DE00000000000000000000000000000000000F3
:101DF00000000000000000000000000000000000E3
:101E000000000000000000000000000002000000D0
:101E10000300000003C0000003F80000023E0020A1
:101E2000020FC0200001FFE000007FE000038020DF
:101E3000021C00200270000003800000020000006D
:101E40000200000000000000000000000000000090
:101E50000000000000000000000000000000000082
:101E60000000000000000000000000000000000072
:101E70000000000000000000000000000000000062
:101E80000000000000000000000000000000002032
:101E9000006000E0038003E003000FA002003E208A
:101EA0000200F8200203E020020F8020023E002002
:101EB0000278002003E00060038000E002000300DD
:101EC0000000000000000000000000000000000012
:101ED0000000000000000000000000000000000002
:101EE00000000000000000000000000000000000F2
:101EF00000000000000000000000000000000000E2
:101F000000000000000000000000000000000000D1
:101F100000000000000000000000000000000000C1
:101F20001FFFFFFC1000000410000004100000045C
:101F30001000000410000004100000041000000451
:101F40000000000000000000000000000000000091
:101F50000000000000000000000000000000000081
:101F60000000000000000000000000000000000071
:101F70000000000000000000000000000000000061
:101F80000000000000000000000000000000000051
:101F9000000000000700000003C0000000780000FF
:101FA000001E00000003C0000000F00000001E0042
:101FB00000000780000000F00000003C0000000668
:101FC0000000000000000000000000000000000011
:101FD0000000000000000000000000000000000001
:101FE00000000000000000000000000000000000F1
:101FF00000000000000000000000000000000000E1
:1020000000000000000000000000000000000000D0
:102010001000000410000004100000041000000470
:102020001000000410000004100000041FFFFFFC5B
:1020300000000000000000000000000000000000A0
:102040000000000000000000000000000000000090
:102050000000000000000000000000000000000080
:102060000000000000000000000000000000000070
:102070000000000000000000000000000000000060
:102080000000000000000000000000000000000050
:10209000000000000000000002000000040000003A
:1020A00008000000180000001000000018000000E8
:1020B0001800000004000000020000000000000002
:1020C0000000000000000000000000000000000010
:1020D0000000000000000000000000000000000000
:1020E00000000000000000000000000000000000F0
:1020F00000000000000000000000000000000000E0
:1021000000000000000000000000000100000001CD
:1021100000000001000000010000000100000001BB
:1021200000000001000000010000000100000001AB
:10213000000000010000000100000001000000019B
:10214000000000010000000100000000000000008D
:10215000000000000000000000000000000000007F
:10216000000000000000000000000000000000006F
:10217000000000000000000000000000000000005F
:10218000000000000000000000000000000000004F
:10219000000000001000000010000000100000000F
:1021A000180000000800000004000000000000000B
:1021B000000000000000000000000000000000001F
:1021C000000000000000000000000000000000000F
:1021D00000000000000000000000000000000000FF
:1021E00000000000000000000000000000000000EF
:1021F00000000000000000000000000000000000DF
:10220000000000000000000000000000000003804B
:1022100000018FC000038C6000061820000410200D
:10222000000410200004202000042040000620406C
:102230000003FFC00001FFE00000002000000020BC
:10224000000000C0000000000000000000000000CE
:10225000000000000000000000000000000000007E
:10226000000000000000000000000000000000006E
:10227000000000000000000000000000000000005E
:10228000000000000000000000000000020000004C
:102290000200000003FFFFE007FFFFC0000180C055
:1022A0000002006000020020000400200004002062
:1022B0000004002000060040000300C00001FF8071
:1022C0000000FE0000000000000000000000000010
:1022D00000000000000000000000000000000000FE
:1022E00000000000000000000000000000000000EE
:1022F00000000000000000000000000000000000DE
:1023000000000000000000000000000000000000CD
:1023100000007E000001FF80000381C00002004039
:10232000000600200004002000040020000400201B
:10233000000600200003C0400001C0800000030030
:10234000000000000000000000000000000000008D
:10235000000000000000000000000000000000007D
:10236000000000000000000000000000000000006D
:10237000000000000000000000000000000000005D
:10238000000000000000000000000000000000004D
:1023900000007E000001FF80000380C00006006096
:1023A000000400200004002000040020020400407B
:1023B0000202008003FFFFE007FFFFC000000040B3
:1023C00000000040000000000000000000000000CD
:1023D00000000000000000000000000000000000FD
:1023E00000000000000000000000000000000000ED
:1023F00000000000000000000000000000000000DD
:1024000000000000000000000000000000000000CC
:1024100000007E000001FF80000311C00002104098
:10242000000410600004102000041020000410209C
:1024300000061020000310400001F0C000007100F1
:10244000000000000000000000000000000000008C
:10245000000000000000000000000000000000007C
:10246000000000000000000000000000000000006C
:10247000000000000000000000000000000000005C
:10248000000000000000000000000000000000004C
:1024900000040000000400200004002000040020CC
:1024A000007FFFE001FFFFE00104002003040020A3
:1024B00002040020020400200204000002000000C8
:1024C00001C0000001C0000000000000000000008A
:1024D00000000000000000000000000000000000FC
:1024E00000000000000000000000000000000000EC
:1024F00000000000000000000000000000000000DC
:1025000000000000000000000000000000000000CB
:102510000000001C0000E33E0003FFC200020CC3E9
:10252000000404C1000404C1000404C1000404C187
:1025300000060CC10003F8C30005F0620006007E2F
:102540000006003C00000000000000000000000049
:10255000000000000000000000000000000000007B
:10256000000000000000000000000000000000006B
:10257000000000000000000000000000000000005B
:102580000000000000000000000000000200002029
:102590000200002003FFFFE007FFFFE00001002032
:1025A00000020020000600000004000000040000FB
:1025B00000040020000600200003FFE00001FFE00F
:1025C00000000020000000200000000000000000CB
:1025D00000000000000000000000000000000000FB
:1025E00000000000000000000000000000000000EB
:1025F00000000000000000000000000000000000DB
:1026000000000000000000000000000000000000CA
:10261000000000000004002000040020000400204E
:10262000000400200387FFE0038FFFE00380002009
:10263000000000200000002000000020000000003A
:10264000000000000000000000000000000000008A
:10265000000000000000000000000000000000007A
:10266000000000000000000000000000000000006A
:10267000000000000000000000000000000000005A
:10268000000000000000000000000000000000004A
:10269000000000000000000600000007000000012C
:1026A0000000000100040001000400010004000318
:1026B000000400060387FFFC038FFFF8038000007F
:1026C000000000000000000000000000000000000A
:1026D00000000000000000000000000000000000FA
:1026E00000000000000000000000000000000000EA
:1026F00000000000000000000000000000000000DA
:1027000000000000000000000000000002000020A7
:102710000200002003FFFFE007FFFFE000000820A9
:1027200000001020000030000000FC0000058E00BA
:10273000000707A0000601E0000400E000040020FC
:102740000000002000000000000000000000000069
:102750000000000000000000000000000000000079
:102760000000000000000000000000000000000069
:102770000000000000000000000000000000000059
:102780000000000000000000000000000000000049
:1027900000000000020000200200002002000020D3
:1027A0000200002003FFFFE007FFFFE00000002021
:1027B00000000020000000200000002000000000B9
:1027C0000000000000000000000000000000000009
:1027D00000000000000000000000000000000000F9
:1027E00000000000000000000000000000000000E9
:1027F00000000000000000000000000000000000D9
:1028000000000000000000000000000000040020A4
:102810000007FFE0000FFFE00002002000040000BE
:10282000000400200007FFE00003FFE0000200209A
:1028300000040000000400200007FFE00003FFE0A8
:102840000000002000000000000000000000000068
:102850000000000000000000000000000000000078
:102860000000000000000000000000000000000068
:102870000000000000000000000000000000000058
:102880000000000000000000000000000004002024
:10289000000400200007FFE0000FFFE0000100201F
:1028A00000020020000200000004000000040000FC
:1028B00000040020000600200003FFE00001FFE00C
:1028C00000000020000000200000000000000000C8
:1028D00000000000000000000000000000000000F8
:1028E00000000000000000000000000000000000E8
:1028F00000000000000000000000000000000000D8
:1029000000000000000000000000000000000000C7
:1029100000007E000000FF80000381C00002004034
:102920000006002000040020000400200004002015
:102930000006002000020040000381C00001FF806B
:1029400000007E0000000000000000000000000009
:102950000000000000000000000000000000000077
:102960000000000000000000000000000000000067
:102970000000000000000000000000000000000057
:102980000000000000000000000000000004000142
:10299000000400010007FFFF000FFFFF000100C15E
:1029A0000002004100040020000400200004002078
:1029B0000004002000060040000301C00001FF8069
:1029C00000007E0000000000000000000000000089
:1029D00000000000000000000000000000000000F7
:1029E00000000000000000000000000000000000E7
:1029F00000000000000000000000000000000000D7
:102A000000000000000000000000000000000000C6
:102A100000007E000001FF80000380C00002006013
:102A20000004002000040020000400200004002016
:102A300000020041000300C10003FFFF0007FFFF89
:102A40000000000100000001000000000000000084
:102A50000000000000000000000000000000000076
:102A60000000000000000000000000000000000066
:102A70000000000000000000000000000000000056
:102A80000000000000000000000000000004002022
:102A9000000400200004002000040020000FFFE0DC
:102AA000000FFFE00000C020000100200002002015
:102AB00000060020000400000004000000070000E1
:102AC0000003000000000000000000000000000003
:102AD00000000000000000000000000000000000F6
:102AE00000000000000000000000000000000000E6
:102AF00000000000000000000000000000000000D6
:102B000000000000000000000000000000000000C5
:102B1000000003E00001C0E00003E04000063020B8
:102B2000000430200004182000041820000418209D
:102B300000040C2000020C60000307C00007838023
:102B40000000000000000000000000000000000085
:102B50000000000000000000000000000000000075
:102B60000000000000000000000000000000000065
:102B70000000000000000000000000000000000055
:102B80000000000000000000000000000000000045
:102B9000000400000004000000040000000C00001D
:102BA000001FFF8000FFFFC0000400600004002041
:102BB0000004002000040020000400400000018008
:102BC0000000000000000000000000000000000005
:102BD00000000000000000000000000000000000F5
:102BE00000000000000000000000000000000000E5
:102BF00000000000000000000000000000000000D5
:102C000000000000000000000000000000040000C0
:102C1000000400000007FF80000FFFC000000060FC
:102C20000000002000000020000000200000002024
:102C300000040040000400800007FFE0000FFFC018
:102C40000000004000000040000000000000000004
:102C50000000000000000000000000000000000074
:102C60000000000000000000000000000000000064
:102C70000000000000000000000000000000000054
:102C80000000000000000000000000000004000040
:102C900000040000000780000007F0000004FE00B0
:102CA00000041FC0000003E00000038000001C00BF
:102CB000000460000007800000060000000400001F
:102CC0000000000000000000000000000000000004
:102CD00000000000000000000000000000000000F4
:102CE00000000000000000000000000000000000E4
:102CF00000000000000000000000000000000000D4
:102D000000000000000000000004000000060000B9
:102D10000007C0000007FC0000043F80000003E043
:102D200000040F800006F0000007F0000007FF809D
:102D300000040FE00000038000043C000007C00016
:102D40000006000000040000000000000000000079
:102D50000000000000000000000000000000000073
:102D60000000000000000000000000000000000063
:102D70000000000000000000000000000000000053
:102D80000000000000000000000000000000002023
:102D90000004002000040060000700E0000783201A
:102DA0000007E6000004F80000003C0000045E207C
:102DB000000587A0000601E0000400600004002078
:102DC00000000020000000000000000000000000E3
:102DD00000000000000000000000000000000000F3
:102DE00000000000000000000000000000000000E3
:102DF00000000000000000000000000000000000D3
:102E000000000000000000000000000000040000BE
:102E100000040003000700030007E0010004F801BC
:102E200000041F02000007FC000000E00000070093
:102E3000000438000007C000000600000004000085
:102E4000000400000000000000000000000000007E
:102E50000000000000000000000000000000000072
:102E60000000000000000000000000000000000062
:102E70000000000000000000000000000000000052
:102E80000000000000000000000000000000000042
:102E900000078060000600E0000403E0000407A0D3
:102EA00000040E2000043C20000470200005E020F7
:102EB0000007802000070060000400E0000003809D
:102EC0000000000000000000000000000000000002
:102ED00000000000000000000000000000000000F2
:102EE00000000000000000000000000000000000E2
:102EF00000000000000000000000000000000000D2
:102F000000000000000000000000000000000000C1
:102F100000000000000000000000000000000000B1
:102F20000000000000008000000080000001400060
:102F300007FE3FF808000004100000021000000225
:102F40000000000000000000000000000000000081
:102F50000000000000000000000000000000000071
:102F60000000000000000000000000000000000061
:102F70000000000000000000000000000000000051
:102F80000000000000000000000000000000000041
:102F90000000000000000000000000000000000031
:102FA0000000000000000000FFFFFFFF0000000025
:102FB0000000000000000000000000000000000011
:102FC0000000000000000000000000000000000001
:102FD00000000000000000000000000000000000F1
:102FE00000000000000000000000000000000000E1
:102FF00000000000000000000000000000000000D1
:1030000000000000000000000000000000000000C0
:1030100010000002100000020800000407FE3FF844
:10302000000140000000800000008000000000005F
:103030000000000000000000000000000000000090
:103040000000000000000000000000000000000080
:103050000000000000000000000000000000000070
:103060000000000000000000000000000000000060
:103070000000000000000000000000000000000050
:103080000000000000000000000000001800000028
:103090003000000040000000400000004000000040
:1030A00020000000300000000800000004000000C4
:1030B0000200000002000000020000000C000000FE
:1030C00018000000000000000000000000000000E8
:1030D00000000000000000000000000000000000F0
:1030E00000000000000000000000000000000000E0
:1030F00000000000000000000000000000000000D0
:10310000000000000000000001B4BDF800005649B6
:10311000088001B0704701B4BDF800005349088031
:1031200001B0704781B051480088ADF80000BDF88B
:10313000000001B070474C4A10804C480180704735
:103140004B48008948490880704770B504000D005D
:10315000474EB08845F21051884223D17089FFF75D
:10316000D3FF200080B2000AFFF7D5FF7089401C12
:1031700080B2FFF7C9FF04F0FF042000FFF7CBFF88
:10318000B089FFF7C1FF280080B2000AFFF7C3FF34
:10319000B089401C80B2FFF7B7FF05F0FF0528009B
:1031A000FFF7B9FF70BD10B586B000200090314820
:1031B000016851F001010160006810F00100009009
:1031C0000098002000902C48016851F0080101602F
:1031D000016811F008010091009900210091016837
:1031E00051F010010160016811F010010091009987
:1031F00000210091016851F020010160016811F087
:1032000020010091009900210091016851F04001D6
:103210000160006810F04000009000984CF233709C
:1032200001900220029001200390032004900C20C2
:10323000059001A9114801F00FFB4FF68070019035
:1032400001A90F4801F008FB4FF48054019401A933
:103250000C4801F001FB019401A90B4801F0FCFAB4
:1032600006B010BD000000007E00006C8000006C05
:10327000EC6800203838024030380240000C024030
:103280000010024000140240001802402DE9F84FDF
:1032900094B000200090474C206850F0020020605D
:1032A000206810F00200009000984FF40040019058
:1032B00001200290012003900320049001A93E48C0
:1032C00001F0CAFA00200090206850F04000206011
:1032D000206810F04000009000984FF48044019462
:1032E00001200290012003900320049001A933489B
:1032F00001F0B2FA32485FF020410160314941608B
:10330000062181600021C16000210161102141611D
:10331000002181610021C161002141624FF480518F
:1033200081620021C1620463002141630021816345
:103330005FF48011C1630F210D9100210E913C219A
:103340000F9100211391002109910921069100217B
:1033500007910821089100210C9106AA0DA901F0FE
:103360009FFB322001F0D8FB4FF45A40FFF7CCFE10
:10337000154CFFF7D7FEA0804FF45B40FFF7C4FE6B
:10338000FFF7D0FEA080A0880002A0804FF45C4030
:10339000FFF7BAFEFFF7C6FEA1880843A080A08809
:1033A000B0F5004F02D145F21050A080A188DFF89F
:1033B000780F0BE030380240000402400018024051
:1033C00070650020040100A0EC68002001F0EEFB15
:1033D000A08845F21051884240F07C8755214FF477
:1033E0007040FFF7A8FEAA214FF20100FFF7A3FEED
:1033F00052214FF20200FFF79EFE08214FF2030018
:10340000FFF799FE4FF2040501212800FFF793FE14
:103410000D214FF43040FFF78EFE0D214BF20100DD
:10342000FFF789FE0D214BF20200FFF784FE3421E5
:103430004FF43640FFF77FFE34214BF20160FFF777
:103440007AFE34214BF20260FFF775FE0D214FF436
:103450003140FFF770FE4BF201160D213000FFF7EF
:103460006AFE0D214BF20210FFF765FE34214FF486
:103470003740FFF760FE4BF2017734213800FFF749
:103480005AFE34214BF20270FFF755FE00214FF433
:103490003240FFF750FE00214BF20120FFF74BFEB8
:1034A00000214BF20220FFF746FE24214FF4384062
:1034B000FFF741FE4BF6010824214046FFF73BFE93
:1034C0004BF6020924214846FFF735FE01214FF44F
:1034D0003F40FFF730FE0F214FF43340FFF72BFE44
:1034E0000F214BF20130FFF726FE0F214BF2023085
:1034F000FFF721FE34214FF43940FFF71CFE342141
:103500004BF60110FFF717FE34214BF60210FFF7C0
:1035100012FE08214FF43540FFF70DFE08214BF253
:103520000150FFF708FE08214BF20250FFF703FE9F
:1035300003214FF44240FFF7FEFD24214FF43A40AF
:10354000FFF7F9FD24214BF60120FFF7F4FD2421BC
:103550004BF60220FFF7EFFD00214FF43C40FFF750
:10356000EAFD4BF6014A78215046FFF7E4FD4BF6A1
:10357000024B00215846FFF7DEFD00214FF43D408D
:10358000FFF7D9FD78214BF60150FFF7D4FD00215C
:103590004BF60250FFF7CFFD00214FF43E40FFF7FE
:1035A000CAFD64214BF60160FFF7C5FD00214FF411
:1035B0005140FFF7C0FD33214DF20110FFF7BBFD75
:1035C00000214DF20210FFF7B6FD34214DF2031039
:1035D000FFF7B1FD00214DF20410FFF7ACFD3A21D9
:1035E0004DF20510FFF7A7FD00214DF20610FFF781
:1035F000A2FD4A214DF20710FFF79DFD00214DF27B
:103600000810FFF798FD5C214DF20910FFF793FDBC
:1036100000214DF20A10FFF78EFD81214DF20B10B3
:10362000FFF789FD00214DF20C10FFF784FDA62164
:103630004DF20D10FFF77FFD00214DF20E10FFF748
:103640007AFDE5214DF20F10FFF775FD01214DF2D6
:103650001010FFF770FD13214DF21110FFF76BFDF5
:1036600001214DF21210FFF766FD54214DF21310A7
:10367000FFF761FD01214DF21410FFF75CFD82217F
:103680004DF21510FFF757FD01214DF21610FFF70F
:1036900052FDCA214DF21710FFF74DFD02214DF2E8
:1036A0001810FFF748FD00214DF21910FFF743FDF8
:1036B00002214DF21A10FFF73EFD01214DF21B10C1
:1036C000FFF739FD02214DF21C10FFF734FD3421C4
:1036D0004DF21D10FFF72FFD02214DF21E10FFF7D6
:1036E0002AFD67214DF21F10FFF725FD02214DF243
:1036F0002010FFF720FD84214DF22110FFF71BFD64
:1037000002214DF22210FFF716FDA4214DF22310E5
:10371000FFF711FD02214DF22410FFF70CFDB72138
:103720004DF22510FFF707FD02214DF22610FFF79D
:1037300002FDCF214DF22710FFF7FDFC02214DF2D3
:103740002810FFF7F8FCDE214DF22910FFF7F3FCFB
:1037500002214DF22A10FFF7EEFCF2214DF22B1060
:10376000FFF7E9FC02214DF22C10FFF7E4FCFE21EB
:103770004DF22D10FFF7DFFC03214DF22E10FFF765
:10378000DAFC10214DF22F10FFF7D5FC03214DF28A
:103790003010FFF7D0FC33214DF23110FFF7CBFC96
:1037A00003214DF23210FFF7C6FC6D214DF23310AC
:1037B000FFF7C1FC00214FF45240FFF7BCFC33215E
:1037C0004DF20120FFF7B7FC00214DF20220FFF778
:1037D000B2FC34214DF20320FFF7ADFC00214DF285
:1037E0000420FFF7A8FC3A214DF20520FFF7A3FCC7
:1037F00000214DF20620FFF79EFC4A214DF20720E2
:10380000FFF799FC00214DF20820FFF794FC5C21A2
:103810004DF20920FFF78FFC00214DF20A20FFF73F
:103820008AFC81214DF20B20FFF785FC00214DF22F
:103830000C20FFF780FCA6214DF20D20FFF77BFC4A
:1038400000214DF20E20FFF776FCE5214DF20F200E
:10385000FFF771FC01214DF21020FFF76CFC1321E2
:103860004DF21120FFF767FC01214DF21220FFF706
:1038700062FC54214DF21320FFF75DFC01214DF253
:103880001420FFF758FC82214DF21520FFF753FC5E
:1038900001214DF21620FFF74EFCCA214DF21720F0
:1038A000FFF749FC02214DF21820FFF744FC0021EC
:1038B0004DF21920FFF73FFC02214DF21A20FFF7CD
:1038C0003AFC01214DF21B20FFF735FC02214DF29D
:1038D0001C20FFF730FC34214DF21D20FFF72BFC9C
:1038E00002214DF21E20FFF726FC67214DF21F201A
:1038F000FFF721FC02214DF22020FFF71CFC842160
:103900004DF22120FFF717FC02214DF22220FFF794
:1039100012FCA4214DF22320FFF70DFC02214DF2F1
:103920002420FFF708FCB7214DF22520FFF703FC08
:1039300002214DF22620FFF7FEFBCF214DF227207A
:10394000FFF7F9FB02214DF22820FFF7F4FBDE21FF
:103950004DF22920FFF7EFFB02214DF22A20FFF75D
:10396000EAFBF2214DF22B20FFF7E5FB02214DF29D
:103970002C20FFF7E0FBFE214DF22D20FFF7DBFBB3
:1039800003214DF22E20FFF7D6FB10214DF22F2000
:10399000FFF7D1FB03214DF23020FFF7CCFB3321A1
:1039A0004DF23120FFF7C7FB03214DF23220FFF724
:1039B000C2FB6D214DF23320FFF7BDFB00214FF418
:1039C0005340FFF7B8FB33214DF20130FFF7B3FB53
:1039D00000214DF20230FFF7AEFB34214DF20330EF
:1039E000FFF7A9FB00214DF20430FFF7A4FB3A21B9
:1039F0004DF20530FFF79FFB00214DF20630FFF737
:103A00009AFB4A214DF20730FFF795FB00214DF25A
:103A10000830FFF790FB5C214DF20930FFF78BFB7C
:103A200000214DF20A30FFF786FB81214DF20B3069
:103A3000FFF781FB00214DF20C30FFF77CFBA62144
:103A40004DF20D30FFF777FB00214DF20E30FFF7FE
:103A500072FBE5214DF20F30FFF76DFB01214DF2B6
:103A60001030FFF768FB13214DF21130FFF763FBB5
:103A700001214DF21230FFF75EFB54214DF213305D
:103A8000FFF759FB01214DF21430FFF754FB82215F
:103A90004DF21530FFF74FFB01214DF21630FFF7C5
:103AA0004AFBCA214DF21730FFF745FB02214DF2C8
:103AB0001830FFF740FB00214DF21930FFF73BFBB8
:103AC00002214DF21A30FFF736FB01214DF21B3077
:103AD000FFF731FB02214DF21C30FFF72CFB3421A4
:103AE0004DF21D30FFF727FB02214DF21E30FFF78C
:103AF00022FB67214DF21F30FFF71DFB02214DF223
:103B00002030FFF718FB84214DF22130FFF713FB23
:103B100002214DF22230FFF70EFBA4214DF223309B
:103B2000FFF709FB02214DF22430FFF704FBB72118
:103B30004DF22530FFF7FFFA02214DF22630FFF754
:103B4000FAFACF214DF22730FFF7F5FA02214DF2B4
:103B50002830FFF7F0FADE214DF22930FFF7EBFABB
:103B600002214DF22A30FFF7E6FAF2214DF22B3016
:103B7000FFF7E1FA02214DF22C30FFF7DCFAFE21CB
:103B80004DF22D30FFF7D7FA03214DF22E30FFF71B
:103B9000D2FA10214DF22F30FFF7CDFA03214DF26A
:103BA0003030FFF7C8FA33214DF23130FFF7C3FA56
:103BB00003214DF23230FFF7BEFA6D214DF2333062
:103BC000FFF7B9FA00214FF45440FFF7B4FA33215C
:103BD0004DF20140FFF7AFFA00214DF20240FFF72E
:103BE000AAFA34214DF20340FFF7A5FA00214DF265
:103BF0000440FFF7A0FA3A214DF20540FFF79BFA87
:103C000000214DF20640FFF796FA4A214DF2074097
:103C1000FFF791FA00214DF20840FFF78CFA5C2182
:103C20004DF20940FFF787FA00214DF20A40FFF7F5
:103C300082FA81214DF20B40FFF77DFA00214DF20F
:103C40000C40FFF778FAA6214DF20D40FFF773FA0A
:103C500000214DF20E40FFF76EFAE5214DF20F40C4
:103C6000FFF769FA01214DF21040FFF764FA1321C2
:103C70004DF21140FFF75FFA01214DF21240FFF7BC
:103C80005AFA54214DF21340FFF755FA01214DF233
:103C90001440FFF750FA82214DF21540FFF74BFA1E
:103CA00001214DF21640FFF746FACA214DF21740A6
:103CB000FFF741FA02214DF21840FFF73CFA0021CC
:103CC0004DF21940FFF737FA02214DF21A40FFF783
:103CD00032FA01214DF21B40FFF72DFA02214DF27D
:103CE0001C40FFF728FA34214DF21D40FFF723FA5C
:103CF00002214DF21E40FFF71EFA67214DF21F40D0
:103D0000FFF719FA02214DF22040FFF714FA84213F
:103D10004DF22140FFF70FFA02214DF22240FFF74A
:103D20000AFAA4214DF22340FFF705FA02214DF2D1
:103D30002440FFF700FAB7214DF22540FFF7FBF9C9
:103D400002214DF22640FFF7F6F9CF214DF2274030
:103D5000FFF7F1F902214DF22840FFF7ECF9DE21DF
:103D60004DF22940FFF7E7F902214DF22A40FFF713
:103D7000E2F9F2214DF22B40FFF7DDF902214DF27D
:103D80002C40FFF7D8F9FE214DF22D40FFF7D3F973
:103D900003214DF22E40FFF7CEF910214DF22F40B6
:103DA000FFF7C9F903214DF23040FFF7C4F9332181
:103DB0004DF23140FFF7BFF903214DF23240FFF7DA
:103DC000BAF96D214DF23340FFF7B5F900214FF4F8
:103DD0005540FFF7B0F933214DF20150FFF7ABF931
:103DE00000214DF20250FFF7A6F934214DF20350A5
:103DF000FFF7A1F900214DF20450FFF79CF93A2199
:103E00004DF20550FFF797F900214DF20650FFF7EC
:103E100092F94A214DF20750FFF78DF900214DF23A
:103E20000850FFF788F95C214DF20950FFF783F93C
:103E300000214DF20A50FFF77EF981214DF20B501F
:103E4000FFF779F900214DF20C50FFF774F9A62124
:103E50004DF20D50FFF76FF900214DF20E50FFF7B4
:103E60006AF9E5214DF20F50FFF765F901214DF296
:103E70001050FFF760F913214DF21150FFF75BF975
:103E800001214DF21250FFF756F954214DF2135013
:103E9000FFF751F901214DF21450FFF74CF982213F
:103EA0004DF21550FFF747F901214DF21650FFF77B
:103EB00042F9CA214DF21750FFF73DF902214DF2A8
:103EC0001850FFF738F900214DF21950FFF733F978
:103ED00002214DF21A50FFF72EF901214DF21B502D
:103EE000FFF729F902214DF21C50FFF724F9342184
:103EF0004DF21D50FFF71FF902214DF21E50FFF742
:103F00001AF967214DF21F50FFF715F902214DF202
:103F10002050FFF710F984214DF22150FFF70BF9E3
:103F200002214DF22250FFF706F9A4214DF2235051
:103F3000FFF701F902214DF22450FFF7FCF8B721F9
:103F40004DF22550FFF7F7F802214DF22650FFF70A
:103F5000F2F8CF214DF22750FFF7EDF802214DF294
:103F60002850FFF7E8F8DE214DF22950FFF7E3F87B
:103F700002214DF22A50FFF7DEF8F2214DF22B50CC
:103F8000FFF7D9F802214DF22C50FFF7D4F8FE21AB
:103F90004DF22D50FFF7CFF803214DF22E50FFF7D1
:103FA000CAF810214DF22F50FFF7C5F803214DF24A
:103FB0003050FFF7C0F833214DF23150FFF7BBF816
:103FC00003214DF23250FFF7B6F86D214DF2335018
:103FD000FFF7B1F800214FF45640FFF7ACF833215A
:103FE0004DF20160FFF7A7F800214DF20260FFF7E4
:103FF000A2F834214DF20360FFF79DF800214DF245
:104000000460FFF798F83A214DF20560FFF793F846
:1040100000214DF20660FFF78EF84A214DF207604D
:10402000FFF789F800214DF20860FFF784F85C2162
:104030004DF20960FFF77FF800214DF20A60FFF7AB
:104040007AF881214DF20B60FFF775F800214DF2EF
:104050000C60FFF770F8A6214DF20D60FFF76BF8CA
:1040600000214DF20E60FFF766F8E5214DF20F607A
:10407000FFF761F801214DF21060FFF75CF81321A2
:104080004DF21160FFF757F801214DF21260FFF772
:1040900052F854214DF21360FFF74DF801214DF213
:1040A0001460FFF748F882214DF21560FFF743F8DE
:1040B00001214DF21660FFF73EF8CA214DF217605C
:1040C000FFF739F802214DF21860FFF734F80021AC
:1040D0004DF21960FFF72FF802214DF21A60FFF739
:1040E0002AF801214DF21B60FFF725F802214DF25D
:1040F0001C60FFF720F834214DF21D60FFF71BF81C
:1041000002214DF21E60FFF716F867214DF21F6085
:10411000FFF711F802214DF22060FFF70CF884211F
:104120004DF22160FFF707F802214DF22260FFF700
:1041300002F8A4214DF22360FEF7FDFF02214DF2AB
:104140002460FEF7F8FFB7214DF22560FEF7F3FF7C
:1041500002214DF22660FEF7EEFFCF214DF22760DF
:10416000FEF7E9FF02214DF22860FEF7E4FFDE21B1
:104170004DF22960FEF7DFFF02214DF22A60FEF7C3
:10418000DAFFF2214DF22B60FEF7D5FF02214DF24E
:104190002C60FEF7D0FFFE214DF22D60FEF7CBFF25
:1041A00003214DF22E60FEF7C6FF10214DF22F6065
:1041B000FEF7C1FF03214DF23060FEF7BCFF332153
:1041C0004DF23160FEF7B7FF03214DF23260FEF78A
:1041D000B2FF6D214DF23360FEF7ADFF55214FF474
:1041E0007040FEF7A8FFAA214FF20100FEF7A3FFDF
:1041F00052214FF20200FEF79EFF08214FF203000A
:10420000FEF799FF00212800FEF795FFCC214FF41F
:104210003140FEF790FF00213000FEF78CFF0521B2
:104220004FF43640FEF787FF70214FF43740FEF71A
:1042300082FF70213800FEF77EFF01214FF43840E5
:10424000FEF779FF03214046FEF775FF032148463C
:10425000FEF771FF03214BF60300FEF76CFF02210E
:104260004FF43C40FEF767FF00215046FEF763FF26
:1042700000215846FEF75FFFD0214FF44940FEF77A
:104280005AFF02214CF60110FEF755FF50214CF663
:104290000210FEF750FF50214CF60310FEF74BFFC3
:1042A00050214CF60410FEF746FF00214FF4545005
:1042B000FEF741FF55214FF46850FEF73CFF4FF4E5
:1042C0008850FEF721FF782000F02DFC4FF4245099
:1042D000FEF71AFFA08845F21051884211D1DFF88D
:1042E00048050168090909010160016831F470613C
:1042F0000160016851F003010160016851F400712F
:104300000160012000F012F80120DFF8201508609C
:104310004FF6FF7000F0CFF80120DFF814150860A9
:1043200015B0BDE8F08F00002015010880B5DFF85A
:1043300004158871C0B2002819D1F02008804FF40C
:10434000A0704880888845F21052904228D14FF4DE
:10435000305008814FF4285048814FF42C50888108
:104360004FF4F07008804FF44870488018E04FF424
:10437000A0700880F0204880888845F21052904252
:104380000ED14FF4305008814FF4285048814FF43B
:104390002C5088814FF4487008804FF4F0704880AA
:1043A000062000F001F801BD38B500210022DFF839
:1043B0008444A379012B7DD145F21055A388AB42EB
:1043C00078D1C0B200280BD002280DD009D3042820
:1043D00010D00CD3062813D00FD3072813D014E025
:1043E00013E051F0800110E051F040010DE051F078
:1043F000C0010AE051F0200107E051F0600104E043
:1044000051F0A00101E051F0E001A088A84201D1E3
:104410004FF4585289B2100080B2FEF78CFEA0888B
:10442000A84247D16089FEF76FFE0020FEF773FEB9
:104430006089401C80B2FEF767FE0020FEF76BFE2D
:104440006089801C80B2FEF75FFE2088401E00124B
:1044500080B2FEF760FE6089C01C80B2FEF754FE99
:104460002088401E00F0FF00FEF755FEA089FEF7F1
:104470004BFE0020FEF74FFEA089401C80B2FEF7E5
:1044800043FE0020FEF747FEA089801C80B2FEF7A5
:104490003BFE6088401E001280B2FEF73CFEA08901
:1044A000C01C80B2FEF730FE6088401E00F0FF00A6
:1044B000FEF731FE31BD38B504000020DFF874038B
:1044C00005884088454300210020FEF73EFEFEF7A8
:1044D00037FE002003E0DFF860130C80401CA84288
:1044E000F9D331BD2DE9F84F0E001F00ADF8026081
:1044F0003900C9B2082391FBF3F403FB141100291E
:1045000001D0012100E000213B00DBB2082493FB35
:10451000F4F811EB08083900C9B2022391FBF3F15A
:1045200001FB08F8B2F120018DF800105FF00009DE
:1045300004000A9D01E019F1010948464146C0B254
:10454000C9B288427DD23800C0B20C280CD1DFF845
:10455000EC129DF800200C20424301EB020049467A
:10456000C9B210F801A02DE03800C0B210280AD15D
:10457000DFF8CC029DF80010090108444946C9B291
:1045800010F801A01EE03800C0B218280BD1AD49C8
:104590009DF800202420424301EB02004946C9B2A5
:1045A00010F801A00EE03800C0B220280DD1A649B5
:1045B0009DF800208020424301EB02004946C9B229
:1045C00010F801A05FF0000B0BE03AE0320092B26D
:1045D000BDF80200121A3800C0B2824227D01BF187
:1045E000010B5846C0B20828A5DA5FEA0A6008D570
:1045F00096480268310089B2200080B200F059F874
:104600000BE02800C0B2002807D1914802683100B1
:1046100089B2200080B200F04CF85FEA4A0A761CAA
:10462000844930004A8880B29042CFD309E0BDF877
:104630000260641C2000098880B28842FFF47BAFCE
:10464000FFE7BDE8F18F2DE9FC4705000E0091461C
:104650009A460A9C0B9FA84615EB090916EB0A0A15
:1046600011E0002000902300DBB23A78310089B2DB
:10467000280080B2FFF736FF2000C0B2022190FB75
:10468000F1F045197F1C387820385F280FD22800B8
:10469000494680B289B2884203D34546EDB256FA04
:1046A00084F63000514680B289B28842D9D3BDE841
:1046B000F387F8B504000D0016005E4FB88849F284
:1046C0004131884204D0B88845F2103188421AD16D
:1046D0007889FEF719FD200080B2000AFEF71BFD65
:1046E00004F0FF042000FEF716FDB889FEF70CFD6C
:1046F000280080B2000AFEF70EFD05F0FF05280035
:10470000FEF709FD60E0B88845F21051884224D1D7
:104710007889FEF7F9FC200080B2000AFEF7FBFC66
:104720007889401C80B2FEF7EFFC04F0FF04200003
:10473000FEF7F1FCB889FEF7E7FC280080B2000A1A
:10474000FEF7E9FCB889401C80B2FEF7DDFC05F0FD
:10475000FF052800FEF7DFFC36E0B88841F663115C
:10476000884231D1B879002802D13888401E041B14
:104770007889FEF7C9FC200080B2000AFEF7CBFC66
:1047800004F0FF00FEF7C7FC200080B2000AFEF72D
:10479000C2FC04F0FF042000FEF7BDFCB889FEF760
:1047A000B3FC280080B2000AFEF7B5FC05F0FF005C
:1047B000FEF7B1FC280080B2000AFEF7ACFC05F061
:1047C000FF052800FEF7A7FC3889224908801A480F
:1047D0000680F1BD2DE9F04104000F0090461D0058
:1047E000069E0020B8EB040818F1010809E0124900
:1047F0000E80401C0100424689B292B29142F6D32B
:104800007F1C2800390080B289B2884209D3390060
:1048100089B2200080B2FEF798FCFEF791FC0020E0
:10482000E8E7BDE8F08100001C0100A0BC82404226
:10483000B8024342EC6800208000006C90C8000879
:10484000BCA800083480000888010008000000208F
:10485000040000207E00006CF8B400220022002238
:10486000002337E0082704E0DFF8F8219042F9D16F
:104870000727FFB213F00302D2B2920097403E43E3
:104880001A00920845F82260DFF8DC512A68A2433A
:104890004E68F60300D522432A60DFF8D0512A681B
:1048A000A2434E68B60300D522432A60DFF8C05108
:1048B0002A68A2434E68F60200D522432A60DFF838
:1048C000B4512A68A2434E68B60201D514432200AF
:1048D0002A605B1C102B80F0AB80012515FA03F2D7
:1048E0000C6814409442F4D14A68022A02D04A6803
:1048F000122A17D11A00D20800EB8202166A0F277B
:1049000013F00702D2B292009740BE430F6913F032
:104910000702D2B2920097403E431A00D20800EB41
:1049200082021662076803261A00D2B2520016FAF3
:1049300002F2974391F804C01CF0030C1A00D2B2A3
:1049400052001CFA02FC5CEA070707604A68012A69
:1049500008D04A68022A05D04A68112A02D04A685B
:10496000122A19D187681A00D2B2520016FA02F23E
:104970009743D1F80CC01A00D2B252001CFA02FCC4
:104980005CEA0707876042689D40AA434D68C5F30B
:1049900000159D402A434260C5681A00D2B25200F9
:1049A0009640B5438E681A00D2B252009640354305
:1049B000C5604A68D2008CD5002200922E4A156844
:1049C00055F480451560126812F480420092009AF6
:1049D0002A4D1A00920855F822600F2713F003029F
:1049E000D2B292009740BE43254A904201D100279F
:1049F0003FE7244A904201D101273AE7224A9042F8
:104A000001D1022735E7214A904201D1032730E73F
:104A10001F4A904201D104272BE71E4A904201D140
:104A2000052726E71C4A90427FF41EAF062720E7A1
:104A3000F1BC7047D2B2002A02D089B2816102E093
:104A400089B209048161704780B514490A6803007E
:104A50009BB21A4205D0020092B20A6080B200F006
:104A60009EF901BD001C0240003C0140043C014095
:104A7000083C01400C3C01404438024008380140E9
:104A8000000002400004024000080240000C024006
:104A9000001002400014024000180240143C014083
:104AA00070B504000D001600002C01D1012024E097
:104AB00094F84900002805D1002084F8480020001F
:104AC000FEF771FB14F10801206800F06FF9A2688D
:104AD0002900206800F096F9236BA2683100606815
:104AE00000F0B2F92068A16850F8210050F00100F0
:104AF0002168A26841F82200002070BD24480168A6
:104B000051F080710160002022490860224801684C
:104B100051F001010160704780B54FF47A7148434C
:104B200000F001F801BD30B41A4C236800221B4983
:104B300009681B4DB1FBF5F1484301E02268D21A28
:104B40008242FBD330BC70470020704780B51548C7
:104B50000068002802D100F09BF917E00F480068B8
:104B6000800B0CE000BF00BF00BF00BF00BF00BF54
:104B700000BF00BF00BF00BF00BF00BF401E002835
:104B8000F0D109480168491C0160006802BD0000BD
:104B9000FCED00E0041000E0001000E05C040020E8
:104BA00040420F00600400200C6900200EB4C0B524
:104BB000024603A800210190009101AB01210448A5
:104BC00078440C3000F0CCF906BC5DF810FB00BF57
:104BD00075C7000081B00020ADF8000005E000BFFF
:104BE000BDF80000401CADF80000BDF800001E2814
:104BF000F5DB01B0704780B50A20FFF794FF01BDD7
:104C000070B50400FFF7E6FFFFF7E4FF002516E0AC
:104C10005FF000605C49086005E02006F8D54FF4BD
:104C2000006059490860564E10203060FFF7D2FFEF
:104C300064005FF480103060FFF7CCFF6D1C28002B
:104C4000C0B20828E9DB70BD70B50024FFF7C2FFD1
:104C5000002510E04A4E10203060FFF7BBFF6400D3
:104C60005FF4801030604A480068800600D5641CFC
:104C7000FFF7B0FF6D1C2800C0B20828EADB200057
:104C8000C0B270BD38B50C003E4D5FF40001296024
:104C900050F05000C0B2FFF7B3FF0020FFF7B0FFA5
:104CA0002000C0B2FFF7ACFF8020286031BD10B5F6
:104CB000344C5FF400012160C0B2FFF7A1FF8020F7
:104CC000206010BD80B501000800C0B2082806DAD7
:104CD000090151F00801C9B20120FFF7D3FF01BD5E
:104CE00038B50020274D5FF4000028600120FFF751
:104CF00087FFFFF780FFFFF7A7FF04002404FFF7FB
:104D0000A3FF14EB0024FFF79FFF54FA80F08021EB
:104D10002960010201D510F17F4032BD10B51B4C56
:104D200094F82400FFF7CEFF0520FFF7FCFEFC20DF
:104D3000FFF7BDFF0520FFF7F6FE0020FFF7B7FFE6
:104D40001920FFF7F0FE94F82400002803D1FFF7A4
:104D5000C7FF206205E0FFF7C3FF94F8241044F872
:104D6000210094F82400401C84F8240094F82400C6
:104D7000082802DB002084F8240010BD0000000099
:104D8000180002401808024018180240506800201D
:104D90001000024080B54020FFF756FE01BD80B5EF
:104DA00080B2402801D1FFF7B9FF01BD10B4002245
:104DB0000A6850F82230344A13404C688A68144319
:104DC000CA6814430A6914434A6914438A6914433C
:104DD000CA6914430A6A14434A6A14438A6A144328
:104DE000CA6A1443CA6B14430A6B144323438A6888
:104DF000082A01D153F04003096840F8213000200F
:104E000010BC704730B4002300EB82035B6813F0E2
:104E100040430C684D6854EA05148D6854EA052433
:104E2000CD6854EA05440D696D1E54EA05544D6978
:104E3000AD1E54EA056489690C43234300EB8200EC
:104E40004360002030BC704730B40024B3F5804F7D
:104E500013D150F822400D4B1C400B684D6853EAAB
:104E600005138D6853EA0523CD6853EA0543896924
:104E70000B431C4340F8224003E07FF0704140F8B0
:104E80002210002030BC70478000F0FF0000F0CFFF
:104E90007CB500200090EFF3108472B626480568B8
:104EA000264B1868002842D02549096889053ED557
:104EB00024490968EFF305821143234A1268002947
:104EC00006D1D16AD66B360456F00046314309E06C
:104ED000B1F1F03F03D211005FF0FF3202E05FF06A
:104EE000F032002102604160782181601749096831
:104EF000C160056169464161002181610021C16194
:104F000020301349096888420DD3124800681860A0
:104F100011490A681062114A1068002807D0086811
:104F20001168884703E018600B490968086284F338
:104F30001088280076BD00BFA8690020F069002015
:104F4000F4690020600400207C690020041000E067
:104F5000EC690020E8690020DC690020F869002085
:104F60002DE9F14FB0B0924604910DF142013A9A09
:104F70002B9199464A7000200AE01AF8011B049808
:104F8000309A90470028049000F0B4860D98401C99
:104F90000D909AF8000050B12528EED10021002292
:104FA0000791089209910A920B910C9204E00D98D6
:104FB00000F0A2BE41F001011AF8010F2028F9D03B
:104FC00023280CD02B2804D02D2805D0302809D038
:104FD0000BE041F00201EFE741F00401ECE741F0A2
:104FE0000801E9E741F01001E6E72A280FD1D9F8D6
:104FF000002052F8040BC9F8002000280F9003D5B8
:1050000040420F9041F004010AF1010A14E00F92AE
:10501000DFF824380AE00F98984205DA00EB8004A4
:1050200002EB4402303A0F920AF1010A9AF800208A
:10503000A2F130000A28EED39AF800002E2803D0FF
:105040004FF0FF320E9229E01AF8010F2A2809D1F9
:10505000D9F8000050F8042BC9F800000E920AF1AC
:10506000010A1BE02D280CBF0AF1010A00200022D2
:105070000E92DFF8C4470BE040B90E9AA24205DA5F
:1050800002EB820503EB4503303B0E930AF1010A64
:105090009AF80030A3F130020A2AEDD3ADF840109F
:1050A000DFF89807784400F294709AF8001000F046
:1050B00055FF08B11AF8010B8DF842009DF8420027
:1050C000682805D19AF8000068280CD1622106E012
:1050D0006C2804BF9AF800006C2804D171218DF867
:1050E00042100AF1010A12A806901AF801BBBBF19E
:1050F00025012CD01C3900F0D081091F022940F273
:10510000CC81133900F02185093900F0C681891E50
:1051100000F0B685491E00F06385491E022940F261
:10512000BC81091F00F05C85491F00F02881491EE1
:1051300000F00B85491E00F0D080C91E0DD0891EDD
:1051400000F00385C91E00F0008500F0A4BD2523F2
:105150008DF84830012100F0A9BDD9F8000050F8C1
:10516000044BC9F80000002C059440F0A3802B9953
:105170004878002800F099804FF0FF340FF6803017
:1051800000F004FF201A40F0B58500F090BD6D1EC0
:1051900040F0A7853096079D12AF75B1309E17F885
:1051A000012B02A9304600F071FE002801D46D1ECB
:1051B000F5D10028309640F09D850A9D3020002DC5
:1051C0008DF804000CDD309E012301AA02A93046AF
:1051D00000F06CFE002840F08D856D1EF4D13096F5
:1051E000059F089D75B1309E17F8012B02A9304626
:1051F00000F04CFE002801D46D1EF5D10028309639
:1052000040F078850B9D3020002D8DF804000CDDDA
:10521000309E012301AA02A9304600F047FE002873
:1052200040F068856D1EF4D1309605980899099D67
:10523000471875B1309E17F8012B02A9304600F0CF
:1052400025FE002801D46D1EF5D10028309640F0CF
:1052500051850C9D3020002D8DF804000CDD309E12
:10526000012301AA02A9304600F020FE002840F0E8
:1052700041856D1EF4D130969DF8400041077FF5C1
:1052800088AE2020002C8DF804007FF782AE309D80
:10529000012301AA02A9284600F008FE002840F0D8
:1052A0002985641EF4D1309573E60FF660400590B1
:1052B00000F0FDBC0E9D002D04D5204600F086FEBA
:1052C000044607E02A46204600F09CFE002814BF52
:1052D000041B2C46089400F0EABCD9F8001051F8E1
:1052E000040BC9F8001020F00004002121F0FF3564
:1052F00012ABCDE902450593DDE9022306993C2472
:1053000013B90AB90E9898B102F00F053035641E32
:10531000EEB23A2EA8BF2735120942EA03721B09E2
:105320000D5508BF002A03D005980D19A842EBD3EC
:1053300008190590C4F13C020E98089282420ADADC
:10534000BDF84010821A4FF6EF7001400A92ADF896
:10535000401000F0ACBC002840F1A9849DF840004A
:1053600000F01400102840F0A2840F9B07990A98BF
:105370005B1A1B1A9A1A002A40F39984E3E32B99CB
:10538000487820B14FF0FF340FF65030F8E69DF822
:105390004200622861D0682817D06A283FD06C2864
:1053A00006D0712847D074282CD07A281DD064E00C
:1053B000D9F8001051F8040BC9F80010002868D182
:1053C0004FF0FF340FF62C30DAE6D9F8001051F820
:1053D000040BC9F8001020B94FF0FF340FF6143059
:1053E000CEE60D99018000F062BCD9F8001051F8AA
:1053F000040BC9F8001000284BD14FF0FF340FF612
:10540000F420BDE6D9F8001051F8040BC9F80010DB
:1054100000283ED14FF0FF340FF6D820B0E6D9F87F
:10542000001051F8040BC9F8001080B94FF0FF3498
:105430000FF6C020A4E6D9F8001051F8040BC9F803
:10544000001020B94FF0FF340FF6A82098E60D9A0F
:10545000D317C0E9002300F02ABCD9F8001051F896
:10546000040BC9F8001020B94FF0FF340FF6842068
:1054700086E60D99017000F01ABCD9F8001051F8B9
:10548000040BC9F8001020B94FF0FF340FF6642068
:1054900076E60D99016000F00ABCD9F80020D21D13
:1054A00022F00702C9F80020D2E900010832C9F849
:1054B0000020CDE90201C80F02D007982D210AE093
:1054C000BDF84000810702D507982B2103E0C007F3
:1054D00005D50798202112AA1154401C079012A844
:1054E00007994BF020024318DDE90201CDE92C01B8
:1054F000612A059321AC0BD00E98002802D5062016
:105500000E9005E001BF4BF02000672801210E91AD
:10551000DDE9020148004015401C0A460DD109038F
:105520000BD0ABF1610503201A2D089002D20FF6C3
:10553000E0110DE00FF6DC110AE070B912030CD196
:10554000ABF1610503201A2D08901AD30FF6CC1188
:105550000322184600F082FDA9E3DDE90201CDE94E
:105560002E01DDE92E2323F00047B7F5801F22F03E
:1055700000060DD20022002F08BF002E009203D19A
:1055800016E00FF69411E3E76A4600F0BBFD0FE06A
:10559000DFF8D808DFF8D81800EB17500090DDE9E5
:1055A0002E234FF0FF301940DFF8C8781040394300
:1055B000CDE902014BF0200061280DD10598302182
:1055C0000170821CBBF1610F05920CBF782158213C
:1055D00041700798801C0790DDE9020120F000026D
:1055E00031F0004308BF002A02D10026002567E100
:1055F0004BF02008B8F1610F40F0B4800E980028FD
:1056000047BF21210191401C0190019FDDE92C0140
:105610007F1C00220023DDE9024500F0ABFD00996C
:105620008DF8842038BF85F00045091F002F0091B8
:105630000DF1850653DD204629460022002300F0A7
:10564000B1FD4CD24800400D00F11C0312D0002BDC
:1056500010DD40F2FF70834206DBDFF81C1805F016
:1056600000421143002011E06FF31E5141EA035143
:1056700020460BE024F0000035F0004108BF002870
:105680000FBF29461C22294600F0A4FD04460D4602
:1056900000F03EFEFF1F002F804609DD00F056FEA1
:1056A00002460B462046294600F062FE04460D469F
:1056B000F01D0721B8F1000F0CDD491E5EBF08F098
:1056C0000F0200F8012D4FEA2818F3D502E000225E
:1056D00000F8012D491EFAD5C61D002FABDC0DF1D7
:1056E0008500361A01988642D8BF304600280DF151
:1056F000850430D4B04206DA0DF185010A5C082A2F
:10570000A8BF0F2100DA0021024621AB134400E0BC
:10571000401E13F80159521E8D42F9D00F2904D1B1
:105720000DF185018B5C5B1C8B54002A04D500991C
:10573000091D21AC401C0091411E0CD46218ABF134
:105740003A0613783033DDB23A2DA8BFF318491E5C
:1057500002F80139F5D50E99002940F1AF80421EBB
:105760000E92ABE00099DFF8142747F297504143BF
:1057700091FBF2F2DDE92C45009225F00045D2F1D3
:10578000070204DD2046294600F04DFB0BE05242A3
:105790000020DFF8EC1600F046FB02460B462046E0
:1057A000294600F057FE0446B8F1660F0E9806BF72
:1057B000009F0A3706273F18142FC8BF1427302030
:1057C0000D468DF884000DF18506002F38DD20464A
:1057D000294600F063FF01460A4606F1080304204B
:1057E0000A26B2FBF6F606EB860EA2EB4E0230322C
:1057F00003F8012C0A22B6FBF2F202EB820EA6EBB2
:105800004E063036401E03F8026DE9D1083F002FE6
:1058100003F10806D9DD084600F054FF02460B46A6
:105820002046294600F0A4FD0022DFF8583600F09B
:1058300057FF04460D46CAE7CBCCCC0C8CBD00000C
:105840000DF18500361A0DF1850404E00098401E24
:10585000761E0090641C20783028F7D0B8F1660FCF
:1058600002D10099491C04E0B8F1650F0CBF012179
:1058700000210E9808188642B8BF701E00281DD45B
:10588000B04204DA215C3429C8BF392100DC302160
:105890000246631E9D1800E0401E15F80169521E65
:1058A0008E42F9D0392902D1A15C491CA154002AA9
:1058B00004D50099491C1C46401C00910646009DD9
:1058C00000F0E0FF406A0778DDF8388030B2002849
:1058D00002DC01260FF248644BF02000662808BF66
:1058E0006D1C16D0672846D128B210F1040F48DB92
:1058F000404546DA9DF840006D1C010703D430B2E4
:105900004045B8BF804628B2B8EB000848BF4FF00A
:1059100000080FFA85FBBBF1000F00F3B580089873
:10592000411C0891302205990A54B8F1000F03DC9C
:105930009DF84000010704D50898411C089105997D
:105940000F5418EB0B0FB8BFC8F100052DB2684219
:105950000B90A84432B29045B8BF4646059B0898C4
:1059600036B2099632462146184400F077FBA8EB80
:1059700006000C90D2E0BBF1610F17D14FF0700B15
:1059800019E030B2404504DA9DF840100A0758BFCC
:105990008046B8F1010848BF4FF00008BBF1670F1F
:1059A00014BF4FF0450B4FF0650B04E0BBF1410F06
:1059B00008BF4FF0500B0898411C0891B8F1000F38
:1059C000059914F8012B0A5403DC9DF840000107E7
:1059D0001AD50898411C0891B8F1000F05990F5489
:1059E00012DD761E30B280450598089BB8BF46464A
:1059F00032B22146184400F031FB089936B27118D2
:105A00000891A8EB06000B9005980899084429B264
:105A1000002980F800B003D42B224270821C04E0DD
:105A20002D2242700D46821C6D4200212CAB28466F
:105A30000AE004460A2094FBF0F000EB8005A4EB9A
:105A4000450403F8014B491C00B20028F1DC012990
:105A500006DC4BF02000652804BF302002F8010B63
:105A600000292CAB08D1302002F8010B06E0491EBA
:105A7000585C303002F8010B0029F8DC05990898D1
:105A80000844121A099249E030B229B288421CDA5D
:105A90000598089B32B22146184400F0DFFA0899B5
:105AA00036B27118ABEB0606B8F1000F08910B96F1
:105AB00003DC9DF84000020704D505984754099976
:105AC000491C0991CDF8308028E00598089B2AB23E
:105AD0002146184400F0C2FA0898761B5844B8F1E1
