:020000040800F2
:100000007069002065A50008D5A5000881A4000836
:10001000D7A50008D9A50008DBA50008000000004E
:10002000000000000000000000000000DDA5000846
:10003000DFA5000800000000DD970008679D0008AC
:1000400001A6000805A6000809A600080DA60008DC
:1000500011A6000815A6000819A600081DA600088C
:1000600021A6000825A6000829A600082DA600083C
:1000700031A6000835A6000839A60008B7340008E4
:100080003DA6000841A6000845A6000849A60008AC
:10009000274600084DA6000851A6000855A60008EE
:1000A00059A600085DA6000861A6000865A600081C
:1000B000CB290008C334000869A600086DA6000813
:1000C00071A6000875A6000879A600087DA600089C
:1000D00081A60008AB650008B5650008BF6500088B
:1000E00085A6000889A600088DA6000891A600082C
:1000F00095A6000899A600089DA60008A1A60008DC
:10010000A5A60008757C0008A9A60008ADA60008F1
:10011000B1A60008B5A60008B9A60008BDA600084B
:10012000C1A60008C5A60008C9A600088B7C000867
:10013000CDA60008D1A60008D5A60008D9A60008BB
:10014000DDA60008E1A60008E5A60008E9A600086B
:10015000EDA600087F7C0008F1A60008F5A60008BF
:10016000F9A60008FDA6000801A7000805A70008D9
:1001700009A700080DA7000811A70008000000004B
:1001800015A7000819A700082DE9F14FB0B0924655
:1001900004910DF142013A9A2B9199464A70002040
:1001A0000AE01AF8011B0498309A9047002804903E
:1001B00000F0B4860D98401C0D909AF8000050B1E4
:1001C0002528EED1002100220791089209910A9278
:1001D0000B910C9204E00D9800F0A2BE41F00101D9
:1001E0001AF8010F2028F9D023280CD02B2804D08E
:1001F0002D2805D0302809D00BE041F00201EFE7AF
:1002000041F00401ECE741F00801E9E741F0100199
:10021000E6E72A280FD1D9F8002052F8040BC9F8D4
:10022000002000280F9003D540420F9041F00401B8
:100230000AF1010A14E00F92DFF824380AE00F985F
:10024000984205DA00EB800402EB4402303A0F9248
:100250000AF1010A9AF80020A2F130000A28EED330
:100260009AF800002E2803D04FF0FF320E9229E0BA
:100270001AF8010F2A2809D1D9F8000050F8042BE8
:10028000C9F800000E920AF1010A1BE02D280CBFEC
:100290000AF1010A002000220E92DFF8C4470BE0A9
:1002A00040B90E9AA24205DA02EB820503EB450340
:1002B000303B0E930AF1010A9AF80030A3F13002A4
:1002C0000A2AEDD3ADF84010DFF89807784400F221
:1002D00094709AF8001000F055FF08B11AF8010B5D
:1002E0008DF842009DF84200682805D19AF8000078
:1002F00068280CD1622106E06C2804BF9AF800003F
:100300006C2804D171218DF842100AF1010A12A85B
:1003100006901AF801BBBBF125012CD01C3900F066
:10032000D081091F022940F2CC81133900F02185C8
:10033000093900F0C681891E00F0B685491E00F01B
:100340006385491E022940F2BC81091F00F05C85CB
:10035000491F00F02881491E00F00B85491E00F05E
:10036000D080C91E0DD0891E00F00385C91E00F083
:10037000008500F0A4BD25238DF84830012100F050
:10038000A9BDD9F8000050F8044BC9F80000002CB2
:10039000059440F0A3802B994878002800F09980BC
:1003A0004FF0FF340FF6803000F004FF201A40F0C9
:1003B000B58500F090BD6D1E40F0A7853096079D75
:1003C00012AF75B1309E17F8012B02A9304600F02C
:1003D00071FE002801D46D1EF5D10028309640F042
:1003E0009D850A9D3020002D8DF804000CDD309E87
:1003F000012301AA02A9304600F06CFE002840F05B
:100400008D856D1EF4D13096059F089D75B1309E87
:1004100017F8012B02A9304600F04CFE002801D449
:100420006D1EF5D10028309640F078850B9D302068
:10043000002D8DF804000CDD309E012301AA02A9D5
:10044000304600F047FE002840F068856D1EF4D16C
:10045000309605980899099D471875B1309E17F890
:10046000012B02A9304600F025FE002801D46D1EA4
:10047000F5D10028309640F051850C9D3020002D9C
:100480008DF804000CDD309E012301AA02A930463C
:1004900000F020FE002840F041856D1EF4D130961A
:1004A0009DF8400041077FF588AE2020002C8DF894
:1004B00004007FF782AE309D012301AA02A92846DD
:1004C00000F008FE002840F02985641EF4D1309524
:1004D00073E60FF66040059000F0FDBC0E9D002D08
:1004E00004D5204600F086FE044607E02A46204652
:1004F00000F09CFE002814BF041B2C46089400F05A
:10050000EABCD9F8001051F8040BC9F8001020F02B
:100510000004002121F0FF3512ABCDE9024505931F
:10052000DDE9022306993C2413B90AB90E9898B163
:1005300002F00F053035641EEEB23A2EA8BF273503
:10054000120942EA03721B090D5508BF002A03D0A5
:1005500005980D19A842EBD308190590C4F13C0287
:100560000E98089282420ADABDF84010821A4FF6BD
:10057000EF7001400A92ADF8401000F0ACBC0028CA
:1005800040F1A9849DF8400000F01400102840F0CC
:10059000A2840F9B07990A985B1A1B1A9A1A002AC1
:1005A00040F39984E3E32B99487820B14FF0FF346E
:1005B0000FF65030F8E69DF84200622861D06828B6
:1005C00017D06A283FD06C2806D0712847D07428ED
:1005D0002CD07A281DD064E0D9F8001051F8040B13
:1005E000C9F80010002868D14FF0FF340FF62C3006
:1005F000DAE6D9F8001051F8040BC9F8001020B958
:100600004FF0FF340FF61430CEE60D99018000F064
:1006100062BCD9F8001051F8040BC9F8001000288A
:100620004BD14FF0FF340FF6F420BDE6D9F800109F
:1006300051F8040BC9F8001000283ED14FF0FF34E8
:100640000FF6D820B0E6D9F8001051F8040BC9F81D
:10065000001080B94FF0FF340FF6C020A4E6D9F89F
:10066000001051F8040BC9F8001020B94FF0FF3406
:100670000FF6A82098E60D9AD317C0E9002300F0E2
:100680002ABCD9F8001051F8040BC9F8001020B9A1
:100690004FF0FF340FF6842086E60D99017000F0CC
:1006A0001ABCD9F8001051F8040BC9F8001020B991
:1006B0004FF0FF340FF6642076E60D99016000F0EC
:1006C0000ABCD9F80020D21D22F00702C9F8002088
:1006D000D2E900010832C9F80020CDE90201C80FB3
:1006E00002D007982D210AE0BDF84000810702D50D
:1006F00007982B2103E0C00705D50798202112AAEF
:100700001154401C079012A807994BF0200243187F
:10071000DDE90201CDE92C01612A059321AC0BD062
:100720000E98002802D506200E9005E001BF4BF080
:100730002000672801210E91DDE9020148004015E3
:10074000401C0A460DD109030BD0ABF16105032013
:100750001A2D089002D20FF6E0110DE00FF6DC1111
:100760000AE070B912030CD1ABF1610503201A2D18
:1007700008901AD30FF6CC110322184600F082FD20
:10078000A9E3DDE90201CDE92E01DDE92E2323F005
:100790000047B7F5801F22F000060DD20022002F7F
:1007A00008BF002E009203D116E00FF69411E3E784
:1007B0006A4600F0BBFD0FE0DFF8D808DFF8D81874
:1007C00000EB17500090DDE92E234FF0FF30194069
:1007D000DFF8C87810403943CDE902014BF0200022
:1007E00061280DD1059830210170821CBBF1610F89
:1007F00005920CBF7821582141700798801C079002
:10080000DDE9020120F0000231F0004308BF002AB8
:1008100002D10026002567E14BF02008B8F1610FF6
:1008200040F0B4800E98002847BF21210191401C60
:100830000190019FDDE92C017F1C00220023DDE9EE
:10084000024500F0ABFD00998DF8842038BF85F09B
:100850000045091F002F00910DF1850653DD20464C
:1008600029460022002300F0B1FD4CD24800400D83
:1008700000F11C0312D0002B10DD40F2FF70834208
:1008800006DBDFF81C1805F000421143002011E0E0
:100890006FF31E5141EA035120460BE024F00000A3
:1008A00035F0004108BF00280FBF29461C22294609
:1008B00000F0A4FD04460D4600F03EFEFF1F002F91
:1008C000804609DD00F056FE02460B4620462946CA
:1008D00000F062FE04460D46F01D0721B8F1000F3E
:1008E0000CDD491E5EBF08F00F0200F8012D4FEA33
:1008F0002818F3D502E0002200F8012D491EFAD590
:10090000C61D002FABDC0DF18500361A019886421A
:10091000D8BF304600280DF1850430D4B04206DA45
:100920000DF185010A5C082AA8BF0F2100DA002119
:10093000024621AB134400E0401E13F80159521E39
:100940008D42F9D00F2904D10DF185018B5C5B1C20
:100950008B54002A04D50099091D21AC401C00913C
:10096000411E0CD46218ABF13A0613783033DDB275
:100970003A2DA8BFF318491E02F80139F5D50E9992
:10098000002940F1AF80421E0E92ABE00099DFF8E3
:10099000142747F29750414391FBF2F2DDE92C45D1
:1009A000009225F00045D2F1070204DD20462946D9
:1009B00000F04DFB0BE052420020DFF8EC1600F097
:1009C00046FB02460B462046294600F057FE0446E9
:1009D000B8F1660F0E9806BF009F0A3706273F182A
:1009E000142FC8BF142730200D468DF884000DF158
:1009F0008506002F38DD2046294600F063FF0146BA
:100A00000A4606F1080304200A26B2FBF6F606EBB6
:100A1000860EA2EB4E02303203F8012C0A22B6FBFE
:100A2000F2F202EB820EA6EB4E063036401E03F8C1
:100A3000026DE9D1083F002F03F10806D9DD084611
:100A400000F054FF02460B462046294600F0A4FD64
:100A50000022DFF8583600F057FF04460D46CAE77B
:100A6000CBCCCC0C949B00000DF18500361A0DF117
:100A7000850404E00098401E761E0090641C2078D7
:100A80003028F7D0B8F1660F02D10099491C04E074
:100A9000B8F1650F0CBF012100210E98081886429D
:100AA000B8BF701E00281DD4B04204DA215C34297E
:100AB000C8BF392100DC30210246631E9D1800E0CA
:100AC000401E15F80169521E8E42F9D0392902D113
:100AD000A15C491CA154002A04D50099491C1C465C
:100AE000401C00910646009D00F0E0FF406A077838
:100AF000DDF8388030B2002802DC01260FF24864AD
:100B00004BF02000662808BF6D1C16D0672846D120
:100B100028B210F1040F48DB404546DA9DF840004A
:100B20006D1C010703D430B24045B8BF804628B2DF
:100B3000B8EB000848BF4FF000080FFA85FBBBF187
:100B4000000F00F3B5800898411C089130220599E8
:100B50000A54B8F1000F03DC9DF84000010704D5EA
:100B60000898411C089105990F5418EB0B0FB8BF5A
:100B7000C8F100052DB268420B90A84432B29045EE
:100B8000B8BF4646059B089836B2099632462146BC
:100B9000184400F077FBA8EB06000C90D2E0BBF104
:100BA000610F17D14FF0700B19E030B2404504DAF5
:100BB0009DF840100A0758BF8046B8F1010848BFA9
:100BC0004FF00008BBF1670F14BF4FF0450B4FF01B
:100BD000650B04E0BBF1410F08BF4FF0500B0898C4
:100BE000411C0891B8F1000F059914F8012B0A5423
:100BF00003DC9DF8400001071AD50898411C0891B4
:100C0000B8F1000F05990F5412DD761E30B2804501
:100C10000598089BB8BF464632B22146184400F0FA
:100C200031FB089936B271180891A8EB06000B90B9
:100C300005980899084429B2002980F800B003D427
:100C40002B224270821C04E02D2242700D46821C31
:100C50006D4200212CAB28460AE004460A2094FB92
:100C6000F0F000EB8005A4EB450403F8014B491CB0
:100C700000B20028F1DC012906DC4BF020006528D9
:100C800004BF302002F8010B00292CAB08D1302022
:100C900002F8010B06E0491E585C303002F8010BE7
:100CA0000029F8DC059908980844121A099249E0CD
:100CB00030B229B288421CDA0598089B32B221462C
:100CC000184400F0DFFA089936B27118ABEB06064B
:100CD000B8F1000F08910B9603DC9DF84000020765
:100CE00004D5059847540999491C0991CDF83080DD
:100CF00028E00598089B2AB22146184400F0C2FA61
:100D00000898761B5844B8F1000F089003DC9DF852
:100D100040100A0703D5411C089105990F5430B2C1
:100D200080450598089BB8BF464632B204EB0B01DC
:100D3000184400F0A7FA089836B230180890A8EBCB
:100D400006000B909DF8400000F01400102840F0C1
:100D5000C280079A08990B988A18099982180C98EA
:100D60008A1882180F98824280F2B580821A0A92FD
:100D7000B1E09DF84200622808D068280ED06A28A9
:100D800014D06C281FD0712810D01CE0D9F80010A6
:100D900051F8040BC9F80010C0B21AE0D9F80010DD
:100DA00051F8040BC9F8001080B212E0D9F8002005
:100DB000D21D22F00702C9F80020D2E90001083252
:100DC000C9F8002006E0D9F8001051F8040BC9F862
:100DD00000100021CDE902019DF8400001075AD51D
:100DE000DDE90223002B08BF002A54D04BF020007D
:100DF000782850D1079812A930220A54401C431C6D
:100E0000079301F800B046E09DF84200622808D040
:100E100068280ED06A2814D06C281FD0712810D0F2
:100E20001CE0D9F8001051F8040BC9F8001040B2CA
:100E30001AE0D9F8001051F8040BC9F8001000B2FC
:100E400012E0D9F80020D21D22F00702C9F80020D4
:100E5000D2E900010832C9F8002006E0D9F80010F4
:100E600051F8040BC9F80010C117CDE9020100299F
:100E700002D507982D210AE0BDF84000810702D570
:100E800007982B2103E0C00705D50798202112AA57
:100E90001154401C079012A807990144059102A81B
:100EA000594600F04FF816E001200790D9F80000ED
:100EB00050F8041BC9F800008DF848100BE02521FC
:100EC0000122BBF1000F8DF84810079203D08DF876
:100ED00049B0022107910F9A07980A990C9C121A9F
:100EE0000898521A0B99121A0998521A121A9DF858
:100EF0004000141B41073FF562AA2020002C8DF80A
:100F000004007FF75CAA309E2546012301AA02A9AE
:100F1000304600F0DFF800283FF44DAA4FF0FF30D4
:100F200031B0BDE8F08F00007072696E74665F7357
:100F30003A2062616420257320617267756D656E69
:100F4000740000002DE9FC4307466F293E6908BF85
:100F5000082405D041F02000782814BF0A2410246A
:100F60003C25D7E90023642918BF69299046994692
:100F700005D1002B03D5D8F1000869EB4909B9F177
:100F8000000F08BFB8F1000F0CD1386B50B9082C16
:100F900039D197F83800010735D530203B2586F840
:100FA0003B0030E08DF80010404649462246E317EA
:100FB00000F080FD3032D0B26D1E3A28019504DB7E
:100FC0009DF80000A0F151018A187255404649462B
:100FD0002246E31700F06EFD80465FEA010908BF74
:100FE000B8F1000F03D0F86871198842DCD3082CDF
:100FF00009D197F83800010705D5705D302802D077
:101000006D1E30207055C5F13C02BA617119F9604E
:10101000386B824208DA821A3A624FF6EF70398FE3
:1010200001403987BDE8F38300280ED597F83800D2
:1010300000F01400102808D17B6B7969386A5B1ABC
:101040001B1A9A1A002AC8BF3A62BDE8F3832DE939
:10105000D04306460F4614464FF00008DFF8509084
:1010600012E0E00707D542464B463046394600F0CD
:101070004BFC06460F464046494642464B4600F06A
:1010800043FC641080468946002CEAD1304639463C
:10109000BDE8D08302FCFFFFFFFF0F800000E03FB0
:1010A0000000F07FA08601000000F03F84D7974148
:1010B0000000244010B503460C461146A06898472E
:1010C000A06020B1E06A401CE062002010BD4FF03B
:1010D000FF3010BDF8B505460E4617461C460020E9
:1010E0005CB117F8011BB068A847B06030B1F06A76
:1010F000401CF0620020641EF3D1F2BD4FF0FF30BF
:10110000F2BD00007072696E74665F733A20256EDE
:1011100020646973616C6C6F776564007072696ECE
:1011200074663A2062616420256E20617267756D75
:10113000656E7400000000006E616E004E414E004E
:10114000696E6600494E4600300030B4002513E059
:1011500050F8042BD30744BFA9F101039A18091FC3
:10116000042942F8045BFAD213468C0744BF158069
:101170009B1CC90748BF1D7050F8041B0029E7D10C
:1011800030BC7047C9B202788A421AB11CBF10F84D
:10119000012FF9E718BF002070478268521C826057
:1011A000426832B10268531C036011704168491EE5
:1011B0004160704780B500B906A005490B681BB1B6
:1011C00022220021984701E000F08CFD222002BD80
:1011D00060650020636F6E73747261696E7420685D
:1011E000616E646C65723A20626164206D65737330
:1011F0006167650000F10103810704D010F8011B4D
:10120000820781B1FAD10268A2F10131914311F054
:10121000803104BF50F8042FF6E709BAB1FA81F122
:1012200000EBD100401CC01A70472E00C9B28307E2
:1012300006D0521E22D310F8013B9942F7D11FE08D
:10124000083A13D302F1040241EA012141EA0141C3
:1012500050F8043B121F21BF4B40A3F1013C2CEA84
:10126000030C1CF0803FF3D0C9B2001F083210F805
:10127000013B521E28BF91EA030FF8D818BF012086
:10128000401E704762B38B0708D0521E11F8013B15
:1012900000F8013B00F024808B07F6D1830740F073
:1012A000208000BF103A07D330B4B1E83810103AAC
:1012B000A0E83810F9D230BC530724BFB1E80810B9
:1012C000A0E8081044BF51F8043B40F8043BD207A3
:1012D00024BF31F8022B20F8022B44BF0B78037097
:1012E0007047121F17D35B0009D151F8043B20F857
:1012F000023B1B0C121F20F8023BF6D20BE051F808
:10130000043B00F8013B1B0A20F8023B1B0C121F98
:1013100000F8013BF3D238BF121D521E24BF11F852
:10132000013B00F8013BF8D87047000010B51446A7
:1013300000F002F8226010BDC1F30A5343B14A0025
:1013400012F5001F28D2A3F2FE32A1EB0251704722
:1013500050EA410C20D001F0004C31EA0C01B1FA06
:1013600081F204BFB0FA80F3D2180B3AB2F1200335
:101370002CBF00FA03F1914041EA0C013EBFC2F1DB
:10138000200C20FA0CF319439040524240F2FD33F6
:10139000D21A01EB03517047002270474FF4001C32
:1013A0001CEB410F94BF1CEB430F09E041EA030C17
:1013B00050EA4C0C52EA0C0C03D2994208BF9042FE
:1013C000704714BF8B428242704700004FF4001CEC
:1013D0001CEB410F94BF1CEB430F09E041EA030CE7
:1013E00050EA4C0C52EA0C0C03D28B4208BF8242EA
:1013F000704714BF9942904270470000124254D483
:1014000040F2FF7C1CEA11530FD0634531D09B188A
:1014100063453CBF01EB0251704701F0004141EAD6
:101420000C510020AFF30080704750EA410320D0F8
:1014300001F0004C91EA0C011CD0B1FA81F30B3B96
:101440009A420DD9D21A994051EA0C01C3F1200CED
:1014500020FA0CFC61449840531C40F2FF7CD7E713
:10146000914041EA0C01C2F1200C20FA0CF319431F
:1014700090407047B0FA80F31533202BE0D3202A38
:10148000EED3203A203B9A4209D9D21A00FA03F14E
:1014900041EA0C010020531C40F2FF7CB8E700FA3F
:1014A00002F141EA0C0100207047524240F2FF7CF9
:1014B0001CEA11530DD06345DBD0B2EB030C3CBFEB
:1014C000A1EB025170470CF1010221EA035141F4F2
:1014D000801150EA410CCCD001F0004C352A27DCB9
:1014E00030B481EA0C01B2F1200309DAC2F1200321
:1014F000044601FA03F5D0402843D1409C400CE05B
:10150000C3F12002450020FA03F418BF44F001049F
:1015100021FA03F091400C43002174F1004550F191
:10152000000051EB0C01244230BC7FF47BAF7047CC
:101530006146002076E70000C1F30A5340F2FE3214
:101540009B1A14DDD3F120034FEAE17208DDC902D2
:1015500041EA505141F00040D84080185040704757
:1015600003F2E13010B1D24382F000407047002016
:1015700070470000C11768B14840401AB0FA80F2C5
:101580009040D21CC907C2F5846241EA025202EBC4
:10159000D02140057047000070B44FF0004591EA3B
:1015A000030F40F1A3836B40841A71EB030603D24F
:1015B000001BB141121973414FF4001C1CEB410F89
:1015C00034BF7CEB430442E00C0DA4EB1356352EE4
:1015D0004FDC45EAC323DB0A45EAC121C912B6F153
:1015E00020050DDD63FA05F6EB4086EA030512429D
:1015F00018BF45F00105C01851F100010CD213E0ED
:1016000062FA06F5F2405540F3415A40B340F340C8
:101610005A408018594107D349085FEA30005FEA11
:10162000350528BF45F0010501F58011420875F127
:10163000004250F1000041EB04514E0016F5001F2E
:1016400070BC38BF70470020090D090570471CEBBE
:10165000410F10D252EA43060BD0BCEB410F05D824
:101660000C0DAB43661E342EB6DD02E0AB43801892
:10167000594170BC704770BC70470000F0B540F233
:10168000FF7581EA030C0CF0004C15EA11541DBFE4
:1016900015EA1357AC42AF42E5E0BC41C1F3130178
:1016A000C3F31303801A994143F4801304D2641ED8
:1016B0004000494180185941C90241EA5051B1FBEB
:1016C000F3F603FB1611A2FB0675D7EBC020A94168
:1016D00002D2761E80185941C90241EA5051B1FB2D
:1016E000F3FE03FB1E11A2FB0E75D7EBC020A94130
:1016F00003D2AEF1010E80185941890241EA90519E
:10170000760546EA8E2EB1FBF3F603FB1611A2FB1B
:101710000675D7EB8020A94102D2761E8018594168
:10172000C90241EA50514EEA060EB1FBF3F603FB43
:101730001611A2FB0675D7EBC020A94102D2761E76
:1017400080185941C90241EA5051B1FBF3F703FB3C
:101750001711A2FB0735D3EBC020A94167F10007A1
:101760000CBF004247F0010766F3D5274FEA1E3150
:10177000B80814F5806412DDBD0775F1004250EB26
:101780000E5051EB045111F5801F5CBF41EA0C0172
:10179000F0BD4CF07F6141F0E0410020F0BDBD079D
:1017A0006D0840EA0E5041F48011D4F10104B4F107
:1017B00020060ADAC4F120060200E04001FA06F32E
:1017C000E1401843B24015430EE0342C13DCC6F15F
:1017D000200445EA40056D0820FA06F2154321FA77
:1017E00006F0A1400D43002175F1004250F10000C8
:1017F00051EB0C01F0BD00205FEA0C01F0BDCFB948
:1018000092185B41B3FA83F704BFB2FA82F6BF19AC
:101810000B3FB7F120062FBF02FA06F3BB40C7F11A
:10182000200622FA06F638BF3343BA401CB1E41949
:10183000641E33E77F4231F00041B1FA81F404BF06
:10184000B0FA80F6A4190B3CB4F120062FBF00FAC1
:1018500006F1A140C4F1200620FA06F638BF314354
:10186000A0403C1B1AE7AC421ABF05EA1357AF422F
:1018700012E050EA41061CBF52EA4306BFE750EAB5
:101880004107304661461CBF41EA0551F0BD52EAAE
:10189000430C08BFC143F0BD00204FF4001616EB07
:1018A000410F98BF16EB430F08BF16EB410F24BF43
:1018B000C14305E016EB430F0CBF61464CEA0551EE
:1018C000F0BD0000400D491840EA81200CD2490DBE
:1018D000A1F58061491C40F0004005DBD1F11F01FA
:1018E00054BFC840C017704700207047014648B138
:1018F000B0FA80F18840C91CC1F58461090501EB8B
:10190000D021400570470000B0B581EA030C0CF00F
:10191000004C40F2FF7515EA11541DBF15EA13572C
:10192000AC42AF4239E0E41923EA455343F4801353
:10193000C90241F0004141EA505EC7021100A7FB15
:10194000020200284FF00000EEFB01204FF00001E2
:10195000E3FB072118BF42F0010240180021494172
:10196000E3FB0E01A4F580640F0302D25200404154
:10197000494154F101046CDD470872F1004250F115
:10198000000051EB0451A1F580115CBF41EA0C014C
:10199000B0BD4CEA05510020B0BD05EA1357AC427A
:1019A00014BFAF4241E050EA410E1CBF52EA430E61
:1019B00002E061460020B0BD24423C441BD15FEAF6
:1019C000070EF6D0090302BF01460020AEF1140E47
:1019D000B1FA81F7AEEB070401FA07FE0C37C7F145
:1019E000200100FA07F7C8404EEA000E23EA4553EB
:1019F00043F48013A2E733F00043B3FA83F704BF44
:101A0000B2FA82FE77440B3FE41BB7F1200E2FBFE2
:101A100002FA0EF3BB40C7F1200E22FA0EFE38BFC9
:101A200043EA0E03BA40641C82E750EA410E14BF39
:101A300052EA430E6FF000014FF4001717EB430F0B
:101A40008ABF194617EB410FB5E74CEA0551002054
:101A5000B0BDD4F10104B4F120070FDAC4F12007BE
:101A6000520828BF42F0010210FA07F501FA07F701
:101A7000E1BF2A43E0403843E1400FE0352C98DCD9
:101A8000C7F1200452EA400220FA07F218BF42F0E0
:101A9000010231FA07F0A1400A43002172F100422D
:101AA00050F1000051EB0C01B0BD00000048704740
:101AB00028040020BBBBE1B1B2F5803F80F07E80FE
:101AC000022A1ED98C46B1FBF2F102FB11C31B04A2
:101AD00043EA1043B3FBF2FC02FB1C3380B240EA42
:101AE0000343B3FBF2F002FB103240EA0C40002348
:101AF0007047022A05D98446B0FBF2F002FB10C2FF
:101B000070474AB105D100F0010249085FEA300090
:101B1000704700220023704700F09EB90B000200BE
:101B2000002100207047904271EB030CF6D3B3F50F
:101B3000803F2FD2F0B5B3FA83F7B1FA81F4A7F161
:101B40000F0E3D1B5340CEF1200602FA0EF2F34178
:101B50005340B5F10F0746D80F3C2C444140C4F127
:101B60002006A040F1414140B1FBF3F603FB161102
:101B7000A2FB0645001BA94102D2761E80185941DE
:101B800080EA010221FA0EF362FA0EF200215A40B5
:101B90003046F0BD30B4B1FBF3FC03FB1C11A2FBDB
:101BA0000C45001BA94103D2ACF1010C801859412E
:101BB00030BC02460B46604600217047B2F1807F80
:101BC00065D3F0B5B2FA82F7B1FA81F4C7F10F0626
:101BD0003D1B22FA06F307F1110EF24120355A405F
:101BE000B5F10F07B8D94140C4F12006A040F1413A
:101BF0004140B1FBF3FC03FB1C11A2FB0C45001B95
:101C0000A94103D2BCF1010C801859410F2F12D306
:101C10000F3FC90341EA5041B1FBF3F603FB161134
:101C2000A2FB0645D4EBC030A94102D2761E801833
:101C3000594146EACC3C07B34140C7F12006B840C1
:101C4000F1414140B1FBF3F603FB1611A2FB06453F
:101C5000001BA94102D2761E8018594180EA010278
:101C600021FA0EF3C7F1200462FA0EF20CFA07F023
:101C70005A402CFA04F13043F0BD80EA010221FA07
:101C80000EF3002162FA0EF260465A40F0BD8C4617
:101C9000B1FBF2F102FB11C31B0243EA1063B3FB79
:101CA000F2FC02FB1C331B024CEA002043EA1063E7
:101CB000B3FBF2FC02FB1C331B024CEA002043EA9C
:101CC0001063B3FBF2FC02FB1C331B024CEA002046
:101CD00043EA1063B3FBF2FC02FB1C324CEA002027
:101CE00000237047012000F0B9B80000841A71EB9E
:101CF000030604D26E40001BB141121973414FF428
:101D0000001C1CEB410F34BF7CEB430683E00C0D41
:101D1000A4EB1356362E00F37C80012E45EAC32334
:101D200041DC43EA525312BFD20292025B082405FF
:101D300045EAC12141EA5051D2EBC020994125D456
:101D400007D1B0FA80F610FA06F162D000202036F2
:101D500008E0B1FA81F6B140C6F1200220FA02F2A1
:101D60001143B0404FEAF474B4EB465434F001062A
:101D70004FEA74040AD8D6F50016760D04F0004434
:101D8000F04061FA06F25040F1404840C00A40EA93
:101D9000415021F0004128BF5FEA500550F100009A
:101DA00044EBD12135E0DB0A45EAC121C90AB6F18D
:101DB00020050EDD42EA0242120CC5F1200603FAAC
:101DC00006F6EB4042EA06056D42984161F10001DA
:101DD0000DE062FA06F5F240554063FA06FC82EA2D
:101DE0000C02F3405A406D42904161EB030111F443
:101DF000801F05D1641E620502D06D00404149413B
:101E000021F48011430875F1004350F1000041EBCB
:101E1000045170BC70471CEB410F15D223F00043F6
:101E200052EA43060BD04FEA4C0CBCEB410F04D8EE
:101E30000C0D661E342EB7DDEBE7801A994150EA8F
:101E4000410608BF0021E4E708BF1CEB430F28BF91
:101E50006FF00001DDE700007047000080B5AFF3D0
:101E60000080024A11001820ABBEFBE726000200EA
:101E700010B50400002C01D1012014E094F83D00BD
:101E8000002805D1002084F83C00200000F0B3FDBC
:101E9000022084F83D00211D206800F0B5FB0120E0
:101EA00084F83D00002010BD022180F83D1001683B
:101EB000896811F00701062905D00168096851F009
:101EC000010102681160012180F83D100020704777
:101ED00010B50400002C01D1012014E094F83D005D
:101EE000002805D1002084F83C00200000F0C8FD47
:101EF000022084F83D00211D206800F085FB0120B0
:101F000084F83D00002010BD10B50400022084F8C4
:101F10003D002068006A41F2111108420BD120688F
:101F2000006A40F24441084205D120680068400838
:101F3000400021680860200000F0A3FD002084F824
:101F40003D00002084F83C00002010BD10B50400C6
:101F50000122206800F0C8FC2068DFF8A81288423F
:101F600004D02068DFF8A012884201D1012000E0EF
:101F70000020C0B2002805D02068406C50F400401A
:101F8000216848642068806810F00700062805D0A2
:101F90002068006850F0010021680860002010BD32
:101FA00038B504000D00110094F83D00022801D15D
:101FB0000220B2E094F83D0001280AD1002905D1A1
:101FC000180080B2002801D00120A6E0022084F889
:101FD0003D002800002806D0042821D008283CD045
:101FE0000C2857D073E0DFF82402626AD063DFF870
:101FF0002002626A10648248626AD0649BB22068E0
:1020000010F13402606A00F0EEFD002801D00120DA
:1020100083E02068C06850F400702168C86056E012
:10202000DFF8E801A26AD063DFF8E401A26A106475
:102030007348A26AD0649BB2206810F13802A06A8B
:1020400000F0D1FD002801D0012066E02068C068C2
:1020500050F480602168C86039E0DFF8B001E26ABE
:10206000D063DFF8AC01E26A10646548E26AD064CC
:102070009BB2206810F13C02E06A00F0B4FD002839
:1020800001D0012049E02068C06850F40060216858
:10209000C8601CE0DFF87401226BD063DFF87001C8
:1020A000226B10645648226BD0649BB2206810F1FA
:1020B0004002206B00F097FD002801D001202CE0A9
:1020C0002068C06850F480502168C860FFE7012292
:1020D0002900206800F008FC20684A49884203D0A3
:1020E00020684949884201D1012000E00020C0B2A7
:1020F000002805D02068406C50F4004021684864F6
:102100002068806810F00700062805D02068006865
:1021100050F0010021680860002032BD38B504008D
:102120000D002800002806D004280ED0082816D05C
:102130000C281ED027E02068C06830F400702168A9
:10214000C860606A00F08FFD1DE02068C06830F450
:1021500080602168C860A06A00F085FD13E02068F7
:10216000C06830F400602168C860E06A00F07BFD60
:1021700009E02068C06830F480502168C860206B96
:1021800000F071FDFFE700222900206800F0ACFBA1
:1021900020681C49884203D020681B49884201D12D
:1021A000012000E00020C0B2002811D02068006AA1
:1021B00041F2111108420BD12068006A40F24441FB
:1021C000084205D12068406C30F400402168486422
:1021D0002068006A41F2111108420BD12068006AA0
:1021E00040F24441084205D12068006840084000A0
:1021F00021680860012084F83D00002032BD000005
:1022000071250008000001400004014081250008FC
:10221000C525000810B504002068006980071AD59C
:102220002068C068800716D57FF002002168086129
:10223000012020772068806910F0030F03D0200070
:1022400000F0A2FE05E0200000F09FFE200001F05B
:10225000CAF8002020772068006940071AD5206856
:10226000C068400716D57FF004002168086102208D
:1022700020772068806910F4407F03D0200000F0B0
:1022800083FE05E0200000F080FE200001F0ABF8A6
:10229000002020772068006900071AD52068C068F0
:1022A000000716D57FF00800216808610420207718
:1022B0002068C06910F0030F03D0200000F064FE16
:1022C00005E0200000F061FE200001F08CF8002005
:1022D000207720680069C0061AD52068C068C0064B
:1022E00016D57FF01000216808610820207720684B
:1022F000C06910F4407F03D0200000F045FE05E0E7
:10230000200000F042FE200001F06DF80020207750
:1023100020680069C0070AD52068C068C00706D5D4
:102320007FF0010021680861200000F05FFB206859
:10233000006900060AD52068C068000606D57FF04F
:10234000800021680861200001F03AFA20680069E5
:1023500040060AD52068C068400606D57FF04000D8
:1023600021680861200001F02CFA206800698006CD
:102370000AD52068C068800606D57FF02000216855
:102380000861200001F01EFA10BD38B504000D00F0
:1023900094F83C00012801D1022073E0012084F868
:1023A0003C00022084F83D00002A06D0042A1BD0FD
:1023B000082A31D00C2A46D05DE02900206800F0C0
:1023C00080F92068806950F00800216888612068E1
:1023D000806930F00400216888612068816928697B
:1023E00001432068816146E02900206800F09BF9E4
:1023F0002068806950F400602168886120688069E5
:1024000030F480602168886120688069296950EA19
:102410000120216888612EE02900206800F0BAF9C7
:102420002068C06950F008002168C8612068C06950
:1024300030F004002168C8612068C169286901433F
:102440002068C16117E02900206800F0D9F92068F0
:10245000C06950F400602168C8612068C06930F428
:1024600080602168C8612068C069296950EA01203C
:102470002168C861FFE7012084F83D00002084F84E
:102480003C00002032BD10B5040094F83C00012847
:1024900001D102206AE0012084F83C00022084F887
:1024A0003D002068806830F0770030F47F4022687B
:1024B0009060086800284DD010284BD0202849D0C3
:1024C000302847D040283BD0502825D060282DD038
:1024D000702807D0B0F5805F03D0B0F5005F0ED054
:1024E0003DE03CE0CB684A688968206800F0F1F97B
:1024F0002068806850F07700216888602FE0CB6802
:102500004A688968206800F0E4F92068806850F41F
:1025100080402168886022E0CA684968206800F02D
:10252000ABF95021206800F0CCF918E0CA6849687E
:10253000206800F0B3F96021206800F0C2F90EE0D5
:10254000CA684968206800F097F94021206800F0C7
:10255000B8F904E00968206800F0B3F9FFE701204A
:1025600084F83D00002084F83C00002010BD0000ED
:1025700080B5806B012180F83D1001F024F901BD88
:1025800010B5846B012184F83D10616A884202D144
:102590000120207710E0A16A884202D10220207732
:1025A0000AE0E16A884202D10420207704E0216B2E
:1025B000884201D108202077200000F014FF00207D
:1025C000207710BD10B5846B012184F83D10616A3D
:1025D000884202D10120207710E0A16A884202D10E
:1025E000022020770AE0E16A884202D104202077A5
:1025F00004E0216B884201D108202077200001F0FF
:10260000E3F80020207710BD10B40468DFF83C32F6
:10261000984212D0B0F1804F0FD0DFF834229042B0
:102620000BD0DFF83022904207D0DFF82C22904206
:1026300003D0DFF82822904203D134F070044A68B6
:102640001443984225D0B0F1804F22D0DFF8002209
:1026500090421ED0DFF8FC2190421AD0DFF8F8211A
:10266000904216D0DFF8F421904212D0DFF8F0212A
:1026700090420ED07B4A90420BD07B4A904208D0C9
:102680007A4A904205D07A4A904202D0794A9042E2
:1026900003D134F44074CA68144334F080044A69A6
:1026A000144304608A68C2620A688262984202D057
:1026B0006A4A904201D1096901630121416110BC5C
:1026C000704770B4026A520852000262046A456898
:1026D000836933F070039B089B000A68134334F04E
:1026E00002048A681443594EB04202D05B4A9042B9
:1026F00005D134F00804CA68144334F00404B0422D
:1027000002D0564A904207D135F4807535F40075F1
:102710004A6915438A691543456083614968416385
:10272000046270BC704770B4026A32F01002026238
:10273000036A4468826932F4E04232F440720D6800
:1027400052EA052233F020038D6853EA05133F4D0A
:10275000A84202D0414EB04206D133F08003CE6889
:1027600053EA061333F04003A84202D03B4DA8427F
:1027700009D134F4806434F400644D6954EA85046A
:102780008D6954EA8504446082614968816303620B
:1027900070BC704770B4026A32F480720262046ADC
:1027A0004568C36933F070039B089B000A681343B4
:1027B00034F400748A6854EA0224244A904202D015
:1027C000264EB04206D134F40064CE6854EA0624A2
:1027D00034F48064904202D0204A904209D135F40A
:1027E000805535F400554A6955EA02158A6955EA5B
:1027F00002154560C3614968C163046270BC7047DB
:1028000030B4026A32F480520262036A4468C269D8
:1028100032F4E04232F440720D6852EA052233F499
:1028200000538D6853EA0533084DA84202D00B4D82
:10283000A84204D134F480444D6954EA85144460BC
:10284000C26149680164036230BC70470000014006
:102850000004004000080040000C0040000401405B
:102860000040014000440140004801400018004081
:10287000001C00400020004010B4046A036A5B089A
:102880005B000362836933F0F00353EA021334F010
:102890000A0421438361016210BC704710B4036ACB
:1028A00033F0100303628369046A33F4704353EA1C
:1028B000023334F0A00454EA01148361046210BCB2
:1028C0007047826832F0700251F007011143816055
:1028D000704710B4846834F47F44114351EA0321F3
:1028E0002143816010BC704710B4012411F01F0314
:1028F00014FA03F3046A34EA03030362036A11F06F
:102900001F0112FA01F11943016210BC7047000067
:1029100010B586B01021002202AC200000F056FF56
:10292000082100226C46200000F050FF4D4C5FF063
:1029300080402060002060600020A0605FF0FF30D9
:10294000E060002020610020A0612068C06850F095
:1029500001002168C8602000FFF78AFA002804D02F
:1029600024224149414800F065FF4FF40050029095
:1029700000200390002004900020059002A9200070
:10298000FFF781FD002804D02C223749374800F09A
:1029900051FF00200090002001906946200000F0C7
:1029A0005DFF002804D032222F49304800F042FF5A
:1029B000002201211C2000F0C7FF1C2000F0D5FFE1
:1029C0002000FFF771FA06B010BD80B525480168F8
:1029D0000969C90709D50168C968C90705D57FF024
:1029E00001010268116100F001F801BD2048017881
:1029F000491C0170704738B586B0040014210022CC
:102A000001AD280000F0E2FE2068B0F1804F26D131
:102A1000002000901748016851F001010160006832
:102A200010F001000090009800200090124801680A
:102A300051F001010160006810F001000090009861
:102A40004FF40040019002200290012003900220E8
:102A500004900120059001A9084800F095FF07B0F7
:102A600030BD000080610020909E0008D4A00008C6
:102A700064650020403802403038024000000240C7
:102A80007047704738B50400002001F0A1F8050038
:102A9000002C01D1012064E0606A0028002084F845
:102AA0003400022084F835002068006840084000A7
:102AB0002168086020680068C0070BD501F088F81D
:102AC000401B0628F6D320206065032084F83500DB
:102AD000032046E020680168DFF8180401406268BE
:102AE000A0680243E0680243206902436069024330
:102AF000A0690243E0690243206A02431143606A0D
:102B0000042803D1E26A206B02431143206801606C
:102B100020684569ED08ED00606A0543606A042895
:102B200010D1A06A0543E06A00280BD0200000F015
:102B3000E7F9002806D040206065012084F83500C0
:102B400001200EE020684561200000F0BBF93F2223
:102B5000E16D8A40826000206065012084F83500C4
:102B6000002032BD10B50400002C01D1012039E055
:102B700094F83500022801D1022033E02068006873
:102B8000400840002168086000202168086000209B
:102B90002168486000202168886000202168C860A2
:102BA000002021680861212021684861200000F090
:102BB00089F90021E1630021216400216164002181
:102BC000A1640021E164002121653F22E16D8A407A
:102BD000826000206065002084F83500002084F8C1
:102BE0003400002010BD70B504000025A66D94F8D7
:102BF0003400012801D1022034E0012084F834009F
:102C000094F83500012827D1022084F835000020EF
:102C10006065200000F03FF93F21E06D8140B16028
:102C20002068006850F0160021680860206840693C
:102C300050F0800021684861206C002805D0206891
:102C4000006850F00800216808602068006850F0B3
:102C500001002168086003E0002084F834000225A8
:102C60002800C0B270BD90F83510022903D0802131
:102C70004165012009E0052180F8351001680968E7
:102C8000490849000068016000207047F8B5040059
:102C900000200090DFF8600200684FF41651B0FB8E
:102CA000F1F5A66D37680821E06D11FA00F00742D2
:102CB00010D02068006840070CD52068006830F00C
:102CC000040022681060E06D8140B160606D50F0DA
:102CD00001006065E06D3900C140C8070BD5206870
:102CE0004069000607D50121E06D8140B160606D4B
:102CF00050F0020060650421E06D11FA00F0074217
:102D00000AD020680068800706D5E06D8140B16078
:102D1000606D50F0040060651021E06D11FA00F064
:102D200007422CD020680068000728D5E06D81405C
:102D3000B16020680068400311D520680068000376
:102D400006D4206C00281AD02000216C884716E099
:102D5000A06C002813D02000A16C88470FE02068E9
:102D60000068C00505D42068006830F008002168BC
:102D70000860206C002802D02000216C88472021A8
:102D8000E06D11FA00F007425FD020680068C006CD
:102D90005BD5E06D8140B16094F83500052828D1FD
:102DA0002068006830F016002168086020684069DB
:102DB00030F0800021684861206C002802D1A06CAE
:102DC000002805D02068006830F0080021680860FD
:102DD0003F21E06D8140B160002084F83400012083
:102DE00084F83500206D002802D02000216D88472E
:102DF00050E020680068400311D520680068000397
:102E000006D4606C002820D02000616C88471CE04C
:102E1000E06B002819D02000E16B884715E020689E
:102E20000068C0050BD42068006830F010002168ED
:102E30000860002084F83400012084F83500E06B3D
:102E4000002802D02000E16B8847606D002821D067
:102E5000606DC00718D5052084F83500206800682B
:102E600040084000216808600098401C009085429E
:102E700004D320680068C007F6D4FFE7002084F878
:102E80003400012084F83500E06C002802D02000D6
:102E9000E16C8847F1BD30B40468246834F48024C0
:102EA00005682C60046863608368402B04D1036864
:102EB0009A600068C16003E0036899600068C260BE
:102EC00030BC7047017801F0FF0110391822B1FBC6
:102ED000F2F10A4A525CC265042905D30168890AE5
:102EE0008902091D816503E00168890A89028165FB
:102EF000806D70473F8010F020040020E0A500089E
:102F000002000020936A9169002914D1002B05D09A
:102F1000022B03D007D3032B0BD00BE0D16AC901DE
:102F200000D501202EE0D16AB1F1C07F00D101208F
:102F300028E027E026E09169B1F5005F15D1002B6C
:102F400005D0022B03D004D3032B07D00CE00120C3
:102F500018E0D16AC90100D5012013E0D16AB1F1AE
:102F6000C07F00D101200DE00CE0002B022B02D924
:102F7000DB1E02D006E0012004E0D16AC90100D5C1
:102F80000120FFE7C0B270477047704781B0DFF89B
:102F9000AC1788420DD100200090DFF8AC07016823
:102FA00051F001010160006810F0010000900098EC
:102FB0008EE0DFF88C1788420DD100200090DFF8FA
:102FC0008807016851F002010160006810F00200FA
:102FD000009000987CE0DFF86C1788420DD100204B
:102FE0000090DFF86407016851F004010160006897
:102FF00010F00400009000986AE0DFF85017884253
:103000000DD100200090DFF84007016851F0080161
:103010000160006810F008000090009858E0DFF8A8
:10302000301788420DD100200090DFF81C0701689E
:1030300051F010010160006810F01000009000983D
:1030400046E0DFF8101788420DD100200090DFF82D
:10305000F806016851F020010160006810F02000BE
:103060000090009834E0DFF8F01688420DD100207F
:103070000090DFF8D406016851F04001016000685B
:1030800010F040000090009822E0DFF8D01688424F
:103090000DD100200090DFF8B006016851F08001EA
:1030A0000160006810F080000090009810E0DFF8E8
:1030B000B01688420CD100200090DFF88C06016821
:1030C00051F480710160006810F4807000900098E5
:1030D00001B0704780B5DFF88C1688420DD1002012
:1030E0000090DFF88406016851F00101016000687A
:1030F00010F0010000900098EFE0B0F1804F0DD18A
:1031000000200090DFF86406016851F001010160C1
:10311000006810F0010000900098DEE0DFF8501623
:1031200088420DD100200090DFF84006016851F080
:1031300002010160006810F0020000900098CCE0ED
:10314000DFF8301688420DD100200090DFF81C0611
:10315000016851F004010160006810F00400009063
:103160000098BAE0DFF8101688420DD100200090D8
:10317000DFF8F805016851F008010160006810F0FF
:10318000080000900098A8E0DFF8F01588420DD103
:1031900000200090DFF8D405016851F010010160B3
:1031A000006810F010000090009896E0DFF8D0154D
:1031B00088420DD100200090DFF8B005016851F081
:1031C00020010160006810F020000090009884E069
:1031D000DFF8B01588420DD100200090DFF8880597
:1031E000016851F002010160006810F002000090D7
:1031F000009872E0DFF8901588420DD10020009011
:10320000DFF86405016851F480310160006810F452
:1032100080300090009860E0DFF8701588420DD192
:1032200000200090DFF84005016851F40031016092
:10323000006810F40030009000984EE0DFF8501560
:1032400088420DD100200090DFF81C05016851F480
:1032500080210160006810F48020009000983CE01C
:10326000DFF8301588420DD100200090DFF8FC0413
:10327000016851F040010160006810F040000090CA
:1032800000982AE0DFF8101588420DD10020009048
:10329000DFF8D804016851F080010160006810F087
:1032A00080000090009818E0DFF8F01488420DD1FB
:1032B00000200090DFF8B404016851F480710160CF
:1032C000006810F480700090009806E08422DFF817
:1032D000D014DFF8D00400F0ADFA01BD10B5002421
:1032E000DFF88014884201D1012447E0B0F1804F1B
:1032F00001D1012442E0DFF87814884201D1022490
:103300003CE0DFF87014884201D1022436E0DFF897
:103310006814884201D1022430E0DFF86814884242
:1033200001D103242AE0DFF86014884201D103248C
:1033300024E0DFF85814884201D103241EE0DFF8AE
:103340005014884201D1032418E0DFF84814884261
:1033500001D1092412E0DFF84014884201D1092488
:103360000CE0DFF83814884201D1092406E0C722B6
:10337000DFF82C14DFF82C0400F05CFA2000C0B257
:1033800010BD78B585B004000D0016002000FFF7D1
:10339000FDFD3000FFF79EFE02200190012002900B
:1033A000032003903000FFF799FF0490ADB2009521
:1033B0006946200000F0E8FA06B070BD30B585B06F
:1033C00004000D002000FFF7E1FD01200190002026
:1033D000029003200390ADB200956946200000F0F2
:1033E000D3FA05B030BD80B50021DFF8BC03FEF78D
:1033F00095FE01BD1CB500200090DFF84C0301686C
:1034000051F400110160016811F40011009100995C
:1034100000210091016851F400110160006810F46E
:10342000001000900098DFF88403DFF88413016037
:103430005FF020614160402181600021C1604FF454
:10344000806101614FF4006141614FF4005181617D
:103450004FF48071C16100210162002141620321AA
:1034600081620021C16200210163DFF83C43606298
:103470008463FFF777FB002807D040F21D12DFF8C6
:103480002013DFF8200300F0D5F9606AFFF7FAFA9D
:10349000002807D040F22112DFF80413DFF80403FC
:1034A00000F0C8F9002200210F2000F04DFA0F2093
:1034B00000F05BFA13BD80B5DFF8F002FFF7E6FB22
:1034C00001BD80B5DFF8E002FEF7A4FE01BD2DE9E5
:1034D000F0439BB00500884616001F000BA8402152
:1034E00000F0A4FB1C21002204AC200000F06EF9C7
:1034F0006846DFF8C0121022FDF7D4FE3800C0B2D3
:10350000072807DB40F26D12DFF89412DFF894020F
:1035100000F090F9239C002C0BD1414689B2280081
:10352000FFF74CFF0022414689B2280000F01AFB49
:1035300000E142F2107084420BD1414689B228006A
:10354000FFF73CFF0122414689B2280000F00AFB48
:10355000F0E03200414689B22800FFF712FFDFF8A1
:103560001052AE4201D1FFF745FFDFF8F801864265
:103570000FD0DFF8100286420BD0DFF80C02864233
:1035800007D0DFF80802864203D0DFF80402864243
:1035900003D1DFF82402016803E0DFF81C020168B0
:1035A0004908229864280AD242F20F7842F2107237
:1035B000B1FBF2F1B1FBF0F0B0F1010913E040F61C
:1035C000B832904209D25FF063086422B1FBF2F195
:1035D000B1FBF0F0B0F1010905E05FF00008B1FBCC
:1035E000F0F0B0F10109484680B2444342F2107055
:1035F000B4FBF0F4AE4204D1DFF8AC01FEF784FC7A
:1036000002E00BA8FEF780FCAE4213D1DFF8980170
:1036100006601FFA88F8C0F804801FFA89F9C0F81C
:103620000C90002101610021816000214161002195
:10363000816110E00B961FFA88F8CDF830801FFAF0
:1036400089F9CDF8389000200F9000200D900020CF
:10365000109000201190AE420BD15348FEF738FC79
:10366000002811D040F2CD124D494E4800F0E2F84A
:103670000AE00BA8FEF72CFC002805D040F2D5127A
:103680004749484800F0D6F8602004900020069092
:10369000002008900020079000200A900020099048
:1036A0000594AE4211D168463900C9B230F81120F4
:1036B00004A93D48FEF769FE002817D04FF4F472C4
:1036C0003749384800F0B6F810E068463900C9B20A
:1036D00030F8112004A90BA8FEF757FE002805D0EA
:1036E00040F2EF122E492F4800F0A4F8AE4212D15A
:1036F0004FF40473314A6846FFB230F817102A4875
:10370000FEF74EFC002815D040F2F9122449254856
:1037100000F090F80EE06846FFB230F817100BA8E2
:10372000FEF714FC002805D04FF400721C491D4818
:1037300000F080F81BB0BDE8F083000000000240FC
:10374000000402400008024030380240000C0240F1
:10375000001002400014024000180240001C024009
:10376000002002400000014044380240403802403E
:103770000004004000080040000C00400010004021
:10378000001400400004014000400140004401409A
:103790000048014000180040001C0040002000408C
:1037A000A89F000834A10008C0610020CC5F002061
:1037B00070600240C4A40008200400200000002023
:1037C00070477047704770477047000062F30F22E0
:1037D00062F31F42401810F0030308D0C91A1FD328
:1037E000DB0748BF00F8012D28BF20F8022D130089
:1037F00030B414461546103928BF20E93C00FAD8E9
:10380000490728BF20E90C0048BF40F8042D890073
:1038100028BF20F8022D48BF00F8012D30BC7047AA
:10382000C91818BF00F8012DCB0728BF00F8012DDB
:10383000704700000EB4C0B5024603A800210190F5
:10384000009101AB0121044878440C30FCF79CFC4A
:1038500006BC5DF810FB00BF656B000010B490F86B
:103860003C20012A01D102201CE0012280F83C20EA
:10387000022280F83D20026853680268946833F0A1
:1038800070030A68134334F0800449680C430168EC
:103890004B6001688C60012180F83D10002180F8A8
:1038A0003C10002010BC704710F00700314B1A6824
:1038B0004FF6FF010A40304951EA00210A431A60DD
:1038C00070472C480068C0F302207047012210F0B6
:1038D0001F018A40294940B2400941F82020704721
:1038E000020052B2002A08D50901254A40B210F060
:1038F0000F00104400F8041C03E00901214A40B203
:103900001154704710B410F00700D0F10703052BD5
:1039100001D3042301E0D0F10703041D072C01D2D9
:10392000002000E0C01E012414FA03F35B1E1940BE
:10393000814014FA00F0401E1040084310BC70474C
:1039400080B5FFF7B1FF01BD70B504000D00160092
:103950000020FFF7B6FF32002900FFF7D3FF010078
:10396000200040B2FFF7BCFF70BD80B540B2FFF74A
:10397000ADFF01BD0CED00E00000FA0500E100E044
:1039800018ED00E000E400E0F8B40022002200227C
:10399000002337E0082704E0DFF8DC219042F9D16A
:1039A0000727FFB213F00302D2B2920097403E43C2
:1039B0001A00920845F82260DFF8C0512A68A24335
:1039C0004E68F60300D522432A60DFF8B4512A6816
:1039D000A2434E68B60300D522432A60DFF8A45103
:1039E0002A68A2434E68F60200D522432A60DFF817
:1039F00098512A68A2434E68B60201D514432200AA
:103A00002A605B1C102B80F0AB80012515FA03F2B5
:103A10000C6814409442F4D14A68022A02D04A68E1
:103A2000122A17D11A00D20800EB8202166A0F2759
:103A300013F00702D2B292009740BE430F6913F011
:103A40000702D2B2920097403E431A00D20800EB20
:103A500082021662076803261A00D2B2520016FAD2
:103A600002F2974391F804C01CF0030C1A00D2B282
:103A700052001CFA02FC5CEA070707604A68012A48
:103A800008D04A68022A05D04A68112A02D04A683A
:103A9000122A19D187681A00D2B2520016FA02F21D
:103AA0009743D1F80CC01A00D2B252001CFA02FCA3
:103AB0005CEA0707876042689D40AA434D68C5F3EA
:103AC00000159D402A434260C5681A00D2B25200D8
:103AD0009640B5438E681A00D2B2520096403543E4
:103AE000C5604A68D2008CD500220092274A15682A
:103AF00055F480451560126812F480420092009AD5
:103B0000234D1A00920855F822600F2713F0030284
:103B1000D2B292009740BE431E4A904201D1002784
:103B20003FE71D4A904201D101273AE71B4A9042E4
:103B300001D1022735E71A4A904201D1032730E725
:103B4000184A904201D104272BE7174A904201D12D
:103B5000052726E7154A90427FF41EAF062720E787
:103B6000F1BC7047D2B2002A02D089B2816102E072
:103B700089B2090481617047001C0240003C014089
:103B8000043C0140083C01400C3C014044380240E8
:103B900008380140000002400004024000080240D2
:103BA000000C0240001002400014024000180240C5
:103BB0001848016851F080710160002016490860C2
:103BC0001648016851F001010160704700207047FC
:103BD00080B514480068002802D100F02BF817E0E7
:103BE0000F480068800B0CE000BF00BF00BF00BFA3
:103BF00000BF00BF00BF00BF00BF00BF00BF00BFCD
:103C0000401E0028F0D108480168491C0160006886
:103C100002BD0000FCED00E0041000E0001000E038
:103C2000200400202404002068640020002200F00A
:103C300069B800007CB500200090EFF3108472B6E4
:103C400026480568264B1868002842D0254909688F
:103C500089053ED524490968EFF305821143234ABB
:103C60001268002906D1D16AD66B360456F0004698
:103C7000314309E0B1F1F03F03D211005FF0FF32B0
:103C800002E05FF0F0320021026041607821816043
:103C900017490968C1600561694641610021816178
:103CA0000021C16120301349096888420DD31248B0
:103CB0000068186011490A681062114A10680028EB
:103CC00007D008681168884703E018600B49096845
:103CD000086284F31088280076BD00BF00650020CC
:103CE000486500204C65002024040020D464002096
:103CF000041000E044650020406500203465002089
:103D00005065002000B500BF130096469446103958
:103D100028BFA0E80C50FAD85FEA417C28BF0CC04D
:103D200048BF40F8042BC90728BF20F8022B48BF22
:103D300000F8012B00BD000038B50400002C01D1B3
:103D40000120AEE094F82000002802D1200000F00D
:103D5000B8FB2068006830F0020021680860FFF7B7
:103D600037FF05002068406880070DD5FFF730FF5A
:103D7000401B0B28F6D3606A50F4003060620520C7
:103D800084F8200001208CE02068006850F00100D9
:103D900021680860FFF71CFF050020684068C00725
:103DA0000DD4FFF715FF401B0B28F6D3606A50F4C3
:103DB00000306062052084F82000012071E0207E40
:103DC000012806D12068006850F080002168086052
:103DD00005E02068006830F0800021680860607E9F
:103DE000012806D12068006850F040002168086072
:103DF00005E02068006830F0400021680860A07E7F
:103E0000012806D12068006850F020002168086071
:103E100005E02068006830F0200021680860E07E3E
:103E2000012806D12068006830F010002168086081
:103E300005E02068006850F0100021680860207FCD
:103E4000012806D12068006850F008002168086049
:103E500005E02068006830F0080021680860607F95
:103E6000012806D12068006850F00400216808602D
:103E700005E02068006830F0040021680860A1684F
:103E8000E068014320690143606901436068401EA6
:103E900001432068C16100206062012084F8200095
:103EA000002032BD30B4026890F820201300DBB24D
:103EB000012B03D0D2B2022A40F07F80594AD2F8B7
:103EC000000250F00100C2F80002D2F8000230F403
:103ED0007C50C2F80002D2F800024B6A50EA03207C
:103EE000C2F8000201200B7D13F01F0310FA03F348
:103EF000D2F81C029843C2F81C02C869002816D1E7
:103F0000D2F80C029843C2F80C02486902EBC000D8
:103F1000CC684D68C5EA0444C0F84042486902EBE9
:103F2000C0008C680D68C5EA0444C0F84442C86902
:103F3000012816D1D2F80C021843C2F80C024869C5
:103F400002EBC0000C684D68C5EA0444C0F840426A
:103F5000486902EBC0008C68CD68C5EA0444C0F82B
:103F600044428869002805D1D2F804029843C2F877
:103F7000040204E0D2F804021843C2F804020869FB
:103F8000002805D1D2F814029843C2F8140204E0C4
:103F9000D2F814021843C2F81402086A012804D1A6
:103FA000D2F81C020343C2F81C32D2F800024008C7
:103FB0004000C2F80002002004E0416A51F4802170
:103FC0004162012030BC704738B5040094F82000ED
:103FD000012821D1022084F82000206800684008D0
:103FE000400021680860FFF7F3FD05002068406885
:103FF000C0070DD5FFF7ECFD401B0B28F6D3606A18
:1040000050F400306062052084F82000012008E0B0
:1040100000206062002004E0606A50F400206062CA
:10402000012032BD0064004070B490F82050046854
:10403000A6688C68002CFFD02C00E4B2012C02D0C2
:10404000EDB2022D6ED116F0E05F65D0C6F30164CB
:10405000032C05D3416A51F400014162012066E05E
:104060000125A5401D608B68002B09D10B68CD6828
:1040700055EA4355036826013344C3F880510AE0EA
:104080004B688D6855EAC305CB681D43036826015C
:104090003344C3F880510B69056826013544C5F8DF
:1040A0008431097D01290BD1016823011944D1F81C
:1040B000841151F48071036825012B44C3F88411E5
:1040C000D17993791B0453EA0163517953EA0123AF
:1040D00011790B43016825012944C1F88C31D1784D
:1040E00093781B0453EA0163517853EA0123117852
:1040F0000B43016822011144C1F888310168220193
:104100001144D1F8801151F00101006822011044DE
:10411000C0F8801100200AE0416A51F400114162A8
:10412000012004E0416A51F480214162012070BC09
:1041300070470100002091F820201300DBB2012B12
:1041400002D0D2B2022A0ED10A689268520100D57A
:10415000401C0A689268120100D5401C09688968F1
:10416000C90000D5401C704710B40200002092F82E
:1041700020301C00E4B2012C02D0DBB2022B07D1AC
:104180001268926812EA8162B2EB816F00D001205E
:1041900010BC704790F820201300DBB2012B02D036
:1041A000D2B2022A06D10268526911430068416105
:1041B000002004E0416A51F48021416201207047EF
:1041C0002DE9F84F050000242868466928684768EB
:1041D0002868D0F808802868D0F80C902868D0F8B3
:1041E00010A02868D0F818B0F00755D55FEAC8705D
:1041F00018D50120296888605FEA887003D52800F7
:1042000000F070FA0EE05FEA487002D554F40064E2
:1042100008E05FEA087002D554F4805402E02800F8
:1042200000F061FA5FEAC85019D54FF48070296830
:1042300088605FEA885003D5280000F055FA0EE048
:104240005FEA485002D554F4005408E05FEA085091
:1042500002D554F4804402E0280000F046FA5FEAF8
:10426000C83019D55FF48030296888605FEA8830EB
:1042700003D5280000F03AFA0EE05FEA483002D594
:1042800054F4004408E05FEA083002D554F4803466
:1042900002E0280000F02BFA300707D55FEAC9607A
:1042A00004D554F4007410202968C860700708D53C
:1042B0005FEA097005D508202968C860280000F069
:1042C000ACF9B00707D52868C06810F0030F02D01A
:1042D000280000F0A7F9700607D55FEACA6004D588
:1042E00054F48064102029680861B00608D55FEA9C
:1042F0000A7005D5082029680861280000F0F8F93F
:10430000F00607D52868006910F0030F02D02800D6
:1043100000F0EFF9B00307D5F80605D5102029689D
:104320004860280000F0E6F9F00307D5380705D506
:10433000082029684860280000F0DDF930044DD5D8
:10434000780748D5F00506D51BF00100C0B200285B
:1043500001D054F00104B00504D55FEA8B7001D59B
:1043600054F00204700504D55FEA4B7001D554F097
:10437000040430052FD51BF0700F2CD01BF0700BF0
:10438000BBF1100F0FD0BBF1200F0FD0BBF1300FDE
:104390000FD0BBF1400F0FD0BBF1500F0FD0BBF1CE
:1043A000600F0FD011E054F008040EE054F0100438
:1043B0000BE054F0200408E054F0400405E054F011
:1043C000800402E054F48074FFE72868806930F0CC
:1043D000700029688861042029684860002C05D095
:1043E000686A04436C62280000F086F9BDE8F18F2A
:1043F00038B594B0AF4CB048206006206060002013
:10440000A0600020E0605FF4A02020615FF4C000A5
:10441000606100202076012060760120A0760020D7
:10442000E07600202077012060772000FFF784FCF1
:10443000002010900120119000200A9049F6A4005D
:104440000B904FF6FF750C950D9500200E900120F6
:1044500012900E200F900AA92000FFF723FD0020E4
:104460000690012007900020009049F6AC000190D2
:104470000295039501200490012008900A200590E0
:1044800069462000FFF70EFD2000FFF79DFD022189
:104490002000FFF77FFE04212000FFF77BFE0821AC
:1044A0002000FFF777FE10212000FFF773FE202188
:1044B0002000FFF76FFE40212000FFF76BFE15B0D4
:1044C00030BD10B586B000687B4988424ED10020CF
:1044D00000907A48016851F000710160006810F0A6
:1044E000007000900098002000907548016851F01D
:1044F00001010160016811F00101009100990021A2
:104500000091016851F002010160006810F00200A2
:10451000009000984FF40064019401200290022062
:10452000039001A96748FFF72FFA01940220029037
:104530000020039009200590634C01A92000FFF79B
:1045400023FA4FF480500190022002900220049040
:104550000920059001A92000FFF716FA002200218A
:104560001420FFF7F1F91420FFF7FFF906B010BD92
:1045700038B586B00C001500B0F5006F03D200907E
:10458000002002900BE0B0F1005F03D20190042004
:10459000029004E08C224D494D48FFF74BF928006A
:1045A000C0B2092801DB012019E0EDB2049500201A
:1045B000039000208DF814003E4D01212800FFF7E4
:1045C000D3FD00280DD10123220069462800FFF702
:1045D0002BFD2800FFF7ADFD0028FAD1002007B021
:1045E00030BD01212800FFF7BFFD002806D00223BF
:1045F000220069462800FFF717FDEAE7012128009D
:10460000FFF7B2FD002806D00423220069462800E7
:10461000FFF70AFDDDE70120E1E780B52D48FFF750
:1046200009F901BD704780B52248FFF7C9FD2A4846
:1046300000F0C3F801BD10B5B0F5006F19D2274ADC
:10464000136883420ED100200300DBB21469A34239
:104650002BD2234B0400E4B21B5D0400E4B20B55E3
:10466000401CF1E74FF4817218491948FFF7E2F84E
:104670001BE0B0F1005F18D2184A536883420ED194
:1046800000200300DBB21469A3420ED2144B0400D5
:10469000E4B21B5D0400E4B20B55401CF1E74FF49B
:1046A00087720A490A48FFF7C5F80C480069C0B28A
:1046B00010BD0000986300200064004040380240B4
:1046C000303802400004024000000240209F0008F1
:1046D000A4A0000844A3000894A4000808640020D3
:1046E000606400207047704770477047704770479C
:1046F000704770477047704770470000E0B503E0AF
:10470000FFE7C82000F08EF85FF0FF30009001ABAB
:1047100001220721374800F02BF90028F1D1019838
:10472000012804D0022803D00428EAD0E8E7E8E70B
:10473000E7E780B5304800F040F809E02F4800F086
:104740003CF802E02E4800F038F8142000F06AF837
:1047500000F035FA0100C9B20029F6D0C0B2012834
:1047600011D0F2D303281CD009D3052811D014D3BB
:1047700007281ED019D30928E0D0E3D3E5E7214864
:1047800000F01BF8E1E7204800F017F800F0B6FA57
:10479000DBE71E4800F011F8D7E71D4800F00DF8E0
:1047A000D3E71C4800F009F8CFE71B4800F005F8F4
:1047B000CBE71A4800F001F8C7E70EB410B5B3B064
:1047C000020035ABC921684600F03AFB144C5FF09B
:1047D000FF31200000F052FB694605A0FFF72AF8E0
:1047E000200000F089FB33B010BC5DF810FB000026
:1047F00025730000C06300205CA30008A4A3000888
:104800008CA30008E0A30008F4A3000808A4000893
:104810001CA4000830A4000844A4000874A30008E5
:10482000B4620020F8B50500EFF3108672B6454B70
:104830001C68002C04D186F31088132000907FE0C0
:10484000414A1068EFF305810843002804D086F33D
:1048500010881320009073E03C48844204D186F312
:104860001088132000906BE0002D04D186F310888F
:104870000020009064E0364F3868002804D086F3AA
:104880001088132000905BE0DFF8C8C0DCF800005F
:10489000002842D030490968C9053ED51168EFF3B8
:1048A000058211431A68002906D1D16AD36B1B0413
:1048B00053F00043194309E0B1F1F03F03D2110076
:1048C0005FF0FF3202E05FF0F032002102604160F1
:1048D0007021816021490968C1600561216B4161D6
:1048E000694681610021C16120301D490968884203
:1048F0000ED31C480068CCF800001B490A681062FF
:104900001A4A1068002808D008681168884704E02F
:10491000CCF80000144909680862042020630120D3
:10492000A0630020C4F88400E5643868401C386047
:1049300086F31088200000F014FBD4F88400009067
:104940000098F2BDD464002024040020945D00206F
:10495000F0640020486500204C650020041000E051
:10496000446500204065002034650020506500202B
:10497000F8B50400069D0020002C01D106201AE0A5
:104980002668134FBE4201D0062014E0002B01D14F
:10499000032010E0002D0ED00E4E3668EFF3058791
:1049A0003E43002E01D0042005E00B4E36680B4F2D
:1049B000BE4200D10420002802D1042A00D30820DE
:1049C000002803D10095200000F088FCF2BD00BF54
:1049D0004E44564424040020D4640020945D0020FA
:1049E000BB4A0100C9B252F831100B690100C9B2CB
:1049F00002EBC10189880B40012B0CD00100C9B228
:104A000052F831100B690100C9B202EBC10189886B
:104A10000B40102B01D1012100E00021C0B202EBBC
:104A2000C0008079C9B2814201D1012000E000209C
:104A30007047F8B504002000C0B202281BDA002637
:104A4000FF27002508E02800C0B2FFF7C9FF0028B3
:104A500001D0761C2F006D1C2800C0B20228F2DBAA
:104A6000F6B2012E05D1FFB2E4B2A74201D1012076
:104A700013E0002011E0E4B2022C0DD10020FFF77A
:104A8000AFFF002806D00120FFF7AAFF002801D0C1
:104A9000012002E0002000E00020F2BD80B500F01F
:104AA00039F800F001F801BD10B586B00020009083
:104AB0008848016851F001010160016811F00101AD
:104AC0000091009900210091016851F010010160EE
:104AD000006810F010000090009800200290022062
:104AE00003900320049000240EE079482100C9B20D
:104AF00000EBC1018988019101A92200D2B250F8CE
:104B00003200FEF741FF641C2000C0B20228ECDB3B
:104B100006B010BD10B57048002181720021C1722D
:104B200000210173002120E06C4A0A200B00DBB257
:104B30004343134464249C8002230C00E4B24443A6
:104B400013550B00DBB24343134400249C710B004C
:104B5000DBB2434313440524DC710B00DBB200FBE2
:104B600003F0104400220272491C0800C0B203285E
:104B7000DADB06226421012000F001F810BD30B418
:104B80000A23564C0500EDB25D432544A98001007F
:104B9000C9B259432144CA71C0B2584320440021CC
:104BA000017230BC70474C49CA7A8854C87A401C9C
:104BB000C872C87A0A2801DB0020C87270474649CB
:104BC000887ACA7A904201D100200AE0887A085C8B
:104BD0008A7A521C8A728A7A0A2A01DB00228A7235
:104BE000C0B2704738B504003C492200D2B20A2056
:104BF000424301EB02052000C0B2FFF71AFF002874
:104C000046D02878052802DA052028705EE028784A
:104C10000A2803DA2878401C287057E0A879002871
:104C20000AD10120A8712100C9B203204143491CC7
:104C30000800C0B2FFF7B7FFA888002846D06888F0
:104C4000A98888420FD26888401C68806888A98833
:104C500088423BD1E4B203204443E41C2000C0B2AC
:104C6000FFF7A1FF32E0E87900282FD0287A401C16
:104C70002872287AE979884228D300202872E4B281
:104C800003204443641C2000C0B2FFF78CFF1DE0EA
:104C90002878062802DB0520287013E028780028F1
:104CA00003D02878401E28700CE0A879012809D18B
:104CB0000020A871E4B203204443A41C2000C0B229
:104CC000FFF771FF002068800020287231BD0000CE
:104CD000A4A400083038024040640020E8630020AB
:104CE00010B5002404E02000C0B2FFF77BFF641C75
:104CF0002000C0B20328F6DB10BD00007CB5454D96
:104D00002C00454E3000FFF758FD4448006800F085
:104D1000C7FB02000B004248FFF74FFD3000FFF7D2
:104D20004CFD4048FFF749FD3F48FFF746FD002C8A
:104D300012D0A06A01902169D4F8A800091A009144
:104D40002369A0681B1A6269E16A3848FFF735FDDC
:104D5000D4F88840AC42EAD173BD000038B502E017
:104D6000C820FFF75FFD324800780028F8D0314CAA
:104D700020686421B0FBF1F020602068002802D197
:104D800026480021016072B62B4D21686420414302
:104D9000296062B672B6294829680160002129603D
:104DA00062B690ED000AB8EE400AD4ED000AF8EEC3
:104DB000600A80EE200ADFED160A30EEC00A1748BE
:104DC00080ED000A6420FFF72DFDE3E7EFF310808C
:104DD00072B619490A68521C0A6080F31088F5E718
:104DE00038B5134C002020700220FFF71BFD72B66F
:104DF000114D0020286062B66420FFF713FD72B6E3
:104E000028680C4908600120207062B631BD00009E
:104E10000000C842105A0020EC9F0008886400205F
:104E20000CA30008F49D000830A0000894A100081D
:104E300066650020906400208C640020946400204B
:104E400008B584B00023039300290EBF019301909D
:104E5000491E0291009301A904AB07487844183019
:104E6000FBF792F9019909B100220A70002858BF96
:104E7000039805B000BD00BF23C3FFFF38B5020093
:104E80000020002A01D11C2016E01368164CA34212
:104E900001D01C2010E000290ED0144B1B68EFF34A
:104EA00005842343002B01D0042005E0104B1B6830
:104EB000104CA34200D1042000280ED10B4D2B68CA
:104EC000EFF305842343002B07D02C68EFF3058311
:104ED0001C43B4F1F03F00D21320002802D110008F
:104EE00000F002FB32BD00BF4554554D24040020A4
:104EF000D4640020945D002010B50021002801D169
:104F00001C2114E002680D4B9A4201D01C210EE0D6
:104F10000B4C2268EFF305831A43002A07D023685D
:104F2000EFF305821343B3F1F03F00D213210029C0
:104F300002D100F0BDFB0100080010BD4554554DE5
:104F4000240400205FF08050DFF848130860EFF37E
:104F50000580002804D1EFF3108062B680F310883A
:104F600070472DE9FC4705005FF00009DFF828A332
:104F7000DAF80070EFF3108072B6002D33D0296894
:104F8000DFF8182391422ED1A968D5F8A8209142C4
:104F900002D2A968C5F8A810E9680968B1F1EF3F25
:104FA0000AD12969D1F80110B1F1EF3F04D1D5F848
:104FB000A810EA68914207D280F31088280000F018
:104FC000E1FCEFF3108072B6D5F8A81051F8041C7C
:104FD000B1F1EF3F07D080F31088280000F0E2FC29
:104FE000EFF3108072B680F31088EFF3108872B67A
:104FF000BD420CD1E86C002806D010F1010F03D09F
:1050000015F14C0000F00EFDE869A5490860A54EB9
:105010003068401E3060A86B012840F0F380A24B3E
:105020001C681868002846D0A0490978C90742D5ED
:105030009F490968EFF305821143DAF8002000293F
:1050400009D1D16AD2F83CC05FEA0C4C5CF0004C4C
:105050005CEA010109E0B1F1F03F03D211005FF019
:10506000FF3202E05FF0F032002102604160022175
:10507000816090490968C1600561296B4161694699
:1050800081618D490968C16120308C490968884275
:105090000DD38B48006818608A490A6810628A4AF2
:1050A0001068002807D008681168884703E0186076
:1050B000844909680862002C01D0D4F80C900020C3
:1050C000A863E86A0090286AA84218D0696A416219
:1050D00008627E49009A51F82220AA4248D1009ADB
:1050E00041F822007A490868002841D0012200983E
:1050F00012FA00F00A6832EA0000086038E0002086
:105100007249009A41F822000123009813FA00F036
:1051100070490A6832EA000008606D4A1068002889
:1051200006D0009813FA00F0136833EA000010600C
:1051300000220868002814D1202067490860002058
:105140005D490860002C04D0E068814501D1002051
:10515000E06188F310883068002801D1FFF7F2FE83
:1051600096E090FAA0F0B0FA80F082185A480260F7
:105170005149086885423ED1574A544B106853F84C
:1051800020000860524D2868002825D03068401C57
:10519000306088F31088EFF3108872B63068401ED4
:1051A000306000202F6897FAA7F7B7FA87F738180A
:1051B00000901068009A53F82220D26B90420BD3D3
:1051C000009853F8200008600122009812FA00F0BD
:1051D0002A6832EA00002860002C04D0E06881458B
:1051E00001D10868E06188F310883068002801D197
:1051F000FFF7A8FE4CE0002C04D0E068814501D107
:105200000868E06188F310882B4801688F423FD01E
:105210000468EFF3108072B6002C32D021681F4A68
:1052200091422ED1A168D4F8A820914202D2A1685F
:10523000C4F8A810E1680968B1F1EF3F0AD121690B
:10524000D1F80110B1F1EF3F04D1D4F8A810E26811
:10525000914207D280F31088200000F093FBEFF317
:10526000108072B6D4F8A81051F8041CB1F1EF3FC9
:1052700007D080F31088200000F094FBEFF310803B
:1052800072B680F310883068002801D1FFF75AFE0B
:10529000BDE8F38704ED00E0D46400204452485494
:1052A00030650020F0640020486500204C65002037
:1052B00024040020041000E0D8640020446500208D
:1052C000406500203465002050650020CC5E002041
:1052D000E8640020E4640020EC6400202DE9F84339
:1052E00004000D0016009846EFF3108772B6614B6C
:1052F0001868002843D06049097809073FD55F49FD
:105300000968EFF3058211435D4A1268002909D14B
:10531000D16AD2F83CC05FEA0C4C5CF0004C5CEA0D
:10532000010109E0B1F1F03F03D211005FF0FF325B
:1053300002E05FF0F03200210260416020218160D4
:1053400050490968C16004614561A1688161C66115
:1053500020304D49096888420DD34C4800681860D8
:105360004B490A6810624B4A1068002807D0086849
:105370001168884703E01860454909680862A26817
:1053800016F00201206A002800D08243022905D1CC
:1053900015EA0200A84203D0002001E015EA02004D
:1053A000002819D0C8F8002016F00106012E11D1EE
:1053B00000216069002803D02069002800D1012164
:1053C000012903D1206A0543256203E0A06830EA81
:1053D0000505A560002049E00898002845D02E4A20
:1053E0001168002901D0072040E02549D1F800903C
:1053F0002A49C9F86810C9F87850C9F88060C9F816
:105400007C80C9F86C40D9F8B010491CC9F8B010BC
:105410006169002906D1C4F81090C9F87090C9F8E4
:10542000749009E02169C9F870104B6FC9F87430A5
:10543000C3F87090C1F874906169491C61610721DB
:10544000C9F830100121C9F83810C9F84C001068AB
:10545000401C106087F310884846FFF782FDEFF389
:10546000108772B6D9F8840000E0072087F310880F
:10547000BDE8F283486500204C650020240400202C
:10548000D4640020041000E0446500204065002042
:105490003465002050650020F0640020CD9A00089B
:1054A000C0F3C75181B1FF2906D0C110400721F0D8
:1054B000E04101F16051704741020CBF40F4E0014E
:1054C0006FF000410020704700F0004100020AD058
:1054D000B0FA80FC00FA0CF001F16051A1EB0C5124
:1054E00001EBD02140057047F8B506000C00EFF342
:1054F000108772B6634B1868002841D0624909785A
:1055000089063DD561490968EFF305821143604A78
:105510001268002906D1D16AD56B2D0455F00045DB
:10552000294309E0B1F1F03F03D211005FF0FF32EF
:1055300002E05FF0F03200210260416034218160BE
:1055400054490968C16006614461F1688161B168CC
:10555000C16120305049096888420DD34F48006826
:1055600018604F490A6810624E4A1068002807D038
:1055700008681168884703E01860494909680862AB
:1055800043480568B068002822D10120B060F5606A
:10559000002D19D03069012803D1E86A70612020FC
:1055A000B062D5F8A400002805D0016B0663CE6276
:1055B0003163F06203E0C5F8A460F6623663D5F8A3
:1055C000A000401CC5F8A00087F31088002058E018
:1055D000F068A84206D1B068401CB06087F310881C
:1055E00000204EE0002C49D02F490868002803D045
:1055F00087F310881D2044E0F2682C48A866EE6608
:10560000D5F8B000401CC5F8B000F069002803D1FF
:10561000B5612D676D6705E0B0692867436F6B67FB
:105620001D674567F069401CF0610D20286301206B
:10563000A863EC640868401C086087F31088306930
:10564000012815D1E86AB16A884201D2E86AB062DD
:10565000E86AD2F89C10884202D2E86AC2F89C003C
:10566000E86AD16A884203D2E96A100000F00CFAB5
:105670002800FFF776FCD5F8840002E087F3108855
:105680001D20F2BD486500204C6500202404002048
:10569000D4640020041000E0446500204065002030
:1056A0003465002050650020F064002081980008D7
:1056B000F8B504002025EFF3108672B6A74B1868E2
:1056C000002842D0A649097889063ED5A54909682F
:1056D000EFF305821143A44A1268002906D1D16A6A
:1056E000D76B3F0457F00047394309E0B1F1F03F71
:1056F00003D211005FF0FF3202E05FF0F0320021D0
:10570000026041603921816098490968C160046183
:10571000E1684161A16881616946C16120309449B5
:10572000096888420DD393480068186092490A6856
:105730001062924A1068002807D0086811688847EC
:1057400003E018608C4909680862A068002800F02E
:105750000081E16884480068E268824206D0884897
:105760000068002802D186F310881E25202D40F005
:10577000F380A068401EA060A068002803D086F3D4
:1057800010880025E8E0002903D186F31088002561
:10579000E2E0D1F8A000401EC1F8A000D1F8A000BE
:1057A000002803D10020C1F8A40009E0E06A226BC0
:1057B0000263D062D1F8A420A24201D1C1F8A400B2
:1057C000A069002807D12069002804D10020E060EA
:1057D00086F310880025202D40F0BE800025D1F8EA
:1057E000940000902069012824D1654B1868401C62
:1057F000186086F310882022D1F8A4000CE0066916
:10580000012E03D1866A964200D2826AC06AD1F81C
:10581000A460B04200D100200028F0D1EFF3108640
:1058200072B61868401E1860C1F89C200098824229
:1058300000D20092E069022811D3206901280ED11C
:105840004F4F3868401C386086F31088200000F005
:1058500093F9EFF3108672B63868401E3860A0697D
:1058600000281ED1464D2868401C286086F3108809
:105870002020A062E068C06A0099884203D00099A5
:10588000E06800F001F9EFF3108072B62968491E54
:1058900029600021E16080F3108800F02FFA0025D4
:1058A0005AE0A7692069012804D1E568F86A6061B7
:1058B0002020A062D7F8A000002804D1C7F8A44097
:1058C000E462246306E0D7F8A4100A6B0C63D46288
:1058D0002263E162401CC7F8A0000120A060E760DD
:1058E000E069401EE061E069002802D10020A0616B
:1058F00004E0386FA061796F416708670020B866DF
:105900000020C7F884001E480168491C016086F326
:1059100010882069012817D1E06900280CD02000E8
:1059200000F02AF9EFF3108172B6A069002801D0C7
:10593000C06AA06281F31088E86A0099884203D0A7
:105940000099280000F0A0F8380000F038FA00258F
:1059500002E086F310881E252800F2BD486500206D
:105960004C65002024040020D4640020041000E0D2
:10597000446500204065002034650020506500200B
:10598000F064002010B5EFF3108472B6044A116879
:10599000002901D01168884784F3108810BD00BF2A
:1059A000FC64002070B4EFF3108372B6002833D08B
:1059B0001B4D0168A9422FD1C268002A2CD0D0F813
:1059C000A810002928D083F310888B1A9B105B083D
:1059D00002EB83042668B6F1EF3F01D0210000E01E
:1059E0002200022BF1D22168B1F1EF3F01D1241D39
:1059F000F9E7EFF3108372B60168A9420CD1C168D0
:105A0000A14209D2D0F8A8108C4205D22168B1F188
:105A1000EF3F01D0C0F8A84083F3108870BC7047F6
:105A2000445248540268002A27D012F1010F24D0B2
:105A30008169002921D1212A01D31F2200E0521EB1
:105A40000E49096801EB82020D490B689A4206D3A0
:105A50000968521A92100B49096801EB8202116819
:105A6000002903D100614061106005E011684B69B5
:105A700018614861016143618261704710650020CF
:105A80000C650020086500202DE9F04104000D00A0
:105A9000EFF3108172B6206B00280CD0E562D4F8C9
:105AA0009800A84203D2D4F89800E06300E0E563D0
:105AB00081F3108855E02C4E3768D4F82C802B48A1
:105AC0000268921C0260032020630120A063002072
:105AD000E06481F310882000FFF743FAEFF31080B1
